{
  "fileName": "PropsRewards.sol",
  "contractName": "PropsRewards",
  "source": "pragma solidity ^0.5.0;\n\n// import \"node_modules/@openzeppelin/contracts/token/ERC20.sol\";\nimport \"@openzeppelin/contracts-ethereum-package/contracts/math/SafeMath.sol\";\nimport \"@openzeppelin/contracts-ethereum-package/contracts/token/ERC20/ERC20.sol\";\nimport \"@openzeppelin/contracts-ethereum-package/contracts/token/ERC20/ERC20Detailed.sol\";\nimport \"@openzeppelin/contracts-ethereum-package/contracts/ownership/Ownable.sol\";\n// import \"@openzeppelin/contracts/access/AccessControl.sol\";\nimport \"@openzeppelin/upgrades/contracts/Initializable.sol\";\nimport \"./IPropsToken.sol\";\nimport { PropsRewardsLib } from \"./PropsRewardsLib.sol\";\n\n/**\n * @title Staking PROPS Token\n * @dev Staking PROPS token contract\n * sPROPS are divisible by 1e18 base\n * units referred to as 'AttosPROPS'.\n *\n * sPROPS are displayed using 18 decimal places of precision.\n *\n * 1 sPROPS is equivalent to:\n *   1 * 1e18 == 1e18 == One Quintillion AttosPROPS\n *\n *\n\n */\n\ncontract PropsRewards is Initializable, ERC20, ERC20Detailed, Ownable { /* AccessControl {*/\n    using SafeMath for uint256;\n\n    event DailyRewardsSubmitted(\n        uint256 indexed rewardsDay,\n        bytes32 indexed rewardsHash,\n        address indexed validator\n    );\n\n    event DailyRewardsApplicationsMinted(\n        uint256 indexed rewardsDay,\n        bytes32 indexed rewardsHash,\n        uint256 numOfApplications,\n        uint256 amount\n    );\n\n    event DailyRewardsValidatorsMinted(\n        uint256 indexed rewardsDay,\n        bytes32 indexed rewardsHash,\n        uint256 numOfValidators,\n        uint256 amount\n    );\n\n    event EntityUpdated(\n        address indexed id,\n        PropsRewardsLib.RewardedEntityType indexed entityType,\n        bytes32 name,\n        address rewardsAddress,\n        address indexed sidechainAddress\n    );\n\n    event ParameterUpdated(\n        PropsRewardsLib.ParameterName param,\n        uint256 newValue,\n        uint256 oldValue,\n        uint256 rewardsDay\n    );\n\n    event ValidatorsListUpdated(\n        address[] validatorsList,\n        uint256 indexed rewardsDay\n    );\n\n    event ApplicationsListUpdated(\n        address[] applicationsList,\n        uint256 indexed rewardsDay\n    );\n\n    event Settlement(\n        address indexed applicationId,\n        bytes32 indexed userId,\n        address indexed to,\n        uint256 amount,\n        address rewardsAddress\n    );\n\n    event Stake(\n        address indexed wallet,\n        uint256 indexed rewardsDay,\n        uint256 amount,\n        uint256 interestRate\n    );\n\n    event Unstake(\n        address indexed wallet,\n        uint256 indexed rewardsDay,\n        uint256 amount,\n        uint256 interestGained\n    );\n\n    event Withdraw(\n        address indexed wallet,\n        uint256 indexed rewardsDay,\n        uint256 amount,\n        uint256 interestCollected\n    );\n\n    /*\n    *  Structs\n    */\n\n    // Represents an application user\n    struct ApplicationUser {\n        address appId;\n        bytes32 userId;\n    }\n\n    struct UnstakeData {\n        uint256 stakeRewardsDay;\n        uint256 unstakeRewardsDay;\n        uint256 amount;\n        uint256 interestOwed;\n        uint256 interestRate; //in pphm\n    }\n\n\n    /*\n    *  Storage\n    */\n\n    PropsRewardsLib.Data internal rewardsLibData;\n    uint256 public maxTotalSupply;\n    uint256 public rewardsStartTimestamp;\n    uint256 public secondsBetweenDays; // for test networks the option to make each rewards day shorter\n    address public tokenContract;\n    address public identityContract;\n    mapping (address => UnstakeData) stakingMap;\n    // bytes32 public constant OWNER_ROLE = keccak256(\"OWNER_ROLE\");\n    // bytes32 public constant VALIDATOR_ROLE = keccak256(\"VALIDATOR_ROLE\");\n    // bytes32 public constant APPLICATION_ROLE = keccak256(\"APPLICATION_ROLE\");\n\n    /**\n    * @dev Initializer function. Called only once when a proxy for the contract is created.\n    * @param _admin address that will act as the admin role\n    * @param _tokenContract address of the props token contract\n    * @param _identityContract address of the identity contract\n    * @param _minSecondsBetweenDays uint256 seconds required to pass between consecutive rewards day\n    * @param _rewardsStartTimestamp uint256 day 0 timestamp\n    */\n    function initialize(\n        address _admin,\n        address _tokenContract,\n        address _identityContract,\n        uint256 _minSecondsBetweenDays,\n        uint256 _rewardsStartTimestamp\n    )\n    public\n    initializer\n    {\n        // _setupDecimals(18);\n        // _setupRole(DEFAULT_ADMIN_ROLE, _admin);\n        uint8 decimals = 18;\n        tokenContract = _tokenContract;\n        identityContract = _identityContract;\n        Ownable.initialize(_admin);\n        ERC20Detailed.initialize(\"Props Staking Token\", \"sPROPS\", decimals);\n        PropsRewardsLib.updateParameter(rewardsLibData, PropsRewardsLib.ParameterName.ApplicationRewardsPercent, 34750, 0);\n        // // ApplicationRewardsMaxVariationPercent pphm ==> 150%\n        PropsRewardsLib.updateParameter(rewardsLibData, PropsRewardsLib.ParameterName.ApplicationRewardsMaxVariationPercent, 150 * 1e6, 0);\n        // // ValidatorMajorityPercent pphm ==> 50%\n        PropsRewardsLib.updateParameter(rewardsLibData, PropsRewardsLib.ParameterName.ValidatorMajorityPercent, 50 * 1e6, 0);\n        //  // ValidatorRewardsPercent pphm ==> 0.001829%\n        PropsRewardsLib.updateParameter(rewardsLibData, PropsRewardsLib.ParameterName.ValidatorRewardsPercent, 1829, 0);\n        //  // StakingInterestRate pphm ==> 0.01%\n        PropsRewardsLib.updateParameter(rewardsLibData, PropsRewardsLib.ParameterName.StakingInterestRate, 10000, 0);\n        //  // UnstakingCooldownPeriodDays days ==> 30\n        PropsRewardsLib.updateParameter(rewardsLibData, PropsRewardsLib.ParameterName.UnstakingCooldownPeriodDays, 30, 0);\n\n        // max total supply is 1,000,000,000 PROPS specified in AttoPROPS\n        rewardsLibData.maxTotalSupply = maxTotalSupply = 1 * 1e9 * (10 ** uint256(decimals));\n        rewardsLibData.rewardsStartTimestamp = rewardsStartTimestamp = _rewardsStartTimestamp;\n        rewardsLibData.minSecondsBetweenDays = secondsBetweenDays = _minSecondsBetweenDays;\n    }\n\n    /**\n    * @dev Set new validators list\n    * @param _rewardsDay uint256 the rewards day from which this change should take effect\n    * @param _validators address[] array of validators\n    */\n    function setValidators(uint256 _rewardsDay, address[] memory _validators)\n        public\n        onlyOwner\n    {\n        PropsRewardsLib.setValidators(rewardsLibData, _rewardsDay, _validators);\n        emit ValidatorsListUpdated(_validators, _rewardsDay);\n    }\n\n    /**\n    * @dev Set new applications list\n    * @param _rewardsDay uint256 the rewards day from which this change should take effect\n    * @param _applications address[] array of applications\n    */\n    function setApplications(uint256 _rewardsDay, address[] memory _applications)\n        public\n        onlyOwner\n    {\n        PropsRewardsLib.setApplications(rewardsLibData, _rewardsDay, _applications);\n        emit ApplicationsListUpdated(_applications, _rewardsDay);\n    }\n\n    /**\n    * @dev Get the applications or validators list\n    * @param _entityType RewardedEntityType either application (0) or validator (1)\n    * @param _rewardsDay uint256 the rewards day to use for this value\n    */\n    function getEntities(PropsRewardsLib.RewardedEntityType _entityType, uint256 _rewardsDay)\n        public\n        view\n        returns (address[] memory)\n    {\n        return PropsRewardsLib.getEntities(rewardsLibData, _entityType, _rewardsDay);\n    }\n\n    /**\n    * @dev The function is called by validators with the calculation of the daily rewards\n    * @param _rewardsDay uint256 the rewards day\n    * @param _rewardsHash bytes32 hash of the rewards data\n    * @param _applications address[] array of application addresses getting the daily reward\n    * @param _amounts uint256[] array of amounts each app should get\n    */\n    function submitDailyRewards(\n        uint256 _rewardsDay,\n        bytes32 _rewardsHash,\n        address[] memory _applications,\n        uint256[] memory _amounts\n    )\n        public\n    {\n        // if submission is for a new day check if previous day validator rewards were given if not give to participating ones\n        if (_rewardsDay > rewardsLibData.dailyRewards.lastApplicationsRewardsDay) {\n            uint256 previousDayValidatorRewardsAmount = PropsRewardsLib.calculateValidatorRewards(\n                rewardsLibData,\n                rewardsLibData.dailyRewards.lastApplicationsRewardsDay,\n                rewardsLibData.dailyRewards.lastConfirmedRewardsHash,\n                false\n            );\n            if (previousDayValidatorRewardsAmount > 0) {\n                _mintDailyRewardsForValidators(rewardsLibData.dailyRewards.lastApplicationsRewardsDay, rewardsLibData.dailyRewards.lastConfirmedRewardsHash, previousDayValidatorRewardsAmount);\n            }\n        }\n        // check and give application rewards if majority of validators agree\n        uint256 appRewardsSum = PropsRewardsLib.calculateAndFinalizeApplicationRewards(\n            rewardsLibData,\n            _rewardsDay,\n            _rewardsHash,\n            _applications,\n            _amounts,\n            this.totalSupply()\n        );\n        if (appRewardsSum > 0) {\n            _mintDailyRewardsForApps(_rewardsDay, _rewardsHash, _applications, _amounts, appRewardsSum);\n        }\n\n        // check and give validator rewards if all validators submitted\n        uint256 validatorRewardsAmount = PropsRewardsLib.calculateValidatorRewards(\n            rewardsLibData,\n            _rewardsDay,\n            _rewardsHash,\n            true\n        );\n        if (validatorRewardsAmount > 0) {\n            _mintDailyRewardsForValidators(_rewardsDay, _rewardsHash, validatorRewardsAmount);\n        }\n\n        emit DailyRewardsSubmitted(_rewardsDay, _rewardsHash, msg.sender);\n    }\n\n    /**\n    * @dev Allows getting a parameter value based on timestamp\n    * @param _name ParameterName name of the parameter\n    * @param _rewardsDay uint256 starting when should this parameter use the current value\n    */\n    function getParameter(\n        PropsRewardsLib.ParameterName _name,\n        uint256 _rewardsDay\n    )\n        public\n        view\n        returns (uint256)\n    {\n        return PropsRewardsLib.getParameterValue(rewardsLibData, _name, _rewardsDay);\n    }\n\n    /**\n    * @dev Allows the controller/owner to update rewards parameters\n    * @param _name ParameterName name of the parameter\n    * @param _value uint256 new value for the parameter\n    * @param _rewardsDay uint256 starting when should this parameter use the current value\n    */\n    function updateParameter(\n        PropsRewardsLib.ParameterName _name,\n        uint256 _value,\n        uint256 _rewardsDay\n    )\n        public\n        onlyOwner\n    {\n        PropsRewardsLib.updateParameter(rewardsLibData, _name, _value, _rewardsDay);\n        emit ParameterUpdated(\n            _name,\n            rewardsLibData.parameters[uint256(_name)].currentValue,\n            rewardsLibData.parameters[uint256(_name)].previousValue,\n            rewardsLibData.parameters[uint256(_name)].rewardsDay\n        );\n    }\n\n    /**\n    * @dev Allows an application or validator to add/update its details\n    * @param _entityType RewardedEntityType either application (0) or validator (1)\n    * @param _name bytes32 name of the app\n    * @param _rewardsAddress address an address for the app to receive the rewards\n    * @param _sidechainAddress address the address used for using the sidechain\n    */\n    function updateEntity(\n        PropsRewardsLib.RewardedEntityType _entityType,\n        bytes32 _name,\n        address _rewardsAddress,\n        address _sidechainAddress\n    )\n        public\n    {\n        PropsRewardsLib.updateEntity(rewardsLibData, _entityType, _name, _rewardsAddress, _sidechainAddress);\n        emit EntityUpdated(msg.sender, _entityType, _name, _rewardsAddress, _sidechainAddress);\n    }\n\n    /**\n    * @dev Allows a wallet to stake props.\n    * @param _amount uint256 amount to be staked\n    * @param v uint8 valid secp256k1 signature\n    * @param r bytes32 valid secp256k1 signature\n    * @param s bytes32 valid secp256k1 signature\n    */\n    function stake(\n        uint256 _amount,\n        uint8 v,\n        bytes32 r,\n        bytes32 s\n    )\n        public\n    {\n        uint256 amountToStake = _amount;\n        uint256 rewardsDay = PropsRewardsLib._currentRewardsDay(rewardsLibData);\n        IPropsToken token = IPropsToken(tokenContract);\n        token.permit(msg.sender, address(this), _amount, uint(-1), v, r, s);\n        token.transferFrom(msg.sender, address(this), _amount);\n        stakingMap[msg.sender].stakeRewardsDay = rewardsDay;\n        stakingMap[msg.sender].unstakeRewardsDay = 0;\n        stakingMap[msg.sender].interestRate = getParameter(PropsRewardsLib.ParameterName.StakingInterestRate, rewardsDay);\n        if (stakingMap[msg.sender].amount > 0) {\n            amountToStake = amountToStake.add(stakingMap[msg.sender].amount);\n            amountToStake = amountToStake.add(stakingMap[msg.sender].interestOwed);\n        }\n        _mint(msg.sender, amountToStake);\n\n        emit Stake(msg.sender, rewardsDay, amountToStake, stakingMap[msg.sender].interestRate);\n    }\n\n    /**\n    * @dev Allows a user to unstake props.\n    * @param _amount uint256 amount to unstake\n    */\n    function unstake(\n        uint256 _amount\n    )\n        public\n    {\n        uint256 principal = balanceOf(msg.sender);\n        require(\n            principal >= _amount,\n            \"Cannot unstake more than what was staked\"\n        );\n        uint256 rewardsDay = PropsRewardsLib._currentRewardsDay(rewardsLibData);\n        uint256 daysStaked = rewardsDay.sub(stakingMap[msg.sender].stakeRewardsDay);\n        //Daily Compound Interest = [Start Amount * (1 + (Interest Rate / 365)) ^ (n * 365)] – Start Amount\n        uint256 interestGained = principal.mul(\n            (1 + stakingMap[msg.sender].interestRate.div(1e16).div(365))**(daysStaked*365)\n        ).sub(principal);\n        stakingMap[msg.sender].unstakeRewardsDay = rewardsDay;\n        stakingMap[msg.sender].amount = stakingMap[msg.sender].amount.add(_amount);\n        stakingMap[msg.sender].interestOwed = stakingMap[msg.sender].interestOwed.add(interestGained);\n        _burn(msg.sender, _amount);\n\n        emit Unstake(msg.sender, rewardsDay, _amount, interestGained);\n    }\n\n    /**\n    * @dev Allows a user to unstake props.\n    */\n    function withdraw()\n        public\n    {\n        require(\n            stakingMap[msg.sender].amount > 0,\n            \"Cannot withdraw nothing to withdraw\"\n        );\n        uint256 rewardsDay = PropsRewardsLib._currentRewardsDay(rewardsLibData);\n        require(\n            rewardsDay.sub(stakingMap[msg.sender].unstakeRewardsDay) > getParameter(PropsRewardsLib.ParameterName.UnstakingCooldownPeriodDays, rewardsDay),\n            \"Cannot withdraw before cooldown period is over\"\n        );\n        IPropsToken token = IPropsToken(tokenContract);\n        token.mint(address(this), stakingMap[msg.sender].interestOwed);\n        token.transfer(msg.sender, stakingMap[msg.sender].amount.add(stakingMap[msg.sender].interestOwed));\n        stakingMap[msg.sender].amount = 0;\n        stakingMap[msg.sender].interestOwed = 0;\n\n        emit Withdraw(msg.sender, rewardsDay, stakingMap[msg.sender].amount, stakingMap[msg.sender].interestOwed);\n    }\n\n    /**\n    * @dev Allows an application to settle sidechain props. Should be called from an application rewards address\n    * @param _applicationAddress address the application main address (used to setup the application)\n    * @param _userId bytes32 identification of the user on the sidechain that was settled\n    * @param _to address where to send the props to\n    * @param _amount uint256 the address used for using the sidechain\n    * @param v uint8 valid secp256k1 signature\n    * @param r bytes32 valid secp256k1 signature\n    * @param s bytes32 valid secp256k1 signature\n    */\n    function settle(\n        address _applicationAddress,\n        bytes32 _userId,\n        address _to,\n        uint256 _amount,\n        uint8 v,\n        bytes32 r,\n        bytes32 s\n    )\n        public\n    {\n        require(\n            rewardsLibData.applications[_applicationAddress].rewardsAddress == msg.sender,\n            \"settle may only be called by an application\"\n        );\n        //TODO: change this function to use the tokenContract and use permit and transferFrom\n        IPropsToken token = IPropsToken(tokenContract);\n        token.permit(_applicationAddress, _to, _amount, uint(-1), v, r, s);\n        token.transferFrom(_applicationAddress, _to, _amount);\n        emit Settlement(_applicationAddress, _userId, _to, _amount, msg.sender);\n    }\n\n    /**\n    * @dev Mint rewards for validators\n    * @param _rewardsDay uint256 the rewards day\n    * @param _rewardsHash bytes32 hash of the rewards data\n    * @param _amount uint256 amount each validator should get\n    */\n    function _mintDailyRewardsForValidators(uint256 _rewardsDay, bytes32 _rewardsHash, uint256 _amount)\n        internal\n    {\n        IPropsToken token = IPropsToken(tokenContract);\n        uint256 validatorsCount = rewardsLibData.dailyRewards.submissions[_rewardsHash].validatorsList.length;\n        for (uint256 i = 0; i < validatorsCount; i++) {\n            token.mint(\n                rewardsLibData.validators[rewardsLibData.dailyRewards.submissions[_rewardsHash].validatorsList[i]].rewardsAddress,\n                _amount\n            );\n        }\n        PropsRewardsLib._resetDailyRewards(rewardsLibData, _rewardsHash);\n        emit DailyRewardsValidatorsMinted(\n            _rewardsDay,\n            _rewardsHash,\n            validatorsCount,\n            (_amount * validatorsCount)\n        );\n    }\n\n    /**\n    * @dev Mint rewards for apps\n    * @param _rewardsDay uint256 the rewards day\n    * @param _rewardsHash bytes32 hash of the rewards data\n    * @param _applications address[] array of application addresses getting the daily reward\n    * @param _amounts uint256[] array of amounts each app should get\n    * @param _sum uint256 the sum of all application rewards given\n    */\n    function _mintDailyRewardsForApps(\n        uint256 _rewardsDay,\n        bytes32 _rewardsHash,\n        address[] memory _applications,\n        uint256[] memory _amounts,\n        uint256 _sum\n    )\n        internal\n    {\n        IPropsToken token = IPropsToken(tokenContract);\n        for (uint256 i = 0; i < _applications.length; i++) {\n            token.mint(rewardsLibData.applications[_applications[i]].rewardsAddress, _amounts[i]);\n        }\n        emit DailyRewardsApplicationsMinted(_rewardsDay, _rewardsHash, _applications.length, _sum);\n    }\n\n}",
  "sourcePath": "contracts/PropsRewards.sol",
  "abi": [
    {
      "anonymous": false,
      "inputs": [
        {
          "indexed": false,
          "internalType": "address[]",
          "name": "applicationsList",
          "type": "address[]"
        },
        {
          "indexed": true,
          "internalType": "uint256",
          "name": "rewardsDay",
          "type": "uint256"
        }
      ],
      "name": "ApplicationsListUpdated",
      "type": "event"
    },
    {
      "anonymous": false,
      "inputs": [
        {
          "indexed": true,
          "internalType": "address",
          "name": "owner",
          "type": "address"
        },
        {
          "indexed": true,
          "internalType": "address",
          "name": "spender",
          "type": "address"
        },
        {
          "indexed": false,
          "internalType": "uint256",
          "name": "value",
          "type": "uint256"
        }
      ],
      "name": "Approval",
      "type": "event"
    },
    {
      "anonymous": false,
      "inputs": [
        {
          "indexed": true,
          "internalType": "uint256",
          "name": "rewardsDay",
          "type": "uint256"
        },
        {
          "indexed": true,
          "internalType": "bytes32",
          "name": "rewardsHash",
          "type": "bytes32"
        },
        {
          "indexed": false,
          "internalType": "uint256",
          "name": "numOfApplications",
          "type": "uint256"
        },
        {
          "indexed": false,
          "internalType": "uint256",
          "name": "amount",
          "type": "uint256"
        }
      ],
      "name": "DailyRewardsApplicationsMinted",
      "type": "event"
    },
    {
      "anonymous": false,
      "inputs": [
        {
          "indexed": true,
          "internalType": "uint256",
          "name": "rewardsDay",
          "type": "uint256"
        },
        {
          "indexed": true,
          "internalType": "bytes32",
          "name": "rewardsHash",
          "type": "bytes32"
        },
        {
          "indexed": true,
          "internalType": "address",
          "name": "validator",
          "type": "address"
        }
      ],
      "name": "DailyRewardsSubmitted",
      "type": "event"
    },
    {
      "anonymous": false,
      "inputs": [
        {
          "indexed": true,
          "internalType": "uint256",
          "name": "rewardsDay",
          "type": "uint256"
        },
        {
          "indexed": true,
          "internalType": "bytes32",
          "name": "rewardsHash",
          "type": "bytes32"
        },
        {
          "indexed": false,
          "internalType": "uint256",
          "name": "numOfValidators",
          "type": "uint256"
        },
        {
          "indexed": false,
          "internalType": "uint256",
          "name": "amount",
          "type": "uint256"
        }
      ],
      "name": "DailyRewardsValidatorsMinted",
      "type": "event"
    },
    {
      "anonymous": false,
      "inputs": [
        {
          "indexed": true,
          "internalType": "address",
          "name": "id",
          "type": "address"
        },
        {
          "indexed": true,
          "internalType": "enum PropsRewardsLib.RewardedEntityType",
          "name": "entityType",
          "type": "uint8"
        },
        {
          "indexed": false,
          "internalType": "bytes32",
          "name": "name",
          "type": "bytes32"
        },
        {
          "indexed": false,
          "internalType": "address",
          "name": "rewardsAddress",
          "type": "address"
        },
        {
          "indexed": true,
          "internalType": "address",
          "name": "sidechainAddress",
          "type": "address"
        }
      ],
      "name": "EntityUpdated",
      "type": "event"
    },
    {
      "anonymous": false,
      "inputs": [
        {
          "indexed": true,
          "internalType": "address",
          "name": "previousOwner",
          "type": "address"
        },
        {
          "indexed": true,
          "internalType": "address",
          "name": "newOwner",
          "type": "address"
        }
      ],
      "name": "OwnershipTransferred",
      "type": "event"
    },
    {
      "anonymous": false,
      "inputs": [
        {
          "indexed": false,
          "internalType": "enum PropsRewardsLib.ParameterName",
          "name": "param",
          "type": "uint8"
        },
        {
          "indexed": false,
          "internalType": "uint256",
          "name": "newValue",
          "type": "uint256"
        },
        {
          "indexed": false,
          "internalType": "uint256",
          "name": "oldValue",
          "type": "uint256"
        },
        {
          "indexed": false,
          "internalType": "uint256",
          "name": "rewardsDay",
          "type": "uint256"
        }
      ],
      "name": "ParameterUpdated",
      "type": "event"
    },
    {
      "anonymous": false,
      "inputs": [
        {
          "indexed": true,
          "internalType": "address",
          "name": "applicationId",
          "type": "address"
        },
        {
          "indexed": true,
          "internalType": "bytes32",
          "name": "userId",
          "type": "bytes32"
        },
        {
          "indexed": true,
          "internalType": "address",
          "name": "to",
          "type": "address"
        },
        {
          "indexed": false,
          "internalType": "uint256",
          "name": "amount",
          "type": "uint256"
        },
        {
          "indexed": false,
          "internalType": "address",
          "name": "rewardsAddress",
          "type": "address"
        }
      ],
      "name": "Settlement",
      "type": "event"
    },
    {
      "anonymous": false,
      "inputs": [
        {
          "indexed": true,
          "internalType": "address",
          "name": "wallet",
          "type": "address"
        },
        {
          "indexed": true,
          "internalType": "uint256",
          "name": "rewardsDay",
          "type": "uint256"
        },
        {
          "indexed": false,
          "internalType": "uint256",
          "name": "amount",
          "type": "uint256"
        },
        {
          "indexed": false,
          "internalType": "uint256",
          "name": "interestRate",
          "type": "uint256"
        }
      ],
      "name": "Stake",
      "type": "event"
    },
    {
      "anonymous": false,
      "inputs": [
        {
          "indexed": true,
          "internalType": "address",
          "name": "from",
          "type": "address"
        },
        {
          "indexed": true,
          "internalType": "address",
          "name": "to",
          "type": "address"
        },
        {
          "indexed": false,
          "internalType": "uint256",
          "name": "value",
          "type": "uint256"
        }
      ],
      "name": "Transfer",
      "type": "event"
    },
    {
      "anonymous": false,
      "inputs": [
        {
          "indexed": true,
          "internalType": "address",
          "name": "wallet",
          "type": "address"
        },
        {
          "indexed": true,
          "internalType": "uint256",
          "name": "rewardsDay",
          "type": "uint256"
        },
        {
          "indexed": false,
          "internalType": "uint256",
          "name": "amount",
          "type": "uint256"
        },
        {
          "indexed": false,
          "internalType": "uint256",
          "name": "interestGained",
          "type": "uint256"
        }
      ],
      "name": "Unstake",
      "type": "event"
    },
    {
      "anonymous": false,
      "inputs": [
        {
          "indexed": false,
          "internalType": "address[]",
          "name": "validatorsList",
          "type": "address[]"
        },
        {
          "indexed": true,
          "internalType": "uint256",
          "name": "rewardsDay",
          "type": "uint256"
        }
      ],
      "name": "ValidatorsListUpdated",
      "type": "event"
    },
    {
      "anonymous": false,
      "inputs": [
        {
          "indexed": true,
          "internalType": "address",
          "name": "wallet",
          "type": "address"
        },
        {
          "indexed": true,
          "internalType": "uint256",
          "name": "rewardsDay",
          "type": "uint256"
        },
        {
          "indexed": false,
          "internalType": "uint256",
          "name": "amount",
          "type": "uint256"
        },
        {
          "indexed": false,
          "internalType": "uint256",
          "name": "interestCollected",
          "type": "uint256"
        }
      ],
      "name": "Withdraw",
      "type": "event"
    },
    {
      "constant": true,
      "inputs": [
        {
          "internalType": "address",
          "name": "owner",
          "type": "address"
        },
        {
          "internalType": "address",
          "name": "spender",
          "type": "address"
        }
      ],
      "name": "allowance",
      "outputs": [
        {
          "internalType": "uint256",
          "name": "",
          "type": "uint256"
        }
      ],
      "payable": false,
      "stateMutability": "view",
      "type": "function"
    },
    {
      "constant": false,
      "inputs": [
        {
          "internalType": "address",
          "name": "spender",
          "type": "address"
        },
        {
          "internalType": "uint256",
          "name": "amount",
          "type": "uint256"
        }
      ],
      "name": "approve",
      "outputs": [
        {
          "internalType": "bool",
          "name": "",
          "type": "bool"
        }
      ],
      "payable": false,
      "stateMutability": "nonpayable",
      "type": "function"
    },
    {
      "constant": true,
      "inputs": [
        {
          "internalType": "address",
          "name": "account",
          "type": "address"
        }
      ],
      "name": "balanceOf",
      "outputs": [
        {
          "internalType": "uint256",
          "name": "",
          "type": "uint256"
        }
      ],
      "payable": false,
      "stateMutability": "view",
      "type": "function"
    },
    {
      "constant": true,
      "inputs": [],
      "name": "decimals",
      "outputs": [
        {
          "internalType": "uint8",
          "name": "",
          "type": "uint8"
        }
      ],
      "payable": false,
      "stateMutability": "view",
      "type": "function"
    },
    {
      "constant": false,
      "inputs": [
        {
          "internalType": "address",
          "name": "spender",
          "type": "address"
        },
        {
          "internalType": "uint256",
          "name": "subtractedValue",
          "type": "uint256"
        }
      ],
      "name": "decreaseAllowance",
      "outputs": [
        {
          "internalType": "bool",
          "name": "",
          "type": "bool"
        }
      ],
      "payable": false,
      "stateMutability": "nonpayable",
      "type": "function"
    },
    {
      "constant": true,
      "inputs": [
        {
          "internalType": "enum PropsRewardsLib.RewardedEntityType",
          "name": "_entityType",
          "type": "uint8"
        },
        {
          "internalType": "uint256",
          "name": "_rewardsDay",
          "type": "uint256"
        }
      ],
      "name": "getEntities",
      "outputs": [
        {
          "internalType": "address[]",
          "name": "",
          "type": "address[]"
        }
      ],
      "payable": false,
      "stateMutability": "view",
      "type": "function"
    },
    {
      "constant": true,
      "inputs": [
        {
          "internalType": "enum PropsRewardsLib.ParameterName",
          "name": "_name",
          "type": "uint8"
        },
        {
          "internalType": "uint256",
          "name": "_rewardsDay",
          "type": "uint256"
        }
      ],
      "name": "getParameter",
      "outputs": [
        {
          "internalType": "uint256",
          "name": "",
          "type": "uint256"
        }
      ],
      "payable": false,
      "stateMutability": "view",
      "type": "function"
    },
    {
      "constant": true,
      "inputs": [],
      "name": "identityContract",
      "outputs": [
        {
          "internalType": "address",
          "name": "",
          "type": "address"
        }
      ],
      "payable": false,
      "stateMutability": "view",
      "type": "function"
    },
    {
      "constant": false,
      "inputs": [
        {
          "internalType": "address",
          "name": "spender",
          "type": "address"
        },
        {
          "internalType": "uint256",
          "name": "addedValue",
          "type": "uint256"
        }
      ],
      "name": "increaseAllowance",
      "outputs": [
        {
          "internalType": "bool",
          "name": "",
          "type": "bool"
        }
      ],
      "payable": false,
      "stateMutability": "nonpayable",
      "type": "function"
    },
    {
      "constant": false,
      "inputs": [
        {
          "internalType": "string",
          "name": "name",
          "type": "string"
        },
        {
          "internalType": "string",
          "name": "symbol",
          "type": "string"
        },
        {
          "internalType": "uint8",
          "name": "decimals",
          "type": "uint8"
        }
      ],
      "name": "initialize",
      "outputs": [],
      "payable": false,
      "stateMutability": "nonpayable",
      "type": "function"
    },
    {
      "constant": false,
      "inputs": [
        {
          "internalType": "address",
          "name": "_admin",
          "type": "address"
        },
        {
          "internalType": "address",
          "name": "_tokenContract",
          "type": "address"
        },
        {
          "internalType": "address",
          "name": "_identityContract",
          "type": "address"
        },
        {
          "internalType": "uint256",
          "name": "_minSecondsBetweenDays",
          "type": "uint256"
        },
        {
          "internalType": "uint256",
          "name": "_rewardsStartTimestamp",
          "type": "uint256"
        }
      ],
      "name": "initialize",
      "outputs": [],
      "payable": false,
      "stateMutability": "nonpayable",
      "type": "function"
    },
    {
      "constant": false,
      "inputs": [
        {
          "internalType": "address",
          "name": "sender",
          "type": "address"
        }
      ],
      "name": "initialize",
      "outputs": [],
      "payable": false,
      "stateMutability": "nonpayable",
      "type": "function"
    },
    {
      "constant": true,
      "inputs": [],
      "name": "isOwner",
      "outputs": [
        {
          "internalType": "bool",
          "name": "",
          "type": "bool"
        }
      ],
      "payable": false,
      "stateMutability": "view",
      "type": "function"
    },
    {
      "constant": true,
      "inputs": [],
      "name": "maxTotalSupply",
      "outputs": [
        {
          "internalType": "uint256",
          "name": "",
          "type": "uint256"
        }
      ],
      "payable": false,
      "stateMutability": "view",
      "type": "function"
    },
    {
      "constant": true,
      "inputs": [],
      "name": "name",
      "outputs": [
        {
          "internalType": "string",
          "name": "",
          "type": "string"
        }
      ],
      "payable": false,
      "stateMutability": "view",
      "type": "function"
    },
    {
      "constant": true,
      "inputs": [],
      "name": "owner",
      "outputs": [
        {
          "internalType": "address",
          "name": "",
          "type": "address"
        }
      ],
      "payable": false,
      "stateMutability": "view",
      "type": "function"
    },
    {
      "constant": false,
      "inputs": [],
      "name": "renounceOwnership",
      "outputs": [],
      "payable": false,
      "stateMutability": "nonpayable",
      "type": "function"
    },
    {
      "constant": true,
      "inputs": [],
      "name": "rewardsStartTimestamp",
      "outputs": [
        {
          "internalType": "uint256",
          "name": "",
          "type": "uint256"
        }
      ],
      "payable": false,
      "stateMutability": "view",
      "type": "function"
    },
    {
      "constant": true,
      "inputs": [],
      "name": "secondsBetweenDays",
      "outputs": [
        {
          "internalType": "uint256",
          "name": "",
          "type": "uint256"
        }
      ],
      "payable": false,
      "stateMutability": "view",
      "type": "function"
    },
    {
      "constant": false,
      "inputs": [
        {
          "internalType": "uint256",
          "name": "_rewardsDay",
          "type": "uint256"
        },
        {
          "internalType": "address[]",
          "name": "_applications",
          "type": "address[]"
        }
      ],
      "name": "setApplications",
      "outputs": [],
      "payable": false,
      "stateMutability": "nonpayable",
      "type": "function"
    },
    {
      "constant": false,
      "inputs": [
        {
          "internalType": "uint256",
          "name": "_rewardsDay",
          "type": "uint256"
        },
        {
          "internalType": "address[]",
          "name": "_validators",
          "type": "address[]"
        }
      ],
      "name": "setValidators",
      "outputs": [],
      "payable": false,
      "stateMutability": "nonpayable",
      "type": "function"
    },
    {
      "constant": false,
      "inputs": [
        {
          "internalType": "address",
          "name": "_applicationAddress",
          "type": "address"
        },
        {
          "internalType": "bytes32",
          "name": "_userId",
          "type": "bytes32"
        },
        {
          "internalType": "address",
          "name": "_to",
          "type": "address"
        },
        {
          "internalType": "uint256",
          "name": "_amount",
          "type": "uint256"
        },
        {
          "internalType": "uint8",
          "name": "v",
          "type": "uint8"
        },
        {
          "internalType": "bytes32",
          "name": "r",
          "type": "bytes32"
        },
        {
          "internalType": "bytes32",
          "name": "s",
          "type": "bytes32"
        }
      ],
      "name": "settle",
      "outputs": [],
      "payable": false,
      "stateMutability": "nonpayable",
      "type": "function"
    },
    {
      "constant": false,
      "inputs": [
        {
          "internalType": "uint256",
          "name": "_amount",
          "type": "uint256"
        },
        {
          "internalType": "uint8",
          "name": "v",
          "type": "uint8"
        },
        {
          "internalType": "bytes32",
          "name": "r",
          "type": "bytes32"
        },
        {
          "internalType": "bytes32",
          "name": "s",
          "type": "bytes32"
        }
      ],
      "name": "stake",
      "outputs": [],
      "payable": false,
      "stateMutability": "nonpayable",
      "type": "function"
    },
    {
      "constant": false,
      "inputs": [
        {
          "internalType": "uint256",
          "name": "_rewardsDay",
          "type": "uint256"
        },
        {
          "internalType": "bytes32",
          "name": "_rewardsHash",
          "type": "bytes32"
        },
        {
          "internalType": "address[]",
          "name": "_applications",
          "type": "address[]"
        },
        {
          "internalType": "uint256[]",
          "name": "_amounts",
          "type": "uint256[]"
        }
      ],
      "name": "submitDailyRewards",
      "outputs": [],
      "payable": false,
      "stateMutability": "nonpayable",
      "type": "function"
    },
    {
      "constant": true,
      "inputs": [],
      "name": "symbol",
      "outputs": [
        {
          "internalType": "string",
          "name": "",
          "type": "string"
        }
      ],
      "payable": false,
      "stateMutability": "view",
      "type": "function"
    },
    {
      "constant": true,
      "inputs": [],
      "name": "tokenContract",
      "outputs": [
        {
          "internalType": "address",
          "name": "",
          "type": "address"
        }
      ],
      "payable": false,
      "stateMutability": "view",
      "type": "function"
    },
    {
      "constant": true,
      "inputs": [],
      "name": "totalSupply",
      "outputs": [
        {
          "internalType": "uint256",
          "name": "",
          "type": "uint256"
        }
      ],
      "payable": false,
      "stateMutability": "view",
      "type": "function"
    },
    {
      "constant": false,
      "inputs": [
        {
          "internalType": "address",
          "name": "recipient",
          "type": "address"
        },
        {
          "internalType": "uint256",
          "name": "amount",
          "type": "uint256"
        }
      ],
      "name": "transfer",
      "outputs": [
        {
          "internalType": "bool",
          "name": "",
          "type": "bool"
        }
      ],
      "payable": false,
      "stateMutability": "nonpayable",
      "type": "function"
    },
    {
      "constant": false,
      "inputs": [
        {
          "internalType": "address",
          "name": "sender",
          "type": "address"
        },
        {
          "internalType": "address",
          "name": "recipient",
          "type": "address"
        },
        {
          "internalType": "uint256",
          "name": "amount",
          "type": "uint256"
        }
      ],
      "name": "transferFrom",
      "outputs": [
        {
          "internalType": "bool",
          "name": "",
          "type": "bool"
        }
      ],
      "payable": false,
      "stateMutability": "nonpayable",
      "type": "function"
    },
    {
      "constant": false,
      "inputs": [
        {
          "internalType": "address",
          "name": "newOwner",
          "type": "address"
        }
      ],
      "name": "transferOwnership",
      "outputs": [],
      "payable": false,
      "stateMutability": "nonpayable",
      "type": "function"
    },
    {
      "constant": false,
      "inputs": [
        {
          "internalType": "uint256",
          "name": "_amount",
          "type": "uint256"
        }
      ],
      "name": "unstake",
      "outputs": [],
      "payable": false,
      "stateMutability": "nonpayable",
      "type": "function"
    },
    {
      "constant": false,
      "inputs": [
        {
          "internalType": "enum PropsRewardsLib.RewardedEntityType",
          "name": "_entityType",
          "type": "uint8"
        },
        {
          "internalType": "bytes32",
          "name": "_name",
          "type": "bytes32"
        },
        {
          "internalType": "address",
          "name": "_rewardsAddress",
          "type": "address"
        },
        {
          "internalType": "address",
          "name": "_sidechainAddress",
          "type": "address"
        }
      ],
      "name": "updateEntity",
      "outputs": [],
      "payable": false,
      "stateMutability": "nonpayable",
      "type": "function"
    },
    {
      "constant": false,
      "inputs": [
        {
          "internalType": "enum PropsRewardsLib.ParameterName",
          "name": "_name",
          "type": "uint8"
        },
        {
          "internalType": "uint256",
          "name": "_value",
          "type": "uint256"
        },
        {
          "internalType": "uint256",
          "name": "_rewardsDay",
          "type": "uint256"
        }
      ],
      "name": "updateParameter",
      "outputs": [],
      "payable": false,
      "stateMutability": "nonpayable",
      "type": "function"
    },
    {
      "constant": false,
      "inputs": [],
      "name": "withdraw",
      "outputs": [],
      "payable": false,
      "stateMutability": "nonpayable",
      "type": "function"
    }
  ],
  "bytecode": "0x60806040526153b3806100136000396000f3fe608060405234801561001057600080fd5b50600436106102065760003560e01c80636430e0e91161011a57806396e88327116100ad578063b29167891161007c578063b291678914610d6c578063c4d66de814610e05578063dd62ed3e14610e49578063e795594d14610ec1578063f2fde38b14610f8357610206565b806396e8832714610b8d578063a457c2d714610c08578063a6b63eb814610c6e578063a9059cbb14610d0657610206565b80637492fdda116100e95780637492fdda146109dc5780638da5cb5b14610a9e5780638f32d59b14610ae857806395d89b4114610b0a57610206565b80636430e0e9146108e157806367031bae1461093057806370a082311461097a578063715018a6146109d257610206565b80632ab4d0521161019d5780633ccfd60b1161016c5780633ccfd60b146106c05780634f92caf8146106ca57806355a373d61461071957806357ece4bc1461076357806363568502146108c357610206565b80632ab4d052146105ea5780632e17de7814610608578063313ce56714610636578063395093511461065a57610206565b806316266300116101d957806316266300146104e357806318160ddd146105285780631aa770a01461054657806323b872dd1461056457610206565b806306fdde031461020b578063095ea7b31461028e578063098bfa9f146102f45780631624f6c614610384575b600080fd5b610213610fc7565b6040518080602001828103825283818151815260200191508051906020019080838360005b83811015610253578082015181840152602081019050610238565b50505050905090810190601f1680156102805780820380516001836020036101000a031916815260200191505b509250505060405180910390f35b6102da600480360360408110156102a457600080fd5b81019080803573ffffffffffffffffffffffffffffffffffffffff16906020019092919080359060200190929190505050611069565b604051808215151515815260200191505060405180910390f35b61032d6004803603604081101561030a57600080fd5b81019080803560ff16906020019092919080359060200190929190505050611087565b6040518080602001828103825283818151815260200191508051906020019060200280838360005b83811015610370578082015181840152602081019050610355565b505050509050019250505060405180910390f35b6104e16004803603606081101561039a57600080fd5b81019080803590602001906401000000008111156103b757600080fd5b8201836020820111156103c957600080fd5b803590602001918460018302840111640100000000831117156103eb57600080fd5b91908080601f016020809104026020016040519081016040528093929190818152602001838380828437600081840152601f19601f8201169050808301925050505050505091929192908035906020019064010000000081111561044e57600080fd5b82018360208201111561046057600080fd5b8035906020019184600183028401116401000000008311171561048257600080fd5b91908080601f016020809104026020016040519081016040528093929190818152602001838380828437600081840152601f19601f820116905080830192505050505050509192919290803560ff1690602001909291905050506111d4565b005b610526600480360360608110156104f957600080fd5b81019080803560ff169060200190929190803590602001909291908035906020019092919050505061131f565b005b6105306114f5565b6040518082815260200191505060405180910390f35b61054e6114ff565b6040518082815260200191505060405180910390f35b6105d06004803603606081101561057a57600080fd5b81019080803573ffffffffffffffffffffffffffffffffffffffff169060200190929190803573ffffffffffffffffffffffffffffffffffffffff16906020019092919080359060200190929190505050611505565b604051808215151515815260200191505060405180910390f35b6105f26115de565b6040518082815260200191505060405180910390f35b6106346004803603602081101561061e57600080fd5b81019080803590602001909291905050506115e4565b005b61063e6119b8565b604051808260ff1660ff16815260200191505060405180910390f35b6106a66004803603604081101561067057600080fd5b81019080803573ffffffffffffffffffffffffffffffffffffffff169060200190929190803590602001909291905050506119cf565b604051808215151515815260200191505060405180910390f35b6106c8611a82565b005b610703600480360360408110156106e057600080fd5b81019080803560ff16906020019092919080359060200190929190505050612056565b6040518082815260200191505060405180910390f35b610721612109565b604051808273ffffffffffffffffffffffffffffffffffffffff1673ffffffffffffffffffffffffffffffffffffffff16815260200191505060405180910390f35b6108c16004803603608081101561077957600080fd5b810190808035906020019092919080359060200190929190803590602001906401000000008111156107aa57600080fd5b8201836020820111156107bc57600080fd5b803590602001918460208302840111640100000000831117156107de57600080fd5b919080806020026020016040519081016040528093929190818152602001838360200280828437600081840152601f19601f8201169050808301925050505050505091929192908035906020019064010000000081111561083e57600080fd5b82018360208201111561085057600080fd5b8035906020019184602083028401116401000000008311171561087257600080fd5b919080806020026020016040519081016040528093929190818152602001838360200280828437600081840152601f19601f82011690508083019250505050505050919291929050505061212f565b005b6108cb6124ff565b6040518082815260200191505060405180910390f35b61092e600480360360808110156108f757600080fd5b8101908080359060200190929190803560ff1690602001909291908035906020019092919080359060200190929190505050612505565b005b610938612a56565b604051808273ffffffffffffffffffffffffffffffffffffffff1673ffffffffffffffffffffffffffffffffffffffff16815260200191505060405180910390f35b6109bc6004803603602081101561099057600080fd5b81019080803573ffffffffffffffffffffffffffffffffffffffff169060200190929190505050612a7c565b6040518082815260200191505060405180910390f35b6109da612ac5565b005b610a9c600480360360408110156109f257600080fd5b810190808035906020019092919080359060200190640100000000811115610a1957600080fd5b820183602082011115610a2b57600080fd5b80359060200191846020830284011164010000000083111715610a4d57600080fd5b919080806020026020016040519081016040528093929190818152602001838360200280828437600081840152601f19601f820116905080830192505050505050509192919290505050612c00565b005b610aa6612db0565b604051808273ffffffffffffffffffffffffffffffffffffffff1673ffffffffffffffffffffffffffffffffffffffff16815260200191505060405180910390f35b610af0612dda565b604051808215151515815260200191505060405180910390f35b610b12612e39565b6040518080602001828103825283818151815260200191508051906020019080838360005b83811015610b52578082015181840152602081019050610b37565b50505050905090810190601f168015610b7f5780820380516001836020036101000a031916815260200191505b509250505060405180910390f35b610c0660048036036080811015610ba357600080fd5b81019080803560ff16906020019092919080359060200190929190803573ffffffffffffffffffffffffffffffffffffffff169060200190929190803573ffffffffffffffffffffffffffffffffffffffff169060200190929190505050612edb565b005b610c5460048036036040811015610c1e57600080fd5b81019080803573ffffffffffffffffffffffffffffffffffffffff16906020019092919080359060200190929190505050613074565b604051808215151515815260200191505060405180910390f35b610d04600480360360a0811015610c8457600080fd5b81019080803573ffffffffffffffffffffffffffffffffffffffff169060200190929190803573ffffffffffffffffffffffffffffffffffffffff169060200190929190803573ffffffffffffffffffffffffffffffffffffffff1690602001909291908035906020019092919080359060200190929190505050613141565b005b610d5260048036036040811015610d1c57600080fd5b81019080803573ffffffffffffffffffffffffffffffffffffffff169060200190929190803590602001909291905050506136f4565b604051808215151515815260200191505060405180910390f35b610e03600480360360e0811015610d8257600080fd5b81019080803573ffffffffffffffffffffffffffffffffffffffff16906020019092919080359060200190929190803573ffffffffffffffffffffffffffffffffffffffff16906020019092919080359060200190929190803560ff1690602001909291908035906020019092919080359060200190929190505050613712565b005b610e4760048036036020811015610e1b57600080fd5b81019080803573ffffffffffffffffffffffffffffffffffffffff169060200190929190505050613ad6565b005b610eab60048036036040811015610e5f57600080fd5b81019080803573ffffffffffffffffffffffffffffffffffffffff169060200190929190803573ffffffffffffffffffffffffffffffffffffffff169060200190929190505050613c94565b6040518082815260200191505060405180910390f35b610f8160048036036040811015610ed757600080fd5b810190808035906020019092919080359060200190640100000000811115610efe57600080fd5b820183602082011115610f1057600080fd5b80359060200191846020830284011164010000000083111715610f3257600080fd5b919080806020026020016040519081016040528093929190818152602001838360200280828437600081840152601f19601f820116905080830192505050505050509192919290505050613d1b565b005b610fc560048036036020811015610f9957600080fd5b81019080803573ffffffffffffffffffffffffffffffffffffffff169060200190929190505050613ecb565b005b606060688054600181600116156101000203166002900480601f01602080910402602001604051908101604052809291908181526020018280546001816001161561010002031660029004801561105f5780601f106110345761010080835404028352916020019161105f565b820191906000526020600020905b81548152906001019060200180831161104257829003601f168201915b5050505050905090565b600061107d611076613f51565b8484613f59565b6001905092915050565b606073__PropsRewardsLib_______________________638993273560d085856040518463ffffffff1660e01b8152600401808481526020018360018111156110cc57fe5b60ff168152602001828152602001935050505060006040518083038186803b1580156110f757600080fd5b505af415801561110b573d6000803e3d6000fd5b505050506040513d6000823e3d601f19601f82011682018060405250602081101561113557600080fd5b810190808051604051939291908464010000000082111561115557600080fd5b8382019150602082018581111561116b57600080fd5b825186602082028301116401000000008211171561118857600080fd5b8083526020830192505050908051906020019060200280838360005b838110156111bf5780820151818401526020810190506111a4565b50505050905001604052505050905092915050565b600060019054906101000a900460ff16806111f357506111f2614150565b5b8061120a57506000809054906101000a900460ff16155b61125f576040517f08c379a000000000000000000000000000000000000000000000000000000000815260040180806020018281038252602e815260200180615294602e913960400191505060405180910390fd5b60008060019054906101000a900460ff1615905080156112af576001600060016101000a81548160ff02191690831515021790555060016000806101000a81548160ff0219169083151502179055505b83606890805190602001906112c592919061507c565b5082606990805190602001906112dc92919061507c565b5081606a60006101000a81548160ff021916908360ff16021790555080156113195760008060016101000a81548160ff0219169083151502179055505b50505050565b611327612dda565b611399576040517f08c379a00000000000000000000000000000000000000000000000000000000081526004018080602001828103825260208152602001807f4f776e61626c653a2063616c6c6572206973206e6f7420746865206f776e657281525060200191505060405180910390fd5b73__PropsRewardsLib_______________________6311cb33da60d08585856040518563ffffffff1660e01b8152600401808581526020018460058111156113dd57fe5b60ff16815260200183815260200182815260200194505050505060006040518083038186803b15801561140f57600080fd5b505af4158015611423573d6000803e3d6000fd5b505050507fd3ee560e0e71d87fde0453f24eac52dd8f01332349f8d1ef9e005d1cc3b82fb48360d0600401600086600581111561145c57fe5b81526020019081526020016000206000015460d0600401600087600581111561148157fe5b81526020019081526020016000206001015460d060040160008860058111156114a657fe5b815260200190815260200160002060020154604051808560058111156114c857fe5b60ff16815260200184815260200183815260200182815260200194505050505060405180910390a1505050565b6000603554905090565b60ea5481565b6000611512848484614167565b6115d38461151e613f51565b6115ce8560405180606001604052806028815260200161526c60289139603460008b73ffffffffffffffffffffffffffffffffffffffff1673ffffffffffffffffffffffffffffffffffffffff1681526020019081526020016000206000611584613f51565b73ffffffffffffffffffffffffffffffffffffffff1673ffffffffffffffffffffffffffffffffffffffff168152602001908152602001600020546144219092919063ffffffff16565b613f59565b600190509392505050565b60e85481565b60006115ef33612a7c565b90508181101561164a576040517f08c379a000000000000000000000000000000000000000000000000000000000815260040180806020018281038252602881526020018061518a6028913960400191505060405180910390fd5b600073__PropsRewardsLib_______________________63e8fc02ab60d06040518263ffffffff1660e01b81526004018082815260200191505060206040518083038186803b15801561169c57600080fd5b505af41580156116b0573d6000803e3d6000fd5b505050506040513d60208110156116c657600080fd5b81019080805190602001909291905050509050600061173060ed60003373ffffffffffffffffffffffffffffffffffffffff1673ffffffffffffffffffffffffffffffffffffffff16815260200190815260200160002060000154836144e190919063ffffffff16565b905060006117d1846117c361016d85026117b061016d6117a2662386f26fc1000060ed60003373ffffffffffffffffffffffffffffffffffffffff1673ffffffffffffffffffffffffffffffffffffffff1681526020019081526020016000206004015461452b90919063ffffffff16565b61452b90919063ffffffff16565b6001010a8761457590919063ffffffff16565b6144e190919063ffffffff16565b90508260ed60003373ffffffffffffffffffffffffffffffffffffffff1673ffffffffffffffffffffffffffffffffffffffff1681526020019081526020016000206001018190555061186f8560ed60003373ffffffffffffffffffffffffffffffffffffffff1673ffffffffffffffffffffffffffffffffffffffff168152602001908152602001600020600201546145fb90919063ffffffff16565b60ed60003373ffffffffffffffffffffffffffffffffffffffff1673ffffffffffffffffffffffffffffffffffffffff1681526020019081526020016000206002018190555061190a8160ed60003373ffffffffffffffffffffffffffffffffffffffff1673ffffffffffffffffffffffffffffffffffffffff168152602001908152602001600020600301546145fb90919063ffffffff16565b60ed60003373ffffffffffffffffffffffffffffffffffffffff1673ffffffffffffffffffffffffffffffffffffffff1681526020019081526020016000206003018190555061195a3386614683565b823373ffffffffffffffffffffffffffffffffffffffff167ffbd65cfd6de1493db337385c0712095397ecbd0504df64b861cdfceb80c7b4228784604051808381526020018281526020019250505060405180910390a35050505050565b6000606a60009054906101000a900460ff16905090565b6000611a786119dc613f51565b84611a7385603460006119ed613f51565b73ffffffffffffffffffffffffffffffffffffffff1673ffffffffffffffffffffffffffffffffffffffff16815260200190815260200160002060008973ffffffffffffffffffffffffffffffffffffffff1673ffffffffffffffffffffffffffffffffffffffff168152602001908152602001600020546145fb90919063ffffffff16565b613f59565b6001905092915050565b600060ed60003373ffffffffffffffffffffffffffffffffffffffff1673ffffffffffffffffffffffffffffffffffffffff1681526020019081526020016000206002015411611b1d576040517f08c379a00000000000000000000000000000000000000000000000000000000081526004018080602001828103825260238152602001806151456023913960400191505060405180910390fd5b600073__PropsRewardsLib_______________________63e8fc02ab60d06040518263ffffffff1660e01b81526004018082815260200191505060206040518083038186803b158015611b6f57600080fd5b505af4158015611b83573d6000803e3d6000fd5b505050506040513d6020811015611b9957600080fd5b81019080805190602001909291905050509050611bb7600582612056565b611c0c60ed60003373ffffffffffffffffffffffffffffffffffffffff1673ffffffffffffffffffffffffffffffffffffffff16815260200190815260200160002060010154836144e190919063ffffffff16565b11611c62576040517f08c379a000000000000000000000000000000000000000000000000000000000815260040180806020018281038252602e8152602001806152c2602e913960400191505060405180910390fd5b600060eb60009054906101000a900473ffffffffffffffffffffffffffffffffffffffff1690508073ffffffffffffffffffffffffffffffffffffffff166340c10f193060ed60003373ffffffffffffffffffffffffffffffffffffffff1673ffffffffffffffffffffffffffffffffffffffff168152602001908152602001600020600301546040518363ffffffff1660e01b8152600401808373ffffffffffffffffffffffffffffffffffffffff1673ffffffffffffffffffffffffffffffffffffffff16815260200182815260200192505050602060405180830381600087803b158015611d5257600080fd5b505af1158015611d66573d6000803e3d6000fd5b505050506040513d6020811015611d7c57600080fd5b8101908080519060200190929190505050508073ffffffffffffffffffffffffffffffffffffffff1663a9059cbb33611e4260ed60003373ffffffffffffffffffffffffffffffffffffffff1673ffffffffffffffffffffffffffffffffffffffff1681526020019081526020016000206003015460ed60003373ffffffffffffffffffffffffffffffffffffffff1673ffffffffffffffffffffffffffffffffffffffff168152602001908152602001600020600201546145fb90919063ffffffff16565b6040518363ffffffff1660e01b8152600401808373ffffffffffffffffffffffffffffffffffffffff1673ffffffffffffffffffffffffffffffffffffffff16815260200182815260200192505050602060405180830381600087803b158015611eab57600080fd5b505af1158015611ebf573d6000803e3d6000fd5b505050506040513d6020811015611ed557600080fd5b810190808051906020019092919050505050600060ed60003373ffffffffffffffffffffffffffffffffffffffff1673ffffffffffffffffffffffffffffffffffffffff16815260200190815260200160002060020181905550600060ed60003373ffffffffffffffffffffffffffffffffffffffff1673ffffffffffffffffffffffffffffffffffffffff16815260200190815260200160002060030181905550813373ffffffffffffffffffffffffffffffffffffffff167f02f25270a4d87bea75db541cdfe559334a275b4a233520ed6c0a2429667cca9460ed60003373ffffffffffffffffffffffffffffffffffffffff1673ffffffffffffffffffffffffffffffffffffffff1681526020019081526020016000206002015460ed60003373ffffffffffffffffffffffffffffffffffffffff1673ffffffffffffffffffffffffffffffffffffffff16815260200190815260200160002060030154604051808381526020018281526020019250505060405180910390a35050565b600073__PropsRewardsLib_______________________63d81b705060d085856040518463ffffffff1660e01b81526004018084815260200183600581111561209b57fe5b60ff168152602001828152602001935050505060206040518083038186803b1580156120c657600080fd5b505af41580156120da573d6000803e3d6000fd5b505050506040513d60208110156120f057600080fd5b8101908080519060200190929190505050905092915050565b60eb60009054906101000a900473ffffffffffffffffffffffffffffffffffffffff1681565b60d0600f016004015484111561222157600073__PropsRewardsLib_______________________6314a68c3860d080600f016004015460d0600f016003015460006040518563ffffffff1660e01b8152600401808581526020018481526020018381526020018215151515815260200194505050505060206040518083038186803b1580156121bd57600080fd5b505af41580156121d1573d6000803e3d6000fd5b505050506040513d60208110156121e757600080fd5b81019080805190602001909291905050509050600081111561221f5761221e60d0600f016004015460d0600f01600301548361483d565b5b505b600073__PropsRewardsLib_______________________630f9887a060d0878787873073ffffffffffffffffffffffffffffffffffffffff166318160ddd6040518163ffffffff1660e01b815260040160206040518083038186803b15801561228957600080fd5b505afa15801561229d573d6000803e3d6000fd5b505050506040513d60208110156122b357600080fd5b81019080805190602001909291905050506040518763ffffffff1660e01b8152600401808781526020018681526020018581526020018060200180602001848152602001838103835286818151815260200191508051906020019060200280838360005b83811015612332578082015181840152602081019050612317565b50505050905001838103825285818151815260200191508051906020019060200280838360005b83811015612374578082015181840152602081019050612359565b505050509050019850505050505050505060206040518083038186803b15801561239d57600080fd5b505af41580156123b1573d6000803e3d6000fd5b505050506040513d60208110156123c757600080fd5b8101908080519060200190929190505050905060008111156123f1576123f08585858585614ad7565b5b600073__PropsRewardsLib_______________________6314a68c3860d0888860016040518563ffffffff1660e01b8152600401808581526020018481526020018381526020018215151515815260200194505050505060206040518083038186803b15801561246057600080fd5b505af4158015612474573d6000803e3d6000fd5b505050506040513d602081101561248a57600080fd5b8101908080519060200190929190505050905060008111156124b2576124b186868361483d565b5b3373ffffffffffffffffffffffffffffffffffffffff1685877f47a75fa3188612bc1341726d7859491a32bf875dd309474f712950354f73c5a760405160405180910390a4505050505050565b60e95481565b6000849050600073__PropsRewardsLib_______________________63e8fc02ab60d06040518263ffffffff1660e01b81526004018082815260200191505060206040518083038186803b15801561255c57600080fd5b505af4158015612570573d6000803e3d6000fd5b505050506040513d602081101561258657600080fd5b81019080805190602001909291905050509050600060eb60009054906101000a900473ffffffffffffffffffffffffffffffffffffffff1690508073ffffffffffffffffffffffffffffffffffffffff1663d505accf33308a7fffffffffffffffffffffffffffffffffffffffffffffffffffffffffffffffff8b8b8b6040518863ffffffff1660e01b8152600401808873ffffffffffffffffffffffffffffffffffffffff1673ffffffffffffffffffffffffffffffffffffffff1681526020018773ffffffffffffffffffffffffffffffffffffffff1673ffffffffffffffffffffffffffffffffffffffff1681526020018681526020018581526020018460ff1660ff168152602001838152602001828152602001975050505050505050600060405180830381600087803b1580156126c157600080fd5b505af11580156126d5573d6000803e3d6000fd5b505050508073ffffffffffffffffffffffffffffffffffffffff166323b872dd33308a6040518463ffffffff1660e01b8152600401808473ffffffffffffffffffffffffffffffffffffffff1673ffffffffffffffffffffffffffffffffffffffff1681526020018373ffffffffffffffffffffffffffffffffffffffff1673ffffffffffffffffffffffffffffffffffffffff1681526020018281526020019350505050602060405180830381600087803b15801561279457600080fd5b505af11580156127a8573d6000803e3d6000fd5b505050506040513d60208110156127be57600080fd5b8101908080519060200190929190505050508160ed60003373ffffffffffffffffffffffffffffffffffffffff1673ffffffffffffffffffffffffffffffffffffffff16815260200190815260200160002060000181905550600060ed60003373ffffffffffffffffffffffffffffffffffffffff1673ffffffffffffffffffffffffffffffffffffffff1681526020019081526020016000206001018190555061286a600483612056565b60ed60003373ffffffffffffffffffffffffffffffffffffffff1673ffffffffffffffffffffffffffffffffffffffff16815260200190815260200160002060040181905550600060ed60003373ffffffffffffffffffffffffffffffffffffffff1673ffffffffffffffffffffffffffffffffffffffff1681526020019081526020016000206002015411156129aa5761295060ed60003373ffffffffffffffffffffffffffffffffffffffff1673ffffffffffffffffffffffffffffffffffffffff16815260200190815260200160002060020154846145fb90919063ffffffff16565b92506129a760ed60003373ffffffffffffffffffffffffffffffffffffffff1673ffffffffffffffffffffffffffffffffffffffff16815260200190815260200160002060030154846145fb90919063ffffffff16565b92505b6129b43384614cb3565b813373ffffffffffffffffffffffffffffffffffffffff167ff556991011e831bcfac4f406d547e5e32cdd98267efab83935230d5f8d02c4468560ed60003373ffffffffffffffffffffffffffffffffffffffff1673ffffffffffffffffffffffffffffffffffffffff16815260200190815260200160002060040154604051808381526020018281526020019250505060405180910390a350505050505050565b60ec60009054906101000a900473ffffffffffffffffffffffffffffffffffffffff1681565b6000603360008373ffffffffffffffffffffffffffffffffffffffff1673ffffffffffffffffffffffffffffffffffffffff168152602001908152602001600020549050919050565b612acd612dda565b612b3f576040517f08c379a00000000000000000000000000000000000000000000000000000000081526004018080602001828103825260208152602001807f4f776e61626c653a2063616c6c6572206973206e6f7420746865206f776e657281525060200191505060405180910390fd5b600073ffffffffffffffffffffffffffffffffffffffff16609d60009054906101000a900473ffffffffffffffffffffffffffffffffffffffff1673ffffffffffffffffffffffffffffffffffffffff167f8be0079c531659141344cd1fd0a4f28419497f9722a3daafe3b4186f6b6457e060405160405180910390a36000609d60006101000a81548173ffffffffffffffffffffffffffffffffffffffff021916908373ffffffffffffffffffffffffffffffffffffffff160217905550565b612c08612dda565b612c7a576040517f08c379a00000000000000000000000000000000000000000000000000000000081526004018080602001828103825260208152602001807f4f776e61626c653a2063616c6c6572206973206e6f7420746865206f776e657281525060200191505060405180910390fd5b73__PropsRewardsLib_______________________63cc1b8c9c60d084846040518463ffffffff1660e01b81526004018084815260200183815260200180602001828103825283818151815260200191508051906020019060200280838360005b83811015612cf6578082015181840152602081019050612cdb565b5050505090500194505050505060006040518083038186803b158015612d1b57600080fd5b505af4158015612d2f573d6000803e3d6000fd5b50505050817f426b639e1d49f62952a4d3282b37648fb8c47ac20b15e01548c104b75c787c0c826040518080602001828103825283818151815260200191508051906020019060200280838360005b83811015612d99578082015181840152602081019050612d7e565b505050509050019250505060405180910390a25050565b6000609d60009054906101000a900473ffffffffffffffffffffffffffffffffffffffff16905090565b6000609d60009054906101000a900473ffffffffffffffffffffffffffffffffffffffff1673ffffffffffffffffffffffffffffffffffffffff16612e1d613f51565b73ffffffffffffffffffffffffffffffffffffffff1614905090565b606060698054600181600116156101000203166002900480601f016020809104026020016040519081016040528092919081815260200182805460018160011615610100020316600290048015612ed15780601f10612ea657610100808354040283529160200191612ed1565b820191906000526020600020905b815481529060010190602001808311612eb457829003601f168201915b5050505050905090565b73__PropsRewardsLib_______________________6346e3a29860d0868686866040518663ffffffff1660e01b815260040180868152602001856001811115612f2057fe5b60ff1681526020018481526020018373ffffffffffffffffffffffffffffffffffffffff1673ffffffffffffffffffffffffffffffffffffffff1681526020018273ffffffffffffffffffffffffffffffffffffffff1673ffffffffffffffffffffffffffffffffffffffff1681526020019550505050505060006040518083038186803b158015612fb157600080fd5b505af4158015612fc5573d6000803e3d6000fd5b505050508073ffffffffffffffffffffffffffffffffffffffff16846001811115612fec57fe5b3373ffffffffffffffffffffffffffffffffffffffff167fac4aacb75e6f9ac6f2fee64077e9436dfb1be853b1a850b7863cf1433f0e75288686604051808381526020018273ffffffffffffffffffffffffffffffffffffffff1673ffffffffffffffffffffffffffffffffffffffff1681526020019250505060405180910390a450505050565b6000613137613081613f51565b846131328560405180606001604052806025815260200161535a60259139603460006130ab613f51565b73ffffffffffffffffffffffffffffffffffffffff1673ffffffffffffffffffffffffffffffffffffffff16815260200190815260200160002060008a73ffffffffffffffffffffffffffffffffffffffff1673ffffffffffffffffffffffffffffffffffffffff168152602001908152602001600020546144219092919063ffffffff16565b613f59565b6001905092915050565b600060019054906101000a900460ff1680613160575061315f614150565b5b8061317757506000809054906101000a900460ff16155b6131cc576040517f08c379a000000000000000000000000000000000000000000000000000000000815260040180806020018281038252602e815260200180615294602e913960400191505060405180910390fd5b60008060019054906101000a900460ff16159050801561321c576001600060016101000a81548160ff02191690831515021790555060016000806101000a81548160ff0219169083151502179055505b6000601290508560eb60006101000a81548173ffffffffffffffffffffffffffffffffffffffff021916908373ffffffffffffffffffffffffffffffffffffffff1602179055508460ec60006101000a81548173ffffffffffffffffffffffffffffffffffffffff021916908373ffffffffffffffffffffffffffffffffffffffff1602179055506132ad87613ad6565b6133226040518060400160405280601381526020017f50726f7073205374616b696e6720546f6b656e000000000000000000000000008152506040518060400160405280600681526020017f7350524f50530000000000000000000000000000000000000000000000000000815250836111d4565b73__PropsRewardsLib_______________________6311cb33da60d060006187be60006040518563ffffffff1660e01b81526004018085815260200184600581111561336a57fe5b60ff16815260200183815260200182815260200194505050505060006040518083038186803b15801561339c57600080fd5b505af41580156133b0573d6000803e3d6000fd5b5050505073__PropsRewardsLib_______________________6311cb33da60d060016308f0d18060006040518563ffffffff1660e01b8152600401808581526020018460058111156133fe57fe5b60ff16815260200183815260200182815260200194505050505060006040518083038186803b15801561343057600080fd5b505af4158015613444573d6000803e3d6000fd5b5050505073__PropsRewardsLib_______________________6311cb33da60d060026302faf08060006040518563ffffffff1660e01b81526004018085815260200184600581111561349257fe5b60ff16815260200183815260200182815260200194505050505060006040518083038186803b1580156134c457600080fd5b505af41580156134d8573d6000803e3d6000fd5b5050505073__PropsRewardsLib_______________________6311cb33da60d0600361072560006040518563ffffffff1660e01b81526004018085815260200184600581111561352457fe5b60ff16815260200183815260200182815260200194505050505060006040518083038186803b15801561355657600080fd5b505af415801561356a573d6000803e3d6000fd5b5050505073__PropsRewardsLib_______________________6311cb33da60d0600461271060006040518563ffffffff1660e01b8152600401808581526020018460058111156135b657fe5b60ff16815260200183815260200182815260200194505050505060006040518083038186803b1580156135e857600080fd5b505af41580156135fc573d6000803e3d6000fd5b5050505073__PropsRewardsLib_______________________6311cb33da60d06005601e60006040518563ffffffff1660e01b81526004018085815260200184600581111561364757fe5b60ff16815260200183815260200182815260200194505050505060006040518083038186803b15801561367957600080fd5b505af415801561368d573d6000803e3d6000fd5b505050508060ff16600a0a633b9aca000260e881905560d0601601819055508260e981905560d0601501819055508360ea81905560d0601401819055505080156136ec5760008060016101000a81548160ff0219169083151502179055505b505050505050565b6000613708613701613f51565b8484614167565b6001905092915050565b3373ffffffffffffffffffffffffffffffffffffffff1660d060000160008973ffffffffffffffffffffffffffffffffffffffff1673ffffffffffffffffffffffffffffffffffffffff16815260200190815260200160002060010160009054906101000a900473ffffffffffffffffffffffffffffffffffffffff1673ffffffffffffffffffffffffffffffffffffffff16146137fb576040517f08c379a000000000000000000000000000000000000000000000000000000000815260040180806020018281038252602b815260200180615220602b913960400191505060405180910390fd5b600060eb60009054906101000a900473ffffffffffffffffffffffffffffffffffffffff1690508073ffffffffffffffffffffffffffffffffffffffff1663d505accf8988887fffffffffffffffffffffffffffffffffffffffffffffffffffffffffffffffff8989896040518863ffffffff1660e01b8152600401808873ffffffffffffffffffffffffffffffffffffffff1673ffffffffffffffffffffffffffffffffffffffff1681526020018773ffffffffffffffffffffffffffffffffffffffff1673ffffffffffffffffffffffffffffffffffffffff1681526020018681526020018581526020018460ff1660ff168152602001838152602001828152602001975050505050505050600060405180830381600087803b15801561392357600080fd5b505af1158015613937573d6000803e3d6000fd5b505050508073ffffffffffffffffffffffffffffffffffffffff166323b872dd8988886040518463ffffffff1660e01b8152600401808473ffffffffffffffffffffffffffffffffffffffff1673ffffffffffffffffffffffffffffffffffffffff1681526020018373ffffffffffffffffffffffffffffffffffffffff1673ffffffffffffffffffffffffffffffffffffffff1681526020018281526020019350505050602060405180830381600087803b1580156139f657600080fd5b505af1158015613a0a573d6000803e3d6000fd5b505050506040513d6020811015613a2057600080fd5b8101908080519060200190929190505050508573ffffffffffffffffffffffffffffffffffffffff16878973ffffffffffffffffffffffffffffffffffffffff167f53b5073ff19aef23b167e83c6be14817da210375bec35b4c0ccfc0cded9a23f88833604051808381526020018273ffffffffffffffffffffffffffffffffffffffff1673ffffffffffffffffffffffffffffffffffffffff1681526020019250505060405180910390a45050505050505050565b600060019054906101000a900460ff1680613af55750613af4614150565b5b80613b0c57506000809054906101000a900460ff16155b613b61576040517f08c379a000000000000000000000000000000000000000000000000000000000815260040180806020018281038252602e815260200180615294602e913960400191505060405180910390fd5b60008060019054906101000a900460ff161590508015613bb1576001600060016101000a81548160ff02191690831515021790555060016000806101000a81548160ff0219169083151502179055505b81609d60006101000a81548173ffffffffffffffffffffffffffffffffffffffff021916908373ffffffffffffffffffffffffffffffffffffffff160217905550609d60009054906101000a900473ffffffffffffffffffffffffffffffffffffffff1673ffffffffffffffffffffffffffffffffffffffff16600073ffffffffffffffffffffffffffffffffffffffff167f8be0079c531659141344cd1fd0a4f28419497f9722a3daafe3b4186f6b6457e060405160405180910390a38015613c905760008060016101000a81548160ff0219169083151502179055505b5050565b6000603460008473ffffffffffffffffffffffffffffffffffffffff1673ffffffffffffffffffffffffffffffffffffffff16815260200190815260200160002060008373ffffffffffffffffffffffffffffffffffffffff1673ffffffffffffffffffffffffffffffffffffffff16815260200190815260200160002054905092915050565b613d23612dda565b613d95576040517f08c379a00000000000000000000000000000000000000000000000000000000081526004018080602001828103825260208152602001807f4f776e61626c653a2063616c6c6572206973206e6f7420746865206f776e657281525060200191505060405180910390fd5b73__PropsRewardsLib_______________________6363cad06a60d084846040518463ffffffff1660e01b81526004018084815260200183815260200180602001828103825283818151815260200191508051906020019060200280838360005b83811015613e11578082015181840152602081019050613df6565b5050505090500194505050505060006040518083038186803b158015613e3657600080fd5b505af4158015613e4a573d6000803e3d6000fd5b50505050817f25071f4c6ebdf865da246a5caf6a5bbcbe50f6443e15309b97b10043c6beb1d9826040518080602001828103825283818151815260200191508051906020019060200280838360005b83811015613eb4578082015181840152602081019050613e99565b505050509050019250505060405180910390a25050565b613ed3612dda565b613f45576040517f08c379a00000000000000000000000000000000000000000000000000000000081526004018080602001828103825260208152602001807f4f776e61626c653a2063616c6c6572206973206e6f7420746865206f776e657281525060200191505060405180910390fd5b613f4e81614e70565b50565b600033905090565b600073ffffffffffffffffffffffffffffffffffffffff168373ffffffffffffffffffffffffffffffffffffffff161415613fdf576040517f08c379a00000000000000000000000000000000000000000000000000000000081526004018080602001828103825260248152602001806153366024913960400191505060405180910390fd5b600073ffffffffffffffffffffffffffffffffffffffff168273ffffffffffffffffffffffffffffffffffffffff161415614065576040517f08c379a00000000000000000000000000000000000000000000000000000000081526004018080602001828103825260228152602001806151d86022913960400191505060405180910390fd5b80603460008573ffffffffffffffffffffffffffffffffffffffff1673ffffffffffffffffffffffffffffffffffffffff16815260200190815260200160002060008473ffffffffffffffffffffffffffffffffffffffff1673ffffffffffffffffffffffffffffffffffffffff168152602001908152602001600020819055508173ffffffffffffffffffffffffffffffffffffffff168373ffffffffffffffffffffffffffffffffffffffff167f8c5be1e5ebec7d5bd14f71427d1e84f3dd0314c0f7b2291e5b200ac8c7c3b925836040518082815260200191505060405180910390a3505050565b6000803090506000813b9050600081149250505090565b600073ffffffffffffffffffffffffffffffffffffffff168373ffffffffffffffffffffffffffffffffffffffff1614156141ed576040517f08c379a00000000000000000000000000000000000000000000000000000000081526004018080602001828103825260258152602001806153116025913960400191505060405180910390fd5b600073ffffffffffffffffffffffffffffffffffffffff168273ffffffffffffffffffffffffffffffffffffffff161415614273576040517f08c379a00000000000000000000000000000000000000000000000000000000081526004018080602001828103825260238152602001806151226023913960400191505060405180910390fd5b6142df816040518060600160405280602681526020016151fa60269139603360008773ffffffffffffffffffffffffffffffffffffffff1673ffffffffffffffffffffffffffffffffffffffff168152602001908152602001600020546144219092919063ffffffff16565b603360008573ffffffffffffffffffffffffffffffffffffffff1673ffffffffffffffffffffffffffffffffffffffff1681526020019081526020016000208190555061437481603360008573ffffffffffffffffffffffffffffffffffffffff1673ffffffffffffffffffffffffffffffffffffffff168152602001908152602001600020546145fb90919063ffffffff16565b603360008473ffffffffffffffffffffffffffffffffffffffff1673ffffffffffffffffffffffffffffffffffffffff168152602001908152602001600020819055508173ffffffffffffffffffffffffffffffffffffffff168373ffffffffffffffffffffffffffffffffffffffff167fddf252ad1be2c89b69c2b068fc378daa952ba7f163c4a11628f55a4df523b3ef836040518082815260200191505060405180910390a3505050565b60008383111582906144ce576040517f08c379a00000000000000000000000000000000000000000000000000000000081526004018080602001828103825283818151815260200191508051906020019080838360005b83811015614493578082015181840152602081019050614478565b50505050905090810190601f1680156144c05780820380516001836020036101000a031916815260200191505b509250505060405180910390fd5b5060008385039050809150509392505050565b600061452383836040518060400160405280601e81526020017f536166654d6174683a207375627472616374696f6e206f766572666c6f770000815250614421565b905092915050565b600061456d83836040518060400160405280601a81526020017f536166654d6174683a206469766973696f6e206279207a65726f000000000000815250614fb6565b905092915050565b60008083141561458857600090506145f5565b600082840290508284828161459957fe5b04146145f0576040517f08c379a000000000000000000000000000000000000000000000000000000000815260040180806020018281038252602181526020018061524b6021913960400191505060405180910390fd5b809150505b92915050565b600080828401905083811015614679576040517f08c379a000000000000000000000000000000000000000000000000000000000815260040180806020018281038252601b8152602001807f536166654d6174683a206164646974696f6e206f766572666c6f77000000000081525060200191505060405180910390fd5b8091505092915050565b600073ffffffffffffffffffffffffffffffffffffffff168273ffffffffffffffffffffffffffffffffffffffff161415614709576040517f08c379a00000000000000000000000000000000000000000000000000000000081526004018080602001828103825260218152602001806152f06021913960400191505060405180910390fd5b6147758160405180606001604052806022815260200161516860229139603360008673ffffffffffffffffffffffffffffffffffffffff1673ffffffffffffffffffffffffffffffffffffffff168152602001908152602001600020546144219092919063ffffffff16565b603360008473ffffffffffffffffffffffffffffffffffffffff1673ffffffffffffffffffffffffffffffffffffffff168152602001908152602001600020819055506147cd816035546144e190919063ffffffff16565b603581905550600073ffffffffffffffffffffffffffffffffffffffff168273ffffffffffffffffffffffffffffffffffffffff167fddf252ad1be2c89b69c2b068fc378daa952ba7f163c4a11628f55a4df523b3ef836040518082815260200191505060405180910390a35050565b600060eb60009054906101000a900473ffffffffffffffffffffffffffffffffffffffff169050600060d0600f01600001600085815260200190815260200160002060010180549050905060008090505b81811015614a1c578273ffffffffffffffffffffffffffffffffffffffff166340c10f1960d0600201600060d0600f0160000160008a815260200190815260200160002060010185815481106148e057fe5b9060005260206000200160009054906101000a900473ffffffffffffffffffffffffffffffffffffffff1673ffffffffffffffffffffffffffffffffffffffff1673ffffffffffffffffffffffffffffffffffffffff16815260200190815260200160002060010160009054906101000a900473ffffffffffffffffffffffffffffffffffffffff16866040518363ffffffff1660e01b8152600401808373ffffffffffffffffffffffffffffffffffffffff1673ffffffffffffffffffffffffffffffffffffffff16815260200182815260200192505050602060405180830381600087803b1580156149d357600080fd5b505af11580156149e7573d6000803e3d6000fd5b505050506040513d60208110156149fd57600080fd5b810190808051906020019092919050505050808060010191505061488e565b5073__PropsRewardsLib_______________________63cb27ba3e60d0866040518363ffffffff1660e01b8152600401808381526020018281526020019250505060006040518083038186803b158015614a7557600080fd5b505af4158015614a89573d6000803e3d6000fd5b5050505083857f07efea0e0eeb975e5404139e47d884d2705a0660a3456aa31c5694df1d8c5f1483848702604051808381526020018281526020019250505060405180910390a35050505050565b600060eb60009054906101000a900473ffffffffffffffffffffffffffffffffffffffff16905060008090505b8451811015614c68578173ffffffffffffffffffffffffffffffffffffffff166340c10f1960d06000016000888581518110614b3c57fe5b602002602001015173ffffffffffffffffffffffffffffffffffffffff1673ffffffffffffffffffffffffffffffffffffffff16815260200190815260200160002060010160009054906101000a900473ffffffffffffffffffffffffffffffffffffffff16868481518110614bae57fe5b60200260200101516040518363ffffffff1660e01b8152600401808373ffffffffffffffffffffffffffffffffffffffff1673ffffffffffffffffffffffffffffffffffffffff16815260200182815260200192505050602060405180830381600087803b158015614c1f57600080fd5b505af1158015614c33573d6000803e3d6000fd5b505050506040513d6020811015614c4957600080fd5b8101908080519060200190929190505050508080600101915050614b04565b5084867fcc511f1b8ddd8ab10bcb89c26361da1c99b826350e3f38ee438134149032568a865185604051808381526020018281526020019250505060405180910390a3505050505050565b600073ffffffffffffffffffffffffffffffffffffffff168273ffffffffffffffffffffffffffffffffffffffff161415614d56576040517f08c379a000000000000000000000000000000000000000000000000000000000815260040180806020018281038252601f8152602001807f45524332303a206d696e7420746f20746865207a65726f20616464726573730081525060200191505060405180910390fd5b614d6b816035546145fb90919063ffffffff16565b603581905550614dc381603360008573ffffffffffffffffffffffffffffffffffffffff1673ffffffffffffffffffffffffffffffffffffffff168152602001908152602001600020546145fb90919063ffffffff16565b603360008473ffffffffffffffffffffffffffffffffffffffff1673ffffffffffffffffffffffffffffffffffffffff168152602001908152602001600020819055508173ffffffffffffffffffffffffffffffffffffffff16600073ffffffffffffffffffffffffffffffffffffffff167fddf252ad1be2c89b69c2b068fc378daa952ba7f163c4a11628f55a4df523b3ef836040518082815260200191505060405180910390a35050565b600073ffffffffffffffffffffffffffffffffffffffff168173ffffffffffffffffffffffffffffffffffffffff161415614ef6576040517f08c379a00000000000000000000000000000000000000000000000000000000081526004018080602001828103825260268152602001806151b26026913960400191505060405180910390fd5b8073ffffffffffffffffffffffffffffffffffffffff16609d60009054906101000a900473ffffffffffffffffffffffffffffffffffffffff1673ffffffffffffffffffffffffffffffffffffffff167f8be0079c531659141344cd1fd0a4f28419497f9722a3daafe3b4186f6b6457e060405160405180910390a380609d60006101000a81548173ffffffffffffffffffffffffffffffffffffffff021916908373ffffffffffffffffffffffffffffffffffffffff16021790555050565b60008083118290615062576040517f08c379a00000000000000000000000000000000000000000000000000000000081526004018080602001828103825283818151815260200191508051906020019080838360005b8381101561502757808201518184015260208101905061500c565b50505050905090810190601f1680156150545780820380516001836020036101000a031916815260200191505b509250505060405180910390fd5b50600083858161506e57fe5b049050809150509392505050565b828054600181600116156101000203166002900490600052602060002090601f016020900481019282601f106150bd57805160ff19168380011785556150eb565b828001600101855582156150eb579182015b828111156150ea5782518255916020019190600101906150cf565b5b5090506150f891906150fc565b5090565b61511e91905b8082111561511a576000816000905550600101615102565b5090565b9056fe45524332303a207472616e7366657220746f20746865207a65726f206164647265737343616e6e6f74207769746864726177206e6f7468696e6720746f20776974686472617745524332303a206275726e20616d6f756e7420657863656564732062616c616e636543616e6e6f7420756e7374616b65206d6f7265207468616e207768617420776173207374616b65644f776e61626c653a206e6577206f776e657220697320746865207a65726f206164647265737345524332303a20617070726f766520746f20746865207a65726f206164647265737345524332303a207472616e7366657220616d6f756e7420657863656564732062616c616e6365736574746c65206d6179206f6e6c792062652063616c6c656420627920616e206170706c69636174696f6e536166654d6174683a206d756c7469706c69636174696f6e206f766572666c6f7745524332303a207472616e7366657220616d6f756e74206578636565647320616c6c6f77616e6365436f6e747261637420696e7374616e63652068617320616c7265616479206265656e20696e697469616c697a656443616e6e6f74207769746864726177206265666f726520636f6f6c646f776e20706572696f64206973206f76657245524332303a206275726e2066726f6d20746865207a65726f206164647265737345524332303a207472616e736665722066726f6d20746865207a65726f206164647265737345524332303a20617070726f76652066726f6d20746865207a65726f206164647265737345524332303a2064656372656173656420616c6c6f77616e63652062656c6f77207a65726fa265627a7a723158200157d34bb73663a8d3b2cdeac3d6f9bbebe38c95e15de28278046d2ba9867c9264736f6c63430005110032",
  "compiler": {
    "name": "solc",
    "version": "0.5.17+commit.d19bba13.Emscripten.clang",
    "optimizer": {
      "enabled": false,
      "runs": 200
    },
    "evmVersion": "petersburg"
  }
}