{
  "fileName": "PropsRewards.sol",
  "contractName": "PropsRewards",
  "source": "pragma solidity ^0.6.2;\n\n//import \"@openzeppelin/upgrades/contracts/Initializable.sol\";\nimport \"@openzeppelin/contracts-ethereum-package/contracts/Initializable.sol\";\nimport \"@openzeppelin/contracts-ethereum-package/contracts/math/SafeMath.sol\";\nimport \"@openzeppelin/contracts-ethereum-package/contracts/token/ERC20/ERC20.sol\";\nimport \"@openzeppelin/contracts-ethereum-package/contracts/access/AccessControl.sol\";\n\n\nimport \"./IPropsToken.sol\";\nimport { PropsRewardsLib } from \"./PropsRewardsLib.sol\";\n\n/**\n * @title Staking PROPS Token\n * @dev Staking PROPS token contract\n * sPROPS are divisible by 1e18 base\n * units referred to as 'AttosPROPS'.\n *\n * sPROPS are displayed using 18 decimal places of precision.\n *\n * 1 sPROPS is equivalent to:\n *   1 * 1e18 == 1e18 == One Quintillion AttosPROPS\n *\n *\n\n */\n\ncontract PropsRewards is Initializable, ERC20UpgradeSafe, AccessControlUpgradeSafe { /* AccessControl {*/\n    using SafeMath for uint256;\n\n    event DailyRewardsSubmitted(\n        uint256 indexed rewardsDay,\n        bytes32 indexed rewardsHash,\n        address indexed validator\n    );\n\n    event DailyRewardsApplicationsMinted(\n        uint256 indexed rewardsDay,\n        bytes32 indexed rewardsHash,\n        uint256 numOfApplications,\n        uint256 amount\n    );\n\n    event DailyRewardsValidatorsMinted(\n        uint256 indexed rewardsDay,\n        bytes32 indexed rewardsHash,\n        uint256 numOfValidators,\n        uint256 amount\n    );\n\n    event EntityUpdated(\n        address indexed id,\n        PropsRewardsLib.RewardedEntityType indexed entityType,\n        bytes32 name,\n        address rewardsAddress,\n        address indexed sidechainAddress\n    );\n\n    event ParameterUpdated(\n        PropsRewardsLib.ParameterName param,\n        uint256 newValue,\n        uint256 oldValue,\n        uint256 rewardsDay\n    );\n\n    event ValidatorsListUpdated(\n        address[] validatorsList,\n        uint256 indexed rewardsDay\n    );\n\n    event ApplicationsListUpdated(\n        address[] applicationsList,\n        uint256 indexed rewardsDay\n    );\n\n    event Settlement(\n        address indexed applicationId,\n        bytes32 indexed userId,\n        address indexed to,\n        uint256 amount,\n        address rewardsAddress\n    );\n\n    event StakeChanged(\n        address indexed wallet,\n        uint256 indexed rewardsDay,\n        uint256 amountStaked,\n        uint256 amountUnstaked,\n        uint256 amountChanged,\n        uint256 interestGained\n    );\n\n    event Withdraw(\n        address indexed wallet,\n        uint256 indexed rewardsDay,\n        uint256 amount\n    );\n\n    event AllocationChanged(\n        address indexed wallet,\n        uint256 indexed rewardsDay,\n        address indexed appId,\n        bytes32 userId,\n        uint256 amount,\n        uint256 amountChanged\n    );\n\n    event DelegateChanged(\n        address indexed delegator,\n        address indexed fromDelegate,\n        address indexed toDelegate\n    );\n\n    event DelegateVotesChanged(\n        address indexed delegate,\n        uint previousBalance,\n        uint newBalance\n    );\n\n    /*\n    *  Structs\n    */\n\n    /// @dev Represents an application user\n    struct ApplicationUser {\n        address appId;\n        bytes32 userId;\n    }\n\n    /// @dev Represents staking meta data\n    struct UnstakeData {\n        uint256 stakeRewardsDay;\n        uint256 unstakeRewardsDay;\n        uint256 amountUnstaked;\n        uint256 interestRate; //in pphm\n        ApplicationUser applicationUser;\n    }\n\n    /// @dev A checkpoint for marking number of votes from a given block\n    struct Checkpoint {\n        uint32 fromBlock;\n        uint256 votes;\n    }\n\n    /// @dev A checkpoint for marking number of votes from a given block\n    struct Allocation {\n        ApplicationUser applicationUser;\n        uint256 amount;\n        bool isInitialized;\n        uint256 arrIndex;\n    }\n\n    /*\n    *  Modifiers\n    */\n    modifier onlyOwner() {\n        require(\n            hasRole(DEFAULT_ADMIN_ROLE, msg.sender),\n            \"Caller must be admin of the contract\"\n        );\n         _;\n    }\n\n    /*\n    *  Storage\n    */\n\n    uint8 constant public MAX_APPLICATION_USER_PER_WALLET = 10;\n    uint256 constant private precisionMul = 10**6;\n    PropsRewardsLib.Data internal rewardsLibData;\n    uint256 public maxTotalSupply;\n    uint256 public rewardsStartTimestamp;\n    uint256 public secondsBetweenDays; // for test networks the option to make each rewards day shorter\n    address public tokenContract;\n    address public identityContract;\n\n    /// @dev A record of each staking/unstaking wallet\n    mapping (address => UnstakeData) stakingMap;\n    /// @dev A record of each accounts delegate\n    mapping (address => address) public delegates;\n    /// @dev A record of votes checkpoints for each account, by index\n    mapping (address => mapping (uint32 => Checkpoint)) public checkpoints;\n    /// @dev The number of checkpoints for each account\n    mapping (address => uint32) public numCheckpoints;\n     /// @dev The EIP-712 typehash for the contract's domain\n    bytes32 public constant DOMAIN_TYPEHASH = keccak256(\"EIP712Domain(string name,uint256 chainId,address verifyingContract)\");\n    /// @dev The EIP-712 typehash for the delegation struct used by the contract\n    bytes32 public constant DELEGATION_TYPEHASH = keccak256(\"Delegation(address delegatee,uint256 nonce,uint256 expiry)\");\n    /// @dev A record of states for signing / validating signatures\n    mapping (address => uint) public nonces;\n    /// @dev A record for each allocation by address\n    mapping (address => mapping(bytes32 => Allocation)) internal allocationsMap;\n    /// @dev An array to hold allocations keys\n    mapping (address => bytes32[]) public allocationsArr;\n    /// @dev An record for the sum allocated by address\n    mapping (address => uint256) public allocationsSum;\n    bytes32 public constant VALIDATOR_ROLE = keccak256(\"VALIDATOR_ROLE\");\n    bytes32 public constant APPLICATION_ROLE = keccak256(\"APPLICATION_ROLE\");\n\n    /**\n    * @dev Initializer function. Called only once when a proxy for the contract is created.\n    * @param _admin address that will act as the admin role\n    * @param _tokenContract address of the props token contract\n    * @param _identityContract address of the identity contract\n    * @param _minSecondsBetweenDays uint256 seconds required to pass between consecutive rewards day\n    * @param _rewardsStartTimestamp uint256 day 0 timestamp\n    */\n    function initialize(\n        address _admin,\n        address _tokenContract,\n        address _identityContract,\n        uint256 _minSecondsBetweenDays,\n        uint256 _rewardsStartTimestamp\n    )\n    public\n    initializer\n    {\n        ERC20UpgradeSafe.__ERC20_init(\"Props Staking Token\", \"sPROPS\"); //decimals is by default 18\n         _setupRole(DEFAULT_ADMIN_ROLE, _admin);\n        tokenContract = _tokenContract;\n        identityContract = _identityContract;\n        PropsRewardsLib.updateParameter(rewardsLibData, PropsRewardsLib.ParameterName.ApplicationRewardsPercent, 34750, 0);\n        // // ApplicationRewardsMaxVariationPercent pphm ==> 150%\n        PropsRewardsLib.updateParameter(rewardsLibData, PropsRewardsLib.ParameterName.ApplicationRewardsMaxVariationPercent, 150 * 1e6, 0);\n        // // ValidatorMajorityPercent pphm ==> 50%\n        PropsRewardsLib.updateParameter(rewardsLibData, PropsRewardsLib.ParameterName.ValidatorMajorityPercent, 50 * 1e6, 0);\n        //  // ValidatorRewardsPercent pphm ==> 0.001829%\n        PropsRewardsLib.updateParameter(rewardsLibData, PropsRewardsLib.ParameterName.ValidatorRewardsPercent, 1829, 0);\n        //  // StakingInterestRate pphm ==> 0.01%\n        PropsRewardsLib.updateParameter(rewardsLibData, PropsRewardsLib.ParameterName.StakingInterestRate, 10000, 0);\n        //  // WithdrawCooldownPeriodDays days ==> 30\n        PropsRewardsLib.updateParameter(rewardsLibData, PropsRewardsLib.ParameterName.WithdrawCooldownPeriodDays, 30, 0);\n        //  // RestakeCooldownPeriodDays days ==> 1\n        PropsRewardsLib.updateParameter(rewardsLibData, PropsRewardsLib.ParameterName.RestakeCooldownPeriodDays, 1, 0);\n\n        // max total supply is 1,000,000,000 PROPS specified in AttoPROPS\n        rewardsLibData.maxTotalSupply = maxTotalSupply = 1 * 1e9 * (10 ** uint256(decimals()));\n        rewardsLibData.rewardsStartTimestamp = rewardsStartTimestamp = _rewardsStartTimestamp;\n        rewardsLibData.minSecondsBetweenDays = secondsBetweenDays = _minSecondsBetweenDays;\n    }\n\n    /**\n    * @dev Set new validators list\n    * @param _rewardsDay uint256 the rewards day from which this change should take effect\n    * @param _validators address[] array of validators\n    */\n    function setValidators(uint256 _rewardsDay, address[] memory _validators)\n        public\n        onlyOwner\n    {\n        PropsRewardsLib.setValidators(rewardsLibData, _rewardsDay, _validators);\n        emit ValidatorsListUpdated(_validators, _rewardsDay);\n    }\n\n    /**\n    * @dev Set new applications list\n    * @param _rewardsDay uint256 the rewards day from which this change should take effect\n    * @param _applications address[] array of applications\n    */\n    function setApplications(uint256 _rewardsDay, address[] memory _applications)\n        public\n        onlyOwner\n    {\n        PropsRewardsLib.setApplications(rewardsLibData, _rewardsDay, _applications);\n        emit ApplicationsListUpdated(_applications, _rewardsDay);\n    }\n\n    /**\n    * @dev Get the applications or validators list\n    * @param _entityType RewardedEntityType either application (0) or validator (1)\n    * @param _rewardsDay uint256 the rewards day to use for this value\n    */\n    function getEntities(PropsRewardsLib.RewardedEntityType _entityType, uint256 _rewardsDay)\n        public\n        view\n        returns (address[] memory)\n    {\n        return PropsRewardsLib.getEntities(rewardsLibData, _entityType, _rewardsDay);\n    }\n\n    /**\n    * @dev The function is called by validators with the calculation of the daily rewards\n    * @param _rewardsDay uint256 the rewards day\n    * @param _rewardsHash bytes32 hash of the rewards data\n    * @param _applications address[] array of application addresses getting the daily reward\n    * @param _amounts uint256[] array of amounts each app should get\n    */\n    function submitDailyRewards(\n        uint256 _rewardsDay,\n        bytes32 _rewardsHash,\n        address[] memory _applications,\n        uint256[] memory _amounts\n    )\n        public\n    {\n        // if submission is for a new day check if previous day validator rewards were given if not give to participating ones\n        if (_rewardsDay > rewardsLibData.dailyRewards.lastApplicationsRewardsDay) {\n            uint256 previousDayValidatorRewardsAmount = PropsRewardsLib.calculateValidatorRewards(\n                rewardsLibData,\n                rewardsLibData.dailyRewards.lastApplicationsRewardsDay,\n                rewardsLibData.dailyRewards.lastConfirmedRewardsHash,\n                false\n            );\n            if (previousDayValidatorRewardsAmount > 0) {\n                _mintDailyRewardsForValidators(rewardsLibData.dailyRewards.lastApplicationsRewardsDay, rewardsLibData.dailyRewards.lastConfirmedRewardsHash, previousDayValidatorRewardsAmount);\n            }\n        }\n        // check and give application rewards if majority of validators agree\n        uint256 appRewardsSum = PropsRewardsLib.calculateAndFinalizeApplicationRewards(\n            rewardsLibData,\n            _rewardsDay,\n            _rewardsHash,\n            _applications,\n            _amounts,\n            this.totalSupply()\n        );\n        if (appRewardsSum > 0) {\n            _mintDailyRewardsForApps(_rewardsDay, _rewardsHash, _applications, _amounts, appRewardsSum);\n        }\n\n        // check and give validator rewards if all validators submitted\n        uint256 validatorRewardsAmount = PropsRewardsLib.calculateValidatorRewards(\n            rewardsLibData,\n            _rewardsDay,\n            _rewardsHash,\n            true\n        );\n        if (validatorRewardsAmount > 0) {\n            _mintDailyRewardsForValidators(_rewardsDay, _rewardsHash, validatorRewardsAmount);\n        }\n\n        emit DailyRewardsSubmitted(_rewardsDay, _rewardsHash, msg.sender);\n    }\n\n    /**\n    * @dev Allows getting a parameter value based on timestamp\n    * @param _name ParameterName name of the parameter\n    * @param _rewardsDay uint256 starting when should this parameter use the current value\n    */\n    function getParameter(\n        PropsRewardsLib.ParameterName _name,\n        uint256 _rewardsDay\n    )\n        public\n        view\n        returns (uint256)\n    {\n        return PropsRewardsLib.getParameterValue(rewardsLibData, _name, _rewardsDay);\n    }\n\n    /**\n    * @dev Allows the controller/owner to update rewards parameters\n    * @param _name ParameterName name of the parameter\n    * @param _value uint256 new value for the parameter\n    * @param _rewardsDay uint256 starting when should this parameter use the current value\n    */\n    function updateParameter(\n        PropsRewardsLib.ParameterName _name,\n        uint256 _value,\n        uint256 _rewardsDay\n    )\n        public\n        onlyOwner\n    {\n        PropsRewardsLib.updateParameter(rewardsLibData, _name, _value, _rewardsDay);\n        emit ParameterUpdated(\n            _name,\n            rewardsLibData.parameters[uint256(_name)].currentValue,\n            rewardsLibData.parameters[uint256(_name)].previousValue,\n            rewardsLibData.parameters[uint256(_name)].rewardsDay\n        );\n    }\n\n    /**\n    * @dev Allows an application or validator to add/update its details\n    * @param _entityType RewardedEntityType either application (0) or validator (1)\n    * @param _name bytes32 name of the app\n    * @param _rewardsAddress address an address for the app to receive the rewards\n    * @param _sidechainAddress address the address used for using the sidechain\n    */\n    function updateEntity(\n        PropsRewardsLib.RewardedEntityType _entityType,\n        bytes32 _name,\n        address _rewardsAddress,\n        address _sidechainAddress\n    )\n        public\n    {\n        PropsRewardsLib.updateEntity(rewardsLibData, _entityType, _name, _rewardsAddress, _sidechainAddress);\n        emit EntityUpdated(msg.sender, _entityType, _name, _rewardsAddress, _sidechainAddress);\n    }\n\n    /**\n    * @dev Allows a wallet to stake props.\n    * @param _amount uint256 amount to be staked\n    * @param v The recovery byte of the signature\n    * @param r Half of the ECDSA signature pair\n    * @param s Half of the ECDSA signature pair\n    * @param _applicationId address (optional pass 0x address) the application main address (used to setup the application)\n    * @param _userId bytes32 (optional pass empty) identification of the user\n    */\n    function stake(\n        uint256 _amount,\n        uint8 v,\n        bytes32 r,\n        bytes32 s,\n        address _applicationId,\n        bytes32 _userId\n    )\n        public\n    {\n        IPropsToken token = IPropsToken(tokenContract);\n        token.permit(msg.sender, address(this), _amount, uint(-1), v, r, s);\n        token.transferFrom(msg.sender, address(this), _amount);\n        _mint(msg.sender, _amount);\n        return _stake(msg.sender, _amount, _applicationId, _userId);\n    }\n\n    /**\n    * @dev Allows getting total allocated per application user.\n    * This function can be used to get total allocated, total allocated to an app and total allocated to a specific application user\n    * @param _wallet address of allocating wallet\n    * @param _applicationId address (optional pass 0x address) the application main address (used to setup the application)\n    * @param _userId bytes32 (optional pass empty) identification of the user\n    * @return uint256 Amount allocated\n    */\n    function getAllocated(\n        address _wallet,\n        address _applicationId,\n        bytes32 _userId\n    )\n        public\n        view\n        returns (uint256)\n    {\n        bytes32 appUserId = _getApplicationUserId(_applicationId, _userId);\n        uint256 sum = 0;\n        if (_applicationId != address(0) && _userId[0] != 0) {\n            sum = allocationsMap[_wallet][appUserId].amount;\n        } else {\n            for (uint i = 0; i < allocationsArr[_wallet].length; i++) {\n                if (_applicationId != address(0)) {\n                    if (allocationsMap[_wallet][allocationsArr[_wallet][i]].applicationUser.appId == _applicationId) {\n                        sum = sum.add(allocationsMap[_wallet][allocationsArr[_wallet][i]].amount);\n                    }\n                } else {\n                    sum = sum.add(allocationsMap[_wallet][allocationsArr[_wallet][i]].amount);\n                }\n            }\n        }\n        return sum;\n    }\n\n    /**\n    * @dev Public collect interest\n    * @param _wallet address\n    * @return uint256 Interest gained\n    */\n    function collectInterest(\n        address _wallet\n    )\n        public\n        returns (uint256)\n    {\n        (uint256 interestGained, uint256 rewardsDay) = _collectInterest(_wallet);\n        address allocateTo = delegates[_wallet] != address(0) ? delegates[_wallet] : _wallet;\n        _allocateToAppUser(allocateTo, interestGained, address(0), \"\", rewardsDay, false);\n        //or if we want to distribute between allocations (most cases there will be 1)\n        //_distributeAppUserAllocations(allocateTo, interestGained, rewardsDay, false);\n        return interestGained;\n    }\n\n    /**\n    * @dev Internal collect interest\n    * @param _wallet address\n    * @return uint256, uint256 Interest gained, rewardsDay\n    */\n    function _collectInterest(\n        address _wallet\n    )\n        internal\n        returns (uint256, uint256)\n    {\n        uint256 stakedBalance = balanceOf(_wallet);\n        require(\n             stakedBalance > 0,\n            \"Cannot collect interest if nothing is staked\"\n        );\n        uint256 rewardsDay = PropsRewardsLib._currentRewardsDay(rewardsLibData);\n        uint256 daysStaked = rewardsDay.sub(stakingMap[_wallet].stakeRewardsDay);\n        uint256 interestGained = _calculateInterest(stakedBalance,daysStaked,stakingMap[_wallet].interestRate);\n        IPropsToken token = IPropsToken(tokenContract);\n        token.mint(address(this), interestGained);\n        _mint(_wallet, interestGained);\n        stakingMap[_wallet].stakeRewardsDay = rewardsDay;\n        stakingMap[_wallet].interestRate = getParameter(PropsRewardsLib.ParameterName.StakingInterestRate, rewardsDay);\n        // _distributeAppUserAllocations(_wallet, interestGained, rewardsDay, false);\n        return (interestGained,rewardsDay);\n    }\n\n    /**\n    * @dev Allows a user to restake from unstaked state after restake cooldown\n    * @param _amount uint256 amount to unstake\n    * @param _applicationId address (optional pass 0x address) the application main address (used to setup the application)\n    * @param _userId bytes32 (optional pass empty) identification of the user\n    */\n    function restake(\n        uint256 _amount,\n        address _applicationId,\n        bytes32 _userId\n    )\n        public\n    {\n        require(\n            stakingMap[msg.sender].amountUnstaked > 0,\n            \"Cannot restake - nothing to restake\"\n        );\n        uint256 rewardsDay = PropsRewardsLib._currentRewardsDay(rewardsLibData);\n        require(\n            rewardsDay.sub(stakingMap[msg.sender].unstakeRewardsDay) > getParameter(PropsRewardsLib.ParameterName.RestakeCooldownPeriodDays, rewardsDay),\n            \"Cannot restake - in cooldown\"\n        );\n        stakingMap[msg.sender].amountUnstaked = stakingMap[msg.sender].amountUnstaked.sub(_amount);\n        return _stake(msg.sender, _amount, _applicationId, _userId);\n    }\n\n    /**\n    * @dev Allows a user to unstake props.\n    * @param _amount uint256 amount to unstake\n    * @param _applicationId address (optional pass 0x address) the application main address (used to setup the application)\n    * @param _userId bytes32 (optional pass empty) identification of the user\n    */\n    function unstake(\n        uint256 _amount,\n        address _applicationId,\n        bytes32 _userId\n    )\n        public\n    {\n        uint256 stakedBalance = balanceOf(msg.sender);\n        //bytes32 appUserId = _getApplicationUserId(_applicationId, _userId);\n        require(\n            stakedBalance >= _amount,\n            \"Cannot unstake more than what was staked\"\n        );\n        (uint256 interestGained, uint256 rewardsDay) = _collectInterest(msg.sender);\n        uint256 amountToUnstake = _amount.add(interestGained);\n        //Data for withdraw\n        stakingMap[msg.sender].unstakeRewardsDay = rewardsDay;\n        stakingMap[msg.sender].amountUnstaked = stakingMap[msg.sender].amountUnstaked.add(amountToUnstake);\n        _burn(msg.sender, amountToUnstake);\n        if (delegates[msg.sender] != address(0)) {\n            _removeFromAllocations(delegates[msg.sender], _amount, rewardsDay);\n        } else {\n            _allocateToAppUser(msg.sender, _amount, _applicationId, _userId, rewardsDay, true);\n        }\n        emit StakeChanged(\n            msg.sender,\n            rewardsDay,\n            balanceOf(msg.sender),\n            stakingMap[msg.sender].amountUnstaked,\n            _amount,\n            interestGained\n        );\n    }\n\n    /**\n    * @dev Allows a user to unstake props.\n    */\n    function withdraw()\n        public\n    {\n        require(\n            stakingMap[msg.sender].amountUnstaked > 0,\n            \"Cannot withdraw nothing to withdraw\"\n        );\n        uint256 rewardsDay = PropsRewardsLib._currentRewardsDay(rewardsLibData);\n        require(\n            rewardsDay.sub(stakingMap[msg.sender].unstakeRewardsDay) > getParameter(PropsRewardsLib.ParameterName.WithdrawCooldownPeriodDays, rewardsDay),\n            \"Cannot withdraw before cooldown period is over\"\n        );\n        IPropsToken token = IPropsToken(tokenContract);\n        token.transfer(msg.sender, stakingMap[msg.sender].amountUnstaked);\n        emit Withdraw(msg.sender, rewardsDay, stakingMap[msg.sender].amountUnstaked);\n        stakingMap[msg.sender].amountUnstaked = 0;\n    }\n\n    /**\n    * @dev Allows an application to settle sidechain props. Should be called from an application rewards address\n    * @param _applicationId address the application main address (used to setup the application)\n    * @param _userId bytes32 identification of the user on the sidechain that was settled\n    * @param _to address where to send the props to\n    * @param _amount uint256 the address used for using the sidechain\n    * @param _shouldStake bool if true the amount will be immeidatly staked and allocated to the application user\n    * @param v The recovery byte of the signature\n    * @param r Half of the ECDSA signature pair\n    * @param s Half of the ECDSA signature pair\n    */\n    function settle(\n        address _applicationId,\n        bytes32 _userId,\n        address _to,\n        uint256 _amount,\n        bool _shouldStake,\n        uint8 v,\n        bytes32 r,\n        bytes32 s\n    )\n        public\n    {\n        require(\n            rewardsLibData.applications[_applicationId].rewardsAddress == msg.sender,\n            \"settle may only be called by an application\"\n        );\n        IPropsToken token = IPropsToken(tokenContract);\n        if (!_shouldStake) {\n            token.permit(_applicationId, _to, _amount, uint(-1), v, r, s);\n            token.transferFrom(_applicationId, _to, _amount);\n        } else {\n            token.permit(_applicationId, address(this), _amount, uint(-1), v, r, s);\n            token.transferFrom(_applicationId, address(this), _amount);\n            return _stake(_to, _amount, _applicationId, _userId);\n        }\n        emit Settlement(_applicationId, _userId, _to, _amount, msg.sender);\n    }\n\n    /**\n    * @dev Public function to allocate unallocated voting power\n    * @param _wallet address of allocating wallet\n    * @param _amount uint256 amount to be allocated\n    * @param _applicationId address the application main address (used to setup the application)\n    * @param _userId bytes32 identification of the user\n    */\n    function allocateToAppUser(\n        address _wallet,\n        uint256 _amount,\n        address _applicationId,\n        bytes32 _userId\n    )\n        internal\n    {\n        require(\n            _applicationId != address(0),\n            \"Must allocate to non 0x address\"\n        );\n        bytes32 zeroAppUserId = _getApplicationUserId(address(0), \"\");\n        require(\n            allocationsMap[_wallet][zeroAppUserId].amount >= _amount,\n            \"Cannot allocate more than unallocated\"\n        );\n        uint256 rewardsDay = PropsRewardsLib._currentRewardsDay(rewardsLibData);\n        // decrease zero appUserId allocation\n        _allocateToAppUser(_wallet, _amount, address(0), \"\", rewardsDay, true);\n        // allocate to specified application user\n        _allocateToAppUser(_wallet, _amount, _applicationId, _userId, rewardsDay, false);\n    }\n\n    /**\n     * @dev Delegate votes from `msg.sender` to `delegatee`\n     * @param delegatee The address to delegate votes to\n     */\n    function delegate(\n        address delegatee\n    )\n        public\n    {\n        return _delegate(msg.sender, delegatee);\n    }\n\n    /**\n     * @dev Delegates votes from signatory to `delegatee`\n     * @param delegatee The address to delegate votes to\n     * @param nonce The contract state required to match the signature\n     * @param expiry The time at which to expire the signature\n     * @param v The recovery byte of the signature\n     * @param r Half of the ECDSA signature pair\n     * @param s Half of the ECDSA signature pair\n     */\n    function delegateBySig(\n        address delegatee,\n        uint nonce,\n        uint expiry,\n        uint8 v,\n        bytes32 r,\n        bytes32 s\n    )\n        public\n    {\n        bytes32 domainSeparator = keccak256(abi.encode(DOMAIN_TYPEHASH, keccak256(bytes(\"sPROPS\")), getChainId(), address(this)));\n        bytes32 structHash = keccak256(abi.encode(DELEGATION_TYPEHASH, delegatee, nonce, expiry));\n        bytes32 digest = keccak256(abi.encodePacked(\"\\x19\\x01\", domainSeparator, structHash));\n        address signatory = ecrecover(digest, v, r, s);\n        require(signatory != address(0), \"delegateBySig: invalid signature\");\n        require(nonce == nonces[signatory]++, \"delegateBySig: invalid nonce\");\n        require(block.timestamp <= expiry, \"delegateBySig: signature expired\");\n        return _delegate(signatory, delegatee);\n    }\n\n    /**\n     * @dev Gets the current votes balance for `account`\n     * @param account The address to get votes balance\n     * @return uint256 The number of current votes for `account`\n     */\n    function getCurrentVotes(\n        address account\n    )\n        external\n        view\n        returns (uint256)\n    {\n        uint32 nCheckpoints = numCheckpoints[account];\n        return nCheckpoints > 0 ? checkpoints[account][nCheckpoints - 1].votes : 0;\n    }\n\n    /**\n     * @dev Determine the prior number of votes for an account as of a block number\n     * @dev Block number must be a finalized block or else this function will revert to prevent misinformation.\n     * @param account address The address of the account to check\n     * @param blockNumber uint The block number to get the vote balance at\n     * @return uint256 The number of votes the account had as of the given block\n     */\n    function getPriorVotes(\n        address account,\n        uint blockNumber\n    )\n        public\n        view\n        returns (uint256)\n    {\n        require(blockNumber < block.number, \"getPriorVotes: not yet determined\");\n\n        uint32 nCheckpoints = numCheckpoints[account];\n        if (nCheckpoints == 0) {\n            return 0;\n        }\n\n        // First check most recent balance\n        if (checkpoints[account][nCheckpoints - 1].fromBlock <= blockNumber) {\n            return checkpoints[account][nCheckpoints - 1].votes;\n        }\n\n        // Next check implicit zero balance\n        if (checkpoints[account][0].fromBlock > blockNumber) {\n            return 0;\n        }\n\n        uint32 lower = 0;\n        uint32 upper = nCheckpoints - 1;\n        while (upper > lower) {\n            uint32 center = upper - (upper - lower) / 2; // ceil, avoiding overflow\n            Checkpoint memory cp = checkpoints[account][center];\n            if (cp.fromBlock == blockNumber) {\n                return cp.votes;\n            } else if (cp.fromBlock < blockNumber) {\n                lower = center;\n            } else {\n                upper = center - 1;\n            }\n        }\n        return checkpoints[account][lower].votes;\n    }\n\n    /**\n    * @dev Internal stake call to be used by stake or settle\n    * @param _to address where to send the props to\n    * @param _amount uint256 amount to be staked\n    * @param _applicationId address (optional pass 0x address) the application main address (used to setup the application)\n    * @param _userId bytes32 (optional pass empty) identification of the user\n    */\n    function _stake(\n        address _to,\n        uint256 _amount,\n        address _applicationId,\n        bytes32 _userId\n    )\n        internal\n    {\n        uint256 amountToAllocate = _amount;\n        uint256 rewardsDay;\n        uint256 interestGained = 0;\n        // if there's currently anything staked need to collect interest and add to staking principal\n        if (balanceOf(_to) > 0) {\n            (interestGained, rewardsDay) = _collectInterest(_to);\n            amountToAllocate = amountToAllocate.add(interestGained);\n        } else {\n             rewardsDay = PropsRewardsLib._currentRewardsDay(rewardsLibData);\n        }\n\n        stakingMap[_to].stakeRewardsDay = rewardsDay;\n        stakingMap[_to].interestRate = getParameter(PropsRewardsLib.ParameterName.StakingInterestRate, rewardsDay);\n        // if no app user is given put in un-allocated pool\n        // if delegated assign to unallocated regardless of staked requested application user\n        address allocateTo = delegates[_to] != address(0) ? delegates[_to] : _to;\n        _allocateToAppUser(allocateTo, amountToAllocate, _applicationId, _userId, rewardsDay, false);\n        // Older code below here for reference when we would automatically distribute it\n        /*\n        if (_applicationId == address(0)) {\n            _distributeAppUserAllocations(_to, amountToAllocate, rewardsDay, false);\n        } else {\n            _allocateToAppUser(_to, amountToAllocate, _applicationId, _userId, rewardsDay, false);\n        }\n        */\n        emit StakeChanged(\n            _to,\n            rewardsDay,\n            balanceOf(_to),\n            stakingMap[_to].amountUnstaked,\n            amountToAllocate,\n            interestGained            \n        );\n    }\n\n\n    /**\n    * @dev Internal remove an allocation amount from unallocated and proportionally from all other allocations\n    * @param _wallet address of allocating wallet\n    * @param _amount uint256 amount to be allocated\n    * @param _rewardsDay uint256 the rewards day\n    */\n    function _removeFromAllocations(\n        address _wallet,\n        uint256 _amount,\n        uint256 _rewardsDay\n    )\n        internal\n    {\n        bytes32 zeroAppUserId = _getApplicationUserId(address(0), \"\");\n        // first try to remove all from unallocated pool\n        uint256 unallocatedAmount = allocationsMap[_wallet][zeroAppUserId].amount;\n        if (unallocatedAmount >= _amount) {\n            _allocateToAppUser(_wallet, _amount, address(0), \"\", _rewardsDay, true);\n        } else {\n            //take whatever is unallocated and the rest proportionally\n            if (unallocatedAmount > 0) {\n                _allocateToAppUser(_wallet, unallocatedAmount, address(0), \"\", _rewardsDay, true);\n            }\n            _distributeAppUserAllocations(_wallet, _amount.sub(unallocatedAmount), _rewardsDay, true);\n        }\n    }\n\n    /**\n    * @dev Internal allocate to user call\n    * @param _wallet address of allocating wallet\n    * @param _amount uint256 amount to be allocated\n    * @param _applicationId address the application main address (used to setup the application)\n    * @param _userId bytes32 identification of the user\n    * @param _rewardsDay uint256 the rewards day\n    * @param _subtract bool should the amount be subtracted\n    */\n    function _allocateToAppUser(\n        address _wallet,\n        uint256 _amount,\n        address _applicationId,\n        bytes32 _userId,\n        uint256 _rewardsDay,\n        bool _subtract\n    )\n        internal\n    {\n        bytes32 appUserId = _getApplicationUserId(_applicationId, _userId);\n        if (_subtract) {\n            require(\n                allocationsMap[_wallet][appUserId].amount > _amount,\n                \"Cannot subtract not enough allocated\"\n            );\n        }\n\n        if (!allocationsMap[_wallet][appUserId].isInitialized) {\n            allocationsMap[_wallet][appUserId].isInitialized = true;\n            allocationsArr[_wallet].push(appUserId);\n            allocationsMap[_wallet][appUserId].arrIndex = allocationsArr[_wallet].length - 1;\n            allocationsMap[_wallet][appUserId].applicationUser = ApplicationUser(_applicationId, _userId);\n        }\n        if (!_subtract) {\n            allocationsMap[_wallet][appUserId].amount = allocationsMap[_wallet][appUserId].amount.add(_amount);\n            allocationsSum[_wallet] = allocationsSum[_wallet].add(_amount);\n        } else {\n            allocationsMap[_wallet][appUserId].amount = allocationsMap[_wallet][appUserId].amount.sub(_amount);\n            allocationsSum[_wallet] = allocationsSum[_wallet].sub(_amount);\n            if (allocationsMap[_wallet][appUserId].amount == 0) { // if removed all allocation delete the entry and reorganize array\n                _deleteAllocation(_wallet, appUserId);\n            }\n        }\n\n        emit AllocationChanged(\n            _wallet,\n            _rewardsDay,\n            _applicationId,\n            _userId,\n            allocationsMap[_wallet][appUserId].amount,\n            _amount\n        );\n    }\n\n    /**\n    * @dev Internal delete allocation when no longer needed and reorganize array\n    * @param _wallet address wallet\n    * @param _appUserId bytes32 key generated from appId + userId\n    */\n    function _deleteAllocation(\n        address _wallet,\n        bytes32 _appUserId\n    )\n        internal\n    {\n        allocationsMap[_wallet][_appUserId].isInitialized = false;\n        allocationsMap[_wallet][_appUserId].amount = 0;\n        uint256 arrIndex = allocationsMap[_wallet][_appUserId].arrIndex;\n        uint256 len = allocationsArr[_wallet].length;\n        bool moveLastItemToNewPosition = arrIndex < (len - 1);\n        if (moveLastItemToNewPosition) {\n            allocationsMap[_wallet][allocationsArr[_wallet][len - 1]].arrIndex = arrIndex;\n            allocationsArr[_wallet][arrIndex] = allocationsArr[_wallet][len - 1];\n            allocationsArr[_wallet].pop();\n        } else {\n            allocationsArr[_wallet].pop();\n        }\n    }\n\n    /**\n    * @dev Internal redistribute allocations on amount change\n    * @param _wallet address of allocating wallet\n    * @param _amount uint256 amount to be allocated\n    * @param _rewardsDay uint256 the rewards day\n    * @param _subtract bool should the amount be subtracted\n    */\n\n    function _distributeAppUserAllocations(\n        address _wallet,\n        uint256 _amount,\n        uint256 _rewardsDay,\n        bool _subtract\n    )\n        internal\n    {\n        require(\n            allocationsArr[_wallet].length > 0,\n            \"Cannot distribute if no allocations exist\"\n        );\n        if (allocationsArr[_wallet].length == 1) { // one app - nothing to distribute just one application user will get it\n            _allocateToAppUser(\n                _wallet,\n                _amount,\n                allocationsMap[_wallet][allocationsArr[_wallet][0]].applicationUser.appId,\n                allocationsMap[_wallet][allocationsArr[_wallet][0]].applicationUser.userId,\n                _rewardsDay,\n                _subtract\n            );\n        } else {\n            uint256[MAX_APPLICATION_USER_PER_WALLET] memory ratios;            \n\n            for (uint i = 0; i < allocationsArr[_wallet].length; i++) {\n                ratios[i] = allocationsMap[_wallet][allocationsArr[_wallet][i]].amount.mul(precisionMul).div(allocationsSum[_wallet]);\n            }\n            uint256 tempSum = 0;\n            for (uint i = 0; i < allocationsArr[_wallet].length; i++) {\n                uint256 amountWithRatio;\n                if (i < (allocationsArr[_wallet].length-1)) {\n                    amountWithRatio = _amount.mul(ratios[i]).div(precisionMul);\n                } else {\n                    amountWithRatio = tempSum.sub(_amount);\n                }\n                _allocateToAppUser(\n                    _wallet,\n                    amountWithRatio,\n                    allocationsMap[_wallet][allocationsArr[_wallet][i]].applicationUser.appId,\n                    allocationsMap[_wallet][allocationsArr[_wallet][i]].applicationUser.userId,\n                    _rewardsDay,\n                    _subtract\n                );\n                tempSum = tempSum.add(amountWithRatio);\n            }\n        }\n    }\n\n    /**\n    * @dev Internal stake call to be used by stake or settle using Daily Compound Interest = [Start Amount * (1 + (Interest Rate / 365)) ^ (n * 365)] – Start Amount\n    * @param _principal uint256 amount originally staked\n    * @param _days uint256 days for which to calculate interest\n    * @param _interestRate uint256 days for which to calculate interest\n    * @return uint256 The gained interest\n    */\n    function _calculateInterest(\n        uint256 _principal,\n        uint256 _days,\n        uint256 _interestRate\n    )\n        internal\n        pure\n        returns(uint256)\n    {\n        uint256 interestGained = _principal.mul(\n            (1 + _interestRate.div(1e16).div(365))**(_days*365)\n        ).sub(_principal);\n        return interestGained;\n    }\n\n    function _delegate(address delegator, address delegatee) internal {\n        address currentDelegate = delegates[delegator];\n        uint256 delegatorBalance = balanceOf(delegator);\n        delegates[delegator] = delegatee;\n\n        emit DelegateChanged(delegator, currentDelegate, delegatee);\n\n        _moveDelegates(currentDelegate, delegatee, delegatorBalance);\n        if (delegatorBalance > 0 ) {\n            uint256 rewardsDay = PropsRewardsLib._currentRewardsDay(rewardsLibData);\n            address allocateFrom = currentDelegate != address(0) ? currentDelegate : delegator;\n            if (currentDelegate != address(0)) {\n                _removeFromAllocations(allocateFrom, delegatorBalance, rewardsDay);\n            }\n            address allocateTo = delegatee != address(0) ? delegatee : delegator;\n            _allocateToAppUser(allocateTo, delegatorBalance, address(0), \"\", rewardsDay, false);\n        }\n    }\n\n    function _moveDelegates(address srcRep, address dstRep, uint256 amount) internal {\n        if (srcRep != dstRep && amount > 0) {\n            if (srcRep != address(0)) {\n                uint32 srcRepNum = numCheckpoints[srcRep];\n                uint256 srcRepOld = srcRepNum > 0 ? checkpoints[srcRep][srcRepNum - 1].votes : 0;\n                uint256 srcRepNew = srcRepOld.sub(amount);\n                _writeCheckpoint(srcRep, srcRepNum, srcRepOld, srcRepNew);\n            }\n\n            if (dstRep != address(0)) {\n                uint32 dstRepNum = numCheckpoints[dstRep];\n                uint256 dstRepOld = dstRepNum > 0 ? checkpoints[dstRep][dstRepNum - 1].votes : 0;\n                uint256 dstRepNew = dstRepOld.add(amount);\n                _writeCheckpoint(dstRep, dstRepNum, dstRepOld, dstRepNew);\n            }\n        }\n    }\n\n    function _writeCheckpoint(address delegatee, uint32 nCheckpoints, uint256 oldVotes, uint256 newVotes) internal {\n      uint32 blockNumber = safe32(block.number, \"_writeCheckpoint: block number exceeds 32 bits\");\n\n      if (nCheckpoints > 0 && checkpoints[delegatee][nCheckpoints - 1].fromBlock == blockNumber) {\n          checkpoints[delegatee][nCheckpoints - 1].votes = newVotes;\n      } else {\n          checkpoints[delegatee][nCheckpoints] = Checkpoint(blockNumber, newVotes);\n          numCheckpoints[delegatee] = nCheckpoints + 1;\n      }\n\n      emit DelegateVotesChanged(delegatee, oldVotes, newVotes);\n    }\n\n    function safe32(uint n, string memory errorMessage) internal pure returns (uint32) {\n        require(n < 2**32, errorMessage);\n        return uint32(n);\n    }\n\n    function getChainId() internal pure returns (uint) {\n        uint256 chainId;\n        assembly { chainId := chainid() }\n        return chainId;\n    }\n\n    /**\n     * @dev Return a unique identified for application userId combination\n     * @param _applicationId address\n     * @param _userId bytes32\n     * @return bytes32 unique identifier\n     */\n    function _getApplicationUserId(\n        address _applicationId,\n        bytes32 _userId\n    )\n        internal\n        pure\n        returns (bytes32)\n    {\n        return keccak256(abi.encode(_applicationId, _userId));\n    }\n\n    /**\n    * @dev Mint rewards for validators\n    * @param _rewardsDay uint256 the rewards day\n    * @param _rewardsHash bytes32 hash of the rewards data\n    * @param _amount uint256 amount each validator should get\n    */\n    function _mintDailyRewardsForValidators(uint256 _rewardsDay, bytes32 _rewardsHash, uint256 _amount)\n        internal\n    {\n        IPropsToken token = IPropsToken(tokenContract);\n        uint256 validatorsCount = rewardsLibData.dailyRewards.submissions[_rewardsHash].validatorsList.length;\n        for (uint256 i = 0; i < validatorsCount; i++) {\n            token.mint(\n                rewardsLibData.validators[rewardsLibData.dailyRewards.submissions[_rewardsHash].validatorsList[i]].rewardsAddress,\n                _amount\n            );\n        }\n        PropsRewardsLib._resetDailyRewards(rewardsLibData, _rewardsHash);\n        emit DailyRewardsValidatorsMinted(\n            _rewardsDay,\n            _rewardsHash,\n            validatorsCount,\n            (_amount * validatorsCount)\n        );\n    }\n\n    /**\n    * @dev Mint rewards for apps\n    * @param _rewardsDay uint256 the rewards day\n    * @param _rewardsHash bytes32 hash of the rewards data\n    * @param _applications address[] array of application addresses getting the daily reward\n    * @param _amounts uint256[] array of amounts each app should get\n    * @param _sum uint256 the sum of all application rewards given\n    */\n    function _mintDailyRewardsForApps(\n        uint256 _rewardsDay,\n        bytes32 _rewardsHash,\n        address[] memory _applications,\n        uint256[] memory _amounts,\n        uint256 _sum\n    )\n        internal\n    {\n        IPropsToken token = IPropsToken(tokenContract);\n        for (uint256 i = 0; i < _applications.length; i++) {\n            token.mint(rewardsLibData.applications[_applications[i]].rewardsAddress, _amounts[i]);\n        }\n        emit DailyRewardsApplicationsMinted(_rewardsDay, _rewardsHash, _applications.length, _sum);\n    }\n\n}",
  "sourcePath": "contracts/PropsRewards.sol",
  "abi": [
    {
      "anonymous": false,
      "inputs": [
        {
          "indexed": true,
          "internalType": "address",
          "name": "wallet",
          "type": "address"
        },
        {
          "indexed": true,
          "internalType": "uint256",
          "name": "rewardsDay",
          "type": "uint256"
        },
        {
          "indexed": true,
          "internalType": "address",
          "name": "appId",
          "type": "address"
        },
        {
          "indexed": false,
          "internalType": "bytes32",
          "name": "userId",
          "type": "bytes32"
        },
        {
          "indexed": false,
          "internalType": "uint256",
          "name": "amount",
          "type": "uint256"
        },
        {
          "indexed": false,
          "internalType": "uint256",
          "name": "amountChanged",
          "type": "uint256"
        }
      ],
      "name": "AllocationChanged",
      "type": "event"
    },
    {
      "anonymous": false,
      "inputs": [
        {
          "indexed": false,
          "internalType": "address[]",
          "name": "applicationsList",
          "type": "address[]"
        },
        {
          "indexed": true,
          "internalType": "uint256",
          "name": "rewardsDay",
          "type": "uint256"
        }
      ],
      "name": "ApplicationsListUpdated",
      "type": "event"
    },
    {
      "anonymous": false,
      "inputs": [
        {
          "indexed": true,
          "internalType": "address",
          "name": "owner",
          "type": "address"
        },
        {
          "indexed": true,
          "internalType": "address",
          "name": "spender",
          "type": "address"
        },
        {
          "indexed": false,
          "internalType": "uint256",
          "name": "value",
          "type": "uint256"
        }
      ],
      "name": "Approval",
      "type": "event"
    },
    {
      "anonymous": false,
      "inputs": [
        {
          "indexed": true,
          "internalType": "uint256",
          "name": "rewardsDay",
          "type": "uint256"
        },
        {
          "indexed": true,
          "internalType": "bytes32",
          "name": "rewardsHash",
          "type": "bytes32"
        },
        {
          "indexed": false,
          "internalType": "uint256",
          "name": "numOfApplications",
          "type": "uint256"
        },
        {
          "indexed": false,
          "internalType": "uint256",
          "name": "amount",
          "type": "uint256"
        }
      ],
      "name": "DailyRewardsApplicationsMinted",
      "type": "event"
    },
    {
      "anonymous": false,
      "inputs": [
        {
          "indexed": true,
          "internalType": "uint256",
          "name": "rewardsDay",
          "type": "uint256"
        },
        {
          "indexed": true,
          "internalType": "bytes32",
          "name": "rewardsHash",
          "type": "bytes32"
        },
        {
          "indexed": true,
          "internalType": "address",
          "name": "validator",
          "type": "address"
        }
      ],
      "name": "DailyRewardsSubmitted",
      "type": "event"
    },
    {
      "anonymous": false,
      "inputs": [
        {
          "indexed": true,
          "internalType": "uint256",
          "name": "rewardsDay",
          "type": "uint256"
        },
        {
          "indexed": true,
          "internalType": "bytes32",
          "name": "rewardsHash",
          "type": "bytes32"
        },
        {
          "indexed": false,
          "internalType": "uint256",
          "name": "numOfValidators",
          "type": "uint256"
        },
        {
          "indexed": false,
          "internalType": "uint256",
          "name": "amount",
          "type": "uint256"
        }
      ],
      "name": "DailyRewardsValidatorsMinted",
      "type": "event"
    },
    {
      "anonymous": false,
      "inputs": [
        {
          "indexed": true,
          "internalType": "address",
          "name": "delegator",
          "type": "address"
        },
        {
          "indexed": true,
          "internalType": "address",
          "name": "fromDelegate",
          "type": "address"
        },
        {
          "indexed": true,
          "internalType": "address",
          "name": "toDelegate",
          "type": "address"
        }
      ],
      "name": "DelegateChanged",
      "type": "event"
    },
    {
      "anonymous": false,
      "inputs": [
        {
          "indexed": true,
          "internalType": "address",
          "name": "delegate",
          "type": "address"
        },
        {
          "indexed": false,
          "internalType": "uint256",
          "name": "previousBalance",
          "type": "uint256"
        },
        {
          "indexed": false,
          "internalType": "uint256",
          "name": "newBalance",
          "type": "uint256"
        }
      ],
      "name": "DelegateVotesChanged",
      "type": "event"
    },
    {
      "anonymous": false,
      "inputs": [
        {
          "indexed": true,
          "internalType": "address",
          "name": "id",
          "type": "address"
        },
        {
          "indexed": true,
          "internalType": "enum PropsRewardsLib.RewardedEntityType",
          "name": "entityType",
          "type": "uint8"
        },
        {
          "indexed": false,
          "internalType": "bytes32",
          "name": "name",
          "type": "bytes32"
        },
        {
          "indexed": false,
          "internalType": "address",
          "name": "rewardsAddress",
          "type": "address"
        },
        {
          "indexed": true,
          "internalType": "address",
          "name": "sidechainAddress",
          "type": "address"
        }
      ],
      "name": "EntityUpdated",
      "type": "event"
    },
    {
      "anonymous": false,
      "inputs": [
        {
          "indexed": false,
          "internalType": "enum PropsRewardsLib.ParameterName",
          "name": "param",
          "type": "uint8"
        },
        {
          "indexed": false,
          "internalType": "uint256",
          "name": "newValue",
          "type": "uint256"
        },
        {
          "indexed": false,
          "internalType": "uint256",
          "name": "oldValue",
          "type": "uint256"
        },
        {
          "indexed": false,
          "internalType": "uint256",
          "name": "rewardsDay",
          "type": "uint256"
        }
      ],
      "name": "ParameterUpdated",
      "type": "event"
    },
    {
      "anonymous": false,
      "inputs": [
        {
          "indexed": true,
          "internalType": "bytes32",
          "name": "role",
          "type": "bytes32"
        },
        {
          "indexed": true,
          "internalType": "address",
          "name": "account",
          "type": "address"
        },
        {
          "indexed": true,
          "internalType": "address",
          "name": "sender",
          "type": "address"
        }
      ],
      "name": "RoleGranted",
      "type": "event"
    },
    {
      "anonymous": false,
      "inputs": [
        {
          "indexed": true,
          "internalType": "bytes32",
          "name": "role",
          "type": "bytes32"
        },
        {
          "indexed": true,
          "internalType": "address",
          "name": "account",
          "type": "address"
        },
        {
          "indexed": true,
          "internalType": "address",
          "name": "sender",
          "type": "address"
        }
      ],
      "name": "RoleRevoked",
      "type": "event"
    },
    {
      "anonymous": false,
      "inputs": [
        {
          "indexed": true,
          "internalType": "address",
          "name": "applicationId",
          "type": "address"
        },
        {
          "indexed": true,
          "internalType": "bytes32",
          "name": "userId",
          "type": "bytes32"
        },
        {
          "indexed": true,
          "internalType": "address",
          "name": "to",
          "type": "address"
        },
        {
          "indexed": false,
          "internalType": "uint256",
          "name": "amount",
          "type": "uint256"
        },
        {
          "indexed": false,
          "internalType": "address",
          "name": "rewardsAddress",
          "type": "address"
        }
      ],
      "name": "Settlement",
      "type": "event"
    },
    {
      "anonymous": false,
      "inputs": [
        {
          "indexed": true,
          "internalType": "address",
          "name": "wallet",
          "type": "address"
        },
        {
          "indexed": true,
          "internalType": "uint256",
          "name": "rewardsDay",
          "type": "uint256"
        },
        {
          "indexed": false,
          "internalType": "uint256",
          "name": "amountStaked",
          "type": "uint256"
        },
        {
          "indexed": false,
          "internalType": "uint256",
          "name": "amountUnstaked",
          "type": "uint256"
        },
        {
          "indexed": false,
          "internalType": "uint256",
          "name": "amountChanged",
          "type": "uint256"
        },
        {
          "indexed": false,
          "internalType": "uint256",
          "name": "interestGained",
          "type": "uint256"
        }
      ],
      "name": "StakeChanged",
      "type": "event"
    },
    {
      "anonymous": false,
      "inputs": [
        {
          "indexed": true,
          "internalType": "address",
          "name": "from",
          "type": "address"
        },
        {
          "indexed": true,
          "internalType": "address",
          "name": "to",
          "type": "address"
        },
        {
          "indexed": false,
          "internalType": "uint256",
          "name": "value",
          "type": "uint256"
        }
      ],
      "name": "Transfer",
      "type": "event"
    },
    {
      "anonymous": false,
      "inputs": [
        {
          "indexed": false,
          "internalType": "address[]",
          "name": "validatorsList",
          "type": "address[]"
        },
        {
          "indexed": true,
          "internalType": "uint256",
          "name": "rewardsDay",
          "type": "uint256"
        }
      ],
      "name": "ValidatorsListUpdated",
      "type": "event"
    },
    {
      "anonymous": false,
      "inputs": [
        {
          "indexed": true,
          "internalType": "address",
          "name": "wallet",
          "type": "address"
        },
        {
          "indexed": true,
          "internalType": "uint256",
          "name": "rewardsDay",
          "type": "uint256"
        },
        {
          "indexed": false,
          "internalType": "uint256",
          "name": "amount",
          "type": "uint256"
        }
      ],
      "name": "Withdraw",
      "type": "event"
    },
    {
      "inputs": [],
      "name": "APPLICATION_ROLE",
      "outputs": [
        {
          "internalType": "bytes32",
          "name": "",
          "type": "bytes32"
        }
      ],
      "stateMutability": "view",
      "type": "function"
    },
    {
      "inputs": [],
      "name": "DEFAULT_ADMIN_ROLE",
      "outputs": [
        {
          "internalType": "bytes32",
          "name": "",
          "type": "bytes32"
        }
      ],
      "stateMutability": "view",
      "type": "function"
    },
    {
      "inputs": [],
      "name": "DELEGATION_TYPEHASH",
      "outputs": [
        {
          "internalType": "bytes32",
          "name": "",
          "type": "bytes32"
        }
      ],
      "stateMutability": "view",
      "type": "function"
    },
    {
      "inputs": [],
      "name": "DOMAIN_TYPEHASH",
      "outputs": [
        {
          "internalType": "bytes32",
          "name": "",
          "type": "bytes32"
        }
      ],
      "stateMutability": "view",
      "type": "function"
    },
    {
      "inputs": [],
      "name": "MAX_APPLICATION_USER_PER_WALLET",
      "outputs": [
        {
          "internalType": "uint8",
          "name": "",
          "type": "uint8"
        }
      ],
      "stateMutability": "view",
      "type": "function"
    },
    {
      "inputs": [],
      "name": "VALIDATOR_ROLE",
      "outputs": [
        {
          "internalType": "bytes32",
          "name": "",
          "type": "bytes32"
        }
      ],
      "stateMutability": "view",
      "type": "function"
    },
    {
      "inputs": [
        {
          "internalType": "address",
          "name": "",
          "type": "address"
        },
        {
          "internalType": "uint256",
          "name": "",
          "type": "uint256"
        }
      ],
      "name": "allocationsArr",
      "outputs": [
        {
          "internalType": "bytes32",
          "name": "",
          "type": "bytes32"
        }
      ],
      "stateMutability": "view",
      "type": "function"
    },
    {
      "inputs": [
        {
          "internalType": "address",
          "name": "",
          "type": "address"
        }
      ],
      "name": "allocationsSum",
      "outputs": [
        {
          "internalType": "uint256",
          "name": "",
          "type": "uint256"
        }
      ],
      "stateMutability": "view",
      "type": "function"
    },
    {
      "inputs": [
        {
          "internalType": "address",
          "name": "owner",
          "type": "address"
        },
        {
          "internalType": "address",
          "name": "spender",
          "type": "address"
        }
      ],
      "name": "allowance",
      "outputs": [
        {
          "internalType": "uint256",
          "name": "",
          "type": "uint256"
        }
      ],
      "stateMutability": "view",
      "type": "function"
    },
    {
      "inputs": [
        {
          "internalType": "address",
          "name": "spender",
          "type": "address"
        },
        {
          "internalType": "uint256",
          "name": "amount",
          "type": "uint256"
        }
      ],
      "name": "approve",
      "outputs": [
        {
          "internalType": "bool",
          "name": "",
          "type": "bool"
        }
      ],
      "stateMutability": "nonpayable",
      "type": "function"
    },
    {
      "inputs": [
        {
          "internalType": "address",
          "name": "account",
          "type": "address"
        }
      ],
      "name": "balanceOf",
      "outputs": [
        {
          "internalType": "uint256",
          "name": "",
          "type": "uint256"
        }
      ],
      "stateMutability": "view",
      "type": "function"
    },
    {
      "inputs": [
        {
          "internalType": "address",
          "name": "",
          "type": "address"
        },
        {
          "internalType": "uint32",
          "name": "",
          "type": "uint32"
        }
      ],
      "name": "checkpoints",
      "outputs": [
        {
          "internalType": "uint32",
          "name": "fromBlock",
          "type": "uint32"
        },
        {
          "internalType": "uint256",
          "name": "votes",
          "type": "uint256"
        }
      ],
      "stateMutability": "view",
      "type": "function"
    },
    {
      "inputs": [
        {
          "internalType": "address",
          "name": "_wallet",
          "type": "address"
        }
      ],
      "name": "collectInterest",
      "outputs": [
        {
          "internalType": "uint256",
          "name": "",
          "type": "uint256"
        }
      ],
      "stateMutability": "nonpayable",
      "type": "function"
    },
    {
      "inputs": [],
      "name": "decimals",
      "outputs": [
        {
          "internalType": "uint8",
          "name": "",
          "type": "uint8"
        }
      ],
      "stateMutability": "view",
      "type": "function"
    },
    {
      "inputs": [
        {
          "internalType": "address",
          "name": "spender",
          "type": "address"
        },
        {
          "internalType": "uint256",
          "name": "subtractedValue",
          "type": "uint256"
        }
      ],
      "name": "decreaseAllowance",
      "outputs": [
        {
          "internalType": "bool",
          "name": "",
          "type": "bool"
        }
      ],
      "stateMutability": "nonpayable",
      "type": "function"
    },
    {
      "inputs": [
        {
          "internalType": "address",
          "name": "delegatee",
          "type": "address"
        }
      ],
      "name": "delegate",
      "outputs": [],
      "stateMutability": "nonpayable",
      "type": "function"
    },
    {
      "inputs": [
        {
          "internalType": "address",
          "name": "delegatee",
          "type": "address"
        },
        {
          "internalType": "uint256",
          "name": "nonce",
          "type": "uint256"
        },
        {
          "internalType": "uint256",
          "name": "expiry",
          "type": "uint256"
        },
        {
          "internalType": "uint8",
          "name": "v",
          "type": "uint8"
        },
        {
          "internalType": "bytes32",
          "name": "r",
          "type": "bytes32"
        },
        {
          "internalType": "bytes32",
          "name": "s",
          "type": "bytes32"
        }
      ],
      "name": "delegateBySig",
      "outputs": [],
      "stateMutability": "nonpayable",
      "type": "function"
    },
    {
      "inputs": [
        {
          "internalType": "address",
          "name": "",
          "type": "address"
        }
      ],
      "name": "delegates",
      "outputs": [
        {
          "internalType": "address",
          "name": "",
          "type": "address"
        }
      ],
      "stateMutability": "view",
      "type": "function"
    },
    {
      "inputs": [
        {
          "internalType": "address",
          "name": "_wallet",
          "type": "address"
        },
        {
          "internalType": "address",
          "name": "_applicationId",
          "type": "address"
        },
        {
          "internalType": "bytes32",
          "name": "_userId",
          "type": "bytes32"
        }
      ],
      "name": "getAllocated",
      "outputs": [
        {
          "internalType": "uint256",
          "name": "",
          "type": "uint256"
        }
      ],
      "stateMutability": "view",
      "type": "function"
    },
    {
      "inputs": [
        {
          "internalType": "address",
          "name": "account",
          "type": "address"
        }
      ],
      "name": "getCurrentVotes",
      "outputs": [
        {
          "internalType": "uint256",
          "name": "",
          "type": "uint256"
        }
      ],
      "stateMutability": "view",
      "type": "function"
    },
    {
      "inputs": [
        {
          "internalType": "enum PropsRewardsLib.RewardedEntityType",
          "name": "_entityType",
          "type": "uint8"
        },
        {
          "internalType": "uint256",
          "name": "_rewardsDay",
          "type": "uint256"
        }
      ],
      "name": "getEntities",
      "outputs": [
        {
          "internalType": "address[]",
          "name": "",
          "type": "address[]"
        }
      ],
      "stateMutability": "view",
      "type": "function"
    },
    {
      "inputs": [
        {
          "internalType": "enum PropsRewardsLib.ParameterName",
          "name": "_name",
          "type": "uint8"
        },
        {
          "internalType": "uint256",
          "name": "_rewardsDay",
          "type": "uint256"
        }
      ],
      "name": "getParameter",
      "outputs": [
        {
          "internalType": "uint256",
          "name": "",
          "type": "uint256"
        }
      ],
      "stateMutability": "view",
      "type": "function"
    },
    {
      "inputs": [
        {
          "internalType": "address",
          "name": "account",
          "type": "address"
        },
        {
          "internalType": "uint256",
          "name": "blockNumber",
          "type": "uint256"
        }
      ],
      "name": "getPriorVotes",
      "outputs": [
        {
          "internalType": "uint256",
          "name": "",
          "type": "uint256"
        }
      ],
      "stateMutability": "view",
      "type": "function"
    },
    {
      "inputs": [
        {
          "internalType": "bytes32",
          "name": "role",
          "type": "bytes32"
        }
      ],
      "name": "getRoleAdmin",
      "outputs": [
        {
          "internalType": "bytes32",
          "name": "",
          "type": "bytes32"
        }
      ],
      "stateMutability": "view",
      "type": "function"
    },
    {
      "inputs": [
        {
          "internalType": "bytes32",
          "name": "role",
          "type": "bytes32"
        },
        {
          "internalType": "uint256",
          "name": "index",
          "type": "uint256"
        }
      ],
      "name": "getRoleMember",
      "outputs": [
        {
          "internalType": "address",
          "name": "",
          "type": "address"
        }
      ],
      "stateMutability": "view",
      "type": "function"
    },
    {
      "inputs": [
        {
          "internalType": "bytes32",
          "name": "role",
          "type": "bytes32"
        }
      ],
      "name": "getRoleMemberCount",
      "outputs": [
        {
          "internalType": "uint256",
          "name": "",
          "type": "uint256"
        }
      ],
      "stateMutability": "view",
      "type": "function"
    },
    {
      "inputs": [
        {
          "internalType": "bytes32",
          "name": "role",
          "type": "bytes32"
        },
        {
          "internalType": "address",
          "name": "account",
          "type": "address"
        }
      ],
      "name": "grantRole",
      "outputs": [],
      "stateMutability": "nonpayable",
      "type": "function"
    },
    {
      "inputs": [
        {
          "internalType": "bytes32",
          "name": "role",
          "type": "bytes32"
        },
        {
          "internalType": "address",
          "name": "account",
          "type": "address"
        }
      ],
      "name": "hasRole",
      "outputs": [
        {
          "internalType": "bool",
          "name": "",
          "type": "bool"
        }
      ],
      "stateMutability": "view",
      "type": "function"
    },
    {
      "inputs": [],
      "name": "identityContract",
      "outputs": [
        {
          "internalType": "address",
          "name": "",
          "type": "address"
        }
      ],
      "stateMutability": "view",
      "type": "function"
    },
    {
      "inputs": [
        {
          "internalType": "address",
          "name": "spender",
          "type": "address"
        },
        {
          "internalType": "uint256",
          "name": "addedValue",
          "type": "uint256"
        }
      ],
      "name": "increaseAllowance",
      "outputs": [
        {
          "internalType": "bool",
          "name": "",
          "type": "bool"
        }
      ],
      "stateMutability": "nonpayable",
      "type": "function"
    },
    {
      "inputs": [
        {
          "internalType": "address",
          "name": "_admin",
          "type": "address"
        },
        {
          "internalType": "address",
          "name": "_tokenContract",
          "type": "address"
        },
        {
          "internalType": "address",
          "name": "_identityContract",
          "type": "address"
        },
        {
          "internalType": "uint256",
          "name": "_minSecondsBetweenDays",
          "type": "uint256"
        },
        {
          "internalType": "uint256",
          "name": "_rewardsStartTimestamp",
          "type": "uint256"
        }
      ],
      "name": "initialize",
      "outputs": [],
      "stateMutability": "nonpayable",
      "type": "function"
    },
    {
      "inputs": [],
      "name": "maxTotalSupply",
      "outputs": [
        {
          "internalType": "uint256",
          "name": "",
          "type": "uint256"
        }
      ],
      "stateMutability": "view",
      "type": "function"
    },
    {
      "inputs": [],
      "name": "name",
      "outputs": [
        {
          "internalType": "string",
          "name": "",
          "type": "string"
        }
      ],
      "stateMutability": "view",
      "type": "function"
    },
    {
      "inputs": [
        {
          "internalType": "address",
          "name": "",
          "type": "address"
        }
      ],
      "name": "nonces",
      "outputs": [
        {
          "internalType": "uint256",
          "name": "",
          "type": "uint256"
        }
      ],
      "stateMutability": "view",
      "type": "function"
    },
    {
      "inputs": [
        {
          "internalType": "address",
          "name": "",
          "type": "address"
        }
      ],
      "name": "numCheckpoints",
      "outputs": [
        {
          "internalType": "uint32",
          "name": "",
          "type": "uint32"
        }
      ],
      "stateMutability": "view",
      "type": "function"
    },
    {
      "inputs": [
        {
          "internalType": "bytes32",
          "name": "role",
          "type": "bytes32"
        },
        {
          "internalType": "address",
          "name": "account",
          "type": "address"
        }
      ],
      "name": "renounceRole",
      "outputs": [],
      "stateMutability": "nonpayable",
      "type": "function"
    },
    {
      "inputs": [
        {
          "internalType": "uint256",
          "name": "_amount",
          "type": "uint256"
        },
        {
          "internalType": "address",
          "name": "_applicationId",
          "type": "address"
        },
        {
          "internalType": "bytes32",
          "name": "_userId",
          "type": "bytes32"
        }
      ],
      "name": "restake",
      "outputs": [],
      "stateMutability": "nonpayable",
      "type": "function"
    },
    {
      "inputs": [
        {
          "internalType": "bytes32",
          "name": "role",
          "type": "bytes32"
        },
        {
          "internalType": "address",
          "name": "account",
          "type": "address"
        }
      ],
      "name": "revokeRole",
      "outputs": [],
      "stateMutability": "nonpayable",
      "type": "function"
    },
    {
      "inputs": [],
      "name": "rewardsStartTimestamp",
      "outputs": [
        {
          "internalType": "uint256",
          "name": "",
          "type": "uint256"
        }
      ],
      "stateMutability": "view",
      "type": "function"
    },
    {
      "inputs": [],
      "name": "secondsBetweenDays",
      "outputs": [
        {
          "internalType": "uint256",
          "name": "",
          "type": "uint256"
        }
      ],
      "stateMutability": "view",
      "type": "function"
    },
    {
      "inputs": [
        {
          "internalType": "uint256",
          "name": "_rewardsDay",
          "type": "uint256"
        },
        {
          "internalType": "address[]",
          "name": "_applications",
          "type": "address[]"
        }
      ],
      "name": "setApplications",
      "outputs": [],
      "stateMutability": "nonpayable",
      "type": "function"
    },
    {
      "inputs": [
        {
          "internalType": "uint256",
          "name": "_rewardsDay",
          "type": "uint256"
        },
        {
          "internalType": "address[]",
          "name": "_validators",
          "type": "address[]"
        }
      ],
      "name": "setValidators",
      "outputs": [],
      "stateMutability": "nonpayable",
      "type": "function"
    },
    {
      "inputs": [
        {
          "internalType": "address",
          "name": "_applicationId",
          "type": "address"
        },
        {
          "internalType": "bytes32",
          "name": "_userId",
          "type": "bytes32"
        },
        {
          "internalType": "address",
          "name": "_to",
          "type": "address"
        },
        {
          "internalType": "uint256",
          "name": "_amount",
          "type": "uint256"
        },
        {
          "internalType": "bool",
          "name": "_shouldStake",
          "type": "bool"
        },
        {
          "internalType": "uint8",
          "name": "v",
          "type": "uint8"
        },
        {
          "internalType": "bytes32",
          "name": "r",
          "type": "bytes32"
        },
        {
          "internalType": "bytes32",
          "name": "s",
          "type": "bytes32"
        }
      ],
      "name": "settle",
      "outputs": [],
      "stateMutability": "nonpayable",
      "type": "function"
    },
    {
      "inputs": [
        {
          "internalType": "uint256",
          "name": "_amount",
          "type": "uint256"
        },
        {
          "internalType": "uint8",
          "name": "v",
          "type": "uint8"
        },
        {
          "internalType": "bytes32",
          "name": "r",
          "type": "bytes32"
        },
        {
          "internalType": "bytes32",
          "name": "s",
          "type": "bytes32"
        },
        {
          "internalType": "address",
          "name": "_applicationId",
          "type": "address"
        },
        {
          "internalType": "bytes32",
          "name": "_userId",
          "type": "bytes32"
        }
      ],
      "name": "stake",
      "outputs": [],
      "stateMutability": "nonpayable",
      "type": "function"
    },
    {
      "inputs": [
        {
          "internalType": "uint256",
          "name": "_rewardsDay",
          "type": "uint256"
        },
        {
          "internalType": "bytes32",
          "name": "_rewardsHash",
          "type": "bytes32"
        },
        {
          "internalType": "address[]",
          "name": "_applications",
          "type": "address[]"
        },
        {
          "internalType": "uint256[]",
          "name": "_amounts",
          "type": "uint256[]"
        }
      ],
      "name": "submitDailyRewards",
      "outputs": [],
      "stateMutability": "nonpayable",
      "type": "function"
    },
    {
      "inputs": [],
      "name": "symbol",
      "outputs": [
        {
          "internalType": "string",
          "name": "",
          "type": "string"
        }
      ],
      "stateMutability": "view",
      "type": "function"
    },
    {
      "inputs": [],
      "name": "tokenContract",
      "outputs": [
        {
          "internalType": "address",
          "name": "",
          "type": "address"
        }
      ],
      "stateMutability": "view",
      "type": "function"
    },
    {
      "inputs": [],
      "name": "totalSupply",
      "outputs": [
        {
          "internalType": "uint256",
          "name": "",
          "type": "uint256"
        }
      ],
      "stateMutability": "view",
      "type": "function"
    },
    {
      "inputs": [
        {
          "internalType": "address",
          "name": "recipient",
          "type": "address"
        },
        {
          "internalType": "uint256",
          "name": "amount",
          "type": "uint256"
        }
      ],
      "name": "transfer",
      "outputs": [
        {
          "internalType": "bool",
          "name": "",
          "type": "bool"
        }
      ],
      "stateMutability": "nonpayable",
      "type": "function"
    },
    {
      "inputs": [
        {
          "internalType": "address",
          "name": "sender",
          "type": "address"
        },
        {
          "internalType": "address",
          "name": "recipient",
          "type": "address"
        },
        {
          "internalType": "uint256",
          "name": "amount",
          "type": "uint256"
        }
      ],
      "name": "transferFrom",
      "outputs": [
        {
          "internalType": "bool",
          "name": "",
          "type": "bool"
        }
      ],
      "stateMutability": "nonpayable",
      "type": "function"
    },
    {
      "inputs": [
        {
          "internalType": "uint256",
          "name": "_amount",
          "type": "uint256"
        },
        {
          "internalType": "address",
          "name": "_applicationId",
          "type": "address"
        },
        {
          "internalType": "bytes32",
          "name": "_userId",
          "type": "bytes32"
        }
      ],
      "name": "unstake",
      "outputs": [],
      "stateMutability": "nonpayable",
      "type": "function"
    },
    {
      "inputs": [
        {
          "internalType": "enum PropsRewardsLib.RewardedEntityType",
          "name": "_entityType",
          "type": "uint8"
        },
        {
          "internalType": "bytes32",
          "name": "_name",
          "type": "bytes32"
        },
        {
          "internalType": "address",
          "name": "_rewardsAddress",
          "type": "address"
        },
        {
          "internalType": "address",
          "name": "_sidechainAddress",
          "type": "address"
        }
      ],
      "name": "updateEntity",
      "outputs": [],
      "stateMutability": "nonpayable",
      "type": "function"
    },
    {
      "inputs": [
        {
          "internalType": "enum PropsRewardsLib.ParameterName",
          "name": "_name",
          "type": "uint8"
        },
        {
          "internalType": "uint256",
          "name": "_value",
          "type": "uint256"
        },
        {
          "internalType": "uint256",
          "name": "_rewardsDay",
          "type": "uint256"
        }
      ],
      "name": "updateParameter",
      "outputs": [],
      "stateMutability": "nonpayable",
      "type": "function"
    },
    {
      "inputs": [],
      "name": "withdraw",
      "outputs": [],
      "stateMutability": "nonpayable",
      "type": "function"
    }
  ],
  "bytecode": "0x60806040523480156200001157600080fd5b5061925a80620000226000396000f3fe608060405234801561001057600080fd5b50600436106103425760003560e01c806370a08231116101b8578063a9b9914511610104578063d547741f116100a2578063e795594d1161007c578063e795594d146115ac578063e7a324dc1461166e578063f1127ed81461168c578063f42433351461170757610342565b8063d547741f1461148e578063dd62ed3e146114dc578063e53bddab1461155457610342565b8063c3cda520116100de578063c3cda5201461133c578063c49baebe146113b5578063ca15c873146113d3578063d2115cf41461141557610342565b8063a9b9914514611234578063b4b5ea571461128c578063b5a4eea4146112e457610342565b806395d89b4111610171578063a457c2d71161014b578063a457c2d71461106e578063a6b63eb8146110d4578063a9059cbb1461116c578063a96bb946146111d257610342565b806395d89b4114610f5257806396e8832714610fd5578063a217fddf1461105057610342565b806370a0823114610ca05780637492fdda14610cf8578063782d6fe114610dba5780637ecebe0014610e1c5780639010d07c14610e7457806391d1485414610eec57610342565b80632f2ff15d1161029257806357ece4bc1161023057806361c9d81c1161020a57806361c9d81c14610b7c5780636356850214610bd457806367031bae14610bf25780636fcfff4514610c3c57610342565b806357ece4bc14610954578063587cde1e14610ab45780635c19a95c14610b3857610342565b8063395093511161026c578063395093511461084b5780633ccfd60b146108b15780634f92caf8146108bb57806355a373d61461090a57610342565b80632f2ff15d1461078b578063313ce567146107d957806336568abe146107fd57610342565b80631aa770a0116102ff57806323b872dd116102d957806323b872dd14610623578063248a9ca3146106a95780632ab4d052146106eb5780632cafff301461070957610342565b80631aa770a0146105415780631c6c79f71461055f57806320606b701461060557610342565b806306fdde0314610347578063080121da146103ca578063095ea7b3146103e8578063098bfa9f1461044e57806316266300146104de57806318160ddd14610523575b600080fd5b61034f61172b565b6040518080602001828103825283818151815260200191508051906020019080838360005b8381101561038f578082015181840152602081019050610374565b50505050905090810190601f1680156103bc5780820380516001836020036101000a031916815260200191505b509250505060405180910390f35b6103d26117cd565b6040518082815260200191505060405180910390f35b610434600480360360408110156103fe57600080fd5b81019080803573ffffffffffffffffffffffffffffffffffffffff16906020019092919080359060200190929190505050611806565b604051808215151515815260200191505060405180910390f35b6104876004803603604081101561046457600080fd5b81019080803560ff16906020019092919080359060200190929190505050611824565b6040518080602001828103825283818151815260200191508051906020019060200280838360005b838110156104ca5780820151818401526020810190506104af565b505050509050019250505060405180910390f35b610521600480360360608110156104f457600080fd5b81019080803560ff1690602001909291908035906020019092919080359060200190929190505050611971565b005b61052b611b2f565b6040518082815260200191505060405180910390f35b610549611b39565b6040518082815260200191505060405180910390f35b610603600480360361010081101561057657600080fd5b81019080803573ffffffffffffffffffffffffffffffffffffffff16906020019092919080359060200190929190803573ffffffffffffffffffffffffffffffffffffffff16906020019092919080359060200190929190803515159060200190929190803560ff1690602001909291908035906020019092919080359060200190929190505050611b3f565b005b61060d612131565b6040518082815260200191505060405180910390f35b61068f6004803603606081101561063957600080fd5b81019080803573ffffffffffffffffffffffffffffffffffffffff169060200190929190803573ffffffffffffffffffffffffffffffffffffffff1690602001909291908035906020019092919050505061214d565b604051808215151515815260200191505060405180910390f35b6106d5600480360360208110156106bf57600080fd5b8101908080359060200190929190505050612226565b6040518082815260200191505060405180910390f35b6106f3612246565b6040518082815260200191505060405180910390f35b6107756004803603606081101561071f57600080fd5b81019080803573ffffffffffffffffffffffffffffffffffffffff169060200190929190803573ffffffffffffffffffffffffffffffffffffffff1690602001909291908035906020019092919050505061224c565b6040518082815260200191505060405180910390f35b6107d7600480360360408110156107a157600080fd5b8101908080359060200190929190803573ffffffffffffffffffffffffffffffffffffffff16906020019092919050505061264f565b005b6107e16126d9565b604051808260ff1660ff16815260200191505060405180910390f35b6108496004803603604081101561081357600080fd5b8101908080359060200190929190803573ffffffffffffffffffffffffffffffffffffffff1690602001909291905050506126f0565b005b6108976004803603604081101561086157600080fd5b81019080803573ffffffffffffffffffffffffffffffffffffffff16906020019092919080359060200190929190505050612789565b604051808215151515815260200191505060405180910390f35b6108b961283c565b005b6108f4600480360360408110156108d157600080fd5b81019080803560ff16906020019092919080359060200190929190505050612c25565b6040518082815260200191505060405180910390f35b610912612cd8565b604051808273ffffffffffffffffffffffffffffffffffffffff1673ffffffffffffffffffffffffffffffffffffffff16815260200191505060405180910390f35b610ab26004803603608081101561096a57600080fd5b8101908080359060200190929190803590602001909291908035906020019064010000000081111561099b57600080fd5b8201836020820111156109ad57600080fd5b803590602001918460208302840111640100000000831117156109cf57600080fd5b919080806020026020016040519081016040528093929190818152602001838360200280828437600081840152601f19601f82011690508083019250505050505050919291929080359060200190640100000000811115610a2f57600080fd5b820183602082011115610a4157600080fd5b80359060200191846020830284011164010000000083111715610a6357600080fd5b919080806020026020016040519081016040528093929190818152602001838360200280828437600081840152601f19601f820116905080830192505050505050509192919290505050612cfe565b005b610af660048036036020811015610aca57600080fd5b81019080803573ffffffffffffffffffffffffffffffffffffffff1690602001909291905050506130ce565b604051808273ffffffffffffffffffffffffffffffffffffffff1673ffffffffffffffffffffffffffffffffffffffff16815260200191505060405180910390f35b610b7a60048036036020811015610b4e57600080fd5b81019080803573ffffffffffffffffffffffffffffffffffffffff169060200190929190505050613101565b005b610bbe60048036036020811015610b9257600080fd5b81019080803573ffffffffffffffffffffffffffffffffffffffff16906020019092919050505061310e565b6040518082815260200191505060405180910390f35b610bdc613239565b6040518082815260200191505060405180910390f35b610bfa61323f565b604051808273ffffffffffffffffffffffffffffffffffffffff1673ffffffffffffffffffffffffffffffffffffffff16815260200191505060405180910390f35b610c7e60048036036020811015610c5257600080fd5b81019080803573ffffffffffffffffffffffffffffffffffffffff169060200190929190505050613265565b604051808263ffffffff1663ffffffff16815260200191505060405180910390f35b610ce260048036036020811015610cb657600080fd5b81019080803573ffffffffffffffffffffffffffffffffffffffff169060200190929190505050613288565b6040518082815260200191505060405180910390f35b610db860048036036040811015610d0e57600080fd5b810190808035906020019092919080359060200190640100000000811115610d3557600080fd5b820183602082011115610d4757600080fd5b80359060200191846020830284011164010000000083111715610d6957600080fd5b919080806020026020016040519081016040528093929190818152602001838360200280828437600081840152601f19601f8201169050808301925050505050505091929192905050506132d1565b005b610e0660048036036040811015610dd057600080fd5b81019080803573ffffffffffffffffffffffffffffffffffffffff16906020019092919080359060200190929190505050613469565b6040518082815260200191505060405180910390f35b610e5e60048036036020811015610e3257600080fd5b81019080803573ffffffffffffffffffffffffffffffffffffffff16906020019092919050505061382e565b6040518082815260200191505060405180910390f35b610eaa60048036036040811015610e8a57600080fd5b810190808035906020019092919080359060200190929190505050613846565b604051808273ffffffffffffffffffffffffffffffffffffffff1673ffffffffffffffffffffffffffffffffffffffff16815260200191505060405180910390f35b610f3860048036036040811015610f0257600080fd5b8101908080359060200190929190803573ffffffffffffffffffffffffffffffffffffffff169060200190929190505050613878565b604051808215151515815260200191505060405180910390f35b610f5a6138aa565b6040518080602001828103825283818151815260200191508051906020019080838360005b83811015610f9a578082015181840152602081019050610f7f565b50505050905090810190601f168015610fc75780820380516001836020036101000a031916815260200191505b509250505060405180910390f35b61104e60048036036080811015610feb57600080fd5b81019080803560ff16906020019092919080359060200190929190803573ffffffffffffffffffffffffffffffffffffffff169060200190929190803573ffffffffffffffffffffffffffffffffffffffff16906020019092919050505061394c565b005b611058613ae5565b6040518082815260200191505060405180910390f35b6110ba6004803603604081101561108457600080fd5b81019080803573ffffffffffffffffffffffffffffffffffffffff16906020019092919080359060200190929190505050613aec565b604051808215151515815260200191505060405180910390f35b61116a600480360360a08110156110ea57600080fd5b81019080803573ffffffffffffffffffffffffffffffffffffffff169060200190929190803573ffffffffffffffffffffffffffffffffffffffff169060200190929190803573ffffffffffffffffffffffffffffffffffffffff1690602001909291908035906020019092919080359060200190929190505050613bb9565b005b6111b86004803603604081101561118257600080fd5b81019080803573ffffffffffffffffffffffffffffffffffffffff16906020019092919080359060200190929190505050614200565b604051808215151515815260200191505060405180910390f35b61121e600480360360408110156111e857600080fd5b81019080803573ffffffffffffffffffffffffffffffffffffffff1690602001909291908035906020019092919050505061421e565b6040518082815260200191505060405180910390f35b61128a6004803603606081101561124a57600080fd5b8101908080359060200190929190803573ffffffffffffffffffffffffffffffffffffffff1690602001909291908035906020019092919050505061424c565b005b6112ce600480360360208110156112a257600080fd5b81019080803573ffffffffffffffffffffffffffffffffffffffff169060200190929190505050614591565b6040518082815260200191505060405180910390f35b61133a600480360360608110156112fa57600080fd5b8101908080359060200190929190803573ffffffffffffffffffffffffffffffffffffffff16906020019092919080359060200190929190505050614667565b005b6113b3600480360360c081101561135257600080fd5b81019080803573ffffffffffffffffffffffffffffffffffffffff1690602001909291908035906020019092919080359060200190929190803560ff1690602001909291908035906020019092919080359060200190929190505050614911565b005b6113bd614d19565b6040518082815260200191505060405180910390f35b6113ff600480360360208110156113e957600080fd5b8101908080359060200190929190505050614d52565b6040518082815260200191505060405180910390f35b61148c600480360360c081101561142b57600080fd5b8101908080359060200190929190803560ff1690602001909291908035906020019092919080359060200190929190803573ffffffffffffffffffffffffffffffffffffffff16906020019092919080359060200190929190505050614d79565b005b6114da600480360360408110156114a457600080fd5b8101908080359060200190929190803573ffffffffffffffffffffffffffffffffffffffff169060200190929190505050614fcf565b005b61153e600480360360408110156114f257600080fd5b81019080803573ffffffffffffffffffffffffffffffffffffffff169060200190929190803573ffffffffffffffffffffffffffffffffffffffff169060200190929190505050615059565b6040518082815260200191505060405180910390f35b6115966004803603602081101561156a57600080fd5b81019080803573ffffffffffffffffffffffffffffffffffffffff1690602001909291905050506150e0565b6040518082815260200191505060405180910390f35b61166c600480360360408110156115c257600080fd5b8101908080359060200190929190803590602001906401000000008111156115e957600080fd5b8201836020820111156115fb57600080fd5b8035906020019184602083028401116401000000008311171561161d57600080fd5b919080806020026020016040519081016040528093929190818152602001838360200280828437600081840152601f19601f8201169050808301925050505050505091929192905050506150f8565b005b611676615290565b6040518082815260200191505060405180910390f35b6116de600480360360408110156116a257600080fd5b81019080803573ffffffffffffffffffffffffffffffffffffffff169060200190929190803563ffffffff1690602001909291905050506152ac565b604051808363ffffffff1663ffffffff1681526020018281526020019250505060405180910390f35b61170f6152ed565b604051808260ff1660ff16815260200191505060405180910390f35b606060688054600181600116156101000203166002900480601f0160208091040260200160405190810160405280929190818152602001828054600181600116156101000203166002900480156117c35780601f10611798576101008083540402835291602001916117c3565b820191906000526020600020905b8154815290600101906020018083116117a657829003601f168201915b5050505050905090565b60405180807f4150504c49434154494f4e5f524f4c45000000000000000000000000000000008152506010019050604051809103902081565b600061181a6118136152f2565b84846152fa565b6001905092915050565b606073__PropsRewardsLib_______________________638993273560c985856040518463ffffffff1660e01b81526004018084815260200183600181111561186957fe5b60ff168152602001828152602001935050505060006040518083038186803b15801561189457600080fd5b505af41580156118a8573d6000803e3d6000fd5b505050506040513d6000823e3d601f19601f8201168201806040525060208110156118d257600080fd5b81019080805160405193929190846401000000008211156118f257600080fd5b8382019150602082018581111561190857600080fd5b825186602082028301116401000000008211171561192557600080fd5b8083526020830192505050908051906020019060200280838360005b8381101561195c578082015181840152602081019050611941565b50505050905001604052505050905092915050565b61197e6000801b33613878565b6119d3576040517f08c379a00000000000000000000000000000000000000000000000000000000081526004018080602001828103825260248152602001806191ad6024913960400191505060405180910390fd5b73__PropsRewardsLib_______________________6311cb33da60c98585856040518563ffffffff1660e01b815260040180858152602001846006811115611a1757fe5b60ff16815260200183815260200182815260200194505050505060006040518083038186803b158015611a4957600080fd5b505af4158015611a5d573d6000803e3d6000fd5b505050507fd3ee560e0e71d87fde0453f24eac52dd8f01332349f8d1ef9e005d1cc3b82fb48360c96004016000866006811115611a9657fe5b81526020019081526020016000206000015460c96004016000876006811115611abb57fe5b81526020019081526020016000206001015460c96004016000886006811115611ae057fe5b81526020019081526020016000206002015460405180856006811115611b0257fe5b60ff16815260200184815260200183815260200182815260200194505050505060405180910390a1505050565b6000606754905090565b60e35481565b3373ffffffffffffffffffffffffffffffffffffffff1660c960000160008a73ffffffffffffffffffffffffffffffffffffffff1673ffffffffffffffffffffffffffffffffffffffff16815260200190815260200160002060010160009054906101000a900473ffffffffffffffffffffffffffffffffffffffff1673ffffffffffffffffffffffffffffffffffffffff1614611c28576040517f08c379a000000000000000000000000000000000000000000000000000000000815260040180806020018281038252602b815260200180618fa4602b913960400191505060405180910390fd5b600060e460009054906101000a900473ffffffffffffffffffffffffffffffffffffffff16905084611e69578073ffffffffffffffffffffffffffffffffffffffff1663d505accf8a89897fffffffffffffffffffffffffffffffffffffffffffffffffffffffffffffffff8989896040518863ffffffff1660e01b8152600401808873ffffffffffffffffffffffffffffffffffffffff1673ffffffffffffffffffffffffffffffffffffffff1681526020018773ffffffffffffffffffffffffffffffffffffffff1673ffffffffffffffffffffffffffffffffffffffff1681526020018681526020018581526020018460ff1660ff168152602001838152602001828152602001975050505050505050600060405180830381600087803b158015611d5557600080fd5b505af1158015611d69573d6000803e3d6000fd5b505050508073ffffffffffffffffffffffffffffffffffffffff166323b872dd8a89896040518463ffffffff1660e01b8152600401808473ffffffffffffffffffffffffffffffffffffffff1673ffffffffffffffffffffffffffffffffffffffff1681526020018373ffffffffffffffffffffffffffffffffffffffff1673ffffffffffffffffffffffffffffffffffffffff1681526020018281526020019350505050602060405180830381600087803b158015611e2857600080fd5b505af1158015611e3c573d6000803e3d6000fd5b505050506040513d6020811015611e5257600080fd5b81019080805190602001909291905050505061208b565b8073ffffffffffffffffffffffffffffffffffffffff1663d505accf8a30897fffffffffffffffffffffffffffffffffffffffffffffffffffffffffffffffff8989896040518863ffffffff1660e01b8152600401808873ffffffffffffffffffffffffffffffffffffffff1673ffffffffffffffffffffffffffffffffffffffff1681526020018773ffffffffffffffffffffffffffffffffffffffff1673ffffffffffffffffffffffffffffffffffffffff1681526020018681526020018581526020018460ff1660ff168152602001838152602001828152602001975050505050505050600060405180830381600087803b158015611f6a57600080fd5b505af1158015611f7e573d6000803e3d6000fd5b505050508073ffffffffffffffffffffffffffffffffffffffff166323b872dd8a30896040518463ffffffff1660e01b8152600401808473ffffffffffffffffffffffffffffffffffffffff1673ffffffffffffffffffffffffffffffffffffffff1681526020018373ffffffffffffffffffffffffffffffffffffffff1673ffffffffffffffffffffffffffffffffffffffff1681526020018281526020019350505050602060405180830381600087803b15801561203d57600080fd5b505af1158015612051573d6000803e3d6000fd5b505050506040513d602081101561206757600080fd5b81019080805190602001909291905050505061208587878b8b6154f1565b50612127565b8673ffffffffffffffffffffffffffffffffffffffff16888a73ffffffffffffffffffffffffffffffffffffffff167f53b5073ff19aef23b167e83c6be14817da210375bec35b4c0ccfc0cded9a23f88933604051808381526020018273ffffffffffffffffffffffffffffffffffffffff1673ffffffffffffffffffffffffffffffffffffffff1681526020019250505060405180910390a4505b5050505050505050565b6040518080618fcf604391396043019050604051809103902081565b600061215a848484615827565b61221b846121666152f2565b6122168560405180606001604052806028815260200161903360289139606660008b73ffffffffffffffffffffffffffffffffffffffff1673ffffffffffffffffffffffffffffffffffffffff16815260200190815260200160002060006121cc6152f2565b73ffffffffffffffffffffffffffffffffffffffff1673ffffffffffffffffffffffffffffffffffffffff16815260200190815260200160002054615aec9092919063ffffffff16565b6152fa565b600190509392505050565b600060976000838152602001908152602001600020600201549050919050565b60e15481565b6000806122598484615bac565b90506000809050600073ffffffffffffffffffffffffffffffffffffffff168573ffffffffffffffffffffffffffffffffffffffff16141580156122d35750600060f81b846000602081106122aa57fe5b1a60f81b7effffffffffffffffffffffffffffffffffffffffffffffffffffffffffffff191614155b156123335760eb60008773ffffffffffffffffffffffffffffffffffffffff1673ffffffffffffffffffffffffffffffffffffffff1681526020019081526020016000206000838152602001908152602001600020600201549050612643565b60008090505b60ec60008873ffffffffffffffffffffffffffffffffffffffff1673ffffffffffffffffffffffffffffffffffffffff1681526020019081526020016000208054905081101561264157600073ffffffffffffffffffffffffffffffffffffffff168673ffffffffffffffffffffffffffffffffffffffff1614612577578573ffffffffffffffffffffffffffffffffffffffff1660eb60008973ffffffffffffffffffffffffffffffffffffffff1673ffffffffffffffffffffffffffffffffffffffff168152602001908152602001600020600060ec60008b73ffffffffffffffffffffffffffffffffffffffff1673ffffffffffffffffffffffffffffffffffffffff168152602001908152602001600020848154811061245957fe5b9060005260206000200154815260200190815260200160002060000160000160009054906101000a900473ffffffffffffffffffffffffffffffffffffffff1673ffffffffffffffffffffffffffffffffffffffff1614156125725761256f60eb60008973ffffffffffffffffffffffffffffffffffffffff1673ffffffffffffffffffffffffffffffffffffffff168152602001908152602001600020600060ec60008b73ffffffffffffffffffffffffffffffffffffffff1673ffffffffffffffffffffffffffffffffffffffff168152602001908152602001600020848154811061254357fe5b906000526020600020015481526020019081526020016000206002015483615c1190919063ffffffff16565b91505b612634565b61263160eb60008973ffffffffffffffffffffffffffffffffffffffff1673ffffffffffffffffffffffffffffffffffffffff168152602001908152602001600020600060ec60008b73ffffffffffffffffffffffffffffffffffffffff1673ffffffffffffffffffffffffffffffffffffffff168152602001908152602001600020848154811061260557fe5b906000526020600020015481526020019081526020016000206002015483615c1190919063ffffffff16565b91505b8080600101915050612339565b505b80925050509392505050565b61267660976000848152602001908152602001600020600201546126716152f2565b613878565b6126cb576040517f08c379a000000000000000000000000000000000000000000000000000000000815260040180806020018281038252602f815260200180618e18602f913960400191505060405180910390fd5b6126d58282615c99565b5050565b6000606a60009054906101000a900460ff16905090565b6126f86152f2565b73ffffffffffffffffffffffffffffffffffffffff168173ffffffffffffffffffffffffffffffffffffffff161461277b576040517f08c379a000000000000000000000000000000000000000000000000000000000815260040180806020018281038252602f8152602001806191f6602f913960400191505060405180910390fd5b6127858282615d2d565b5050565b60006128326127966152f2565b8461282d85606660006127a76152f2565b73ffffffffffffffffffffffffffffffffffffffff1673ffffffffffffffffffffffffffffffffffffffff16815260200190815260200160002060008973ffffffffffffffffffffffffffffffffffffffff1673ffffffffffffffffffffffffffffffffffffffff16815260200190815260200160002054615c1190919063ffffffff16565b6152fa565b6001905092915050565b600060e660003373ffffffffffffffffffffffffffffffffffffffff1673ffffffffffffffffffffffffffffffffffffffff16815260200190815260200160002060020154116128d7576040517f08c379a0000000000000000000000000000000000000000000000000000000008152600401808060200182810382526023815260200180618e476023913960400191505060405180910390fd5b600073__PropsRewardsLib_______________________63e8fc02ab60c96040518263ffffffff1660e01b81526004018082815260200191505060206040518083038186803b15801561292957600080fd5b505af415801561293d573d6000803e3d6000fd5b505050506040513d602081101561295357600080fd5b81019080805190602001909291905050509050612971600582612c25565b6129c660e660003373ffffffffffffffffffffffffffffffffffffffff1673ffffffffffffffffffffffffffffffffffffffff1681526020019081526020016000206001015483615dc190919063ffffffff16565b11612a1c576040517f08c379a000000000000000000000000000000000000000000000000000000000815260040180806020018281038252602e8152602001806190b7602e913960400191505060405180910390fd5b600060e460009054906101000a900473ffffffffffffffffffffffffffffffffffffffff1690508073ffffffffffffffffffffffffffffffffffffffff1663a9059cbb3360e660003373ffffffffffffffffffffffffffffffffffffffff1673ffffffffffffffffffffffffffffffffffffffff168152602001908152602001600020600201546040518363ffffffff1660e01b8152600401808373ffffffffffffffffffffffffffffffffffffffff1673ffffffffffffffffffffffffffffffffffffffff16815260200182815260200192505050602060405180830381600087803b158015612b0c57600080fd5b505af1158015612b20573d6000803e3d6000fd5b505050506040513d6020811015612b3657600080fd5b810190808051906020019092919050505050813373ffffffffffffffffffffffffffffffffffffffff167ff279e6a1f5e320cca91135676d9cb6e44ca8a08c0b88342bcdb1144f6511b56860e660003373ffffffffffffffffffffffffffffffffffffffff1673ffffffffffffffffffffffffffffffffffffffff168152602001908152602001600020600201546040518082815260200191505060405180910390a3600060e660003373ffffffffffffffffffffffffffffffffffffffff1673ffffffffffffffffffffffffffffffffffffffff168152602001908152602001600020600201819055505050565b600073__PropsRewardsLib_______________________63d81b705060c985856040518463ffffffff1660e01b815260040180848152602001836006811115612c6a57fe5b60ff168152602001828152602001935050505060206040518083038186803b158015612c9557600080fd5b505af4158015612ca9573d6000803e3d6000fd5b505050506040513d6020811015612cbf57600080fd5b8101908080519060200190929190505050905092915050565b60e460009054906101000a900473ffffffffffffffffffffffffffffffffffffffff1681565b60c9600f0160040154841115612df057600073__PropsRewardsLib_______________________6314a68c3860c980600f016004015460c9600f016003015460006040518563ffffffff1660e01b8152600401808581526020018481526020018381526020018215151515815260200194505050505060206040518083038186803b158015612d8c57600080fd5b505af4158015612da0573d6000803e3d6000fd5b505050506040513d6020811015612db657600080fd5b810190808051906020019092919050505090506000811115612dee57612ded60c9600f016004015460c9600f016003015483615e0b565b5b505b600073__PropsRewardsLib_______________________630f9887a060c9878787873073ffffffffffffffffffffffffffffffffffffffff166318160ddd6040518163ffffffff1660e01b815260040160206040518083038186803b158015612e5857600080fd5b505afa158015612e6c573d6000803e3d6000fd5b505050506040513d6020811015612e8257600080fd5b81019080805190602001909291905050506040518763ffffffff1660e01b8152600401808781526020018681526020018581526020018060200180602001848152602001838103835286818151815260200191508051906020019060200280838360005b83811015612f01578082015181840152602081019050612ee6565b50505050905001838103825285818151815260200191508051906020019060200280838360005b83811015612f43578082015181840152602081019050612f28565b505050509050019850505050505050505060206040518083038186803b158015612f6c57600080fd5b505af4158015612f80573d6000803e3d6000fd5b505050506040513d6020811015612f9657600080fd5b810190808051906020019092919050505090506000811115612fc057612fbf85858585856160a5565b5b600073__PropsRewardsLib_______________________6314a68c3860c9888860016040518563ffffffff1660e01b8152600401808581526020018481526020018381526020018215151515815260200194505050505060206040518083038186803b15801561302f57600080fd5b505af4158015613043573d6000803e3d6000fd5b505050506040513d602081101561305957600080fd5b81019080805190602001909291905050509050600081111561308157613080868683615e0b565b5b3373ffffffffffffffffffffffffffffffffffffffff1685877f47a75fa3188612bc1341726d7859491a32bf875dd309474f712950354f73c5a760405160405180910390a4505050505050565b60e76020528060005260406000206000915054906101000a900473ffffffffffffffffffffffffffffffffffffffff1681565b61310b3382616281565b50565b600080600061311c8461655e565b9150915060008073ffffffffffffffffffffffffffffffffffffffff1660e760008773ffffffffffffffffffffffffffffffffffffffff1673ffffffffffffffffffffffffffffffffffffffff16815260200190815260200160002060009054906101000a900473ffffffffffffffffffffffffffffffffffffffff1673ffffffffffffffffffffffffffffffffffffffff1614156131bb578461321c565b60e760008673ffffffffffffffffffffffffffffffffffffffff1673ffffffffffffffffffffffffffffffffffffffff16815260200190815260200160002060009054906101000a900473ffffffffffffffffffffffffffffffffffffffff165b905061322e818460008086600061689c565b829350505050919050565b60e25481565b60e560009054906101000a900473ffffffffffffffffffffffffffffffffffffffff1681565b60e96020528060005260406000206000915054906101000a900463ffffffff1681565b6000606560008373ffffffffffffffffffffffffffffffffffffffff1673ffffffffffffffffffffffffffffffffffffffff168152602001908152602001600020549050919050565b6132de6000801b33613878565b613333576040517f08c379a00000000000000000000000000000000000000000000000000000000081526004018080602001828103825260248152602001806191ad6024913960400191505060405180910390fd5b73__PropsRewardsLib_______________________63cc1b8c9c60c984846040518463ffffffff1660e01b81526004018084815260200183815260200180602001828103825283818151815260200191508051906020019060200280838360005b838110156133af578082015181840152602081019050613394565b5050505090500194505050505060006040518083038186803b1580156133d457600080fd5b505af41580156133e8573d6000803e3d6000fd5b50505050817f426b639e1d49f62952a4d3282b37648fb8c47ac20b15e01548c104b75c787c0c826040518080602001828103825283818151815260200191508051906020019060200280838360005b83811015613452578082015181840152602081019050613437565b505050509050019250505060405180910390a25050565b60004382106134c3576040517f08c379a0000000000000000000000000000000000000000000000000000000008152600401808060200182810382526021815260200180618db26021913960400191505060405180910390fd5b600060e960008573ffffffffffffffffffffffffffffffffffffffff1673ffffffffffffffffffffffffffffffffffffffff16815260200190815260200160002060009054906101000a900463ffffffff16905060008163ffffffff161415613530576000915050613828565b8260e860008673ffffffffffffffffffffffffffffffffffffffff1673ffffffffffffffffffffffffffffffffffffffff16815260200190815260200160002060006001840363ffffffff1663ffffffff16815260200190815260200160002060000160009054906101000a900463ffffffff1663ffffffff161161361a5760e860008573ffffffffffffffffffffffffffffffffffffffff1673ffffffffffffffffffffffffffffffffffffffff16815260200190815260200160002060006001830363ffffffff1663ffffffff16815260200190815260200160002060010154915050613828565b8260e860008673ffffffffffffffffffffffffffffffffffffffff1673ffffffffffffffffffffffffffffffffffffffff16815260200190815260200160002060008063ffffffff16815260200190815260200160002060000160009054906101000a900463ffffffff1663ffffffff16111561369b576000915050613828565b600080905060006001830390505b8163ffffffff168163ffffffff1611156137c2576000600283830363ffffffff16816136d157fe5b04820390506136de618cc9565b60e860008973ffffffffffffffffffffffffffffffffffffffff1673ffffffffffffffffffffffffffffffffffffffff16815260200190815260200160002060008363ffffffff1663ffffffff1681526020019081526020016000206040518060400160405290816000820160009054906101000a900463ffffffff1663ffffffff1663ffffffff168152602001600182015481525050905086816000015163ffffffff16141561379a57806020015195505050505050613828565b86816000015163ffffffff1610156137b4578193506137bb565b6001820392505b50506136a9565b60e860008773ffffffffffffffffffffffffffffffffffffffff1673ffffffffffffffffffffffffffffffffffffffff16815260200190815260200160002060008363ffffffff1663ffffffff1681526020019081526020016000206001015493505050505b92915050565b60ea6020528060005260406000206000915090505481565b60006138708260976000868152602001908152602001600020600001616feb90919063ffffffff16565b905092915050565b60006138a2826097600086815260200190815260200160002060000161700590919063ffffffff16565b905092915050565b606060698054600181600116156101000203166002900480601f0160208091040260200160405190810160405280929190818152602001828054600181600116156101000203166002900480156139425780601f1061391757610100808354040283529160200191613942565b820191906000526020600020905b81548152906001019060200180831161392557829003601f168201915b5050505050905090565b73__PropsRewardsLib_______________________6346e3a29860c9868686866040518663ffffffff1660e01b81526004018086815260200185600181111561399157fe5b60ff1681526020018481526020018373ffffffffffffffffffffffffffffffffffffffff1673ffffffffffffffffffffffffffffffffffffffff1681526020018273ffffffffffffffffffffffffffffffffffffffff1673ffffffffffffffffffffffffffffffffffffffff1681526020019550505050505060006040518083038186803b158015613a2257600080fd5b505af4158015613a36573d6000803e3d6000fd5b505050508073ffffffffffffffffffffffffffffffffffffffff16846001811115613a5d57fe5b3373ffffffffffffffffffffffffffffffffffffffff167fac4aacb75e6f9ac6f2fee64077e9436dfb1be853b1a850b7863cf1433f0e75288686604051808381526020018273ffffffffffffffffffffffffffffffffffffffff1673ffffffffffffffffffffffffffffffffffffffff1681526020019250505060405180910390a450505050565b6000801b81565b6000613baf613af96152f2565b84613baa856040518060600160405280602581526020016191d16025913960666000613b236152f2565b73ffffffffffffffffffffffffffffffffffffffff1673ffffffffffffffffffffffffffffffffffffffff16815260200190815260200160002060008a73ffffffffffffffffffffffffffffffffffffffff1673ffffffffffffffffffffffffffffffffffffffff16815260200190815260200160002054615aec9092919063ffffffff16565b6152fa565b6001905092915050565b600060019054906101000a900460ff1680613bd85750613bd7617035565b5b80613bef57506000809054906101000a900460ff16155b613c44576040517f08c379a000000000000000000000000000000000000000000000000000000000815260040180806020018281038252602e81526020018061905b602e913960400191505060405180910390fd5b60008060019054906101000a900460ff161590508015613c94576001600060016101000a81548160ff02191690831515021790555060016000806101000a81548160ff0219169083151502179055505b613d086040518060400160405280601381526020017f50726f7073205374616b696e6720546f6b656e000000000000000000000000008152506040518060400160405280600681526020017f7350524f5053000000000000000000000000000000000000000000000000000081525061704c565b613d156000801b8761715f565b8460e460006101000a81548173ffffffffffffffffffffffffffffffffffffffff021916908373ffffffffffffffffffffffffffffffffffffffff1602179055508360e560006101000a81548173ffffffffffffffffffffffffffffffffffffffff021916908373ffffffffffffffffffffffffffffffffffffffff16021790555073__PropsRewardsLib_______________________6311cb33da60c960006187be60006040518563ffffffff1660e01b815260040180858152602001846006811115613ddf57fe5b60ff16815260200183815260200182815260200194505050505060006040518083038186803b158015613e1157600080fd5b505af4158015613e25573d6000803e3d6000fd5b5050505073__PropsRewardsLib_______________________6311cb33da60c960016308f0d18060006040518563ffffffff1660e01b815260040180858152602001846006811115613e7357fe5b60ff16815260200183815260200182815260200194505050505060006040518083038186803b158015613ea557600080fd5b505af4158015613eb9573d6000803e3d6000fd5b5050505073__PropsRewardsLib_______________________6311cb33da60c960026302faf08060006040518563ffffffff1660e01b815260040180858152602001846006811115613f0757fe5b60ff16815260200183815260200182815260200194505050505060006040518083038186803b158015613f3957600080fd5b505af4158015613f4d573d6000803e3d6000fd5b5050505073__PropsRewardsLib_______________________6311cb33da60c9600361072560006040518563ffffffff1660e01b815260040180858152602001846006811115613f9957fe5b60ff16815260200183815260200182815260200194505050505060006040518083038186803b158015613fcb57600080fd5b505af4158015613fdf573d6000803e3d6000fd5b5050505073__PropsRewardsLib_______________________6311cb33da60c9600461271060006040518563ffffffff1660e01b81526004018085815260200184600681111561402b57fe5b60ff16815260200183815260200182815260200194505050505060006040518083038186803b15801561405d57600080fd5b505af4158015614071573d6000803e3d6000fd5b5050505073__PropsRewardsLib_______________________6311cb33da60c96005601e60006040518563ffffffff1660e01b8152600401808581526020018460068111156140bc57fe5b60ff16815260200183815260200182815260200194505050505060006040518083038186803b1580156140ee57600080fd5b505af4158015614102573d6000803e3d6000fd5b5050505073__PropsRewardsLib_______________________6311cb33da60c96006600160006040518563ffffffff1660e01b81526004018085815260200184600681111561414d57fe5b60ff16815260200183815260200182815260200194505050505060006040518083038186803b15801561417f57600080fd5b505af4158015614193573d6000803e3d6000fd5b5050505061419f6126d9565b60ff16600a0a633b9aca000260e181905560c9601601819055508160e281905560c9601501819055508260e381905560c96014018190555080156141f85760008060016101000a81548160ff0219169083151502179055505b505050505050565b600061421461420d6152f2565b8484615827565b6001905092915050565b60ec602052816000526040600020818154811061423757fe5b90600052602060002001600091509150505481565b600061425733613288565b9050838110156142b2576040517f08c379a0000000000000000000000000000000000000000000000000000000008152600401808060200182810382526028815260200180618e8c6028913960400191505060405180910390fd5b6000806142be3361655e565b9150915060006142d78388615c1190919063ffffffff16565b90508160e660003373ffffffffffffffffffffffffffffffffffffffff1673ffffffffffffffffffffffffffffffffffffffff168152602001908152602001600020600101819055506143758160e660003373ffffffffffffffffffffffffffffffffffffffff1673ffffffffffffffffffffffffffffffffffffffff16815260200190815260200160002060020154615c1190919063ffffffff16565b60e660003373ffffffffffffffffffffffffffffffffffffffff1673ffffffffffffffffffffffffffffffffffffffff168152602001908152602001600020600201819055506143c5338261716d565b600073ffffffffffffffffffffffffffffffffffffffff1660e760003373ffffffffffffffffffffffffffffffffffffffff1673ffffffffffffffffffffffffffffffffffffffff16815260200190815260200160002060009054906101000a900473ffffffffffffffffffffffffffffffffffffffff1673ffffffffffffffffffffffffffffffffffffffff16146144c7576144c260e760003373ffffffffffffffffffffffffffffffffffffffff1673ffffffffffffffffffffffffffffffffffffffff16815260200190815260200160002060009054906101000a900473ffffffffffffffffffffffffffffffffffffffff168884617333565b6144d7565b6144d63388888886600161689c565b5b813373ffffffffffffffffffffffffffffffffffffffff167f5f67bdaf5902b0de3e5deda6467c73b992ee58afe0034455a329fb68e16fa0b361451933613288565b60e660003373ffffffffffffffffffffffffffffffffffffffff1673ffffffffffffffffffffffffffffffffffffffff168152602001908152602001600020600201548b886040518085815260200184815260200183815260200182815260200194505050505060405180910390a350505050505050565b60008060e960008473ffffffffffffffffffffffffffffffffffffffff1673ffffffffffffffffffffffffffffffffffffffff16815260200190815260200160002060009054906101000a900463ffffffff16905060008163ffffffff16116145fb57600061465f565b60e860008473ffffffffffffffffffffffffffffffffffffffff1673ffffffffffffffffffffffffffffffffffffffff16815260200190815260200160002060006001830363ffffffff1663ffffffff168152602001908152602001600020600101545b915050919050565b600060e660003373ffffffffffffffffffffffffffffffffffffffff1673ffffffffffffffffffffffffffffffffffffffff1681526020019081526020016000206002015411614702576040517f08c379a0000000000000000000000000000000000000000000000000000000008152600401808060200182810382526023815260200180618ed66023913960400191505060405180910390fd5b600073__PropsRewardsLib_______________________63e8fc02ab60c96040518263ffffffff1660e01b81526004018082815260200191505060206040518083038186803b15801561475457600080fd5b505af4158015614768573d6000803e3d6000fd5b505050506040513d602081101561477e57600080fd5b8101908080519060200190929190505050905061479c600682612c25565b6147f160e660003373ffffffffffffffffffffffffffffffffffffffff1673ffffffffffffffffffffffffffffffffffffffff1681526020019081526020016000206001015483615dc190919063ffffffff16565b11614864576040517f08c379a000000000000000000000000000000000000000000000000000000000815260040180806020018281038252601c8152602001807f43616e6e6f742072657374616b65202d20696e20636f6f6c646f776e0000000081525060200191505060405180910390fd5b6148b98460e660003373ffffffffffffffffffffffffffffffffffffffff1673ffffffffffffffffffffffffffffffffffffffff16815260200190815260200160002060020154615dc190919063ffffffff16565b60e660003373ffffffffffffffffffffffffffffffffffffffff1673ffffffffffffffffffffffffffffffffffffffff1681526020019081526020016000206002018190555061490b338585856154f1565b50505050565b60006040518080618fcf60439139604301905060405180910390206040518060400160405280600681526020017f7350524f50530000000000000000000000000000000000000000000000000000815250805190602001206149716173f7565b30604051602001808581526020018481526020018381526020018273ffffffffffffffffffffffffffffffffffffffff1673ffffffffffffffffffffffffffffffffffffffff16815260200194505050505060405160208183030381529060405280519060200120905060006040518080619173603a9139603a0190506040518091039020888888604051602001808581526020018473ffffffffffffffffffffffffffffffffffffffff1673ffffffffffffffffffffffffffffffffffffffff1681526020018381526020018281526020019450505050506040516020818303038152906040528051906020012090506000828260405160200180807f190100000000000000000000000000000000000000000000000000000000000081525060020183815260200182815260200192505050604051602081830303815290604052805190602001209050600060018288888860405160008152602001604052604051808581526020018460ff1660ff1681526020018381526020018281526020019450505050506020604051602081039080840390855afa158015614b1c573d6000803e3d6000fd5b505050602060405103519050600073ffffffffffffffffffffffffffffffffffffffff168173ffffffffffffffffffffffffffffffffffffffff161415614bcb576040517f08c379a00000000000000000000000000000000000000000000000000000000081526004018080602001828103825260208152602001807f64656c656761746542795369673a20696e76616c6964207369676e617475726581525060200191505060405180910390fd5b60ea60008273ffffffffffffffffffffffffffffffffffffffff1673ffffffffffffffffffffffffffffffffffffffff1681526020019081526020016000206000815480929190600101919050558914614c8d576040517f08c379a000000000000000000000000000000000000000000000000000000000815260040180806020018281038252601c8152602001807f64656c656761746542795369673a20696e76616c6964206e6f6e63650000000081525060200191505060405180910390fd5b87421115614d03576040517f08c379a00000000000000000000000000000000000000000000000000000000081526004018080602001828103825260208152602001807f64656c656761746542795369673a207369676e6174757265206578706972656481525060200191505060405180910390fd5b614d0d818b616281565b50505050505050505050565b60405180807f56414c494441544f525f524f4c45000000000000000000000000000000000000815250600e019050604051809103902081565b6000614d7260976000848152602001908152602001600020600001617404565b9050919050565b600060e460009054906101000a900473ffffffffffffffffffffffffffffffffffffffff1690508073ffffffffffffffffffffffffffffffffffffffff1663d505accf33308a7fffffffffffffffffffffffffffffffffffffffffffffffffffffffffffffffff8b8b8b6040518863ffffffff1660e01b8152600401808873ffffffffffffffffffffffffffffffffffffffff1673ffffffffffffffffffffffffffffffffffffffff1681526020018773ffffffffffffffffffffffffffffffffffffffff1673ffffffffffffffffffffffffffffffffffffffff1681526020018681526020018581526020018460ff1660ff168152602001838152602001828152602001975050505050505050600060405180830381600087803b158015614ea157600080fd5b505af1158015614eb5573d6000803e3d6000fd5b505050508073ffffffffffffffffffffffffffffffffffffffff166323b872dd33308a6040518463ffffffff1660e01b8152600401808473ffffffffffffffffffffffffffffffffffffffff1673ffffffffffffffffffffffffffffffffffffffff1681526020018373ffffffffffffffffffffffffffffffffffffffff1673ffffffffffffffffffffffffffffffffffffffff1681526020018281526020019350505050602060405180830381600087803b158015614f7457600080fd5b505af1158015614f88573d6000803e3d6000fd5b505050506040513d6020811015614f9e57600080fd5b810190808051906020019092919050505050614fba3388617419565b614fc6338885856154f1565b50505050505050565b614ff66097600084815260200190815260200160002060020154614ff16152f2565b613878565b61504b576040517f08c379a0000000000000000000000000000000000000000000000000000000008152600401808060200182810382526030815260200180618f4b6030913960400191505060405180910390fd5b6150558282615d2d565b5050565b6000606660008473ffffffffffffffffffffffffffffffffffffffff1673ffffffffffffffffffffffffffffffffffffffff16815260200190815260200160002060008373ffffffffffffffffffffffffffffffffffffffff1673ffffffffffffffffffffffffffffffffffffffff16815260200190815260200160002054905092915050565b60ed6020528060005260406000206000915090505481565b6151056000801b33613878565b61515a576040517f08c379a00000000000000000000000000000000000000000000000000000000081526004018080602001828103825260248152602001806191ad6024913960400191505060405180910390fd5b73__PropsRewardsLib_______________________6363cad06a60c984846040518463ffffffff1660e01b81526004018084815260200183815260200180602001828103825283818151815260200191508051906020019060200280838360005b838110156151d65780820151818401526020810190506151bb565b5050505090500194505050505060006040518083038186803b1580156151fb57600080fd5b505af415801561520f573d6000803e3d6000fd5b50505050817f25071f4c6ebdf865da246a5caf6a5bbcbe50f6443e15309b97b10043c6beb1d9826040518080602001828103825283818151815260200191508051906020019060200280838360005b8381101561527957808201518184015260208101905061525e565b505050509050019250505060405180910390a25050565b6040518080619173603a9139603a019050604051809103902081565b60e8602052816000526040600020602052806000526040600020600091509150508060000160009054906101000a900463ffffffff16908060010154905082565b600a81565b600033905090565b600073ffffffffffffffffffffffffffffffffffffffff168373ffffffffffffffffffffffffffffffffffffffff161415615380576040517f08c379a000000000000000000000000000000000000000000000000000000000815260040180806020018281038252602481526020018061914f6024913960400191505060405180910390fd5b600073ffffffffffffffffffffffffffffffffffffffff168273ffffffffffffffffffffffffffffffffffffffff161415615406576040517f08c379a0000000000000000000000000000000000000000000000000000000008152600401808060200182810382526022815260200180618eb46022913960400191505060405180910390fd5b80606660008573ffffffffffffffffffffffffffffffffffffffff1673ffffffffffffffffffffffffffffffffffffffff16815260200190815260200160002060008473ffffffffffffffffffffffffffffffffffffffff1673ffffffffffffffffffffffffffffffffffffffff168152602001908152602001600020819055508173ffffffffffffffffffffffffffffffffffffffff168373ffffffffffffffffffffffffffffffffffffffff167f8c5be1e5ebec7d5bd14f71427d1e84f3dd0314c0f7b2291e5b200ac8c7c3b925836040518082815260200191505060405180910390a3505050565b600083905060008060009050600061550888613288565b1115615539576155178761655e565b80935081925050506155328184615c1190919063ffffffff16565b92506155c7565b73__PropsRewardsLib_______________________63e8fc02ab60c96040518263ffffffff1660e01b81526004018082815260200191505060206040518083038186803b15801561558957600080fd5b505af415801561559d573d6000803e3d6000fd5b505050506040513d60208110156155b357600080fd5b810190808051906020019092919050505091505b8160e660008973ffffffffffffffffffffffffffffffffffffffff1673ffffffffffffffffffffffffffffffffffffffff16815260200190815260200160002060000181905550615619600483612c25565b60e660008973ffffffffffffffffffffffffffffffffffffffff1673ffffffffffffffffffffffffffffffffffffffff1681526020019081526020016000206003018190555060008073ffffffffffffffffffffffffffffffffffffffff1660e760008a73ffffffffffffffffffffffffffffffffffffffff1673ffffffffffffffffffffffffffffffffffffffff16815260200190815260200160002060009054906101000a900473ffffffffffffffffffffffffffffffffffffffff1673ffffffffffffffffffffffffffffffffffffffff1614156156fa578761575b565b60e760008973ffffffffffffffffffffffffffffffffffffffff1673ffffffffffffffffffffffffffffffffffffffff16815260200190815260200160002060009054906101000a900473ffffffffffffffffffffffffffffffffffffffff165b905061576c8185888887600061689c565b828873ffffffffffffffffffffffffffffffffffffffff167f5f67bdaf5902b0de3e5deda6467c73b992ee58afe0034455a329fb68e16fa0b36157ae8b613288565b60e660008d73ffffffffffffffffffffffffffffffffffffffff1673ffffffffffffffffffffffffffffffffffffffff1681526020019081526020016000206002015488876040518085815260200184815260200183815260200182815260200194505050505060405180910390a35050505050505050565b600073ffffffffffffffffffffffffffffffffffffffff168373ffffffffffffffffffffffffffffffffffffffff1614156158ad576040517f08c379a000000000000000000000000000000000000000000000000000000000815260040180806020018281038252602581526020018061912a6025913960400191505060405180910390fd5b600073ffffffffffffffffffffffffffffffffffffffff168273ffffffffffffffffffffffffffffffffffffffff161415615933576040517f08c379a0000000000000000000000000000000000000000000000000000000008152600401808060200182810382526023815260200180618df56023913960400191505060405180910390fd5b61593e8383836175e2565b6159aa81604051806060016040528060268152602001618f2560269139606560008773ffffffffffffffffffffffffffffffffffffffff1673ffffffffffffffffffffffffffffffffffffffff16815260200190815260200160002054615aec9092919063ffffffff16565b606560008573ffffffffffffffffffffffffffffffffffffffff1673ffffffffffffffffffffffffffffffffffffffff16815260200190815260200160002081905550615a3f81606560008573ffffffffffffffffffffffffffffffffffffffff1673ffffffffffffffffffffffffffffffffffffffff16815260200190815260200160002054615c1190919063ffffffff16565b606560008473ffffffffffffffffffffffffffffffffffffffff1673ffffffffffffffffffffffffffffffffffffffff168152602001908152602001600020819055508173ffffffffffffffffffffffffffffffffffffffff168373ffffffffffffffffffffffffffffffffffffffff167fddf252ad1be2c89b69c2b068fc378daa952ba7f163c4a11628f55a4df523b3ef836040518082815260200191505060405180910390a3505050565b6000838311158290615b99576040517f08c379a00000000000000000000000000000000000000000000000000000000081526004018080602001828103825283818151815260200191508051906020019080838360005b83811015615b5e578082015181840152602081019050615b43565b50505050905090810190601f168015615b8b5780820380516001836020036101000a031916815260200191505b509250505060405180910390fd5b5060008385039050809150509392505050565b60008282604051602001808373ffffffffffffffffffffffffffffffffffffffff1673ffffffffffffffffffffffffffffffffffffffff1681526020018281526020019250505060405160208183030381529060405280519060200120905092915050565b600080828401905083811015615c8f576040517f08c379a000000000000000000000000000000000000000000000000000000000815260040180806020018281038252601b8152602001807f536166654d6174683a206164646974696f6e206f766572666c6f77000000000081525060200191505060405180910390fd5b8091505092915050565b615cc181609760008581526020019081526020016000206000016175e790919063ffffffff16565b15615d2957615cce6152f2565b73ffffffffffffffffffffffffffffffffffffffff168173ffffffffffffffffffffffffffffffffffffffff16837f2f8788117e7eff1d82e926ec794901d17c78024a50270940304540a733656f0d60405160405180910390a45b5050565b615d55816097600085815260200190815260200160002060000161761790919063ffffffff16565b15615dbd57615d626152f2565b73ffffffffffffffffffffffffffffffffffffffff168173ffffffffffffffffffffffffffffffffffffffff16837ff6391f5c32d9c69d2a47ea670b442974b53935d1edc7fd64eb21e047a839171b60405160405180910390a45b5050565b6000615e0383836040518060400160405280601e81526020017f536166654d6174683a207375627472616374696f6e206f766572666c6f770000815250615aec565b905092915050565b600060e460009054906101000a900473ffffffffffffffffffffffffffffffffffffffff169050600060c9600f01600001600085815260200190815260200160002060010180549050905060008090505b81811015615fea578273ffffffffffffffffffffffffffffffffffffffff166340c10f1960c9600201600060c9600f0160000160008a81526020019081526020016000206001018581548110615eae57fe5b9060005260206000200160009054906101000a900473ffffffffffffffffffffffffffffffffffffffff1673ffffffffffffffffffffffffffffffffffffffff1673ffffffffffffffffffffffffffffffffffffffff16815260200190815260200160002060010160009054906101000a900473ffffffffffffffffffffffffffffffffffffffff16866040518363ffffffff1660e01b8152600401808373ffffffffffffffffffffffffffffffffffffffff1673ffffffffffffffffffffffffffffffffffffffff16815260200182815260200192505050602060405180830381600087803b158015615fa157600080fd5b505af1158015615fb5573d6000803e3d6000fd5b505050506040513d6020811015615fcb57600080fd5b8101908080519060200190929190505050508080600101915050615e5c565b5073__PropsRewardsLib_______________________63cb27ba3e60c9866040518363ffffffff1660e01b8152600401808381526020018281526020019250505060006040518083038186803b15801561604357600080fd5b505af4158015616057573d6000803e3d6000fd5b5050505083857f07efea0e0eeb975e5404139e47d884d2705a0660a3456aa31c5694df1d8c5f1483848702604051808381526020018281526020019250505060405180910390a35050505050565b600060e460009054906101000a900473ffffffffffffffffffffffffffffffffffffffff16905060008090505b8451811015616236578173ffffffffffffffffffffffffffffffffffffffff166340c10f1960c9600001600088858151811061610a57fe5b602002602001015173ffffffffffffffffffffffffffffffffffffffff1673ffffffffffffffffffffffffffffffffffffffff16815260200190815260200160002060010160009054906101000a900473ffffffffffffffffffffffffffffffffffffffff1686848151811061617c57fe5b60200260200101516040518363ffffffff1660e01b8152600401808373ffffffffffffffffffffffffffffffffffffffff1673ffffffffffffffffffffffffffffffffffffffff16815260200182815260200192505050602060405180830381600087803b1580156161ed57600080fd5b505af1158015616201573d6000803e3d6000fd5b505050506040513d602081101561621757600080fd5b81019080805190602001909291905050505080806001019150506160d2565b5084867fcc511f1b8ddd8ab10bcb89c26361da1c99b826350e3f38ee438134149032568a865185604051808381526020018281526020019250505060405180910390a3505050505050565b600060e760008473ffffffffffffffffffffffffffffffffffffffff1673ffffffffffffffffffffffffffffffffffffffff16815260200190815260200160002060009054906101000a900473ffffffffffffffffffffffffffffffffffffffff16905060006162f084613288565b90508260e760008673ffffffffffffffffffffffffffffffffffffffff1673ffffffffffffffffffffffffffffffffffffffff16815260200190815260200160002060006101000a81548173ffffffffffffffffffffffffffffffffffffffff021916908373ffffffffffffffffffffffffffffffffffffffff1602179055508273ffffffffffffffffffffffffffffffffffffffff168273ffffffffffffffffffffffffffffffffffffffff168573ffffffffffffffffffffffffffffffffffffffff167f3134e8a2e6d97e929a7e54011ea5485d7d196dd5f0ba4d4ef95803e8e3fc257f60405160405180910390a46163ec828483617647565b600081111561655857600073__PropsRewardsLib_______________________63e8fc02ab60c96040518263ffffffff1660e01b81526004018082815260200191505060206040518083038186803b15801561644757600080fd5b505af415801561645b573d6000803e3d6000fd5b505050506040513d602081101561647157600080fd5b8101908080519060200190929190505050905060008073ffffffffffffffffffffffffffffffffffffffff168473ffffffffffffffffffffffffffffffffffffffff1614156164c057856164c2565b835b9050600073ffffffffffffffffffffffffffffffffffffffff168473ffffffffffffffffffffffffffffffffffffffff161461650457616503818484617333565b5b60008073ffffffffffffffffffffffffffffffffffffffff168673ffffffffffffffffffffffffffffffffffffffff1614156165405786616542565b855b9050616554818560008087600061689c565b5050505b50505050565b600080600061656c84613288565b9050600081116165c7576040517f08c379a000000000000000000000000000000000000000000000000000000000815260040180806020018281038252602c815260200180618ef9602c913960400191505060405180910390fd5b600073__PropsRewardsLib_______________________63e8fc02ab60c96040518263ffffffff1660e01b81526004018082815260200191505060206040518083038186803b15801561661957600080fd5b505af415801561662d573d6000803e3d6000fd5b505050506040513d602081101561664357600080fd5b8101908080519060200190929190505050905060006166ad60e660008873ffffffffffffffffffffffffffffffffffffffff1673ffffffffffffffffffffffffffffffffffffffff1681526020019081526020016000206000015483615dc190919063ffffffff16565b905060006166fe848360e660008b73ffffffffffffffffffffffffffffffffffffffff1673ffffffffffffffffffffffffffffffffffffffff168152602001908152602001600020600301546178e4565b9050600060e460009054906101000a900473ffffffffffffffffffffffffffffffffffffffff1690508073ffffffffffffffffffffffffffffffffffffffff166340c10f1930846040518363ffffffff1660e01b8152600401808373ffffffffffffffffffffffffffffffffffffffff1673ffffffffffffffffffffffffffffffffffffffff16815260200182815260200192505050602060405180830381600087803b1580156167ae57600080fd5b505af11580156167c2573d6000803e3d6000fd5b505050506040513d60208110156167d857600080fd5b8101908080519060200190929190505050506167f48883617419565b8360e660008a73ffffffffffffffffffffffffffffffffffffffff1673ffffffffffffffffffffffffffffffffffffffff16815260200190815260200160002060000181905550616846600485612c25565b60e660008a73ffffffffffffffffffffffffffffffffffffffff1673ffffffffffffffffffffffffffffffffffffffff168152602001908152602001600020600301819055508184965096505050505050915091565b60006168a88585615bac565b9050811561695c578560eb60008973ffffffffffffffffffffffffffffffffffffffff1673ffffffffffffffffffffffffffffffffffffffff1681526020019081526020016000206000838152602001908152602001600020600201541161695b576040517f08c379a00000000000000000000000000000000000000000000000000000000081526004018080602001828103825260248152602001806190e56024913960400191505060405180910390fd5b5b60eb60008873ffffffffffffffffffffffffffffffffffffffff1673ffffffffffffffffffffffffffffffffffffffff168152602001908152602001600020600082815260200190815260200160002060030160009054906101000a900460ff16616c0357600160eb60008973ffffffffffffffffffffffffffffffffffffffff1673ffffffffffffffffffffffffffffffffffffffff168152602001908152602001600020600083815260200190815260200160002060030160006101000a81548160ff02191690831515021790555060ec60008873ffffffffffffffffffffffffffffffffffffffff1673ffffffffffffffffffffffffffffffffffffffff168152602001908152602001600020819080600181540180825580915050600190039060005260206000200160009091909190915055600160ec60008973ffffffffffffffffffffffffffffffffffffffff1673ffffffffffffffffffffffffffffffffffffffff168152602001908152602001600020805490500360eb60008973ffffffffffffffffffffffffffffffffffffffff1673ffffffffffffffffffffffffffffffffffffffff16815260200190815260200160002060008381526020019081526020016000206004018190555060405180604001604052808673ffffffffffffffffffffffffffffffffffffffff1681526020018581525060eb60008973ffffffffffffffffffffffffffffffffffffffff1673ffffffffffffffffffffffffffffffffffffffff168152602001908152602001600020600083815260200190815260200160002060000160008201518160000160006101000a81548173ffffffffffffffffffffffffffffffffffffffff021916908373ffffffffffffffffffffffffffffffffffffffff160217905550602082015181600101559050505b81616d5f57616c6e8660eb60008a73ffffffffffffffffffffffffffffffffffffffff1673ffffffffffffffffffffffffffffffffffffffff168152602001908152602001600020600084815260200190815260200160002060020154615c1190919063ffffffff16565b60eb60008973ffffffffffffffffffffffffffffffffffffffff1673ffffffffffffffffffffffffffffffffffffffff168152602001908152602001600020600083815260200190815260200160002060020181905550616d178660ed60008a73ffffffffffffffffffffffffffffffffffffffff1673ffffffffffffffffffffffffffffffffffffffff16815260200190815260200160002054615c1190919063ffffffff16565b60ed60008973ffffffffffffffffffffffffffffffffffffffff1673ffffffffffffffffffffffffffffffffffffffff16815260200190815260200160002081905550616f19565b616dc58660eb60008a73ffffffffffffffffffffffffffffffffffffffff1673ffffffffffffffffffffffffffffffffffffffff168152602001908152602001600020600084815260200190815260200160002060020154615dc190919063ffffffff16565b60eb60008973ffffffffffffffffffffffffffffffffffffffff1673ffffffffffffffffffffffffffffffffffffffff168152602001908152602001600020600083815260200190815260200160002060020181905550616e6e8660ed60008a73ffffffffffffffffffffffffffffffffffffffff1673ffffffffffffffffffffffffffffffffffffffff16815260200190815260200160002054615dc190919063ffffffff16565b60ed60008973ffffffffffffffffffffffffffffffffffffffff1673ffffffffffffffffffffffffffffffffffffffff16815260200190815260200160002081905550600060eb60008973ffffffffffffffffffffffffffffffffffffffff1673ffffffffffffffffffffffffffffffffffffffff1681526020019081526020016000206000838152602001908152602001600020600201541415616f1857616f17878261794f565b5b5b8473ffffffffffffffffffffffffffffffffffffffff16838873ffffffffffffffffffffffffffffffffffffffff167f40f7b5ee3e8e2819a427b50f78f22069ed0b92def393afb80ae7cf8f1f25fb488760eb60008d73ffffffffffffffffffffffffffffffffffffffff1673ffffffffffffffffffffffffffffffffffffffff1681526020019081526020016000206000878152602001908152602001600020600201548b60405180848152602001838152602001828152602001935050505060405180910390a450505050505050565b6000616ffa8360000183617ceb565b60001c905092915050565b600061702d836000018373ffffffffffffffffffffffffffffffffffffffff1660001b617d6e565b905092915050565b6000803090506000813b9050600081149250505090565b600060019054906101000a900460ff168061706b575061706a617035565b5b8061708257506000809054906101000a900460ff16155b6170d7576040517f08c379a000000000000000000000000000000000000000000000000000000000815260040180806020018281038252602e81526020018061905b602e913960400191505060405180910390fd5b60008060019054906101000a900460ff161590508015617127576001600060016101000a81548160ff02191690831515021790555060016000806101000a81548160ff0219169083151502179055505b61712f617d91565b6171398383617e90565b801561715a5760008060016101000a81548160ff0219169083151502179055505b505050565b6171698282615c99565b5050565b600073ffffffffffffffffffffffffffffffffffffffff168273ffffffffffffffffffffffffffffffffffffffff1614156171f3576040517f08c379a00000000000000000000000000000000000000000000000000000000081526004018080602001828103825260218152602001806191096021913960400191505060405180910390fd5b6171ff826000836175e2565b61726b81604051806060016040528060228152602001618e6a60229139606560008673ffffffffffffffffffffffffffffffffffffffff1673ffffffffffffffffffffffffffffffffffffffff16815260200190815260200160002054615aec9092919063ffffffff16565b606560008473ffffffffffffffffffffffffffffffffffffffff1673ffffffffffffffffffffffffffffffffffffffff168152602001908152602001600020819055506172c381606754615dc190919063ffffffff16565b606781905550600073ffffffffffffffffffffffffffffffffffffffff168273ffffffffffffffffffffffffffffffffffffffff167fddf252ad1be2c89b69c2b068fc378daa952ba7f163c4a11628f55a4df523b3ef836040518082815260200191505060405180910390a35050565b6000617340600080615bac565b9050600060eb60008673ffffffffffffffffffffffffffffffffffffffff1673ffffffffffffffffffffffffffffffffffffffff16815260200190815260200160002060008381526020019081526020016000206002015490508381106173b6576173b1858560008087600161689c565b6173f0565b60008111156173d0576173cf858260008087600161689c565b5b6173ef856173e78387615dc190919063ffffffff16565b856001617fdb565b5b5050505050565b6000804690508091505090565b60006174128260000161867b565b9050919050565b600073ffffffffffffffffffffffffffffffffffffffff168273ffffffffffffffffffffffffffffffffffffffff1614156174bc576040517f08c379a000000000000000000000000000000000000000000000000000000000815260040180806020018281038252601f8152602001807f45524332303a206d696e7420746f20746865207a65726f20616464726573730081525060200191505060405180910390fd5b6174c8600083836175e2565b6174dd81606754615c1190919063ffffffff16565b60678190555061753581606560008573ffffffffffffffffffffffffffffffffffffffff1673ffffffffffffffffffffffffffffffffffffffff16815260200190815260200160002054615c1190919063ffffffff16565b606560008473ffffffffffffffffffffffffffffffffffffffff1673ffffffffffffffffffffffffffffffffffffffff168152602001908152602001600020819055508173ffffffffffffffffffffffffffffffffffffffff16600073ffffffffffffffffffffffffffffffffffffffff167fddf252ad1be2c89b69c2b068fc378daa952ba7f163c4a11628f55a4df523b3ef836040518082815260200191505060405180910390a35050565b505050565b600061760f836000018373ffffffffffffffffffffffffffffffffffffffff1660001b61868c565b905092915050565b600061763f836000018373ffffffffffffffffffffffffffffffffffffffff1660001b6186fc565b905092915050565b8173ffffffffffffffffffffffffffffffffffffffff168373ffffffffffffffffffffffffffffffffffffffff16141580156176835750600081115b156178df57600073ffffffffffffffffffffffffffffffffffffffff168373ffffffffffffffffffffffffffffffffffffffff16146177b357600060e960008573ffffffffffffffffffffffffffffffffffffffff1673ffffffffffffffffffffffffffffffffffffffff16815260200190815260200160002060009054906101000a900463ffffffff1690506000808263ffffffff161161772657600061778a565b60e860008673ffffffffffffffffffffffffffffffffffffffff1673ffffffffffffffffffffffffffffffffffffffff16815260200190815260200160002060006001840363ffffffff1663ffffffff168152602001908152602001600020600101545b905060006177a18483615dc190919063ffffffff16565b90506177af868484846187e4565b5050505b600073ffffffffffffffffffffffffffffffffffffffff168273ffffffffffffffffffffffffffffffffffffffff16146178de57600060e960008473ffffffffffffffffffffffffffffffffffffffff1673ffffffffffffffffffffffffffffffffffffffff16815260200190815260200160002060009054906101000a900463ffffffff1690506000808263ffffffff16116178515760006178b5565b60e860008573ffffffffffffffffffffffffffffffffffffffff1673ffffffffffffffffffffffffffffffffffffffff16815260200190815260200160002060006001840363ffffffff1663ffffffff168152602001908152602001600020600101545b905060006178cc8483615c1190919063ffffffff16565b90506178da858484846187e4565b5050505b5b505050565b6000806179428561793461016d870261792161016d617913662386f26fc100008a618a7890919063ffffffff16565b618a7890919063ffffffff16565b6001010a88618ac290919063ffffffff16565b615dc190919063ffffffff16565b9050809150509392505050565b600060eb60008473ffffffffffffffffffffffffffffffffffffffff1673ffffffffffffffffffffffffffffffffffffffff168152602001908152602001600020600083815260200190815260200160002060030160006101000a81548160ff021916908315150217905550600060eb60008473ffffffffffffffffffffffffffffffffffffffff1673ffffffffffffffffffffffffffffffffffffffff168152602001908152602001600020600083815260200190815260200160002060020181905550600060eb60008473ffffffffffffffffffffffffffffffffffffffff1673ffffffffffffffffffffffffffffffffffffffff1681526020019081526020016000206000838152602001908152602001600020600401549050600060ec60008573ffffffffffffffffffffffffffffffffffffffff1673ffffffffffffffffffffffffffffffffffffffff168152602001908152602001600020805490509050600060018203831090508015617c85578260eb60008773ffffffffffffffffffffffffffffffffffffffff1673ffffffffffffffffffffffffffffffffffffffff168152602001908152602001600020600060ec60008973ffffffffffffffffffffffffffffffffffffffff1673ffffffffffffffffffffffffffffffffffffffff1681526020019081526020016000206001860381548110617b5257fe5b906000526020600020015481526020019081526020016000206004018190555060ec60008673ffffffffffffffffffffffffffffffffffffffff1673ffffffffffffffffffffffffffffffffffffffff1681526020019081526020016000206001830381548110617bbf57fe5b906000526020600020015460ec60008773ffffffffffffffffffffffffffffffffffffffff1673ffffffffffffffffffffffffffffffffffffffff1681526020019081526020016000208481548110617c1457fe5b906000526020600020018190555060ec60008673ffffffffffffffffffffffffffffffffffffffff1673ffffffffffffffffffffffffffffffffffffffff168152602001908152602001600020805480617c6a57fe5b60019003818190600052602060002001600090559055617ce4565b60ec60008673ffffffffffffffffffffffffffffffffffffffff1673ffffffffffffffffffffffffffffffffffffffff168152602001908152602001600020805480617ccd57fe5b600190038181906000526020600020016000905590555b5050505050565b600081836000018054905011617d4c576040517f08c379a0000000000000000000000000000000000000000000000000000000008152600401808060200182810382526022815260200180618dd36022913960400191505060405180910390fd5b826000018281548110617d5b57fe5b9060005260206000200154905092915050565b600080836001016000848152602001908152602001600020541415905092915050565b600060019054906101000a900460ff1680617db05750617daf617035565b5b80617dc757506000809054906101000a900460ff16155b617e1c576040517f08c379a000000000000000000000000000000000000000000000000000000000815260040180806020018281038252602e81526020018061905b602e913960400191505060405180910390fd5b60008060019054906101000a900460ff161590508015617e6c576001600060016101000a81548160ff02191690831515021790555060016000806101000a81548160ff0219169083151502179055505b8015617e8d5760008060016101000a81548160ff0219169083151502179055505b50565b600060019054906101000a900460ff1680617eaf5750617eae617035565b5b80617ec657506000809054906101000a900460ff16155b617f1b576040517f08c379a000000000000000000000000000000000000000000000000000000000815260040180806020018281038252602e81526020018061905b602e913960400191505060405180910390fd5b60008060019054906101000a900460ff161590508015617f6b576001600060016101000a81548160ff02191690831515021790555060016000806101000a81548160ff0219169083151502179055505b8260689080519060200190617f81929190618ce9565b508160699080519060200190617f98929190618ce9565b506012606a60006101000a81548160ff021916908360ff1602179055508015617fd65760008060016101000a81548160ff0219169083151502179055505b505050565b600060ec60008673ffffffffffffffffffffffffffffffffffffffff1673ffffffffffffffffffffffffffffffffffffffff1681526020019081526020016000208054905011618076576040517f08c379a0000000000000000000000000000000000000000000000000000000008152600401808060200182810382526029815260200180618f7b6029913960400191505060405180910390fd5b600160ec60008673ffffffffffffffffffffffffffffffffffffffff1673ffffffffffffffffffffffffffffffffffffffff16815260200190815260200160002080549050141561824a57618245848460eb60008873ffffffffffffffffffffffffffffffffffffffff1673ffffffffffffffffffffffffffffffffffffffff168152602001908152602001600020600060ec60008a73ffffffffffffffffffffffffffffffffffffffff1673ffffffffffffffffffffffffffffffffffffffff16815260200190815260200160002060008154811061815257fe5b9060005260206000200154815260200190815260200160002060000160000160009054906101000a900473ffffffffffffffffffffffffffffffffffffffff1660eb60008973ffffffffffffffffffffffffffffffffffffffff1673ffffffffffffffffffffffffffffffffffffffff168152602001908152602001600020600060ec60008b73ffffffffffffffffffffffffffffffffffffffff1673ffffffffffffffffffffffffffffffffffffffff16815260200190815260200160002060008154811061821e57fe5b9060005260206000200154815260200190815260200160002060000160010154868661689c565b618675565b618252618d69565b60008090505b60ec60008773ffffffffffffffffffffffffffffffffffffffff1673ffffffffffffffffffffffffffffffffffffffff168152602001908152602001600020805490508110156183d2576183b060ed60008873ffffffffffffffffffffffffffffffffffffffff1673ffffffffffffffffffffffffffffffffffffffff168152602001908152602001600020546183a2620f424060eb60008b73ffffffffffffffffffffffffffffffffffffffff1673ffffffffffffffffffffffffffffffffffffffff168152602001908152602001600020600060ec60008d73ffffffffffffffffffffffffffffffffffffffff1673ffffffffffffffffffffffffffffffffffffffff168152602001908152602001600020878154811061837757fe5b9060005260206000200154815260200190815260200160002060020154618ac290919063ffffffff16565b618a7890919063ffffffff16565b8282600a81106183bc57fe5b6020020181815250508080600101915050618258565b50600080905060008090505b60ec60008873ffffffffffffffffffffffffffffffffffffffff1673ffffffffffffffffffffffffffffffffffffffff16815260200190815260200160002080549050811015618671576000600160ec60008a73ffffffffffffffffffffffffffffffffffffffff1673ffffffffffffffffffffffffffffffffffffffff16815260200190815260200160002080549050038210156184b6576184af620f42406184a18685600a811061848d57fe5b60200201518a618ac290919063ffffffff16565b618a7890919063ffffffff16565b90506184cc565b6184c98784615dc190919063ffffffff16565b90505b61864e888260eb60008c73ffffffffffffffffffffffffffffffffffffffff1673ffffffffffffffffffffffffffffffffffffffff168152602001908152602001600020600060ec60008e73ffffffffffffffffffffffffffffffffffffffff1673ffffffffffffffffffffffffffffffffffffffff168152602001908152602001600020878154811061855c57fe5b9060005260206000200154815260200190815260200160002060000160000160009054906101000a900473ffffffffffffffffffffffffffffffffffffffff1660eb60008d73ffffffffffffffffffffffffffffffffffffffff1673ffffffffffffffffffffffffffffffffffffffff168152602001908152602001600020600060ec60008f73ffffffffffffffffffffffffffffffffffffffff1673ffffffffffffffffffffffffffffffffffffffff168152602001908152602001600020888154811061862757fe5b90600052602060002001548152602001908152602001600020600001600101548a8a61689c565b6186618184615c1190919063ffffffff16565b92505080806001019150506183de565b5050505b50505050565b600081600001805490509050919050565b60006186988383617d6e565b6186f15782600001829080600181540180825580915050600190039060005260206000200160009091909190915055826000018054905083600101600084815260200190815260200160002081905550600190506186f6565b600090505b92915050565b600080836001016000848152602001908152602001600020549050600081146187d8576000600182039050600060018660000180549050039050600086600001828154811061874757fe5b906000526020600020015490508087600001848154811061876457fe5b906000526020600020018190555060018301876001016000838152602001908152602001600020819055508660000180548061879c57fe5b600190038181906000526020600020016000905590558660010160008781526020019081526020016000206000905560019450505050506187de565b60009150505b92915050565b6000618808436040518060600160405280602e8152602001619089602e9139618b48565b905060008463ffffffff1611801561889d57508063ffffffff1660e860008773ffffffffffffffffffffffffffffffffffffffff1673ffffffffffffffffffffffffffffffffffffffff16815260200190815260200160002060006001870363ffffffff1663ffffffff16815260200190815260200160002060000160009054906101000a900463ffffffff1663ffffffff16145b1561890e578160e860008773ffffffffffffffffffffffffffffffffffffffff1673ffffffffffffffffffffffffffffffffffffffff16815260200190815260200160002060006001870363ffffffff1663ffffffff16815260200190815260200160002060010181905550618a1b565b60405180604001604052808263ffffffff1681526020018381525060e860008773ffffffffffffffffffffffffffffffffffffffff1673ffffffffffffffffffffffffffffffffffffffff16815260200190815260200160002060008663ffffffff1663ffffffff16815260200190815260200160002060008201518160000160006101000a81548163ffffffff021916908363ffffffff160217905550602082015181600101559050506001840160e960008773ffffffffffffffffffffffffffffffffffffffff1673ffffffffffffffffffffffffffffffffffffffff16815260200190815260200160002060006101000a81548163ffffffff021916908363ffffffff1602179055505b8473ffffffffffffffffffffffffffffffffffffffff167fdec2bacdd2f05b59de34da9b523dff8be42e5e38e818c82fdb0bae774387a7248484604051808381526020018281526020019250505060405180910390a25050505050565b6000618aba83836040518060400160405280601a81526020017f536166654d6174683a206469766973696f6e206279207a65726f000000000000815250618c03565b905092915050565b600080831415618ad55760009050618b42565b6000828402905082848281618ae657fe5b0414618b3d576040517f08c379a00000000000000000000000000000000000000000000000000000000081526004018080602001828103825260218152602001806190126021913960400191505060405180910390fd5b809150505b92915050565b600064010000000083108290618bf9576040517f08c379a00000000000000000000000000000000000000000000000000000000081526004018080602001828103825283818151815260200191508051906020019080838360005b83811015618bbe578082015181840152602081019050618ba3565b50505050905090810190601f168015618beb5780820380516001836020036101000a031916815260200191505b509250505060405180910390fd5b5082905092915050565b60008083118290618caf576040517f08c379a00000000000000000000000000000000000000000000000000000000081526004018080602001828103825283818151815260200191508051906020019080838360005b83811015618c74578082015181840152602081019050618c59565b50505050905090810190601f168015618ca15780820380516001836020036101000a031916815260200191505b509250505060405180910390fd5b506000838581618cbb57fe5b049050809150509392505050565b6040518060400160405280600063ffffffff168152602001600081525090565b828054600181600116156101000203166002900490600052602060002090601f016020900481019282601f10618d2a57805160ff1916838001178555618d58565b82800160010185558215618d58579182015b82811115618d57578251825591602001919060010190618d3c565b5b509050618d659190618d8c565b5090565b604051806101400160405280600a90602082028036833780820191505090505090565b618dae91905b80821115618daa576000816000905550600101618d92565b5090565b9056fe6765745072696f72566f7465733a206e6f74207965742064657465726d696e6564456e756d657261626c655365743a20696e646578206f7574206f6620626f756e647345524332303a207472616e7366657220746f20746865207a65726f2061646472657373416363657373436f6e74726f6c3a2073656e646572206d75737420626520616e2061646d696e20746f206772616e7443616e6e6f74207769746864726177206e6f7468696e6720746f20776974686472617745524332303a206275726e20616d6f756e7420657863656564732062616c616e636543616e6e6f7420756e7374616b65206d6f7265207468616e207768617420776173207374616b656445524332303a20617070726f766520746f20746865207a65726f206164647265737343616e6e6f742072657374616b65202d206e6f7468696e6720746f2072657374616b6543616e6e6f7420636f6c6c65637420696e746572657374206966206e6f7468696e67206973207374616b656445524332303a207472616e7366657220616d6f756e7420657863656564732062616c616e6365416363657373436f6e74726f6c3a2073656e646572206d75737420626520616e2061646d696e20746f207265766f6b6543616e6e6f742064697374726962757465206966206e6f20616c6c6f636174696f6e73206578697374736574746c65206d6179206f6e6c792062652063616c6c656420627920616e206170706c69636174696f6e454950373132446f6d61696e28737472696e67206e616d652c75696e7432353620636861696e49642c6164647265737320766572696679696e67436f6e747261637429536166654d6174683a206d756c7469706c69636174696f6e206f766572666c6f7745524332303a207472616e7366657220616d6f756e74206578636565647320616c6c6f77616e6365436f6e747261637420696e7374616e63652068617320616c7265616479206265656e20696e697469616c697a65645f7772697465436865636b706f696e743a20626c6f636b206e756d6265722065786365656473203332206269747343616e6e6f74207769746864726177206265666f726520636f6f6c646f776e20706572696f64206973206f76657243616e6e6f74207375627472616374206e6f7420656e6f75676820616c6c6f636174656445524332303a206275726e2066726f6d20746865207a65726f206164647265737345524332303a207472616e736665722066726f6d20746865207a65726f206164647265737345524332303a20617070726f76652066726f6d20746865207a65726f206164647265737344656c65676174696f6e28616464726573732064656c6567617465652c75696e74323536206e6f6e63652c75696e74323536206578706972792943616c6c6572206d7573742062652061646d696e206f662074686520636f6e747261637445524332303a2064656372656173656420616c6c6f77616e63652062656c6f77207a65726f416363657373436f6e74726f6c3a2063616e206f6e6c792072656e6f756e636520726f6c657320666f722073656c66a2646970667358221220c4aebe5befc3b2d204beda6b2b10187c9642ff493496d33f5786d08d8f11c8b864736f6c63430006040033",
  "compiler": {
    "name": "solc",
    "version": "0.6.4+commit.1dca32f3.Emscripten.clang",
    "optimizer": {
      "enabled": false,
      "runs": 200
    },
    "evmVersion": "istanbul"
  }
}