{
  "fileName": "PropsRewards.sol",
  "contractName": "PropsRewards",
  "source": "pragma solidity ^0.6.2;\n\nimport \"@openzeppelin/contracts-ethereum-package/contracts/Initializable.sol\";\nimport \"@openzeppelin/contracts-ethereum-package/contracts/math/SafeMath.sol\";\nimport \"@openzeppelin/contracts-ethereum-package/contracts/token/ERC20/ERC20.sol\";\nimport \"@openzeppelin/contracts-ethereum-package/contracts/access/AccessControl.sol\";\n\nimport \"./IPropsToken.sol\";\nimport { PropsRewardsLib } from \"./PropsRewardsLib.sol\";\n\n/**\n * @title Staking PROPS Token\n * @dev Staking PROPS token contract\n * sPROPS are divisible by 1e18 base\n * units referred to as 'AttosPROPS'.\n *\n * sPROPS are displayed using 18 decimal places of precision.\n *\n * 1 sPROPS is equivalent to:\n *   1 * 1e18 == 1e18 == One Quintillion AttosPROPS\n *\n *\n\n */\n\ncontract PropsRewards is Initializable, ERC20UpgradeSafe, AccessControlUpgradeSafe { /* AccessControl {*/\n    using SafeMath for uint256;\n\n    event DailyRewardsSubmitted(\n        uint256 indexed rewardsDay,\n        bytes32 indexed rewardsHash,\n        address indexed validator\n    );\n\n    event DailyRewardsApplicationsMinted(\n        uint256 indexed rewardsDay,\n        bytes32 indexed rewardsHash,\n        uint256 numOfApplications,\n        uint256 amount\n    );\n\n    event DailyRewardsValidatorsMinted(\n        uint256 indexed rewardsDay,\n        bytes32 indexed rewardsHash,\n        uint256 numOfValidators,\n        uint256 amount\n    );\n\n    event EntityUpdated(\n        address indexed id,\n        PropsRewardsLib.RewardedEntityType indexed entityType,\n        bytes32 name,\n        address rewardsAddress,\n        address indexed sidechainAddress\n    );\n\n    event ParameterUpdated(\n        PropsRewardsLib.ParameterName param,\n        uint256 newValue,\n        uint256 oldValue,\n        uint256 rewardsDay\n    );\n\n    event ValidatorsListUpdated(\n        address[] validatorsList,\n        uint256 indexed rewardsDay\n    );\n\n    event ApplicationsListUpdated(\n        address[] applicationsList,\n        uint256 indexed rewardsDay\n    );\n\n    event Settlement(\n        address indexed applicationId,\n        bytes32 indexed userId,\n        address indexed to,\n        uint256 amount,\n        address rewardsAddress\n    );\n\n    event StakeChanged(\n        address indexed wallet,\n        uint256 indexed rewardsDay,\n        uint256 amountStaked,\n        uint256 amountUnstaked,\n        uint256 amountChanged,\n        uint256 interestGained\n    );\n\n    event Withdraw(\n        address indexed wallet,\n        uint256 indexed rewardsDay,\n        uint256 amount\n    );\n\n    event AllocationChanged(\n        address indexed wallet,\n        uint256 indexed rewardsDay,\n        address indexed appId,\n        bytes32 userId,\n        uint256 amount,\n        uint256 amountChanged\n    );\n\n    event DelegateChanged(\n        address indexed delegator,\n        address indexed fromDelegate,\n        address indexed toDelegate\n    );\n\n    event DelegateVotesChanged(\n        address indexed delegate,\n        uint previousBalance,\n        uint newBalance\n    );\n\n    /*\n    *  Modifiers\n    */\n    modifier onlyOwner() {\n        require(\n            hasRole(DEFAULT_ADMIN_ROLE, msg.sender),\n            \"Caller must be admin of the contract\"\n        );\n         _;\n    }\n\n    /*\n    *  Storage\n    */\n\n    /// @dev A checkpoint for marking number of votes from a given block\n    struct Checkpoint {\n        uint32 fromBlock;\n        uint256 votes;\n    }\n\n    PropsRewardsLib.Data internal rewardsLibData;\n    uint256 public maxTotalSupply;\n    uint256 public rewardsStartTimestamp;\n    uint256 public secondsBetweenDays; // for test networks the option to make each rewards day shorter\n    address public tokenContract;\n    address public identityContract;\n\n    /// @dev A record of each accounts delegate\n    mapping (address => address) delegates;\n    /// @dev A record of votes checkpoints for each account, by index\n    mapping (address => mapping (uint32 => Checkpoint)) checkpoints;\n    /// @dev The number of checkpoints for each account\n    mapping (address => uint32) numCheckpoints;\n    /// @dev The EIP-712 typehash for the contract's domain\n    bytes32 public constant DOMAIN_TYPEHASH = keccak256(\"EIP712Domain(string name,uint256 chainId,address verifyingContract)\");\n    /// @dev The EIP-712 typehash for the delegation struct used by the contract\n    bytes32 public constant DELEGATION_TYPEHASH = keccak256(\"Delegation(address delegatee,uint256 nonce,uint256 expiry)\");\n    /// @dev A record of states for signing / validating signatures\n    mapping (address => uint) nonces;\n\n    /**\n    * @dev Initializer function. Called only once when a proxy for the contract is created.\n    * @param _admin address that will act as the admin role\n    * @param _tokenContract address of the props token contract\n    * @param _identityContract address of the identity contract\n    * @param _minSecondsBetweenDays uint256 seconds required to pass between consecutive rewards day\n    * @param _rewardsStartTimestamp uint256 day 0 timestamp\n    */\n    function initialize(\n        address _admin,\n        address _tokenContract,\n        address _identityContract,\n        uint256 _minSecondsBetweenDays,\n        uint256 _rewardsStartTimestamp\n    )\n    public\n    initializer\n    {\n        ERC20UpgradeSafe.__ERC20_init(\"Props Staking Token\", \"sPROPS\"); //decimals is by default 18\n         _setupRole(DEFAULT_ADMIN_ROLE, _admin);\n        rewardsLibData.tokenContract = tokenContract = _tokenContract;\n        rewardsLibData.identityContract = identityContract = _identityContract;\n        PropsRewardsLib.updateParameter(rewardsLibData, PropsRewardsLib.ParameterName.ApplicationRewardsPercent, 34750, 0);\n        // // ApplicationRewardsMaxVariationPercent pphm ==> 150%\n        PropsRewardsLib.updateParameter(rewardsLibData, PropsRewardsLib.ParameterName.ApplicationRewardsMaxVariationPercent, 150 * 1e6, 0);\n        // // ValidatorMajorityPercent pphm ==> 50%\n        PropsRewardsLib.updateParameter(rewardsLibData, PropsRewardsLib.ParameterName.ValidatorMajorityPercent, 50 * 1e6, 0);\n        //  // ValidatorRewardsPercent pphm ==> 0.001829%\n        PropsRewardsLib.updateParameter(rewardsLibData, PropsRewardsLib.ParameterName.ValidatorRewardsPercent, 1829, 0);\n        //  // StakingInterestRate pphm ==> 0.01%\n        PropsRewardsLib.updateParameter(rewardsLibData, PropsRewardsLib.ParameterName.StakingInterestRate, 10000, 0);\n        //  // WithdrawCooldownPeriodDays days ==> 30\n        PropsRewardsLib.updateParameter(rewardsLibData, PropsRewardsLib.ParameterName.WithdrawCooldownPeriodDays, 30, 0);\n        //  // RestakeCooldownPeriodDays days ==> 1\n        PropsRewardsLib.updateParameter(rewardsLibData, PropsRewardsLib.ParameterName.RestakeCooldownPeriodDays, 1, 0);\n\n        // max total supply is 1,000,000,000 PROPS specified in AttoPROPS\n        rewardsLibData.maxTotalSupply = maxTotalSupply = 1 * 1e9 * (10 ** uint256(decimals()));\n        rewardsLibData.rewardsStartTimestamp = rewardsStartTimestamp = _rewardsStartTimestamp;\n        rewardsLibData.minSecondsBetweenDays = secondsBetweenDays = _minSecondsBetweenDays;\n        \n        rewardsLibData.precisionMul = 10**6;\n        rewardsLibData.VALIDATOR_ROLE = keccak256(\"VALIDATOR_ROLE\");\n        rewardsLibData.APPLICATION_ROLE = keccak256(\"APPLICATION_ROLE\");\n    }\n\n    /**\n    * @dev Set new validators list\n    * @param _rewardsDay uint256 the rewards day from which this change should take effect\n    * @param _validators address[] array of validators\n    */\n    function setValidators(uint256 _rewardsDay, address[] memory _validators)\n        public\n        onlyOwner\n    {\n        PropsRewardsLib.setValidators(rewardsLibData, _rewardsDay, _validators);\n        emit ValidatorsListUpdated(_validators, _rewardsDay);\n    }\n\n    /**\n    * @dev Set new applications list\n    * @param _rewardsDay uint256 the rewards day from which this change should take effect\n    * @param _applications address[] array of applications\n    */\n    function setApplications(uint256 _rewardsDay, address[] memory _applications)\n        public\n        onlyOwner\n    {\n        PropsRewardsLib.setApplications(rewardsLibData, _rewardsDay, _applications);\n        emit ApplicationsListUpdated(_applications, _rewardsDay);\n    }\n\n    /**\n    * @dev Get the applications or validators list\n    * @param _entityType RewardedEntityType either application (0) or validator (1)\n    * @param _rewardsDay uint256 the rewards day to use for this value\n    */\n    function getEntities(PropsRewardsLib.RewardedEntityType _entityType, uint256 _rewardsDay)\n        public\n        view\n        returns (address[] memory)\n    {\n        return PropsRewardsLib.getEntities(rewardsLibData, _entityType, _rewardsDay);\n    }\n\n    /**\n    * @dev The function is called by validators with the calculation of the daily rewards\n    * @param _rewardsDay uint256 the rewards day\n    * @param _rewardsHash bytes32 hash of the rewards data\n    * @param _applications address[] array of application addresses getting the daily reward\n    * @param _amounts uint256[] array of amounts each app should get\n    */\n    function submitDailyRewards(\n        uint256 _rewardsDay,\n        bytes32 _rewardsHash,\n        address[] memory _applications,\n        uint256[] memory _amounts\n    )\n        public\n    {\n        // if submission is for a new day check if previous day validator rewards were given if not give to participating ones\n        if (_rewardsDay > rewardsLibData.dailyRewards.lastApplicationsRewardsDay) {\n            uint256 previousDayValidatorRewardsAmount = PropsRewardsLib.calculateValidatorRewards(\n                rewardsLibData,\n                rewardsLibData.dailyRewards.lastApplicationsRewardsDay,\n                rewardsLibData.dailyRewards.lastConfirmedRewardsHash,\n                false\n            );\n            if (previousDayValidatorRewardsAmount > 0) {\n                _mintDailyRewardsForValidators(rewardsLibData.dailyRewards.lastApplicationsRewardsDay, rewardsLibData.dailyRewards.lastConfirmedRewardsHash, previousDayValidatorRewardsAmount);\n            }\n        }\n        // check and give application rewards if majority of validators agree\n        uint256 appRewardsSum = PropsRewardsLib.calculateAndFinalizeApplicationRewards(\n            rewardsLibData,\n            _rewardsDay,\n            _rewardsHash,\n            _applications,\n            _amounts,\n            this.totalSupply()\n        );\n        if (appRewardsSum > 0) {\n            _mintDailyRewardsForApps(_rewardsDay, _rewardsHash, _applications, _amounts, appRewardsSum);\n        }\n\n        // check and give validator rewards if all validators submitted\n        uint256 validatorRewardsAmount = PropsRewardsLib.calculateValidatorRewards(\n            rewardsLibData,\n            _rewardsDay,\n            _rewardsHash,\n            true\n        );\n        if (validatorRewardsAmount > 0) {\n            _mintDailyRewardsForValidators(_rewardsDay, _rewardsHash, validatorRewardsAmount);\n        }\n\n        emit DailyRewardsSubmitted(_rewardsDay, _rewardsHash, msg.sender);\n    }\n\n    /**\n    * @dev Allows getting a parameter value based on timestamp\n    * @param _name ParameterName name of the parameter\n    * @param _rewardsDay uint256 starting when should this parameter use the current value\n    */\n    function getParameter(\n        PropsRewardsLib.ParameterName _name,\n        uint256 _rewardsDay\n    )\n        public\n        view\n        returns (uint256)\n    {\n        return PropsRewardsLib.getParameterValue(rewardsLibData, _name, _rewardsDay);\n    }\n\n    /**\n    * @dev Allows the controller/owner to update rewards parameters\n    * @param _name ParameterName name of the parameter\n    * @param _value uint256 new value for the parameter\n    * @param _rewardsDay uint256 starting when should this parameter use the current value\n    */\n    function updateParameter(\n        PropsRewardsLib.ParameterName _name,\n        uint256 _value,\n        uint256 _rewardsDay\n    )\n        public\n        onlyOwner\n    {\n        PropsRewardsLib.updateParameter(rewardsLibData, _name, _value, _rewardsDay);\n        emit ParameterUpdated(\n            _name,\n            rewardsLibData.parameters[uint256(_name)].currentValue,\n            rewardsLibData.parameters[uint256(_name)].previousValue,\n            rewardsLibData.parameters[uint256(_name)].rewardsDay\n        );\n    }\n\n    /**\n    * @dev Allows an application or validator to add/update its details\n    * @param _entityType RewardedEntityType either application (0) or validator (1)\n    * @param _name bytes32 name of the app\n    * @param _rewardsAddress address an address for the app to receive the rewards\n    * @param _sidechainAddress address the address used for using the sidechain\n    */\n    function updateEntity(\n        PropsRewardsLib.RewardedEntityType _entityType,\n        bytes32 _name,\n        address _rewardsAddress,\n        address _sidechainAddress\n    )\n        public\n    {\n        PropsRewardsLib.updateEntity(rewardsLibData, _entityType, _name, _rewardsAddress, _sidechainAddress);\n        emit EntityUpdated(msg.sender, _entityType, _name, _rewardsAddress, _sidechainAddress);\n    }\n\n    /**\n    * @dev Allows a wallet to stake props.\n    * @param _amount uint256 amount to be staked\n    * @param v The recovery byte of the signature\n    * @param r Half of the ECDSA signature pair\n    * @param s Half of the ECDSA signature pair\n    * @param _applicationId address (optional pass 0x address) the application main address (used to setup the application)\n    * @param _userId bytes32 (optional pass empty) identification of the user\n    */\n    function stake(\n        uint256 _amount,\n        uint8 v,\n        bytes32 r,\n        bytes32 s,\n        address _applicationId,\n        bytes32 _userId\n    )\n        public\n    {\n        _stake(msg.sender, _amount, _applicationId, _userId, delegates[msg.sender]);\n        IPropsToken token = IPropsToken(tokenContract);\n        token.permit(msg.sender, address(this), _amount, uint(-1), v, r, s);\n        token.transferFrom(msg.sender, address(this), _amount);\n        _mint(msg.sender, _amount);\n    }\n\n    /**\n    * @dev Allows getting total allocated per application user.\n    * This function can be used to get total allocated, total allocated to an app and total allocated to a specific application user\n    * @param _wallet address of allocating wallet\n    * @param _applicationId address (optional pass 0x address) the application main address (used to setup the application)\n    * @param _userId bytes32 (optional pass empty) identification of the user\n    * @return uint256 Amount allocated\n    */\n    function getAllocated(\n        address _wallet,\n        address _applicationId,\n        bytes32 _userId\n    )\n        public\n        view\n        returns (uint256)\n    {\n        return PropsRewardsLib.getAllocated(rewardsLibData, _wallet, _applicationId, _userId);\n    }\n\n    /**\n    * @dev Public collect interest\n    * @param _wallet address\n    * @return uint256 Interest gained\n    */\n    function collectInterest(\n        address _wallet\n    )\n        public\n        returns (uint256)\n    {\n        (uint256 interestGained, uint256 rewardsDay) = _collectInterest(_wallet);\n        address allocateTo = delegates[_wallet] != address(0) ? delegates[_wallet] : _wallet;\n        PropsRewardsLib._allocateToAppUser(rewardsLibData, allocateTo, interestGained, address(0), \"\", rewardsDay, false);\n        //or if we want to distribute between allocations (most cases there will be 1)\n        //_distributeAppUserAllocations(allocateTo, interestGained, rewardsDay, false);\n        return interestGained;\n    }\n\n    /**\n    * @dev Internal collect interest\n    * @param _wallet address\n    * @return uint256, uint256 Interest gained, rewardsDay\n    */\n    function _collectInterest(\n        address _wallet\n    )\n        internal\n        returns (uint256, uint256)\n    {\n        uint256 stakedBalance = balanceOf(_wallet);\n        require(\n             stakedBalance > 0,\n            \"Cannot collect interest if nothing is staked\"\n        );\n        (uint256 interestGained, uint256 rewardsDay) = PropsRewardsLib._collectInterest(rewardsLibData, _wallet, stakedBalance);\n        IPropsToken token = IPropsToken(tokenContract);\n        token.mint(address(this), interestGained);\n        _mint(_wallet, interestGained);\n        // _distributeAppUserAllocations(_wallet, interestGained, rewardsDay, false);\n        return (interestGained,rewardsDay);\n    }\n\n    /**\n    * @dev Allows a user to restake from unstaked state after restake cooldown\n    * @param _amount uint256 amount to unstake\n    * @param _applicationId address (optional pass 0x address) the application main address (used to setup the application)\n    * @param _userId bytes32 (optional pass empty) identification of the user\n    */\n    function restake(\n        uint256 _amount,\n        address _applicationId,\n        bytes32 _userId\n    )\n        public\n    {\n        PropsRewardsLib.restake(rewardsLibData, msg.sender, _amount);\n        _stake(msg.sender, _amount, _applicationId, _userId, delegates[msg.sender]);\n        _mint(msg.sender, _amount); //add back the tokens which we burnt when we unstaked\n    }\n\n    /**\n    * @dev Allows a user to unstake props.\n    * @param _amount uint256 amount to unstake\n    * @param _applicationId address (optional pass 0x address) the application main address (used to setup the application)\n    * @param _userId bytes32 (optional pass empty) identification of the user\n    */\n    function unstake(\n        uint256 _amount,\n        address _applicationId,\n        bytes32 _userId\n    )\n        public\n    {\n        //bytes32 appUserId = _getApplicationUserId(_applicationId, _userId);\n        require(\n            balanceOf(msg.sender) >= _amount,\n            \"Cannot unstake more than what was staked\"\n        );\n        (uint256 interestGained, uint256 rewardsDay) = _collectInterest(msg.sender);\n        uint256 amountToUnstake = _amount.add(interestGained);\n        PropsRewardsLib.unstake(rewardsLibData, msg.sender, amountToUnstake, _applicationId, _userId, delegates[msg.sender], rewardsDay);\n        _burn(msg.sender, amountToUnstake);\n\n        emit StakeChanged(\n            msg.sender,\n            rewardsDay,\n            balanceOf(msg.sender),\n            rewardsLibData.stakingMap[msg.sender].amountUnstaked,\n            _amount,\n            interestGained\n        );\n    }\n\n    /**\n    * @dev Allows a user to unstake props.\n    */\n    function withdraw()\n        public\n    {\n        uint256 rewardsDay = PropsRewardsLib._currentRewardsDay(rewardsLibData);\n        uint256 amountUnstaked = rewardsLibData.stakingMap[msg.sender].amountUnstaked;\n        PropsRewardsLib.withdraw(rewardsLibData, msg.sender, rewardsDay);\n        IPropsToken token = IPropsToken(tokenContract);\n        token.transfer(msg.sender, amountUnstaked);\n        emit Withdraw(msg.sender, rewardsDay, amountUnstaked);\n    }\n\n    /**\n    * @dev Allows an application to settle sidechain props. Should be called from an application rewards address\n    * @param _applicationId address the application main address (used to setup the application)\n    * @param _userId bytes32 identification of the user on the sidechain that was settled\n    * @param _wallet address where to send the props to\n    * @param _amount uint256 the address used for using the sidechain\n    * @param _shouldStake bool if true the amount will be immeidatly staked and allocated to the application user\n    * @param v The recovery byte of the signature\n    * @param r Half of the ECDSA signature pair\n    * @param s Half of the ECDSA signature pair\n    */\n    function settle(\n        address _applicationId,\n        bytes32 _userId,\n        address _wallet,\n        uint256 _amount,\n        bool _shouldStake,\n        uint8 v,\n        bytes32 r,\n        bytes32 s\n    )\n        public\n    {\n        require(\n            rewardsLibData.applications[_applicationId].rewardsAddress == msg.sender,\n            \"settle may only be called by an application\"\n        );\n        IPropsToken token = IPropsToken(tokenContract);\n        if (!_shouldStake) {\n            token.permit(_applicationId, _wallet, _amount, uint(-1), v, r, s);\n            token.transferFrom(_applicationId, _wallet, _amount);\n        } else {\n            token.permit(_applicationId, address(this), _amount, uint(-1), v, r, s);\n            token.transferFrom(_applicationId, address(this), _amount);\n            return _stake(_wallet, _amount, _applicationId, _userId, delegates[_wallet]);\n        }\n        emit Settlement(_applicationId, _userId, _wallet, _amount, msg.sender);\n    }\n\n    /**\n    * @dev Public function to allocate unallocated voting power\n    * @param _amount uint256 amount to be allocated\n    * @param _applicationId address the application main address (used to setup the application)\n    * @param _userId bytes32 identification of the user\n    */\n    function allocateToAppUser(\n        uint256 _amount,\n        address _applicationId,\n        bytes32 _userId\n    )\n        public\n    {\n        PropsRewardsLib.allocateToAppUser(rewardsLibData, msg.sender, _amount, _applicationId, _userId);\n    }\n\n    /**\n     * @dev Delegate votes from `msg.sender` to `delegatee`\n     * @param delegatee The address to delegate votes to\n     */\n    function delegate(\n        address delegatee\n    )\n        public\n    {\n        return _delegate(msg.sender, delegatee);\n    }\n\n    /**\n     * @dev Delegates votes from signatory to `delegatee`\n     * @param delegatee The address to delegate votes to\n     * @param nonce The contract state required to match the signature\n     * @param expiry The time at which to expire the signature\n     * @param v The recovery byte of the signature\n     * @param r Half of the ECDSA signature pair\n     * @param s Half of the ECDSA signature pair\n     */\n    function delegateBySig(\n        address delegatee,\n        uint nonce,\n        uint expiry,\n        uint8 v,\n        bytes32 r,\n        bytes32 s\n    )\n        public\n    {\n        bytes32 domainSeparator = keccak256(abi.encode(DOMAIN_TYPEHASH, keccak256(bytes(\"sPROPS\")), getChainId(), address(this)));\n        bytes32 structHash = keccak256(abi.encode(DELEGATION_TYPEHASH, delegatee, nonce, expiry));\n        bytes32 digest = keccak256(abi.encodePacked(\"\\x19\\x01\", domainSeparator, structHash));\n        address signatory = ecrecover(digest, v, r, s);\n        require(signatory != address(0), \"delegateBySig: invalid signature\");\n        require(nonce == nonces[signatory]++, \"delegateBySig: invalid nonce\");\n        require(block.timestamp <= expiry, \"delegateBySig: signature expired\");\n        return _delegate(signatory, delegatee);\n    }\n\n    /**\n     * @dev Gets the current votes balance for `account`\n     * @param account The address to get votes balance\n     * @return uint256 The number of current votes for `account`\n     */\n    function getCurrentVotes(\n        address account\n    )\n        external\n        view\n        returns (uint256)\n    {\n        uint32 nCheckpoints = numCheckpoints[account];\n        return nCheckpoints > 0 ? checkpoints[account][nCheckpoints - 1].votes : 0;\n    }\n\n    /**\n     * @dev Determine the prior number of votes for an account as of a block number\n     * @dev Block number must be a finalized block or else this function will revert to prevent misinformation.\n     * @param account address The address of the account to check\n     * @param blockNumber uint The block number to get the vote balance at\n     * @return uint256 The number of votes the account had as of the given block\n     */\n    function getPriorVotes(\n        address account,\n        uint blockNumber\n    )\n        public\n        view\n        returns (uint256)\n    {\n        require(blockNumber < block.number, \"getPriorVotes: not yet determined\");\n\n        uint32 nCheckpoints = numCheckpoints[account];\n        if (nCheckpoints == 0) {\n            return 0;\n        }\n\n        // First check most recent balance\n        if (checkpoints[account][nCheckpoints - 1].fromBlock <= blockNumber) {\n            return checkpoints[account][nCheckpoints - 1].votes;\n        }\n\n        // Next check implicit zero balance\n        if (checkpoints[account][0].fromBlock > blockNumber) {\n            return 0;\n        }\n\n        uint32 lower = 0;\n        uint32 upper = nCheckpoints - 1;\n        while (upper > lower) {\n            uint32 center = upper - (upper - lower) / 2; // ceil, avoiding overflow\n            Checkpoint memory cp = checkpoints[account][center];\n            if (cp.fromBlock == blockNumber) {\n                return cp.votes;\n            } else if (cp.fromBlock < blockNumber) {\n                lower = center;\n            } else {\n                upper = center - 1;\n            }\n        }\n        return checkpoints[account][lower].votes;\n    }\n\n    /**\n    * @dev Internal stake call to be used by stake or settle\n    * @param _wallet address where to send the props to\n    * @param _amount uint256 amount to be staked\n    * @param _applicationId address (optional pass 0x address) the application main address (used to setup the application)\n    * @param _userId bytes32 (optional pass empty) identification of the user\n    * @param _delegatee address of delagetee\n    */\n    function _stake(\n        address _wallet,\n        uint256 _amount,\n        address _applicationId,\n        bytes32 _userId,\n        address _delegatee\n    )\n        internal\n    {\n        uint256 amountToAllocate = _amount;\n        uint256 rewardsDay;\n        uint256 interestGained = 0;\n        // if there's currently anything staked need to collect interest and add to staking principal\n        if (balanceOf(_wallet) > 0) {\n            (interestGained, rewardsDay) = _collectInterest(_wallet);\n            amountToAllocate = amountToAllocate.add(interestGained);\n        } else {\n             rewardsDay = PropsRewardsLib._currentRewardsDay(rewardsLibData);\n        }\n        PropsRewardsLib.stake(rewardsLibData, _wallet, amountToAllocate, _applicationId, _userId, rewardsDay, _delegatee);\n\n        emit StakeChanged(\n            _wallet,\n            rewardsDay,\n            balanceOf(_wallet),\n            rewardsLibData.stakingMap[_wallet].amountUnstaked,\n            amountToAllocate,\n            interestGained\n        );\n    }\n\n    /**\n    * @dev Internal stake call to be used by stake or settle using Daily Compound Interest = [Start Amount * (1 + (Interest Rate / 365)) ^ (n * 365)] – Start Amount\n    * @param _principal uint256 amount originally staked\n    * @param _days uint256 days for which to calculate interest\n    * @param _interestRate uint256 days for which to calculate interest\n    * @return uint256 The gained interest\n    */\n    function calculateInterest(\n        uint256 _principal,\n        uint256 _days,\n        uint256 _interestRate\n    )\n        public\n        pure\n        returns(uint256)\n    {\n        uint256 interestGained = _principal.mul(\n            (1 + _interestRate.div(1e16).div(365))**(_days*365)\n        ).sub(_principal);\n        return interestGained;\n    }\n\n    function _delegate(address delegator, address delegatee) internal {\n        address currentDelegate = delegates[delegator];\n        uint256 delegatorBalance = balanceOf(delegator);\n        delegates[delegator] = delegatee;\n\n        emit DelegateChanged(delegator, currentDelegate, delegatee);\n\n        _moveDelegates(currentDelegate, delegatee, delegatorBalance);\n        if (delegatorBalance > 0 ) {\n            uint256 rewardsDay = PropsRewardsLib._currentRewardsDay(rewardsLibData);\n            address allocateFrom = currentDelegate != address(0) ? currentDelegate : delegator;\n            if (currentDelegate != address(0)) {\n                PropsRewardsLib._removeFromAllocations(rewardsLibData, allocateFrom, delegatorBalance, rewardsDay);\n            }\n            address allocateTo = delegatee != address(0) ? delegatee : delegator;\n            PropsRewardsLib._allocateToAppUser(rewardsLibData, allocateTo, delegatorBalance, address(0), \"\", rewardsDay, false);\n        }\n    }\n\n    function _moveDelegates(address srcRep, address dstRep, uint256 amount) internal {\n        if (srcRep != dstRep && amount > 0) {\n            if (srcRep != address(0)) {\n                uint32 srcRepNum = numCheckpoints[srcRep];\n                uint256 srcRepOld = srcRepNum > 0 ? checkpoints[srcRep][srcRepNum - 1].votes : 0;\n                uint256 srcRepNew = srcRepOld.sub(amount);\n                _writeCheckpoint(srcRep, srcRepNum, srcRepOld, srcRepNew);\n            }\n\n            if (dstRep != address(0)) {\n                uint32 dstRepNum = numCheckpoints[dstRep];\n                uint256 dstRepOld = dstRepNum > 0 ? checkpoints[dstRep][dstRepNum - 1].votes : 0;\n                uint256 dstRepNew = dstRepOld.add(amount);\n                _writeCheckpoint(dstRep, dstRepNum, dstRepOld, dstRepNew);\n            }\n        }\n    }\n\n    function _writeCheckpoint(address delegatee, uint32 nCheckpoints, uint256 oldVotes, uint256 newVotes) internal {\n      uint32 blockNumber = safe32(block.number, \"_writeCheckpoint: block number exceeds 32 bits\");\n\n      if (nCheckpoints > 0 && checkpoints[delegatee][nCheckpoints - 1].fromBlock == blockNumber) {\n          checkpoints[delegatee][nCheckpoints - 1].votes = newVotes;\n      } else {\n          checkpoints[delegatee][nCheckpoints] = Checkpoint(blockNumber, newVotes);\n          numCheckpoints[delegatee] = nCheckpoints + 1;\n      }\n\n      emit DelegateVotesChanged(delegatee, oldVotes, newVotes);\n    }\n\n    function safe32(uint n, string memory errorMessage) internal pure returns (uint32) {\n        require(n < 2**32, errorMessage);\n        return uint32(n);\n    }\n\n    function getChainId() internal pure returns (uint) {\n        uint256 chainId;\n        assembly { chainId := chainid() }\n        return chainId;\n    }\n\n    /**\n    * @dev Mint rewards for validators\n    * @param _rewardsDay uint256 the rewards day\n    * @param _rewardsHash bytes32 hash of the rewards data\n    * @param _amount uint256 amount each validator should get\n    */\n    function _mintDailyRewardsForValidators(uint256 _rewardsDay, bytes32 _rewardsHash, uint256 _amount)\n        internal\n    {\n        IPropsToken token = IPropsToken(tokenContract);\n        uint256 validatorsCount = rewardsLibData.dailyRewards.submissions[_rewardsHash].validatorsList.length;\n        for (uint256 i = 0; i < validatorsCount; i++) {\n            token.mint(\n                rewardsLibData.validators[rewardsLibData.dailyRewards.submissions[_rewardsHash].validatorsList[i]].rewardsAddress,\n                _amount\n            );\n        }\n        PropsRewardsLib._resetDailyRewards(rewardsLibData, _rewardsHash);\n        emit DailyRewardsValidatorsMinted(\n            _rewardsDay,\n            _rewardsHash,\n            validatorsCount,\n            (_amount * validatorsCount)\n        );\n    }\n\n    /**\n    * @dev Mint rewards for apps\n    * @param _rewardsDay uint256 the rewards day\n    * @param _rewardsHash bytes32 hash of the rewards data\n    * @param _applications address[] array of application addresses getting the daily reward\n    * @param _amounts uint256[] array of amounts each app should get\n    * @param _sum uint256 the sum of all application rewards given\n    */\n    function _mintDailyRewardsForApps(\n        uint256 _rewardsDay,\n        bytes32 _rewardsHash,\n        address[] memory _applications,\n        uint256[] memory _amounts,\n        uint256 _sum\n    )\n        internal\n    {\n        IPropsToken token = IPropsToken(tokenContract);\n        for (uint256 i = 0; i < _applications.length; i++) {\n            token.mint(rewardsLibData.applications[_applications[i]].rewardsAddress, _amounts[i]);\n        }\n        emit DailyRewardsApplicationsMinted(_rewardsDay, _rewardsHash, _applications.length, _sum);\n    }\n\n}",
  "sourcePath": "contracts/PropsRewards.sol",
  "abi": [
    {
      "anonymous": false,
      "inputs": [
        {
          "indexed": true,
          "internalType": "address",
          "name": "wallet",
          "type": "address"
        },
        {
          "indexed": true,
          "internalType": "uint256",
          "name": "rewardsDay",
          "type": "uint256"
        },
        {
          "indexed": true,
          "internalType": "address",
          "name": "appId",
          "type": "address"
        },
        {
          "indexed": false,
          "internalType": "bytes32",
          "name": "userId",
          "type": "bytes32"
        },
        {
          "indexed": false,
          "internalType": "uint256",
          "name": "amount",
          "type": "uint256"
        },
        {
          "indexed": false,
          "internalType": "uint256",
          "name": "amountChanged",
          "type": "uint256"
        }
      ],
      "name": "AllocationChanged",
      "type": "event"
    },
    {
      "anonymous": false,
      "inputs": [
        {
          "indexed": false,
          "internalType": "address[]",
          "name": "applicationsList",
          "type": "address[]"
        },
        {
          "indexed": true,
          "internalType": "uint256",
          "name": "rewardsDay",
          "type": "uint256"
        }
      ],
      "name": "ApplicationsListUpdated",
      "type": "event"
    },
    {
      "anonymous": false,
      "inputs": [
        {
          "indexed": true,
          "internalType": "address",
          "name": "owner",
          "type": "address"
        },
        {
          "indexed": true,
          "internalType": "address",
          "name": "spender",
          "type": "address"
        },
        {
          "indexed": false,
          "internalType": "uint256",
          "name": "value",
          "type": "uint256"
        }
      ],
      "name": "Approval",
      "type": "event"
    },
    {
      "anonymous": false,
      "inputs": [
        {
          "indexed": true,
          "internalType": "uint256",
          "name": "rewardsDay",
          "type": "uint256"
        },
        {
          "indexed": true,
          "internalType": "bytes32",
          "name": "rewardsHash",
          "type": "bytes32"
        },
        {
          "indexed": false,
          "internalType": "uint256",
          "name": "numOfApplications",
          "type": "uint256"
        },
        {
          "indexed": false,
          "internalType": "uint256",
          "name": "amount",
          "type": "uint256"
        }
      ],
      "name": "DailyRewardsApplicationsMinted",
      "type": "event"
    },
    {
      "anonymous": false,
      "inputs": [
        {
          "indexed": true,
          "internalType": "uint256",
          "name": "rewardsDay",
          "type": "uint256"
        },
        {
          "indexed": true,
          "internalType": "bytes32",
          "name": "rewardsHash",
          "type": "bytes32"
        },
        {
          "indexed": true,
          "internalType": "address",
          "name": "validator",
          "type": "address"
        }
      ],
      "name": "DailyRewardsSubmitted",
      "type": "event"
    },
    {
      "anonymous": false,
      "inputs": [
        {
          "indexed": true,
          "internalType": "uint256",
          "name": "rewardsDay",
          "type": "uint256"
        },
        {
          "indexed": true,
          "internalType": "bytes32",
          "name": "rewardsHash",
          "type": "bytes32"
        },
        {
          "indexed": false,
          "internalType": "uint256",
          "name": "numOfValidators",
          "type": "uint256"
        },
        {
          "indexed": false,
          "internalType": "uint256",
          "name": "amount",
          "type": "uint256"
        }
      ],
      "name": "DailyRewardsValidatorsMinted",
      "type": "event"
    },
    {
      "anonymous": false,
      "inputs": [
        {
          "indexed": true,
          "internalType": "address",
          "name": "delegator",
          "type": "address"
        },
        {
          "indexed": true,
          "internalType": "address",
          "name": "fromDelegate",
          "type": "address"
        },
        {
          "indexed": true,
          "internalType": "address",
          "name": "toDelegate",
          "type": "address"
        }
      ],
      "name": "DelegateChanged",
      "type": "event"
    },
    {
      "anonymous": false,
      "inputs": [
        {
          "indexed": true,
          "internalType": "address",
          "name": "delegate",
          "type": "address"
        },
        {
          "indexed": false,
          "internalType": "uint256",
          "name": "previousBalance",
          "type": "uint256"
        },
        {
          "indexed": false,
          "internalType": "uint256",
          "name": "newBalance",
          "type": "uint256"
        }
      ],
      "name": "DelegateVotesChanged",
      "type": "event"
    },
    {
      "anonymous": false,
      "inputs": [
        {
          "indexed": true,
          "internalType": "address",
          "name": "id",
          "type": "address"
        },
        {
          "indexed": true,
          "internalType": "enum PropsRewardsLib.RewardedEntityType",
          "name": "entityType",
          "type": "uint8"
        },
        {
          "indexed": false,
          "internalType": "bytes32",
          "name": "name",
          "type": "bytes32"
        },
        {
          "indexed": false,
          "internalType": "address",
          "name": "rewardsAddress",
          "type": "address"
        },
        {
          "indexed": true,
          "internalType": "address",
          "name": "sidechainAddress",
          "type": "address"
        }
      ],
      "name": "EntityUpdated",
      "type": "event"
    },
    {
      "anonymous": false,
      "inputs": [
        {
          "indexed": false,
          "internalType": "enum PropsRewardsLib.ParameterName",
          "name": "param",
          "type": "uint8"
        },
        {
          "indexed": false,
          "internalType": "uint256",
          "name": "newValue",
          "type": "uint256"
        },
        {
          "indexed": false,
          "internalType": "uint256",
          "name": "oldValue",
          "type": "uint256"
        },
        {
          "indexed": false,
          "internalType": "uint256",
          "name": "rewardsDay",
          "type": "uint256"
        }
      ],
      "name": "ParameterUpdated",
      "type": "event"
    },
    {
      "anonymous": false,
      "inputs": [
        {
          "indexed": true,
          "internalType": "bytes32",
          "name": "role",
          "type": "bytes32"
        },
        {
          "indexed": true,
          "internalType": "address",
          "name": "account",
          "type": "address"
        },
        {
          "indexed": true,
          "internalType": "address",
          "name": "sender",
          "type": "address"
        }
      ],
      "name": "RoleGranted",
      "type": "event"
    },
    {
      "anonymous": false,
      "inputs": [
        {
          "indexed": true,
          "internalType": "bytes32",
          "name": "role",
          "type": "bytes32"
        },
        {
          "indexed": true,
          "internalType": "address",
          "name": "account",
          "type": "address"
        },
        {
          "indexed": true,
          "internalType": "address",
          "name": "sender",
          "type": "address"
        }
      ],
      "name": "RoleRevoked",
      "type": "event"
    },
    {
      "anonymous": false,
      "inputs": [
        {
          "indexed": true,
          "internalType": "address",
          "name": "applicationId",
          "type": "address"
        },
        {
          "indexed": true,
          "internalType": "bytes32",
          "name": "userId",
          "type": "bytes32"
        },
        {
          "indexed": true,
          "internalType": "address",
          "name": "to",
          "type": "address"
        },
        {
          "indexed": false,
          "internalType": "uint256",
          "name": "amount",
          "type": "uint256"
        },
        {
          "indexed": false,
          "internalType": "address",
          "name": "rewardsAddress",
          "type": "address"
        }
      ],
      "name": "Settlement",
      "type": "event"
    },
    {
      "anonymous": false,
      "inputs": [
        {
          "indexed": true,
          "internalType": "address",
          "name": "wallet",
          "type": "address"
        },
        {
          "indexed": true,
          "internalType": "uint256",
          "name": "rewardsDay",
          "type": "uint256"
        },
        {
          "indexed": false,
          "internalType": "uint256",
          "name": "amountStaked",
          "type": "uint256"
        },
        {
          "indexed": false,
          "internalType": "uint256",
          "name": "amountUnstaked",
          "type": "uint256"
        },
        {
          "indexed": false,
          "internalType": "uint256",
          "name": "amountChanged",
          "type": "uint256"
        },
        {
          "indexed": false,
          "internalType": "uint256",
          "name": "interestGained",
          "type": "uint256"
        }
      ],
      "name": "StakeChanged",
      "type": "event"
    },
    {
      "anonymous": false,
      "inputs": [
        {
          "indexed": true,
          "internalType": "address",
          "name": "from",
          "type": "address"
        },
        {
          "indexed": true,
          "internalType": "address",
          "name": "to",
          "type": "address"
        },
        {
          "indexed": false,
          "internalType": "uint256",
          "name": "value",
          "type": "uint256"
        }
      ],
      "name": "Transfer",
      "type": "event"
    },
    {
      "anonymous": false,
      "inputs": [
        {
          "indexed": false,
          "internalType": "address[]",
          "name": "validatorsList",
          "type": "address[]"
        },
        {
          "indexed": true,
          "internalType": "uint256",
          "name": "rewardsDay",
          "type": "uint256"
        }
      ],
      "name": "ValidatorsListUpdated",
      "type": "event"
    },
    {
      "anonymous": false,
      "inputs": [
        {
          "indexed": true,
          "internalType": "address",
          "name": "wallet",
          "type": "address"
        },
        {
          "indexed": true,
          "internalType": "uint256",
          "name": "rewardsDay",
          "type": "uint256"
        },
        {
          "indexed": false,
          "internalType": "uint256",
          "name": "amount",
          "type": "uint256"
        }
      ],
      "name": "Withdraw",
      "type": "event"
    },
    {
      "inputs": [],
      "name": "DEFAULT_ADMIN_ROLE",
      "outputs": [
        {
          "internalType": "bytes32",
          "name": "",
          "type": "bytes32"
        }
      ],
      "stateMutability": "view",
      "type": "function"
    },
    {
      "inputs": [],
      "name": "DELEGATION_TYPEHASH",
      "outputs": [
        {
          "internalType": "bytes32",
          "name": "",
          "type": "bytes32"
        }
      ],
      "stateMutability": "view",
      "type": "function"
    },
    {
      "inputs": [],
      "name": "DOMAIN_TYPEHASH",
      "outputs": [
        {
          "internalType": "bytes32",
          "name": "",
          "type": "bytes32"
        }
      ],
      "stateMutability": "view",
      "type": "function"
    },
    {
      "inputs": [
        {
          "internalType": "uint256",
          "name": "_amount",
          "type": "uint256"
        },
        {
          "internalType": "address",
          "name": "_applicationId",
          "type": "address"
        },
        {
          "internalType": "bytes32",
          "name": "_userId",
          "type": "bytes32"
        }
      ],
      "name": "allocateToAppUser",
      "outputs": [],
      "stateMutability": "nonpayable",
      "type": "function"
    },
    {
      "inputs": [
        {
          "internalType": "address",
          "name": "owner",
          "type": "address"
        },
        {
          "internalType": "address",
          "name": "spender",
          "type": "address"
        }
      ],
      "name": "allowance",
      "outputs": [
        {
          "internalType": "uint256",
          "name": "",
          "type": "uint256"
        }
      ],
      "stateMutability": "view",
      "type": "function"
    },
    {
      "inputs": [
        {
          "internalType": "address",
          "name": "spender",
          "type": "address"
        },
        {
          "internalType": "uint256",
          "name": "amount",
          "type": "uint256"
        }
      ],
      "name": "approve",
      "outputs": [
        {
          "internalType": "bool",
          "name": "",
          "type": "bool"
        }
      ],
      "stateMutability": "nonpayable",
      "type": "function"
    },
    {
      "inputs": [
        {
          "internalType": "address",
          "name": "account",
          "type": "address"
        }
      ],
      "name": "balanceOf",
      "outputs": [
        {
          "internalType": "uint256",
          "name": "",
          "type": "uint256"
        }
      ],
      "stateMutability": "view",
      "type": "function"
    },
    {
      "inputs": [
        {
          "internalType": "uint256",
          "name": "_principal",
          "type": "uint256"
        },
        {
          "internalType": "uint256",
          "name": "_days",
          "type": "uint256"
        },
        {
          "internalType": "uint256",
          "name": "_interestRate",
          "type": "uint256"
        }
      ],
      "name": "calculateInterest",
      "outputs": [
        {
          "internalType": "uint256",
          "name": "",
          "type": "uint256"
        }
      ],
      "stateMutability": "pure",
      "type": "function"
    },
    {
      "inputs": [
        {
          "internalType": "address",
          "name": "_wallet",
          "type": "address"
        }
      ],
      "name": "collectInterest",
      "outputs": [
        {
          "internalType": "uint256",
          "name": "",
          "type": "uint256"
        }
      ],
      "stateMutability": "nonpayable",
      "type": "function"
    },
    {
      "inputs": [],
      "name": "decimals",
      "outputs": [
        {
          "internalType": "uint8",
          "name": "",
          "type": "uint8"
        }
      ],
      "stateMutability": "view",
      "type": "function"
    },
    {
      "inputs": [
        {
          "internalType": "address",
          "name": "spender",
          "type": "address"
        },
        {
          "internalType": "uint256",
          "name": "subtractedValue",
          "type": "uint256"
        }
      ],
      "name": "decreaseAllowance",
      "outputs": [
        {
          "internalType": "bool",
          "name": "",
          "type": "bool"
        }
      ],
      "stateMutability": "nonpayable",
      "type": "function"
    },
    {
      "inputs": [
        {
          "internalType": "address",
          "name": "delegatee",
          "type": "address"
        }
      ],
      "name": "delegate",
      "outputs": [],
      "stateMutability": "nonpayable",
      "type": "function"
    },
    {
      "inputs": [
        {
          "internalType": "address",
          "name": "delegatee",
          "type": "address"
        },
        {
          "internalType": "uint256",
          "name": "nonce",
          "type": "uint256"
        },
        {
          "internalType": "uint256",
          "name": "expiry",
          "type": "uint256"
        },
        {
          "internalType": "uint8",
          "name": "v",
          "type": "uint8"
        },
        {
          "internalType": "bytes32",
          "name": "r",
          "type": "bytes32"
        },
        {
          "internalType": "bytes32",
          "name": "s",
          "type": "bytes32"
        }
      ],
      "name": "delegateBySig",
      "outputs": [],
      "stateMutability": "nonpayable",
      "type": "function"
    },
    {
      "inputs": [
        {
          "internalType": "address",
          "name": "_wallet",
          "type": "address"
        },
        {
          "internalType": "address",
          "name": "_applicationId",
          "type": "address"
        },
        {
          "internalType": "bytes32",
          "name": "_userId",
          "type": "bytes32"
        }
      ],
      "name": "getAllocated",
      "outputs": [
        {
          "internalType": "uint256",
          "name": "",
          "type": "uint256"
        }
      ],
      "stateMutability": "view",
      "type": "function"
    },
    {
      "inputs": [
        {
          "internalType": "address",
          "name": "account",
          "type": "address"
        }
      ],
      "name": "getCurrentVotes",
      "outputs": [
        {
          "internalType": "uint256",
          "name": "",
          "type": "uint256"
        }
      ],
      "stateMutability": "view",
      "type": "function"
    },
    {
      "inputs": [
        {
          "internalType": "enum PropsRewardsLib.RewardedEntityType",
          "name": "_entityType",
          "type": "uint8"
        },
        {
          "internalType": "uint256",
          "name": "_rewardsDay",
          "type": "uint256"
        }
      ],
      "name": "getEntities",
      "outputs": [
        {
          "internalType": "address[]",
          "name": "",
          "type": "address[]"
        }
      ],
      "stateMutability": "view",
      "type": "function"
    },
    {
      "inputs": [
        {
          "internalType": "enum PropsRewardsLib.ParameterName",
          "name": "_name",
          "type": "uint8"
        },
        {
          "internalType": "uint256",
          "name": "_rewardsDay",
          "type": "uint256"
        }
      ],
      "name": "getParameter",
      "outputs": [
        {
          "internalType": "uint256",
          "name": "",
          "type": "uint256"
        }
      ],
      "stateMutability": "view",
      "type": "function"
    },
    {
      "inputs": [
        {
          "internalType": "address",
          "name": "account",
          "type": "address"
        },
        {
          "internalType": "uint256",
          "name": "blockNumber",
          "type": "uint256"
        }
      ],
      "name": "getPriorVotes",
      "outputs": [
        {
          "internalType": "uint256",
          "name": "",
          "type": "uint256"
        }
      ],
      "stateMutability": "view",
      "type": "function"
    },
    {
      "inputs": [
        {
          "internalType": "bytes32",
          "name": "role",
          "type": "bytes32"
        }
      ],
      "name": "getRoleAdmin",
      "outputs": [
        {
          "internalType": "bytes32",
          "name": "",
          "type": "bytes32"
        }
      ],
      "stateMutability": "view",
      "type": "function"
    },
    {
      "inputs": [
        {
          "internalType": "bytes32",
          "name": "role",
          "type": "bytes32"
        },
        {
          "internalType": "uint256",
          "name": "index",
          "type": "uint256"
        }
      ],
      "name": "getRoleMember",
      "outputs": [
        {
          "internalType": "address",
          "name": "",
          "type": "address"
        }
      ],
      "stateMutability": "view",
      "type": "function"
    },
    {
      "inputs": [
        {
          "internalType": "bytes32",
          "name": "role",
          "type": "bytes32"
        }
      ],
      "name": "getRoleMemberCount",
      "outputs": [
        {
          "internalType": "uint256",
          "name": "",
          "type": "uint256"
        }
      ],
      "stateMutability": "view",
      "type": "function"
    },
    {
      "inputs": [
        {
          "internalType": "bytes32",
          "name": "role",
          "type": "bytes32"
        },
        {
          "internalType": "address",
          "name": "account",
          "type": "address"
        }
      ],
      "name": "grantRole",
      "outputs": [],
      "stateMutability": "nonpayable",
      "type": "function"
    },
    {
      "inputs": [
        {
          "internalType": "bytes32",
          "name": "role",
          "type": "bytes32"
        },
        {
          "internalType": "address",
          "name": "account",
          "type": "address"
        }
      ],
      "name": "hasRole",
      "outputs": [
        {
          "internalType": "bool",
          "name": "",
          "type": "bool"
        }
      ],
      "stateMutability": "view",
      "type": "function"
    },
    {
      "inputs": [],
      "name": "identityContract",
      "outputs": [
        {
          "internalType": "address",
          "name": "",
          "type": "address"
        }
      ],
      "stateMutability": "view",
      "type": "function"
    },
    {
      "inputs": [
        {
          "internalType": "address",
          "name": "spender",
          "type": "address"
        },
        {
          "internalType": "uint256",
          "name": "addedValue",
          "type": "uint256"
        }
      ],
      "name": "increaseAllowance",
      "outputs": [
        {
          "internalType": "bool",
          "name": "",
          "type": "bool"
        }
      ],
      "stateMutability": "nonpayable",
      "type": "function"
    },
    {
      "inputs": [
        {
          "internalType": "address",
          "name": "_admin",
          "type": "address"
        },
        {
          "internalType": "address",
          "name": "_tokenContract",
          "type": "address"
        },
        {
          "internalType": "address",
          "name": "_identityContract",
          "type": "address"
        },
        {
          "internalType": "uint256",
          "name": "_minSecondsBetweenDays",
          "type": "uint256"
        },
        {
          "internalType": "uint256",
          "name": "_rewardsStartTimestamp",
          "type": "uint256"
        }
      ],
      "name": "initialize",
      "outputs": [],
      "stateMutability": "nonpayable",
      "type": "function"
    },
    {
      "inputs": [],
      "name": "maxTotalSupply",
      "outputs": [
        {
          "internalType": "uint256",
          "name": "",
          "type": "uint256"
        }
      ],
      "stateMutability": "view",
      "type": "function"
    },
    {
      "inputs": [],
      "name": "name",
      "outputs": [
        {
          "internalType": "string",
          "name": "",
          "type": "string"
        }
      ],
      "stateMutability": "view",
      "type": "function"
    },
    {
      "inputs": [
        {
          "internalType": "bytes32",
          "name": "role",
          "type": "bytes32"
        },
        {
          "internalType": "address",
          "name": "account",
          "type": "address"
        }
      ],
      "name": "renounceRole",
      "outputs": [],
      "stateMutability": "nonpayable",
      "type": "function"
    },
    {
      "inputs": [
        {
          "internalType": "uint256",
          "name": "_amount",
          "type": "uint256"
        },
        {
          "internalType": "address",
          "name": "_applicationId",
          "type": "address"
        },
        {
          "internalType": "bytes32",
          "name": "_userId",
          "type": "bytes32"
        }
      ],
      "name": "restake",
      "outputs": [],
      "stateMutability": "nonpayable",
      "type": "function"
    },
    {
      "inputs": [
        {
          "internalType": "bytes32",
          "name": "role",
          "type": "bytes32"
        },
        {
          "internalType": "address",
          "name": "account",
          "type": "address"
        }
      ],
      "name": "revokeRole",
      "outputs": [],
      "stateMutability": "nonpayable",
      "type": "function"
    },
    {
      "inputs": [],
      "name": "rewardsStartTimestamp",
      "outputs": [
        {
          "internalType": "uint256",
          "name": "",
          "type": "uint256"
        }
      ],
      "stateMutability": "view",
      "type": "function"
    },
    {
      "inputs": [],
      "name": "secondsBetweenDays",
      "outputs": [
        {
          "internalType": "uint256",
          "name": "",
          "type": "uint256"
        }
      ],
      "stateMutability": "view",
      "type": "function"
    },
    {
      "inputs": [
        {
          "internalType": "uint256",
          "name": "_rewardsDay",
          "type": "uint256"
        },
        {
          "internalType": "address[]",
          "name": "_applications",
          "type": "address[]"
        }
      ],
      "name": "setApplications",
      "outputs": [],
      "stateMutability": "nonpayable",
      "type": "function"
    },
    {
      "inputs": [
        {
          "internalType": "uint256",
          "name": "_rewardsDay",
          "type": "uint256"
        },
        {
          "internalType": "address[]",
          "name": "_validators",
          "type": "address[]"
        }
      ],
      "name": "setValidators",
      "outputs": [],
      "stateMutability": "nonpayable",
      "type": "function"
    },
    {
      "inputs": [
        {
          "internalType": "address",
          "name": "_applicationId",
          "type": "address"
        },
        {
          "internalType": "bytes32",
          "name": "_userId",
          "type": "bytes32"
        },
        {
          "internalType": "address",
          "name": "_wallet",
          "type": "address"
        },
        {
          "internalType": "uint256",
          "name": "_amount",
          "type": "uint256"
        },
        {
          "internalType": "bool",
          "name": "_shouldStake",
          "type": "bool"
        },
        {
          "internalType": "uint8",
          "name": "v",
          "type": "uint8"
        },
        {
          "internalType": "bytes32",
          "name": "r",
          "type": "bytes32"
        },
        {
          "internalType": "bytes32",
          "name": "s",
          "type": "bytes32"
        }
      ],
      "name": "settle",
      "outputs": [],
      "stateMutability": "nonpayable",
      "type": "function"
    },
    {
      "inputs": [
        {
          "internalType": "uint256",
          "name": "_amount",
          "type": "uint256"
        },
        {
          "internalType": "uint8",
          "name": "v",
          "type": "uint8"
        },
        {
          "internalType": "bytes32",
          "name": "r",
          "type": "bytes32"
        },
        {
          "internalType": "bytes32",
          "name": "s",
          "type": "bytes32"
        },
        {
          "internalType": "address",
          "name": "_applicationId",
          "type": "address"
        },
        {
          "internalType": "bytes32",
          "name": "_userId",
          "type": "bytes32"
        }
      ],
      "name": "stake",
      "outputs": [],
      "stateMutability": "nonpayable",
      "type": "function"
    },
    {
      "inputs": [
        {
          "internalType": "uint256",
          "name": "_rewardsDay",
          "type": "uint256"
        },
        {
          "internalType": "bytes32",
          "name": "_rewardsHash",
          "type": "bytes32"
        },
        {
          "internalType": "address[]",
          "name": "_applications",
          "type": "address[]"
        },
        {
          "internalType": "uint256[]",
          "name": "_amounts",
          "type": "uint256[]"
        }
      ],
      "name": "submitDailyRewards",
      "outputs": [],
      "stateMutability": "nonpayable",
      "type": "function"
    },
    {
      "inputs": [],
      "name": "symbol",
      "outputs": [
        {
          "internalType": "string",
          "name": "",
          "type": "string"
        }
      ],
      "stateMutability": "view",
      "type": "function"
    },
    {
      "inputs": [],
      "name": "tokenContract",
      "outputs": [
        {
          "internalType": "address",
          "name": "",
          "type": "address"
        }
      ],
      "stateMutability": "view",
      "type": "function"
    },
    {
      "inputs": [],
      "name": "totalSupply",
      "outputs": [
        {
          "internalType": "uint256",
          "name": "",
          "type": "uint256"
        }
      ],
      "stateMutability": "view",
      "type": "function"
    },
    {
      "inputs": [
        {
          "internalType": "address",
          "name": "recipient",
          "type": "address"
        },
        {
          "internalType": "uint256",
          "name": "amount",
          "type": "uint256"
        }
      ],
      "name": "transfer",
      "outputs": [
        {
          "internalType": "bool",
          "name": "",
          "type": "bool"
        }
      ],
      "stateMutability": "nonpayable",
      "type": "function"
    },
    {
      "inputs": [
        {
          "internalType": "address",
          "name": "sender",
          "type": "address"
        },
        {
          "internalType": "address",
          "name": "recipient",
          "type": "address"
        },
        {
          "internalType": "uint256",
          "name": "amount",
          "type": "uint256"
        }
      ],
      "name": "transferFrom",
      "outputs": [
        {
          "internalType": "bool",
          "name": "",
          "type": "bool"
        }
      ],
      "stateMutability": "nonpayable",
      "type": "function"
    },
    {
      "inputs": [
        {
          "internalType": "uint256",
          "name": "_amount",
          "type": "uint256"
        },
        {
          "internalType": "address",
          "name": "_applicationId",
          "type": "address"
        },
        {
          "internalType": "bytes32",
          "name": "_userId",
          "type": "bytes32"
        }
      ],
      "name": "unstake",
      "outputs": [],
      "stateMutability": "nonpayable",
      "type": "function"
    },
    {
      "inputs": [
        {
          "internalType": "enum PropsRewardsLib.RewardedEntityType",
          "name": "_entityType",
          "type": "uint8"
        },
        {
          "internalType": "bytes32",
          "name": "_name",
          "type": "bytes32"
        },
        {
          "internalType": "address",
          "name": "_rewardsAddress",
          "type": "address"
        },
        {
          "internalType": "address",
          "name": "_sidechainAddress",
          "type": "address"
        }
      ],
      "name": "updateEntity",
      "outputs": [],
      "stateMutability": "nonpayable",
      "type": "function"
    },
    {
      "inputs": [
        {
          "internalType": "enum PropsRewardsLib.ParameterName",
          "name": "_name",
          "type": "uint8"
        },
        {
          "internalType": "uint256",
          "name": "_value",
          "type": "uint256"
        },
        {
          "internalType": "uint256",
          "name": "_rewardsDay",
          "type": "uint256"
        }
      ],
      "name": "updateParameter",
      "outputs": [],
      "stateMutability": "nonpayable",
      "type": "function"
    },
    {
      "inputs": [],
      "name": "withdraw",
      "outputs": [],
      "stateMutability": "nonpayable",
      "type": "function"
    }
  ],
  "bytecode": "0x60806040523480156200001157600080fd5b506185d180620000226000396000f3fe608060405234801561001057600080fd5b50600436106102955760003560e01c80636356850211610167578063a6b63eb8116100ce578063ca15c87311610087578063ca15c873146111f6578063d2115cf414611238578063d547741f146112b1578063dd62ed3e146112ff578063e795594d14611377578063e7a324dc1461143957610295565b8063a6b63eb814610f77578063a9059cbb1461100f578063a9b9914514611075578063b4b5ea57146110cd578063b5a4eea414611125578063c3cda5201461117d57610295565b80639010d07c116101205780639010d07c14610d1757806391d1485414610d8f57806395d89b4114610df557806396e8832714610e78578063a217fddf14610ef3578063a457c2d714610f1157610295565b80636356850214610adb57806367031bae14610af957806370a0823114610b435780637492fdda14610b9b578063782d6fe114610c5d5780637e71d99114610cbf57610295565b80632ab4d0521161020b5780633ccfd60b116101c45780633ccfd60b1461083c5780634f92caf81461084657806355a373d61461089557806357ece4bc146108df5780635c19a95c14610a3f57806361c9d81c14610a8357610295565b80632ab4d052146106765780632cafff30146106945780632f2ff15d14610716578063313ce5671461076457806336568abe1461078857806339509351146107d657610295565b806318160ddd1161025d57806318160ddd146104ae5780631aa770a0146104cc5780631c6c79f7146104ea57806320606b701461059057806323b872dd146105ae578063248a9ca31461063457610295565b806305e1bd8c1461029a57806306fdde03146102f0578063095ea7b314610373578063098bfa9f146103d95780631626630014610469575b600080fd5b6102da600480360360608110156102b057600080fd5b81019080803590602001909291908035906020019092919080359060200190929190505050611457565b6040518082815260200191505060405180910390f35b6102f86114c2565b6040518080602001828103825283818151815260200191508051906020019080838360005b8381101561033857808201518184015260208101905061031d565b50505050905090810190601f1680156103655780820380516001836020036101000a031916815260200191505b509250505060405180910390f35b6103bf6004803603604081101561038957600080fd5b81019080803573ffffffffffffffffffffffffffffffffffffffff16906020019092919080359060200190929190505050611564565b604051808215151515815260200191505060405180910390f35b610412600480360360408110156103ef57600080fd5b81019080803560ff16906020019092919080359060200190929190505050611582565b6040518080602001828103825283818151815260200191508051906020019060200280838360005b8381101561045557808201518184015260208101905061043a565b505050509050019250505060405180910390f35b6104ac6004803603606081101561047f57600080fd5b81019080803560ff16906020019092919080359060200190929190803590602001909291905050506116cf565b005b6104b661188d565b6040518082815260200191505060405180910390f35b6104d4611897565b6040518082815260200191505060405180910390f35b61058e600480360361010081101561050157600080fd5b81019080803573ffffffffffffffffffffffffffffffffffffffff16906020019092919080359060200190929190803573ffffffffffffffffffffffffffffffffffffffff16906020019092919080359060200190929190803515159060200190929190803560ff169060200190929190803590602001909291908035906020019092919050505061189d565b005b610598611eef565b6040518082815260200191505060405180910390f35b61061a600480360360608110156105c457600080fd5b81019080803573ffffffffffffffffffffffffffffffffffffffff169060200190929190803573ffffffffffffffffffffffffffffffffffffffff16906020019092919080359060200190929190505050611f0b565b604051808215151515815260200191505060405180910390f35b6106606004803603602081101561064a57600080fd5b8101908080359060200190929190505050611fe4565b6040518082815260200191505060405180910390f35b61067e612004565b6040518082815260200191505060405180910390f35b610700600480360360608110156106aa57600080fd5b81019080803573ffffffffffffffffffffffffffffffffffffffff169060200190929190803573ffffffffffffffffffffffffffffffffffffffff1690602001909291908035906020019092919050505061200a565b6040518082815260200191505060405180910390f35b6107626004803603604081101561072c57600080fd5b8101908080359060200190929190803573ffffffffffffffffffffffffffffffffffffffff169060200190929190505050612110565b005b61076c61219a565b604051808260ff1660ff16815260200191505060405180910390f35b6107d46004803603604081101561079e57600080fd5b8101908080359060200190929190803573ffffffffffffffffffffffffffffffffffffffff1690602001909291905050506121b1565b005b610822600480360360408110156107ec57600080fd5b81019080803573ffffffffffffffffffffffffffffffffffffffff1690602001909291908035906020019092919050505061224a565b604051808215151515815260200191505060405180910390f35b6108446122fd565b005b61087f6004803603604081101561085c57600080fd5b81019080803560ff169060200190929190803590602001909291905050506125b8565b6040518082815260200191505060405180910390f35b61089d61266b565b604051808273ffffffffffffffffffffffffffffffffffffffff1673ffffffffffffffffffffffffffffffffffffffff16815260200191505060405180910390f35b610a3d600480360360808110156108f557600080fd5b8101908080359060200190929190803590602001909291908035906020019064010000000081111561092657600080fd5b82018360208201111561093857600080fd5b8035906020019184602083028401116401000000008311171561095a57600080fd5b919080806020026020016040519081016040528093929190818152602001838360200280828437600081840152601f19601f820116905080830192505050505050509192919290803590602001906401000000008111156109ba57600080fd5b8201836020820111156109cc57600080fd5b803590602001918460208302840111640100000000831117156109ee57600080fd5b919080806020026020016040519081016040528093929190818152602001838360200280828437600081840152601f19601f820116905080830192505050505050509192919290505050612691565b005b610a8160048036036020811015610a5557600080fd5b81019080803573ffffffffffffffffffffffffffffffffffffffff169060200190929190505050612a61565b005b610ac560048036036020811015610a9957600080fd5b81019080803573ffffffffffffffffffffffffffffffffffffffff169060200190929190505050612a6e565b6040518082815260200191505060405180910390f35b610ae3612b9b565b6040518082815260200191505060405180910390f35b610b01612ba1565b604051808273ffffffffffffffffffffffffffffffffffffffff1673ffffffffffffffffffffffffffffffffffffffff16815260200191505060405180910390f35b610b8560048036036020811015610b5957600080fd5b81019080803573ffffffffffffffffffffffffffffffffffffffff169060200190929190505050612bc7565b6040518082815260200191505060405180910390f35b610c5b60048036036040811015610bb157600080fd5b810190808035906020019092919080359060200190640100000000811115610bd857600080fd5b820183602082011115610bea57600080fd5b80359060200191846020830284011164010000000083111715610c0c57600080fd5b919080806020026020016040519081016040528093929190818152602001838360200280828437600081840152601f19601f820116905080830192505050505050509192919290505050612c10565b005b610ca960048036036040811015610c7357600080fd5b81019080803573ffffffffffffffffffffffffffffffffffffffff16906020019092919080359060200190929190505050612da8565b6040518082815260200191505060405180910390f35b610d1560048036036060811015610cd557600080fd5b8101908080359060200190929190803573ffffffffffffffffffffffffffffffffffffffff1690602001909291908035906020019092919050505061316d565b005b610d4d60048036036040811015610d2d57600080fd5b810190808035906020019092919080359060200190929190505050613252565b604051808273ffffffffffffffffffffffffffffffffffffffff1673ffffffffffffffffffffffffffffffffffffffff16815260200191505060405180910390f35b610ddb60048036036040811015610da557600080fd5b8101908080359060200190929190803573ffffffffffffffffffffffffffffffffffffffff169060200190929190505050613284565b604051808215151515815260200191505060405180910390f35b610dfd6132b6565b6040518080602001828103825283818151815260200191508051906020019080838360005b83811015610e3d578082015181840152602081019050610e22565b50505050905090810190601f168015610e6a5780820380516001836020036101000a031916815260200191505b509250505060405180910390f35b610ef160048036036080811015610e8e57600080fd5b81019080803560ff16906020019092919080359060200190929190803573ffffffffffffffffffffffffffffffffffffffff169060200190929190803573ffffffffffffffffffffffffffffffffffffffff169060200190929190505050613358565b005b610efb6134f1565b6040518082815260200191505060405180910390f35b610f5d60048036036040811015610f2757600080fd5b81019080803573ffffffffffffffffffffffffffffffffffffffff169060200190929190803590602001909291905050506134f8565b604051808215151515815260200191505060405180910390f35b61100d600480360360a0811015610f8d57600080fd5b81019080803573ffffffffffffffffffffffffffffffffffffffff169060200190929190803573ffffffffffffffffffffffffffffffffffffffff169060200190929190803573ffffffffffffffffffffffffffffffffffffffff16906020019092919080359060200190929190803590602001909291905050506135c5565b005b61105b6004803603604081101561102557600080fd5b81019080803573ffffffffffffffffffffffffffffffffffffffff16906020019092919080359060200190929190505050613d1b565b604051808215151515815260200191505060405180910390f35b6110cb6004803603606081101561108b57600080fd5b8101908080359060200190929190803573ffffffffffffffffffffffffffffffffffffffff16906020019092919080359060200190929190505050613d39565b005b61110f600480360360208110156110e357600080fd5b81019080803573ffffffffffffffffffffffffffffffffffffffff169060200190929190505050614002565b6040518082815260200191505060405180910390f35b61117b6004803603606081101561113b57600080fd5b8101908080359060200190929190803573ffffffffffffffffffffffffffffffffffffffff169060200190929190803590602001909291905050506140d8565b005b6111f4600480360360c081101561119357600080fd5b81019080803573ffffffffffffffffffffffffffffffffffffffff1690602001909291908035906020019092919080359060200190929190803560ff16906020019092919080359060200190929190803590602001909291905050506141f7565b005b6112226004803603602081101561120c57600080fd5b81019080803590602001909291905050506145ff565b6040518082815260200191505060405180910390f35b6112af600480360360c081101561124e57600080fd5b8101908080359060200190929190803560ff1690602001909291908035906020019092919080359060200190929190803573ffffffffffffffffffffffffffffffffffffffff16906020019092919080359060200190929190505050614626565b005b6112fd600480360360408110156112c757600080fd5b8101908080359060200190929190803573ffffffffffffffffffffffffffffffffffffffff1690602001909291905050506148dc565b005b6113616004803603604081101561131557600080fd5b81019080803573ffffffffffffffffffffffffffffffffffffffff169060200190929190803573ffffffffffffffffffffffffffffffffffffffff169060200190929190505050614966565b6040518082815260200191505060405180910390f35b6114376004803603604081101561138d57600080fd5b8101908080359060200190929190803590602001906401000000008111156113b457600080fd5b8201836020820111156113c657600080fd5b803590602001918460208302840111640100000000831117156113e857600080fd5b919080806020026020016040519081016040528093929190818152602001838360200280828437600081840152601f19601f8201169050808301925050505050505091929192905050506149ed565b005b611441614b85565b6040518082815260200191505060405180910390f35b6000806114b5856114a761016d870261149461016d611486662386f26fc100008a614ba190919063ffffffff16565b614ba190919063ffffffff16565b6001010a88614beb90919063ffffffff16565b614c7190919063ffffffff16565b9050809150509392505050565b606060688054600181600116156101000203166002900480601f01602080910402602001604051908101604052809291908181526020018280546001816001161561010002031660029004801561155a5780601f1061152f5761010080835404028352916020019161155a565b820191906000526020600020905b81548152906001019060200180831161153d57829003601f168201915b5050505050905090565b6000611578611571614cbb565b8484614cc3565b6001905092915050565b606073__PropsRewardsLib_______________________638993273560c985856040518463ffffffff1660e01b8152600401808481526020018360018111156115c757fe5b60ff168152602001828152602001935050505060006040518083038186803b1580156115f257600080fd5b505af4158015611606573d6000803e3d6000fd5b505050506040513d6000823e3d601f19601f82011682018060405250602081101561163057600080fd5b810190808051604051939291908464010000000082111561165057600080fd5b8382019150602082018581111561166657600080fd5b825186602082028301116401000000008211171561168357600080fd5b8083526020830192505050908051906020019060200280838360005b838110156116ba57808201518184015260208101905061169f565b50505050905001604052505050905092915050565b6116dc6000801b33613284565b611731576040517f08c379a00000000000000000000000000000000000000000000000000000000081526004018080602001828103825260248152602001806185246024913960400191505060405180910390fd5b73__PropsRewardsLib_______________________6311cb33da60c98585856040518563ffffffff1660e01b81526004018085815260200184600681111561177557fe5b60ff16815260200183815260200182815260200194505050505060006040518083038186803b1580156117a757600080fd5b505af41580156117bb573d6000803e3d6000fd5b505050507fd3ee560e0e71d87fde0453f24eac52dd8f01332349f8d1ef9e005d1cc3b82fb48360c960040160008660068111156117f457fe5b81526020019081526020016000206000015460c9600401600087600681111561181957fe5b81526020019081526020016000206001015460c9600401600088600681111561183e57fe5b8152602001908152602001600020600201546040518085600681111561186057fe5b60ff16815260200184815260200183815260200182815260200194505050505060405180910390a1505050565b6000606754905090565b60ec5481565b3373ffffffffffffffffffffffffffffffffffffffff1660c960000160008a73ffffffffffffffffffffffffffffffffffffffff1673ffffffffffffffffffffffffffffffffffffffff16815260200190815260200160002060010160009054906101000a900473ffffffffffffffffffffffffffffffffffffffff1673ffffffffffffffffffffffffffffffffffffffff1614611986576040517f08c379a000000000000000000000000000000000000000000000000000000000815260040180806020018281038252602b815260200180618349602b913960400191505060405180910390fd5b600060ed60009054906101000a900473ffffffffffffffffffffffffffffffffffffffff16905084611bc7578073ffffffffffffffffffffffffffffffffffffffff1663d505accf8a89897fffffffffffffffffffffffffffffffffffffffffffffffffffffffffffffffff8989896040518863ffffffff1660e01b8152600401808873ffffffffffffffffffffffffffffffffffffffff1673ffffffffffffffffffffffffffffffffffffffff1681526020018773ffffffffffffffffffffffffffffffffffffffff1673ffffffffffffffffffffffffffffffffffffffff1681526020018681526020018581526020018460ff1660ff168152602001838152602001828152602001975050505050505050600060405180830381600087803b158015611ab357600080fd5b505af1158015611ac7573d6000803e3d6000fd5b505050508073ffffffffffffffffffffffffffffffffffffffff166323b872dd8a89896040518463ffffffff1660e01b8152600401808473ffffffffffffffffffffffffffffffffffffffff1673ffffffffffffffffffffffffffffffffffffffff1681526020018373ffffffffffffffffffffffffffffffffffffffff1673ffffffffffffffffffffffffffffffffffffffff1681526020018281526020019350505050602060405180830381600087803b158015611b8657600080fd5b505af1158015611b9a573d6000803e3d6000fd5b505050506040513d6020811015611bb057600080fd5b810190808051906020019092919050505050611e49565b8073ffffffffffffffffffffffffffffffffffffffff1663d505accf8a30897fffffffffffffffffffffffffffffffffffffffffffffffffffffffffffffffff8989896040518863ffffffff1660e01b8152600401808873ffffffffffffffffffffffffffffffffffffffff1673ffffffffffffffffffffffffffffffffffffffff1681526020018773ffffffffffffffffffffffffffffffffffffffff1673ffffffffffffffffffffffffffffffffffffffff1681526020018681526020018581526020018460ff1660ff168152602001838152602001828152602001975050505050505050600060405180830381600087803b158015611cc857600080fd5b505af1158015611cdc573d6000803e3d6000fd5b505050508073ffffffffffffffffffffffffffffffffffffffff166323b872dd8a30896040518463ffffffff1660e01b8152600401808473ffffffffffffffffffffffffffffffffffffffff1673ffffffffffffffffffffffffffffffffffffffff1681526020018373ffffffffffffffffffffffffffffffffffffffff1673ffffffffffffffffffffffffffffffffffffffff1681526020018281526020019350505050602060405180830381600087803b158015611d9b57600080fd5b505af1158015611daf573d6000803e3d6000fd5b505050506040513d6020811015611dc557600080fd5b810190808051906020019092919050505050611e4387878b8b60ef60008d73ffffffffffffffffffffffffffffffffffffffff1673ffffffffffffffffffffffffffffffffffffffff16815260200190815260200160002060009054906101000a900473ffffffffffffffffffffffffffffffffffffffff16614eba565b50611ee5565b8673ffffffffffffffffffffffffffffffffffffffff16888a73ffffffffffffffffffffffffffffffffffffffff167f53b5073ff19aef23b167e83c6be14817da210375bec35b4c0ccfc0cded9a23f88933604051808381526020018273ffffffffffffffffffffffffffffffffffffffff1673ffffffffffffffffffffffffffffffffffffffff1681526020019250505060405180910390a4505b5050505050505050565b6040518080618374604391396043019050604051809103902081565b6000611f1884848461516a565b611fd984611f24614cbb565b611fd4856040518060600160405280602881526020016183d860289139606660008b73ffffffffffffffffffffffffffffffffffffffff1673ffffffffffffffffffffffffffffffffffffffff1681526020019081526020016000206000611f8a614cbb565b73ffffffffffffffffffffffffffffffffffffffff1673ffffffffffffffffffffffffffffffffffffffff1681526020019081526020016000205461542f9092919063ffffffff16565b614cc3565b600190509392505050565b600060976000838152602001908152602001600020600201549050919050565b60ea5481565b600073__PropsRewardsLib_______________________638200935e60c98686866040518563ffffffff1660e01b8152600401808581526020018473ffffffffffffffffffffffffffffffffffffffff1673ffffffffffffffffffffffffffffffffffffffff1681526020018373ffffffffffffffffffffffffffffffffffffffff1673ffffffffffffffffffffffffffffffffffffffff16815260200182815260200194505050505060206040518083038186803b1580156120cc57600080fd5b505af41580156120e0573d6000803e3d6000fd5b505050506040513d60208110156120f657600080fd5b810190808051906020019092919050505090509392505050565b6121376097600084815260200190815260200160002060020154612132614cbb565b613284565b61218c576040517f08c379a000000000000000000000000000000000000000000000000000000000815260040180806020018281038252602f81526020018061822c602f913960400191505060405180910390fd5b61219682826154ef565b5050565b6000606a60009054906101000a900460ff16905090565b6121b9614cbb565b73ffffffffffffffffffffffffffffffffffffffff168173ffffffffffffffffffffffffffffffffffffffff161461223c576040517f08c379a000000000000000000000000000000000000000000000000000000000815260040180806020018281038252602f81526020018061856d602f913960400191505060405180910390fd5b6122468282615583565b5050565b60006122f3612257614cbb565b846122ee8560666000612268614cbb565b73ffffffffffffffffffffffffffffffffffffffff1673ffffffffffffffffffffffffffffffffffffffff16815260200190815260200160002060008973ffffffffffffffffffffffffffffffffffffffff1673ffffffffffffffffffffffffffffffffffffffff1681526020019081526020016000205461561790919063ffffffff16565b614cc3565b6001905092915050565b600073__PropsRewardsLib_______________________63e8fc02ab60c96040518263ffffffff1660e01b81526004018082815260200191505060206040518083038186803b15801561234f57600080fd5b505af4158015612363573d6000803e3d6000fd5b505050506040513d602081101561237957600080fd5b81019080805190602001909291905050509050600060c9601b0160003373ffffffffffffffffffffffffffffffffffffffff1673ffffffffffffffffffffffffffffffffffffffff16815260200190815260200160002060020154905073__PropsRewardsLib_______________________630171db2760c933856040518463ffffffff1660e01b8152600401808481526020018373ffffffffffffffffffffffffffffffffffffffff1673ffffffffffffffffffffffffffffffffffffffff168152602001828152602001935050505060006040518083038186803b15801561246257600080fd5b505af4158015612476573d6000803e3d6000fd5b50505050600060ed60009054906101000a900473ffffffffffffffffffffffffffffffffffffffff1690508073ffffffffffffffffffffffffffffffffffffffff1663a9059cbb33846040518363ffffffff1660e01b8152600401808373ffffffffffffffffffffffffffffffffffffffff1673ffffffffffffffffffffffffffffffffffffffff16815260200182815260200192505050602060405180830381600087803b15801561252857600080fd5b505af115801561253c573d6000803e3d6000fd5b505050506040513d602081101561255257600080fd5b810190808051906020019092919050505050823373ffffffffffffffffffffffffffffffffffffffff167ff279e6a1f5e320cca91135676d9cb6e44ca8a08c0b88342bcdb1144f6511b568846040518082815260200191505060405180910390a3505050565b600073__PropsRewardsLib_______________________63d81b705060c985856040518463ffffffff1660e01b8152600401808481526020018360068111156125fd57fe5b60ff168152602001828152602001935050505060206040518083038186803b15801561262857600080fd5b505af415801561263c573d6000803e3d6000fd5b505050506040513d602081101561265257600080fd5b8101908080519060200190929190505050905092915050565b60ed60009054906101000a900473ffffffffffffffffffffffffffffffffffffffff1681565b60c9600f016004015484111561278357600073__PropsRewardsLib_______________________6314a68c3860c980600f016004015460c9600f016003015460006040518563ffffffff1660e01b8152600401808581526020018481526020018381526020018215151515815260200194505050505060206040518083038186803b15801561271f57600080fd5b505af4158015612733573d6000803e3d6000fd5b505050506040513d602081101561274957600080fd5b8101908080519060200190929190505050905060008111156127815761278060c9600f016004015460c9600f01600301548361569f565b5b505b600073__PropsRewardsLib_______________________630f9887a060c9878787873073ffffffffffffffffffffffffffffffffffffffff166318160ddd6040518163ffffffff1660e01b815260040160206040518083038186803b1580156127eb57600080fd5b505afa1580156127ff573d6000803e3d6000fd5b505050506040513d602081101561281557600080fd5b81019080805190602001909291905050506040518763ffffffff1660e01b8152600401808781526020018681526020018581526020018060200180602001848152602001838103835286818151815260200191508051906020019060200280838360005b83811015612894578082015181840152602081019050612879565b50505050905001838103825285818151815260200191508051906020019060200280838360005b838110156128d65780820151818401526020810190506128bb565b505050509050019850505050505050505060206040518083038186803b1580156128ff57600080fd5b505af4158015612913573d6000803e3d6000fd5b505050506040513d602081101561292957600080fd5b810190808051906020019092919050505090506000811115612953576129528585858585615939565b5b600073__PropsRewardsLib_______________________6314a68c3860c9888860016040518563ffffffff1660e01b8152600401808581526020018481526020018381526020018215151515815260200194505050505060206040518083038186803b1580156129c257600080fd5b505af41580156129d6573d6000803e3d6000fd5b505050506040513d60208110156129ec57600080fd5b810190808051906020019092919050505090506000811115612a1457612a1386868361569f565b5b3373ffffffffffffffffffffffffffffffffffffffff1685877f47a75fa3188612bc1341726d7859491a32bf875dd309474f712950354f73c5a760405160405180910390a4505050505050565b612a6b3382615b15565b50565b6000806000612a7c84615df6565b9150915060008073ffffffffffffffffffffffffffffffffffffffff1660ef60008773ffffffffffffffffffffffffffffffffffffffff1673ffffffffffffffffffffffffffffffffffffffff16815260200190815260200160002060009054906101000a900473ffffffffffffffffffffffffffffffffffffffff1673ffffffffffffffffffffffffffffffffffffffff161415612b1b5784612b7c565b60ef60008673ffffffffffffffffffffffffffffffffffffffff1673ffffffffffffffffffffffffffffffffffffffff16815260200190815260200160002060009054906101000a900473ffffffffffffffffffffffffffffffffffffffff165b9050612b9060c98285600080876000616039565b829350505050919050565b60eb5481565b60ee60009054906101000a900473ffffffffffffffffffffffffffffffffffffffff1681565b6000606560008373ffffffffffffffffffffffffffffffffffffffff1673ffffffffffffffffffffffffffffffffffffffff168152602001908152602001600020549050919050565b612c1d6000801b33613284565b612c72576040517f08c379a00000000000000000000000000000000000000000000000000000000081526004018080602001828103825260248152602001806185246024913960400191505060405180910390fd5b73__PropsRewardsLib_______________________63cc1b8c9c60c984846040518463ffffffff1660e01b81526004018084815260200183815260200180602001828103825283818151815260200191508051906020019060200280838360005b83811015612cee578082015181840152602081019050612cd3565b5050505090500194505050505060006040518083038186803b158015612d1357600080fd5b505af4158015612d27573d6000803e3d6000fd5b50505050817f426b639e1d49f62952a4d3282b37648fb8c47ac20b15e01548c104b75c787c0c826040518080602001828103825283818151815260200191508051906020019060200280838360005b83811015612d91578082015181840152602081019050612d76565b505050509050019250505060405180910390a25050565b6000438210612e02576040517f08c379a00000000000000000000000000000000000000000000000000000000081526004018080602001828103825260218152602001806181c66021913960400191505060405180910390fd5b600060f160008573ffffffffffffffffffffffffffffffffffffffff1673ffffffffffffffffffffffffffffffffffffffff16815260200190815260200160002060009054906101000a900463ffffffff16905060008163ffffffff161415612e6f576000915050613167565b8260f060008673ffffffffffffffffffffffffffffffffffffffff1673ffffffffffffffffffffffffffffffffffffffff16815260200190815260200160002060006001840363ffffffff1663ffffffff16815260200190815260200160002060000160009054906101000a900463ffffffff1663ffffffff1611612f595760f060008573ffffffffffffffffffffffffffffffffffffffff1673ffffffffffffffffffffffffffffffffffffffff16815260200190815260200160002060006001830363ffffffff1663ffffffff16815260200190815260200160002060010154915050613167565b8260f060008673ffffffffffffffffffffffffffffffffffffffff1673ffffffffffffffffffffffffffffffffffffffff16815260200190815260200160002060008063ffffffff16815260200190815260200160002060000160009054906101000a900463ffffffff1663ffffffff161115612fda576000915050613167565b600080905060006001830390505b8163ffffffff168163ffffffff161115613101576000600283830363ffffffff168161301057fe5b048203905061301d6180dd565b60f060008973ffffffffffffffffffffffffffffffffffffffff1673ffffffffffffffffffffffffffffffffffffffff16815260200190815260200160002060008363ffffffff1663ffffffff1681526020019081526020016000206040518060400160405290816000820160009054906101000a900463ffffffff1663ffffffff1663ffffffff168152602001600182015481525050905086816000015163ffffffff1614156130d957806020015195505050505050613167565b86816000015163ffffffff1610156130f3578193506130fa565b6001820392505b5050612fe8565b60f060008773ffffffffffffffffffffffffffffffffffffffff1673ffffffffffffffffffffffffffffffffffffffff16815260200190815260200160002060008363ffffffff1663ffffffff1681526020019081526020016000206001015493505050505b92915050565b73__PropsRewardsLib_______________________63dd2eab2960c9338686866040518663ffffffff1660e01b8152600401808681526020018573ffffffffffffffffffffffffffffffffffffffff1673ffffffffffffffffffffffffffffffffffffffff1681526020018481526020018373ffffffffffffffffffffffffffffffffffffffff1673ffffffffffffffffffffffffffffffffffffffff1681526020018281526020019550505050505060006040518083038186803b15801561323557600080fd5b505af4158015613249573d6000803e3d6000fd5b50505050505050565b600061327c82609760008681526020019081526020016000206000016167ac90919063ffffffff16565b905092915050565b60006132ae82609760008681526020019081526020016000206000016167c690919063ffffffff16565b905092915050565b606060698054600181600116156101000203166002900480601f01602080910402602001604051908101604052809291908181526020018280546001816001161561010002031660029004801561334e5780601f106133235761010080835404028352916020019161334e565b820191906000526020600020905b81548152906001019060200180831161333157829003601f168201915b5050505050905090565b73__PropsRewardsLib_______________________6346e3a29860c9868686866040518663ffffffff1660e01b81526004018086815260200185600181111561339d57fe5b60ff1681526020018481526020018373ffffffffffffffffffffffffffffffffffffffff1673ffffffffffffffffffffffffffffffffffffffff1681526020018273ffffffffffffffffffffffffffffffffffffffff1673ffffffffffffffffffffffffffffffffffffffff1681526020019550505050505060006040518083038186803b15801561342e57600080fd5b505af4158015613442573d6000803e3d6000fd5b505050508073ffffffffffffffffffffffffffffffffffffffff1684600181111561346957fe5b3373ffffffffffffffffffffffffffffffffffffffff167fac4aacb75e6f9ac6f2fee64077e9436dfb1be853b1a850b7863cf1433f0e75288686604051808381526020018273ffffffffffffffffffffffffffffffffffffffff1673ffffffffffffffffffffffffffffffffffffffff1681526020019250505060405180910390a450505050565b6000801b81565b60006135bb613505614cbb565b846135b685604051806060016040528060258152602001618548602591396066600061352f614cbb565b73ffffffffffffffffffffffffffffffffffffffff1673ffffffffffffffffffffffffffffffffffffffff16815260200190815260200160002060008a73ffffffffffffffffffffffffffffffffffffffff1673ffffffffffffffffffffffffffffffffffffffff1681526020019081526020016000205461542f9092919063ffffffff16565b614cc3565b6001905092915050565b600060019054906101000a900460ff16806135e457506135e36167f6565b5b806135fb57506000809054906101000a900460ff16155b613650576040517f08c379a000000000000000000000000000000000000000000000000000000000815260040180806020018281038252602e815260200180618400602e913960400191505060405180910390fd5b60008060019054906101000a900460ff1615905080156136a0576001600060016101000a81548160ff02191690831515021790555060016000806101000a81548160ff0219169083151502179055505b6137146040518060400160405280601381526020017f50726f7073205374616b696e6720546f6b656e000000000000000000000000008152506040518060400160405280600681526020017f7350524f5053000000000000000000000000000000000000000000000000000081525061680d565b6137216000801b87616920565b8460ed60006101000a81548173ffffffffffffffffffffffffffffffffffffffff021916908373ffffffffffffffffffffffffffffffffffffffff160217905560c960190160006101000a81548173ffffffffffffffffffffffffffffffffffffffff021916908373ffffffffffffffffffffffffffffffffffffffff1602179055508360ee60006101000a81548173ffffffffffffffffffffffffffffffffffffffff021916908373ffffffffffffffffffffffffffffffffffffffff160217905560c9601a0160006101000a81548173ffffffffffffffffffffffffffffffffffffffff021916908373ffffffffffffffffffffffffffffffffffffffff16021790555073__PropsRewardsLib_______________________6311cb33da60c960006187be60006040518563ffffffff1660e01b81526004018085815260200184600681111561386f57fe5b60ff16815260200183815260200182815260200194505050505060006040518083038186803b1580156138a157600080fd5b505af41580156138b5573d6000803e3d6000fd5b5050505073__PropsRewardsLib_______________________6311cb33da60c960016308f0d18060006040518563ffffffff1660e01b81526004018085815260200184600681111561390357fe5b60ff16815260200183815260200182815260200194505050505060006040518083038186803b15801561393557600080fd5b505af4158015613949573d6000803e3d6000fd5b5050505073__PropsRewardsLib_______________________6311cb33da60c960026302faf08060006040518563ffffffff1660e01b81526004018085815260200184600681111561399757fe5b60ff16815260200183815260200182815260200194505050505060006040518083038186803b1580156139c957600080fd5b505af41580156139dd573d6000803e3d6000fd5b5050505073__PropsRewardsLib_______________________6311cb33da60c9600361072560006040518563ffffffff1660e01b815260040180858152602001846006811115613a2957fe5b60ff16815260200183815260200182815260200194505050505060006040518083038186803b158015613a5b57600080fd5b505af4158015613a6f573d6000803e3d6000fd5b5050505073__PropsRewardsLib_______________________6311cb33da60c9600461271060006040518563ffffffff1660e01b815260040180858152602001846006811115613abb57fe5b60ff16815260200183815260200182815260200194505050505060006040518083038186803b158015613aed57600080fd5b505af4158015613b01573d6000803e3d6000fd5b5050505073__PropsRewardsLib_______________________6311cb33da60c96005601e60006040518563ffffffff1660e01b815260040180858152602001846006811115613b4c57fe5b60ff16815260200183815260200182815260200194505050505060006040518083038186803b158015613b7e57600080fd5b505af4158015613b92573d6000803e3d6000fd5b5050505073__PropsRewardsLib_______________________6311cb33da60c96006600160006040518563ffffffff1660e01b815260040180858152602001846006811115613bdd57fe5b60ff16815260200183815260200182815260200194505050505060006040518083038186803b158015613c0f57600080fd5b505af4158015613c23573d6000803e3d6000fd5b50505050613c2f61219a565b60ff16600a0a633b9aca000260ea81905560c9601601819055508160eb81905560c9601501819055508260ec81905560c960140181905550620f424060c96018018190555060405180807f56414c494441544f525f524f4c45000000000000000000000000000000000000815250600e019050604051809103902060c9601f018190555060405180807f4150504c49434154494f4e5f524f4c45000000000000000000000000000000008152506010019050604051809103902060c9602001819055508015613d135760008060016101000a81548160ff0219169083151502179055505b505050505050565b6000613d2f613d28614cbb565b848461516a565b6001905092915050565b82613d4333612bc7565b1015613d9a576040517f08c379a000000000000000000000000000000000000000000000000000000000815260040180806020018281038252602881526020018061827d6028913960400191505060405180910390fd5b600080613da633615df6565b915091506000613dbf838761561790919063ffffffff16565b905073__PropsRewardsLib_______________________63689ac87260c93384898960ef60003373ffffffffffffffffffffffffffffffffffffffff1673ffffffffffffffffffffffffffffffffffffffff16815260200190815260200160002060009054906101000a900473ffffffffffffffffffffffffffffffffffffffff16896040518863ffffffff1660e01b8152600401808881526020018773ffffffffffffffffffffffffffffffffffffffff1673ffffffffffffffffffffffffffffffffffffffff1681526020018681526020018573ffffffffffffffffffffffffffffffffffffffff1673ffffffffffffffffffffffffffffffffffffffff1681526020018481526020018373ffffffffffffffffffffffffffffffffffffffff1673ffffffffffffffffffffffffffffffffffffffff16815260200182815260200197505050505050505060006040518083038186803b158015613f2457600080fd5b505af4158015613f38573d6000803e3d6000fd5b50505050613f46338261692e565b813373ffffffffffffffffffffffffffffffffffffffff167f5f67bdaf5902b0de3e5deda6467c73b992ee58afe0034455a329fb68e16fa0b3613f8833612bc7565b60c9601b0160003373ffffffffffffffffffffffffffffffffffffffff1673ffffffffffffffffffffffffffffffffffffffff168152602001908152602001600020600201548a886040518085815260200184815260200183815260200182815260200194505050505060405180910390a3505050505050565b60008060f160008473ffffffffffffffffffffffffffffffffffffffff1673ffffffffffffffffffffffffffffffffffffffff16815260200190815260200160002060009054906101000a900463ffffffff16905060008163ffffffff161161406c5760006140d0565b60f060008473ffffffffffffffffffffffffffffffffffffffff1673ffffffffffffffffffffffffffffffffffffffff16815260200190815260200160002060006001830363ffffffff1663ffffffff168152602001908152602001600020600101545b915050919050565b73__PropsRewardsLib_______________________639c3dff4460c933866040518463ffffffff1660e01b8152600401808481526020018373ffffffffffffffffffffffffffffffffffffffff1673ffffffffffffffffffffffffffffffffffffffff168152602001828152602001935050505060006040518083038186803b15801561416457600080fd5b505af4158015614178573d6000803e3d6000fd5b505050506141e83384848460ef60003373ffffffffffffffffffffffffffffffffffffffff1673ffffffffffffffffffffffffffffffffffffffff16815260200190815260200160002060009054906101000a900473ffffffffffffffffffffffffffffffffffffffff16614eba565b6141f23384616af4565b505050565b6000604051808061837460439139604301905060405180910390206040518060400160405280600681526020017f7350524f5053000000000000000000000000000000000000000000000000000081525080519060200120614257616cbd565b30604051602001808581526020018481526020018381526020018273ffffffffffffffffffffffffffffffffffffffff1673ffffffffffffffffffffffffffffffffffffffff168152602001945050505050604051602081830303815290604052805190602001209050600060405180806184ea603a9139603a0190506040518091039020888888604051602001808581526020018473ffffffffffffffffffffffffffffffffffffffff1673ffffffffffffffffffffffffffffffffffffffff1681526020018381526020018281526020019450505050506040516020818303038152906040528051906020012090506000828260405160200180807f190100000000000000000000000000000000000000000000000000000000000081525060020183815260200182815260200192505050604051602081830303815290604052805190602001209050600060018288888860405160008152602001604052604051808581526020018460ff1660ff1681526020018381526020018281526020019450505050506020604051602081039080840390855afa158015614402573d6000803e3d6000fd5b505050602060405103519050600073ffffffffffffffffffffffffffffffffffffffff168173ffffffffffffffffffffffffffffffffffffffff1614156144b1576040517f08c379a00000000000000000000000000000000000000000000000000000000081526004018080602001828103825260208152602001807f64656c656761746542795369673a20696e76616c6964207369676e617475726581525060200191505060405180910390fd5b60f260008273ffffffffffffffffffffffffffffffffffffffff1673ffffffffffffffffffffffffffffffffffffffff1681526020019081526020016000206000815480929190600101919050558914614573576040517f08c379a000000000000000000000000000000000000000000000000000000000815260040180806020018281038252601c8152602001807f64656c656761746542795369673a20696e76616c6964206e6f6e63650000000081525060200191505060405180910390fd5b874211156145e9576040517f08c379a00000000000000000000000000000000000000000000000000000000081526004018080602001828103825260208152602001807f64656c656761746542795369673a207369676e6174757265206578706972656481525060200191505060405180910390fd5b6145f3818b615b15565b50505050505050505050565b600061461f60976000848152602001908152602001600020600001616cca565b9050919050565b6146923387848460ef60003373ffffffffffffffffffffffffffffffffffffffff1673ffffffffffffffffffffffffffffffffffffffff16815260200190815260200160002060009054906101000a900473ffffffffffffffffffffffffffffffffffffffff16614eba565b600060ed60009054906101000a900473ffffffffffffffffffffffffffffffffffffffff1690508073ffffffffffffffffffffffffffffffffffffffff1663d505accf33308a7fffffffffffffffffffffffffffffffffffffffffffffffffffffffffffffffff8b8b8b6040518863ffffffff1660e01b8152600401808873ffffffffffffffffffffffffffffffffffffffff1673ffffffffffffffffffffffffffffffffffffffff1681526020018773ffffffffffffffffffffffffffffffffffffffff1673ffffffffffffffffffffffffffffffffffffffff1681526020018681526020018581526020018460ff1660ff168152602001838152602001828152602001975050505050505050600060405180830381600087803b1580156147ba57600080fd5b505af11580156147ce573d6000803e3d6000fd5b505050508073ffffffffffffffffffffffffffffffffffffffff166323b872dd33308a6040518463ffffffff1660e01b8152600401808473ffffffffffffffffffffffffffffffffffffffff1673ffffffffffffffffffffffffffffffffffffffff1681526020018373ffffffffffffffffffffffffffffffffffffffff1673ffffffffffffffffffffffffffffffffffffffff1681526020018281526020019350505050602060405180830381600087803b15801561488d57600080fd5b505af11580156148a1573d6000803e3d6000fd5b505050506040513d60208110156148b757600080fd5b8101908080519060200190929190505050506148d33388616af4565b50505050505050565b61490360976000848152602001908152602001600020600201546148fe614cbb565b613284565b614958576040517f08c379a00000000000000000000000000000000000000000000000000000000081526004018080602001828103825260308152602001806183196030913960400191505060405180910390fd5b6149628282615583565b5050565b6000606660008473ffffffffffffffffffffffffffffffffffffffff1673ffffffffffffffffffffffffffffffffffffffff16815260200190815260200160002060008373ffffffffffffffffffffffffffffffffffffffff1673ffffffffffffffffffffffffffffffffffffffff16815260200190815260200160002054905092915050565b6149fa6000801b33613284565b614a4f576040517f08c379a00000000000000000000000000000000000000000000000000000000081526004018080602001828103825260248152602001806185246024913960400191505060405180910390fd5b73__PropsRewardsLib_______________________6363cad06a60c984846040518463ffffffff1660e01b81526004018084815260200183815260200180602001828103825283818151815260200191508051906020019060200280838360005b83811015614acb578082015181840152602081019050614ab0565b5050505090500194505050505060006040518083038186803b158015614af057600080fd5b505af4158015614b04573d6000803e3d6000fd5b50505050817f25071f4c6ebdf865da246a5caf6a5bbcbe50f6443e15309b97b10043c6beb1d9826040518080602001828103825283818151815260200191508051906020019060200280838360005b83811015614b6e578082015181840152602081019050614b53565b505050509050019250505060405180910390a25050565b60405180806184ea603a9139603a019050604051809103902081565b6000614be383836040518060400160405280601a81526020017f536166654d6174683a206469766973696f6e206279207a65726f000000000000815250616cdf565b905092915050565b600080831415614bfe5760009050614c6b565b6000828402905082848281614c0f57fe5b0414614c66576040517f08c379a00000000000000000000000000000000000000000000000000000000081526004018080602001828103825260218152602001806183b76021913960400191505060405180910390fd5b809150505b92915050565b6000614cb383836040518060400160405280601e81526020017f536166654d6174683a207375627472616374696f6e206f766572666c6f77000081525061542f565b905092915050565b600033905090565b600073ffffffffffffffffffffffffffffffffffffffff168373ffffffffffffffffffffffffffffffffffffffff161415614d49576040517f08c379a00000000000000000000000000000000000000000000000000000000081526004018080602001828103825260248152602001806184c66024913960400191505060405180910390fd5b600073ffffffffffffffffffffffffffffffffffffffff168273ffffffffffffffffffffffffffffffffffffffff161415614dcf576040517f08c379a00000000000000000000000000000000000000000000000000000000081526004018080602001828103825260228152602001806182a56022913960400191505060405180910390fd5b80606660008573ffffffffffffffffffffffffffffffffffffffff1673ffffffffffffffffffffffffffffffffffffffff16815260200190815260200160002060008473ffffffffffffffffffffffffffffffffffffffff1673ffffffffffffffffffffffffffffffffffffffff168152602001908152602001600020819055508173ffffffffffffffffffffffffffffffffffffffff168373ffffffffffffffffffffffffffffffffffffffff167f8c5be1e5ebec7d5bd14f71427d1e84f3dd0314c0f7b2291e5b200ac8c7c3b925836040518082815260200191505060405180910390a3505050565b6000849050600080600090506000614ed189612bc7565b1115614f0257614ee088615df6565b8093508192505050614efb818461561790919063ffffffff16565b9250614f90565b73__PropsRewardsLib_______________________63e8fc02ab60c96040518263ffffffff1660e01b81526004018082815260200191505060206040518083038186803b158015614f5257600080fd5b505af4158015614f66573d6000803e3d6000fd5b505050506040513d6020811015614f7c57600080fd5b810190808051906020019092919050505091505b73__PropsRewardsLib_______________________630deb640d60c98a868a8a888b6040518863ffffffff1660e01b8152600401808881526020018773ffffffffffffffffffffffffffffffffffffffff1673ffffffffffffffffffffffffffffffffffffffff1681526020018681526020018573ffffffffffffffffffffffffffffffffffffffff1673ffffffffffffffffffffffffffffffffffffffff1681526020018481526020018381526020018273ffffffffffffffffffffffffffffffffffffffff1673ffffffffffffffffffffffffffffffffffffffff16815260200197505050505050505060006040518083038186803b15801561509457600080fd5b505af41580156150a8573d6000803e3d6000fd5b50505050818873ffffffffffffffffffffffffffffffffffffffff167f5f67bdaf5902b0de3e5deda6467c73b992ee58afe0034455a329fb68e16fa0b36150ee8b612bc7565b60c9601b0160008d73ffffffffffffffffffffffffffffffffffffffff1673ffffffffffffffffffffffffffffffffffffffff1681526020019081526020016000206002015487866040518085815260200184815260200183815260200182815260200194505050505060405180910390a35050505050505050565b600073ffffffffffffffffffffffffffffffffffffffff168373ffffffffffffffffffffffffffffffffffffffff1614156151f0576040517f08c379a00000000000000000000000000000000000000000000000000000000081526004018080602001828103825260258152602001806184a16025913960400191505060405180910390fd5b600073ffffffffffffffffffffffffffffffffffffffff168273ffffffffffffffffffffffffffffffffffffffff161415615276576040517f08c379a00000000000000000000000000000000000000000000000000000000081526004018080602001828103825260238152602001806182096023913960400191505060405180910390fd5b615281838383616da5565b6152ed816040518060600160405280602681526020016182f360269139606560008773ffffffffffffffffffffffffffffffffffffffff1673ffffffffffffffffffffffffffffffffffffffff1681526020019081526020016000205461542f9092919063ffffffff16565b606560008573ffffffffffffffffffffffffffffffffffffffff1673ffffffffffffffffffffffffffffffffffffffff1681526020019081526020016000208190555061538281606560008573ffffffffffffffffffffffffffffffffffffffff1673ffffffffffffffffffffffffffffffffffffffff1681526020019081526020016000205461561790919063ffffffff16565b606560008473ffffffffffffffffffffffffffffffffffffffff1673ffffffffffffffffffffffffffffffffffffffff168152602001908152602001600020819055508173ffffffffffffffffffffffffffffffffffffffff168373ffffffffffffffffffffffffffffffffffffffff167fddf252ad1be2c89b69c2b068fc378daa952ba7f163c4a11628f55a4df523b3ef836040518082815260200191505060405180910390a3505050565b60008383111582906154dc576040517f08c379a00000000000000000000000000000000000000000000000000000000081526004018080602001828103825283818151815260200191508051906020019080838360005b838110156154a1578082015181840152602081019050615486565b50505050905090810190601f1680156154ce5780820380516001836020036101000a031916815260200191505b509250505060405180910390fd5b5060008385039050809150509392505050565b6155178160976000858152602001908152602001600020600001616daa90919063ffffffff16565b1561557f57615524614cbb565b73ffffffffffffffffffffffffffffffffffffffff168173ffffffffffffffffffffffffffffffffffffffff16837f2f8788117e7eff1d82e926ec794901d17c78024a50270940304540a733656f0d60405160405180910390a45b5050565b6155ab8160976000858152602001908152602001600020600001616dda90919063ffffffff16565b15615613576155b8614cbb565b73ffffffffffffffffffffffffffffffffffffffff168173ffffffffffffffffffffffffffffffffffffffff16837ff6391f5c32d9c69d2a47ea670b442974b53935d1edc7fd64eb21e047a839171b60405160405180910390a45b5050565b600080828401905083811015615695576040517f08c379a000000000000000000000000000000000000000000000000000000000815260040180806020018281038252601b8152602001807f536166654d6174683a206164646974696f6e206f766572666c6f77000000000081525060200191505060405180910390fd5b8091505092915050565b600060ed60009054906101000a900473ffffffffffffffffffffffffffffffffffffffff169050600060c9600f01600001600085815260200190815260200160002060010180549050905060008090505b8181101561587e578273ffffffffffffffffffffffffffffffffffffffff166340c10f1960c9600201600060c9600f0160000160008a8152602001908152602001600020600101858154811061574257fe5b9060005260206000200160009054906101000a900473ffffffffffffffffffffffffffffffffffffffff1673ffffffffffffffffffffffffffffffffffffffff1673ffffffffffffffffffffffffffffffffffffffff16815260200190815260200160002060010160009054906101000a900473ffffffffffffffffffffffffffffffffffffffff16866040518363ffffffff1660e01b8152600401808373ffffffffffffffffffffffffffffffffffffffff1673ffffffffffffffffffffffffffffffffffffffff16815260200182815260200192505050602060405180830381600087803b15801561583557600080fd5b505af1158015615849573d6000803e3d6000fd5b505050506040513d602081101561585f57600080fd5b81019080805190602001909291905050505080806001019150506156f0565b5073__PropsRewardsLib_______________________63cb27ba3e60c9866040518363ffffffff1660e01b8152600401808381526020018281526020019250505060006040518083038186803b1580156158d757600080fd5b505af41580156158eb573d6000803e3d6000fd5b5050505083857f07efea0e0eeb975e5404139e47d884d2705a0660a3456aa31c5694df1d8c5f1483848702604051808381526020018281526020019250505060405180910390a35050505050565b600060ed60009054906101000a900473ffffffffffffffffffffffffffffffffffffffff16905060008090505b8451811015615aca578173ffffffffffffffffffffffffffffffffffffffff166340c10f1960c9600001600088858151811061599e57fe5b602002602001015173ffffffffffffffffffffffffffffffffffffffff1673ffffffffffffffffffffffffffffffffffffffff16815260200190815260200160002060010160009054906101000a900473ffffffffffffffffffffffffffffffffffffffff16868481518110615a1057fe5b60200260200101516040518363ffffffff1660e01b8152600401808373ffffffffffffffffffffffffffffffffffffffff1673ffffffffffffffffffffffffffffffffffffffff16815260200182815260200192505050602060405180830381600087803b158015615a8157600080fd5b505af1158015615a95573d6000803e3d6000fd5b505050506040513d6020811015615aab57600080fd5b8101908080519060200190929190505050508080600101915050615966565b5084867fcc511f1b8ddd8ab10bcb89c26361da1c99b826350e3f38ee438134149032568a865185604051808381526020018281526020019250505060405180910390a3505050505050565b600060ef60008473ffffffffffffffffffffffffffffffffffffffff1673ffffffffffffffffffffffffffffffffffffffff16815260200190815260200160002060009054906101000a900473ffffffffffffffffffffffffffffffffffffffff1690506000615b8484612bc7565b90508260ef60008673ffffffffffffffffffffffffffffffffffffffff1673ffffffffffffffffffffffffffffffffffffffff16815260200190815260200160002060006101000a81548173ffffffffffffffffffffffffffffffffffffffff021916908373ffffffffffffffffffffffffffffffffffffffff1602179055508273ffffffffffffffffffffffffffffffffffffffff168273ffffffffffffffffffffffffffffffffffffffff168573ffffffffffffffffffffffffffffffffffffffff167f3134e8a2e6d97e929a7e54011ea5485d7d196dd5f0ba4d4ef95803e8e3fc257f60405160405180910390a4615c80828483616e0a565b6000811115615df057600073__PropsRewardsLib_______________________63e8fc02ab60c96040518263ffffffff1660e01b81526004018082815260200191505060206040518083038186803b158015615cdb57600080fd5b505af4158015615cef573d6000803e3d6000fd5b505050506040513d6020811015615d0557600080fd5b8101908080519060200190929190505050905060008073ffffffffffffffffffffffffffffffffffffffff168473ffffffffffffffffffffffffffffffffffffffff161415615d545785615d56565b835b9050600073ffffffffffffffffffffffffffffffffffffffff168473ffffffffffffffffffffffffffffffffffffffff1614615d9a57615d9960c98285856170a7565b5b60008073ffffffffffffffffffffffffffffffffffffffff168673ffffffffffffffffffffffffffffffffffffffff161415615dd65786615dd8565b855b9050615dec60c98286600080886000616039565b5050505b50505050565b6000806000615e0484612bc7565b905060008111615e5f576040517f08c379a000000000000000000000000000000000000000000000000000000000815260040180806020018281038252602c8152602001806182c7602c913960400191505060405180910390fd5b60008073__PropsRewardsLib_______________________636145735f60c988866040518463ffffffff1660e01b8152600401808481526020018373ffffffffffffffffffffffffffffffffffffffff1673ffffffffffffffffffffffffffffffffffffffff1681526020018281526020019350505050604080518083038186803b158015615eed57600080fd5b505af4158015615f01573d6000803e3d6000fd5b505050506040513d6040811015615f1757600080fd5b81019080805190602001909291908051906020019092919050505091509150600060ed60009054906101000a900473ffffffffffffffffffffffffffffffffffffffff1690508073ffffffffffffffffffffffffffffffffffffffff166340c10f1930856040518363ffffffff1660e01b8152600401808373ffffffffffffffffffffffffffffffffffffffff1673ffffffffffffffffffffffffffffffffffffffff16815260200182815260200192505050602060405180830381600087803b158015615fe457600080fd5b505af1158015615ff8573d6000803e3d6000fd5b505050506040513d602081101561600e57600080fd5b81019080805190602001909291905050505061602a8784616af4565b82829550955050505050915091565b60006160458585617290565b905081156160fb578588601c0160008973ffffffffffffffffffffffffffffffffffffffff1673ffffffffffffffffffffffffffffffffffffffff168152602001908152602001600020600083815260200190815260200160002060020154116160fa576040517f08c379a000000000000000000000000000000000000000000000000000000000815260040180806020018281038252602481526020018061845c6024913960400191505060405180910390fd5b5b87601c0160008873ffffffffffffffffffffffffffffffffffffffff1673ffffffffffffffffffffffffffffffffffffffff168152602001908152602001600020600082815260200190815260200160002060030160009054906101000a900460ff166163ae57600188601c0160008973ffffffffffffffffffffffffffffffffffffffff1673ffffffffffffffffffffffffffffffffffffffff168152602001908152602001600020600083815260200190815260200160002060030160006101000a81548160ff02191690831515021790555087601d0160008873ffffffffffffffffffffffffffffffffffffffff1673ffffffffffffffffffffffffffffffffffffffff168152602001908152602001600020819080600181540180825580915050600190039060005260206000200160009091909190915055600188601d0160008973ffffffffffffffffffffffffffffffffffffffff1673ffffffffffffffffffffffffffffffffffffffff168152602001908152602001600020805490500388601c0160008973ffffffffffffffffffffffffffffffffffffffff1673ffffffffffffffffffffffffffffffffffffffff16815260200190815260200160002060008381526020019081526020016000206004018190555060405180604001604052808673ffffffffffffffffffffffffffffffffffffffff1681526020018581525088601c0160008973ffffffffffffffffffffffffffffffffffffffff1673ffffffffffffffffffffffffffffffffffffffff168152602001908152602001600020600083815260200190815260200160002060000160008201518160000160006101000a81548173ffffffffffffffffffffffffffffffffffffffff021916908373ffffffffffffffffffffffffffffffffffffffff160217905550602082015181600101559050505b816165125761641b8689601c0160008a73ffffffffffffffffffffffffffffffffffffffff1673ffffffffffffffffffffffffffffffffffffffff16815260200190815260200160002060008481526020019081526020016000206002015461561790919063ffffffff16565b88601c0160008973ffffffffffffffffffffffffffffffffffffffff1673ffffffffffffffffffffffffffffffffffffffff1681526020019081526020016000206000838152602001908152602001600020600201819055506164c88689601e0160008a73ffffffffffffffffffffffffffffffffffffffff1673ffffffffffffffffffffffffffffffffffffffff1681526020019081526020016000205461561790919063ffffffff16565b88601e0160008973ffffffffffffffffffffffffffffffffffffffff1673ffffffffffffffffffffffffffffffffffffffff168152602001908152602001600020819055506166d7565b61657a8689601c0160008a73ffffffffffffffffffffffffffffffffffffffff1673ffffffffffffffffffffffffffffffffffffffff168152602001908152602001600020600084815260200190815260200160002060020154614c7190919063ffffffff16565b88601c0160008973ffffffffffffffffffffffffffffffffffffffff1673ffffffffffffffffffffffffffffffffffffffff1681526020019081526020016000206000838152602001908152602001600020600201819055506166278689601e0160008a73ffffffffffffffffffffffffffffffffffffffff1673ffffffffffffffffffffffffffffffffffffffff16815260200190815260200160002054614c7190919063ffffffff16565b88601e0160008973ffffffffffffffffffffffffffffffffffffffff1673ffffffffffffffffffffffffffffffffffffffff16815260200190815260200160002081905550600088601c0160008973ffffffffffffffffffffffffffffffffffffffff1673ffffffffffffffffffffffffffffffffffffffff16815260200190815260200160002060008381526020019081526020016000206002015414156166d6576166d58888836172f5565b5b5b8473ffffffffffffffffffffffffffffffffffffffff16838873ffffffffffffffffffffffffffffffffffffffff167f40f7b5ee3e8e2819a427b50f78f22069ed0b92def393afb80ae7cf8f1f25fb48878c601c0160008d73ffffffffffffffffffffffffffffffffffffffff1673ffffffffffffffffffffffffffffffffffffffff1681526020019081526020016000206000878152602001908152602001600020600201548b60405180848152602001838152602001828152602001935050505060405180910390a45050505050505050565b60006167bb83600001836176a6565b60001c905092915050565b60006167ee836000018373ffffffffffffffffffffffffffffffffffffffff1660001b617729565b905092915050565b6000803090506000813b9050600081149250505090565b600060019054906101000a900460ff168061682c575061682b6167f6565b5b8061684357506000809054906101000a900460ff16155b616898576040517f08c379a000000000000000000000000000000000000000000000000000000000815260040180806020018281038252602e815260200180618400602e913960400191505060405180910390fd5b60008060019054906101000a900460ff1615905080156168e8576001600060016101000a81548160ff02191690831515021790555060016000806101000a81548160ff0219169083151502179055505b6168f061774c565b6168fa838361784b565b801561691b5760008060016101000a81548160ff0219169083151502179055505b505050565b61692a82826154ef565b5050565b600073ffffffffffffffffffffffffffffffffffffffff168273ffffffffffffffffffffffffffffffffffffffff1614156169b4576040517f08c379a00000000000000000000000000000000000000000000000000000000081526004018080602001828103825260218152602001806184806021913960400191505060405180910390fd5b6169c082600083616da5565b616a2c8160405180606001604052806022815260200161825b60229139606560008673ffffffffffffffffffffffffffffffffffffffff1673ffffffffffffffffffffffffffffffffffffffff1681526020019081526020016000205461542f9092919063ffffffff16565b606560008473ffffffffffffffffffffffffffffffffffffffff1673ffffffffffffffffffffffffffffffffffffffff16815260200190815260200160002081905550616a8481606754614c7190919063ffffffff16565b606781905550600073ffffffffffffffffffffffffffffffffffffffff168273ffffffffffffffffffffffffffffffffffffffff167fddf252ad1be2c89b69c2b068fc378daa952ba7f163c4a11628f55a4df523b3ef836040518082815260200191505060405180910390a35050565b600073ffffffffffffffffffffffffffffffffffffffff168273ffffffffffffffffffffffffffffffffffffffff161415616b97576040517f08c379a000000000000000000000000000000000000000000000000000000000815260040180806020018281038252601f8152602001807f45524332303a206d696e7420746f20746865207a65726f20616464726573730081525060200191505060405180910390fd5b616ba360008383616da5565b616bb88160675461561790919063ffffffff16565b606781905550616c1081606560008573ffffffffffffffffffffffffffffffffffffffff1673ffffffffffffffffffffffffffffffffffffffff1681526020019081526020016000205461561790919063ffffffff16565b606560008473ffffffffffffffffffffffffffffffffffffffff1673ffffffffffffffffffffffffffffffffffffffff168152602001908152602001600020819055508173ffffffffffffffffffffffffffffffffffffffff16600073ffffffffffffffffffffffffffffffffffffffff167fddf252ad1be2c89b69c2b068fc378daa952ba7f163c4a11628f55a4df523b3ef836040518082815260200191505060405180910390a35050565b6000804690508091505090565b6000616cd882600001617996565b9050919050565b60008083118290616d8b576040517f08c379a00000000000000000000000000000000000000000000000000000000081526004018080602001828103825283818151815260200191508051906020019080838360005b83811015616d50578082015181840152602081019050616d35565b50505050905090810190601f168015616d7d5780820380516001836020036101000a031916815260200191505b509250505060405180910390fd5b506000838581616d9757fe5b049050809150509392505050565b505050565b6000616dd2836000018373ffffffffffffffffffffffffffffffffffffffff1660001b6179a7565b905092915050565b6000616e02836000018373ffffffffffffffffffffffffffffffffffffffff1660001b617a17565b905092915050565b8173ffffffffffffffffffffffffffffffffffffffff168373ffffffffffffffffffffffffffffffffffffffff1614158015616e465750600081115b156170a257600073ffffffffffffffffffffffffffffffffffffffff168373ffffffffffffffffffffffffffffffffffffffff1614616f7657600060f160008573ffffffffffffffffffffffffffffffffffffffff1673ffffffffffffffffffffffffffffffffffffffff16815260200190815260200160002060009054906101000a900463ffffffff1690506000808263ffffffff1611616ee9576000616f4d565b60f060008673ffffffffffffffffffffffffffffffffffffffff1673ffffffffffffffffffffffffffffffffffffffff16815260200190815260200160002060006001840363ffffffff1663ffffffff168152602001908152602001600020600101545b90506000616f648483614c7190919063ffffffff16565b9050616f7286848484617aff565b5050505b600073ffffffffffffffffffffffffffffffffffffffff168273ffffffffffffffffffffffffffffffffffffffff16146170a157600060f160008473ffffffffffffffffffffffffffffffffffffffff1673ffffffffffffffffffffffffffffffffffffffff16815260200190815260200160002060009054906101000a900463ffffffff1690506000808263ffffffff1611617014576000617078565b60f060008573ffffffffffffffffffffffffffffffffffffffff1673ffffffffffffffffffffffffffffffffffffffff16815260200190815260200160002060006001840363ffffffff1663ffffffff168152602001908152602001600020600101545b9050600061708f848361561790919063ffffffff16565b905061709d85848484617aff565b5050505b5b505050565b60006170b4600080617290565b9050600085601c0160008673ffffffffffffffffffffffffffffffffffffffff1673ffffffffffffffffffffffffffffffffffffffff168152602001908152602001600020600083815260200190815260200160002060020154905083811061712d57617128868686600080886001616039565b617288565b600081111561714857617147868683600080886001616039565b5b600086601d0160008773ffffffffffffffffffffffffffffffffffffffff1673ffffffffffffffffffffffffffffffffffffffff1681526020019081526020016000208054905011156172875761728686866171ad8488614c7190919063ffffffff16565b89601c0160008a73ffffffffffffffffffffffffffffffffffffffff1673ffffffffffffffffffffffffffffffffffffffff1681526020019081526020016000208a601d0160008b73ffffffffffffffffffffffffffffffffffffffff1673ffffffffffffffffffffffffffffffffffffffff16815260200190815260200160002080548060200260200160405190810160405280929190818152602001828054801561727957602002820191906000526020600020905b815481526020019060010190808311617265575b5050505050886001617d93565b5b5b505050505050565b60008282604051602001808373ffffffffffffffffffffffffffffffffffffffff1673ffffffffffffffffffffffffffffffffffffffff1681526020018281526020019250505060405160208183030381529060405280519060200120905092915050565b600083601c0160008473ffffffffffffffffffffffffffffffffffffffff1673ffffffffffffffffffffffffffffffffffffffff168152602001908152602001600020600083815260200190815260200160002060030160006101000a81548160ff021916908315150217905550600083601c0160008473ffffffffffffffffffffffffffffffffffffffff1673ffffffffffffffffffffffffffffffffffffffff168152602001908152602001600020600083815260200190815260200160002060020181905550600083601c0160008473ffffffffffffffffffffffffffffffffffffffff1673ffffffffffffffffffffffffffffffffffffffff1681526020019081526020016000206000838152602001908152602001600020600401549050600084601d0160008573ffffffffffffffffffffffffffffffffffffffff1673ffffffffffffffffffffffffffffffffffffffff16815260200190815260200160002080549050905060006001820383109050801561763d578286601c0160008773ffffffffffffffffffffffffffffffffffffffff1673ffffffffffffffffffffffffffffffffffffffff168152602001908152602001600020600088601d0160008973ffffffffffffffffffffffffffffffffffffffff1673ffffffffffffffffffffffffffffffffffffffff168152602001908152602001600020600186038154811061750457fe5b906000526020600020015481526020019081526020016000206004018190555085601d0160008673ffffffffffffffffffffffffffffffffffffffff1673ffffffffffffffffffffffffffffffffffffffff168152602001908152602001600020600183038154811061757357fe5b906000526020600020015486601d0160008773ffffffffffffffffffffffffffffffffffffffff1673ffffffffffffffffffffffffffffffffffffffff16815260200190815260200160002084815481106175ca57fe5b906000526020600020018190555085601d0160008673ffffffffffffffffffffffffffffffffffffffff1673ffffffffffffffffffffffffffffffffffffffff16815260200190815260200160002080548061762257fe5b6001900381819060005260206000200160009055905561769e565b85601d0160008673ffffffffffffffffffffffffffffffffffffffff1673ffffffffffffffffffffffffffffffffffffffff16815260200190815260200160002080548061768757fe5b600190038181906000526020600020016000905590555b505050505050565b600081836000018054905011617707576040517f08c379a00000000000000000000000000000000000000000000000000000000081526004018080602001828103825260228152602001806181e76022913960400191505060405180910390fd5b82600001828154811061771657fe5b9060005260206000200154905092915050565b600080836001016000848152602001908152602001600020541415905092915050565b600060019054906101000a900460ff168061776b575061776a6167f6565b5b8061778257506000809054906101000a900460ff16155b6177d7576040517f08c379a000000000000000000000000000000000000000000000000000000000815260040180806020018281038252602e815260200180618400602e913960400191505060405180910390fd5b60008060019054906101000a900460ff161590508015617827576001600060016101000a81548160ff02191690831515021790555060016000806101000a81548160ff0219169083151502179055505b80156178485760008060016101000a81548160ff0219169083151502179055505b50565b600060019054906101000a900460ff168061786a57506178696167f6565b5b8061788157506000809054906101000a900460ff16155b6178d6576040517f08c379a000000000000000000000000000000000000000000000000000000000815260040180806020018281038252602e815260200180618400602e913960400191505060405180910390fd5b60008060019054906101000a900460ff161590508015617926576001600060016101000a81548160ff02191690831515021790555060016000806101000a81548160ff0219169083151502179055505b826068908051906020019061793c9291906180fd565b5081606990805190602001906179539291906180fd565b506012606a60006101000a81548160ff021916908360ff16021790555080156179915760008060016101000a81548160ff0219169083151502179055505b505050565b600081600001805490509050919050565b60006179b38383617729565b617a0c578260000182908060018154018082558091505060019003906000526020600020016000909190919091505582600001805490508360010160008481526020019081526020016000208190555060019050617a11565b600090505b92915050565b60008083600101600084815260200190815260200160002054905060008114617af35760006001820390506000600186600001805490500390506000866000018281548110617a6257fe5b9060005260206000200154905080876000018481548110617a7f57fe5b9060005260206000200181905550600183018760010160008381526020019081526020016000208190555086600001805480617ab757fe5b60019003818190600052602060002001600090559055866001016000878152602001908152602001600020600090556001945050505050617af9565b60009150505b92915050565b6000617b23436040518060600160405280602e815260200161842e602e9139618022565b905060008463ffffffff16118015617bb857508063ffffffff1660f060008773ffffffffffffffffffffffffffffffffffffffff1673ffffffffffffffffffffffffffffffffffffffff16815260200190815260200160002060006001870363ffffffff1663ffffffff16815260200190815260200160002060000160009054906101000a900463ffffffff1663ffffffff16145b15617c29578160f060008773ffffffffffffffffffffffffffffffffffffffff1673ffffffffffffffffffffffffffffffffffffffff16815260200190815260200160002060006001870363ffffffff1663ffffffff16815260200190815260200160002060010181905550617d36565b60405180604001604052808263ffffffff1681526020018381525060f060008773ffffffffffffffffffffffffffffffffffffffff1673ffffffffffffffffffffffffffffffffffffffff16815260200190815260200160002060008663ffffffff1663ffffffff16815260200190815260200160002060008201518160000160006101000a81548163ffffffff021916908363ffffffff160217905550602082015181600101559050506001840160f160008773ffffffffffffffffffffffffffffffffffffffff1673ffffffffffffffffffffffffffffffffffffffff16815260200190815260200160002060006101000a81548163ffffffff021916908363ffffffff1602179055505b8473ffffffffffffffffffffffffffffffffffffffff167fdec2bacdd2f05b59de34da9b523dff8be42e5e38e818c82fdb0bae774387a7248484604051808381526020018281526020019250505060405180910390a25050505050565b600183511415617e2957617e2487878787600088600081518110617db357fe5b6020026020010151815260200190815260200160002060000160000160009054906101000a900473ffffffffffffffffffffffffffffffffffffffff1688600089600081518110617e0057fe5b60200260200101518152602001908152602001600020600001600101548787616039565b618019565b617e3161817d565b60008090505b8451811015617ef457617ed289601e0160008a73ffffffffffffffffffffffffffffffffffffffff1673ffffffffffffffffffffffffffffffffffffffff16815260200190815260200160002054617ec48b601801548960008a8781518110617e9c57fe5b6020026020010151815260200190815260200160002060020154614beb90919063ffffffff16565b614ba190919063ffffffff16565b8282600a8110617ede57fe5b6020020181815250508080600101915050617e37565b50600080905060008090505b85518110156180155760006001875103821015617f5757617f508b60180154617f428685600a8110617f2e57fe5b60200201518c614beb90919063ffffffff16565b614ba190919063ffffffff16565b9050617f6d565b617f6a8984614c7190919063ffffffff16565b90505b617ff28b8b838b60008c8881518110617f8257fe5b6020026020010151815260200190815260200160002060000160000160009054906101000a900473ffffffffffffffffffffffffffffffffffffffff168c60008d8981518110617fce57fe5b60200260200101518152602001908152602001600020600001600101548b8b616039565b618005818461561790919063ffffffff16565b9250508080600101915050617f00565b5050505b50505050505050565b6000640100000000831082906180d3576040517f08c379a00000000000000000000000000000000000000000000000000000000081526004018080602001828103825283818151815260200191508051906020019080838360005b8381101561809857808201518184015260208101905061807d565b50505050905090810190601f1680156180c55780820380516001836020036101000a031916815260200191505b509250505060405180910390fd5b5082905092915050565b6040518060400160405280600063ffffffff168152602001600081525090565b828054600181600116156101000203166002900490600052602060002090601f016020900481019282601f1061813e57805160ff191683800117855561816c565b8280016001018555821561816c579182015b8281111561816b578251825591602001919060010190618150565b5b50905061817991906181a0565b5090565b604051806101400160405280600a90602082028036833780820191505090505090565b6181c291905b808211156181be5760008160009055506001016181a6565b5090565b9056fe6765745072696f72566f7465733a206e6f74207965742064657465726d696e6564456e756d657261626c655365743a20696e646578206f7574206f6620626f756e647345524332303a207472616e7366657220746f20746865207a65726f2061646472657373416363657373436f6e74726f6c3a2073656e646572206d75737420626520616e2061646d696e20746f206772616e7445524332303a206275726e20616d6f756e7420657863656564732062616c616e636543616e6e6f7420756e7374616b65206d6f7265207468616e207768617420776173207374616b656445524332303a20617070726f766520746f20746865207a65726f206164647265737343616e6e6f7420636f6c6c65637420696e746572657374206966206e6f7468696e67206973207374616b656445524332303a207472616e7366657220616d6f756e7420657863656564732062616c616e6365416363657373436f6e74726f6c3a2073656e646572206d75737420626520616e2061646d696e20746f207265766f6b65736574746c65206d6179206f6e6c792062652063616c6c656420627920616e206170706c69636174696f6e454950373132446f6d61696e28737472696e67206e616d652c75696e7432353620636861696e49642c6164647265737320766572696679696e67436f6e747261637429536166654d6174683a206d756c7469706c69636174696f6e206f766572666c6f7745524332303a207472616e7366657220616d6f756e74206578636565647320616c6c6f77616e6365436f6e747261637420696e7374616e63652068617320616c7265616479206265656e20696e697469616c697a65645f7772697465436865636b706f696e743a20626c6f636b206e756d6265722065786365656473203332206269747343616e6e6f74207375627472616374206e6f7420656e6f75676820616c6c6f636174656445524332303a206275726e2066726f6d20746865207a65726f206164647265737345524332303a207472616e736665722066726f6d20746865207a65726f206164647265737345524332303a20617070726f76652066726f6d20746865207a65726f206164647265737344656c65676174696f6e28616464726573732064656c6567617465652c75696e74323536206e6f6e63652c75696e74323536206578706972792943616c6c6572206d7573742062652061646d696e206f662074686520636f6e747261637445524332303a2064656372656173656420616c6c6f77616e63652062656c6f77207a65726f416363657373436f6e74726f6c3a2063616e206f6e6c792072656e6f756e636520726f6c657320666f722073656c66a26469706673582212208935c04936692f2ae70a59085d176f7a4930489eb493455523ff6607f7c0fdbe64736f6c63430006040033",
  "compiler": {
    "name": "solc",
    "version": "0.6.4+commit.1dca32f3.Emscripten.clang",
    "optimizer": {
      "enabled": false,
      "runs": 200
    },
    "evmVersion": "istanbul"
  }
}