{
  "fileName": "PropsRewardsLib.sol",
  "contractName": "PropsRewardsLib",
  "source": "pragma solidity ^0.6.2;\n\nimport \"@openzeppelin/contracts-ethereum-package/contracts/math/SafeMath.sol\";\nimport \"./IPropsToken.sol\";\n\n/**\n * @title Props Rewards Library\n * @dev Library to manage application and validators and parameters\n **/\nlibrary PropsRewardsLib {\n    using SafeMath for uint256;\n    /*\n    *  Events\n    */\n    event AllocationChanged(\n        address indexed wallet,\n        uint256 indexed rewardsDay,\n        address indexed appId,\n        bytes32 userId,\n        uint256 amount,\n        uint256 amountChanged\n    );\n    /*\n    *  Storage\n    */\n\n    uint8 public constant  MAX_APPLICATION_USER_PER_WALLET = 10;// max allocations possible by a single wallet\n        \n    // The various parameters used by the contract\n    enum ParameterName {\n        ApplicationRewardsPercent,\n        ApplicationRewardsMaxVariationPercent,\n        ValidatorMajorityPercent,\n        ValidatorRewardsPercent,\n        StakingInterestRate,\n        WithdrawCooldownPeriodDays,\n        RestakeCooldownPeriodDays\n    }\n    enum RewardedEntityType { Application, Validator }\n\n    // Represents a parameter current, previous and time of change\n    struct Parameter {\n        uint256 currentValue;                   // current value in Pphm valid after timestamp\n        uint256 previousValue;                  // previous value in Pphm for use before timestamp\n        uint256 rewardsDay;                     // timestamp of when the value was updated\n    }\n    // Represents application details\n    struct RewardedEntity {\n        bytes32 name;                           // Application name\n        address rewardsAddress;                 // address where rewards will be minted to\n        address sidechainAddress;               // address used on the sidechain\n        bool isInitializedState;                // A way to check if there's something in the map and whether it is already added to the list\n        RewardedEntityType entityType;          // Type of rewarded entity\n    }\n\n    // Represents validators current and previous lists\n    struct RewardedEntityList {\n        mapping (address => bool) current;\n        mapping (address => bool) previous;\n        address[] currentList;\n        address[] previousList;\n        uint256 rewardsDay;\n    }\n\n    // Represents daily rewards submissions and confirmations\n    struct DailyRewards {\n        mapping (bytes32 => Submission) submissions;\n        bytes32[] submittedRewardsHashes;\n        uint256 totalSupply;\n        bytes32 lastConfirmedRewardsHash;\n        uint256 lastApplicationsRewardsDay;\n    }\n\n    struct Submission {\n        mapping (address => bool) validators;\n        address[] validatorsList;\n        uint256 confirmations;\n        uint256 finalizedStatus;               // 0 - initialized, 1 - finalized\n        bool isInitializedState;               // A way to check if there's something in the map and whether it is already added to the list\n    }\n\n    /// @dev Represents an application user\n    struct ApplicationUser {\n        address appId;\n        bytes32 userId;\n    }\n\n    /// @dev Represents staking meta data\n    struct UnstakeData {\n        uint256 stakeRewardsDay;\n        uint256 unstakeRewardsDay;\n        uint256 amountUnstaked;\n        uint256 interestRate; //in pphm\n        ApplicationUser applicationUser;\n    }\n\n    /// @dev A checkpoint for marking number of votes from a given block\n    struct Allocation {\n        ApplicationUser applicationUser;\n        uint256 amount;\n        bool isInitialized;\n        uint256 arrIndex;\n    }\n\n\n    // represent the storage structures\n    struct Data {\n        // applications data\n        mapping (address => RewardedEntity) applications;\n        address[] applicationsList;\n        // validators data\n        mapping (address => RewardedEntity) validators;\n        address[] validatorsList;\n        // adjustable parameters data\n        mapping (uint256 => Parameter) parameters; // uint256 is the parameter enum index\n        // the participating validators\n        RewardedEntityList selectedValidators;\n        // the participating applications\n        RewardedEntityList selectedApplications;\n        // daily rewards submission data\n        DailyRewards dailyRewards;\n        uint256 minSecondsBetweenDays;\n        uint256 rewardsStartTimestamp;\n        uint256 maxTotalSupply;\n        uint256 lastValidatorsRewardsDay;\n\n        // precision used when distributing allocations\n        uint256 precisionMul;\n        // the token contract address\n        address tokenContract;\n        // the identity contract address\n        address identityContract;\n        /// @dev A record of each staking/unstaking wallet\n        mapping (address => UnstakeData) stakingMap;\n        /// @dev A record for each allocation by address\n        mapping (address => mapping(bytes32 => Allocation)) allocationsMap;\n        /// @dev An array to hold allocations keys\n        mapping (address => bytes32[]) allocationsArr;\n        /// @dev An record for the sum allocated by address\n        mapping (address => uint256) allocationsSum;\n        bytes32 VALIDATOR_ROLE;\n        bytes32 APPLICATION_ROLE;\n    }\n    /*\n    *  Modifiers\n    */\n    modifier onlyOneConfirmationPerValidatorPerRewardsHash(Data storage _self, bytes32 _rewardsHash) {\n        require(\n            !_self.dailyRewards.submissions[_rewardsHash].validators[msg.sender],\n            \"Must be one submission per validator\"\n        );\n         _;\n    }\n\n    modifier onlyExistingApplications(Data storage _self, address[] memory _entities) {\n        for (uint256 i = 0; i < _entities.length; i++) {\n            require(\n                _self.applications[_entities[i]].isInitializedState,\n                \"Application must exist\"\n            );\n        }\n        _;\n    }\n\n    modifier onlyExistingValidators(Data storage _self, address[] memory _entities) {\n        for (uint256 i = 0; i < _entities.length; i++) {\n            require(\n                _self.validators[_entities[i]].isInitializedState,\n                \"Validator must exist\"\n            );\n        }\n        _;\n    }\n\n    modifier onlySelectedValidators(Data storage _self, uint256 _rewardsDay) {\n        if (!_usePreviousSelectedRewardsEntityList(_self.selectedValidators, _rewardsDay)) {\n            require (\n                _self.selectedValidators.current[msg.sender],\n                \"Must be a current selected validator\"\n            );\n        } else {\n            require (\n                _self.selectedValidators.previous[msg.sender],\n                \"Must be a previous selected validator\"\n            );\n        }\n        _;\n    }\n\n    modifier onlyValidRewardsDay(Data storage _self, uint256 _rewardsDay) {\n        require(\n            _currentRewardsDay(_self) > _rewardsDay && _rewardsDay > _self.lastValidatorsRewardsDay,\n            \"Must be for a previous day but after the last rewards day\"\n        );\n         _;\n    }\n\n    modifier onlyValidFutureRewardsDay(Data storage _self, uint256 _rewardsDay) {\n        require(\n            _rewardsDay >= _currentRewardsDay(_self),\n            \"Must be future rewardsDay\"\n        );\n         _;\n    }\n\n    modifier onlyValidAddresses(address _rewardsAddress, address _sidechainAddress) {\n        require(\n            _rewardsAddress != address(0) &&\n            _sidechainAddress != address(0),\n            \"Must have valid rewards and sidechain addresses\"\n        );\n        _;\n    }\n\n    /**\n    * @dev The function is called by validators with the calculation of the daily rewards\n    * @param _self Data pointer to storage\n    * @param _rewardsDay uint256 the rewards day\n    * @param _rewardsHash bytes32 hash of the rewards data\n    * @param _allValidators bool should the calculation be based on all the validators or just those which submitted\n    */\n    function calculateValidatorRewards(\n        Data storage _self,\n        uint256 _rewardsDay,\n        bytes32 _rewardsHash,\n        bool _allValidators\n    )\n        public\n        view\n        returns (uint256)\n    {\n        uint256 numOfValidators;\n        if (_self.dailyRewards.submissions[_rewardsHash].finalizedStatus == 1)\n        {\n            if (_allValidators) {\n                numOfValidators = _requiredValidatorsForValidatorsRewards(_self, _rewardsDay);\n                if (numOfValidators > _self.dailyRewards.submissions[_rewardsHash].confirmations) return 0;\n            } else {\n                numOfValidators = _self.dailyRewards.submissions[_rewardsHash].confirmations;\n            }\n            uint256 rewardsPerValidator = _getValidatorRewardsDailyAmountPerValidator(_self, _rewardsDay, numOfValidators);\n            return rewardsPerValidator;\n        }\n        return 0;\n    }\n\n    /**\n    * @dev The function is called by validators with the calculation of the daily rewards\n    * @param _self Data pointer to storage\n    * @param _rewardsDay uint256 the rewards day\n    * @param _rewardsHash bytes32 hash of the rewards data\n    * @param _applications address[] array of application addresses getting the daily reward\n    * @param _amounts uint256[] array of amounts each app should get\n    * @param _currentTotalSupply uint256 current total supply\n    */\n    function calculateAndFinalizeApplicationRewards(\n        Data storage _self,\n        uint256 _rewardsDay,\n        bytes32 _rewardsHash,\n        address[] memory _applications,\n        uint256[] memory _amounts,\n        uint256 _currentTotalSupply\n    )\n        public\n        onlyValidRewardsDay(_self, _rewardsDay)\n        onlyOneConfirmationPerValidatorPerRewardsHash(_self, _rewardsHash)\n        onlySelectedValidators(_self, _rewardsDay)\n        returns (uint256)\n    {\n        require(\n                _rewardsHashIsValid(_self, _rewardsDay, _rewardsHash, _applications, _amounts),\n                \"Rewards Hash is invalid\"\n        );\n        if (!_self.dailyRewards.submissions[_rewardsHash].isInitializedState) {\n            _self.dailyRewards.submissions[_rewardsHash].isInitializedState = true;\n            _self.dailyRewards.submittedRewardsHashes.push(_rewardsHash);\n        }\n        _self.dailyRewards.submissions[_rewardsHash].validators[msg.sender] = true;\n        _self.dailyRewards.submissions[_rewardsHash].validatorsList.push(msg.sender);\n        _self.dailyRewards.submissions[_rewardsHash].confirmations++;\n\n        if (_self.dailyRewards.submissions[_rewardsHash].confirmations == _requiredValidatorsForAppRewards(_self, _rewardsDay)) {\n            uint256 sum = _validateSubmittedData(_self, _applications, _amounts);\n            require(\n                sum <= _getMaxAppRewardsDailyAmount(_self, _rewardsDay, _currentTotalSupply),\n                \"Rewards data is invalid - exceed daily variation\"\n            );\n            _finalizeDailyApplicationRewards(_self, _rewardsDay, _rewardsHash, _currentTotalSupply);\n            return sum;\n        }\n        return 0;\n    }\n\n    /**\n    * @dev Finalizes the state, rewards Hash, total supply and block timestamp for the day\n    * @param _self Data pointer to storage\n    * @param _rewardsDay uint256 the rewards day\n    * @param _rewardsHash bytes32 the daily rewards hash\n    * @param _currentTotalSupply uint256 the current total supply\n    */\n    function _finalizeDailyApplicationRewards(Data storage _self, uint256 _rewardsDay, bytes32 _rewardsHash, uint256 _currentTotalSupply)\n        public\n    {\n        _self.dailyRewards.totalSupply = _currentTotalSupply;\n        _self.dailyRewards.lastConfirmedRewardsHash = _rewardsHash;\n        _self.dailyRewards.lastApplicationsRewardsDay = _rewardsDay;\n        _self.dailyRewards.submissions[_rewardsHash].finalizedStatus = 1;\n    }\n\n    /**\n    * @dev Get parameter's value\n    * @param _self Data pointer to storage\n    * @param _name ParameterName name of the parameter\n    * @param _rewardsDay uint256 the rewards day\n    */\n    function getParameterValue(\n        Data storage _self,\n        ParameterName _name,\n        uint256 _rewardsDay\n    )\n        public\n        view\n        returns (uint256)\n    {\n        if (_rewardsDay >= _self.parameters[uint256(_name)].rewardsDay) {\n            return _self.parameters[uint256(_name)].currentValue;\n        } else {\n            return _self.parameters[uint256(_name)].previousValue;\n        }\n    }\n\n    /**\n    * @dev Allows the controller/owner to update rewards parameters\n    * @param _self Data pointer to storage\n    * @param _name ParameterName name of the parameter\n    * @param _value uint256 new value for the parameter\n    * @param _rewardsDay uint256 the rewards day\n    */\n    function updateParameter(\n        Data storage _self,\n        ParameterName _name,\n        uint256 _value,\n        uint256 _rewardsDay\n    )\n        public\n        onlyValidFutureRewardsDay(_self, _rewardsDay)\n    {\n        if (_rewardsDay <= _self.parameters[uint256(_name)].rewardsDay) {\n           _self.parameters[uint256(_name)].currentValue = _value;\n           _self.parameters[uint256(_name)].rewardsDay = _rewardsDay;\n        } else {\n            _self.parameters[uint256(_name)].previousValue = _self.parameters[uint256(_name)].currentValue;\n            _self.parameters[uint256(_name)].currentValue = _value;\n           _self.parameters[uint256(_name)].rewardsDay = _rewardsDay;\n        }\n    }\n\n    /**\n    * @dev Allows an application to add/update its details\n    * @param _self Data pointer to storage\n    * @param _entityType RewardedEntityType either application (0) or validator (1)\n    * @param _name bytes32 name of the app\n    * @param _rewardsAddress address an address for the app to receive the rewards\n    * @param _sidechainAddress address the address used for using the sidechain\n    */\n    function updateEntity(\n        Data storage _self,\n        RewardedEntityType _entityType,\n        bytes32 _name,\n        address _rewardsAddress,\n        address _sidechainAddress\n    )\n        public\n        onlyValidAddresses(_rewardsAddress, _sidechainAddress)\n    {\n        if (_entityType == RewardedEntityType.Application) {\n            updateApplication(_self, _name, _rewardsAddress, _sidechainAddress);\n        } else {\n            updateValidator(_self, _name, _rewardsAddress, _sidechainAddress);\n        }\n    }\n\n    /**\n    * @dev Allows an application to add/update its details\n    * @param _self Data pointer to storage\n    * @param _name bytes32 name of the app\n    * @param _rewardsAddress address an address for the app to receive the rewards\n    * @param _sidechainAddress address the address used for using the sidechain\n    */\n    function updateApplication(\n        Data storage _self,\n        bytes32 _name,\n        address _rewardsAddress,\n        address _sidechainAddress\n    )\n        public\n        returns (uint256)\n    {\n        _self.applications[msg.sender].name = _name;\n        _self.applications[msg.sender].rewardsAddress = _rewardsAddress;\n        _self.applications[msg.sender].sidechainAddress = _sidechainAddress;\n        if (!_self.applications[msg.sender].isInitializedState) {\n            _self.applicationsList.push(msg.sender);\n            _self.applications[msg.sender].isInitializedState = true;\n            _self.applications[msg.sender].entityType = RewardedEntityType.Application;\n        }\n        return uint256(RewardedEntityType.Application);\n    }\n\n    /**\n    * @dev Allows a validator to add/update its details\n    * @param _self Data pointer to storage\n    * @param _name bytes32 name of the validator\n    * @param _rewardsAddress address an address for the validator to receive the rewards\n    * @param _sidechainAddress address the address used for using the sidechain\n    */\n    function updateValidator(\n        Data storage _self,\n        bytes32 _name,\n        address _rewardsAddress,\n        address _sidechainAddress\n    )\n        public\n        returns (uint256)\n    {\n        _self.validators[msg.sender].name = _name;\n        _self.validators[msg.sender].rewardsAddress = _rewardsAddress;\n        _self.validators[msg.sender].sidechainAddress = _sidechainAddress;\n        if (!_self.validators[msg.sender].isInitializedState) {\n            _self.validatorsList.push(msg.sender);\n            _self.validators[msg.sender].isInitializedState = true;\n            _self.validators[msg.sender].entityType = RewardedEntityType.Validator;\n        }\n        return uint256(RewardedEntityType.Validator);\n    }\n\n    /**\n    * @dev Set new validators list\n    * @param _self Data pointer to storage\n    * @param _rewardsDay uint256 the rewards day from which the list should be active\n    * @param _validators address[] array of validators\n    */\n    function setValidators(\n        Data storage _self,\n        uint256 _rewardsDay,\n        address[] memory _validators\n    )\n        public\n        onlyValidFutureRewardsDay(_self, _rewardsDay)\n        onlyExistingValidators(_self, _validators)\n    {\n        // no need to update the previous if its' the first time or second update in the same day\n        if (_rewardsDay > _self.selectedValidators.rewardsDay && _self.selectedValidators.currentList.length > 0)\n            _updatePreviousEntityList(_self.selectedValidators);\n\n        _updateCurrentEntityList(_self.selectedValidators, _validators);\n        _self.selectedValidators.rewardsDay = _rewardsDay;\n    }\n\n   /**\n    * @dev Set new applications list\n    * @param _self Data pointer to storage\n    * @param _rewardsDay uint256 the rewards day from which the list should be active\n    * @param _applications address[] array of applications\n    */\n    function setApplications(\n        Data storage _self,\n        uint256 _rewardsDay,\n        address[] memory _applications\n    )\n        public\n        onlyValidFutureRewardsDay(_self, _rewardsDay)\n        onlyExistingApplications(_self, _applications)\n    {\n\n        if (_rewardsDay > _self.selectedApplications.rewardsDay && _self.selectedApplications.currentList.length > 0)\n                _updatePreviousEntityList(_self.selectedApplications);\n        _updateCurrentEntityList(_self.selectedApplications, _applications);\n        _self.selectedApplications.rewardsDay = _rewardsDay;\n    }\n\n    /**\n    * @dev Get applications or validators list\n    * @param _self Data pointer to storage\n    * @param _entityType RewardedEntityType either application (0) or validator (1)\n    * @param _rewardsDay uint256 the rewards day to determine which list to get\n    */\n    function getEntities(\n        Data storage _self,\n        RewardedEntityType _entityType,\n        uint256 _rewardsDay\n    )\n        public\n        view\n        returns (address[] memory)\n    {\n        if (_entityType == RewardedEntityType.Application) {\n            if (!_usePreviousSelectedRewardsEntityList(_self.selectedApplications, _rewardsDay)) {\n                return _self.selectedApplications.currentList;\n            } else {\n                return _self.selectedApplications.previousList;\n            }\n        } else {\n            if (!_usePreviousSelectedRewardsEntityList(_self.selectedValidators, _rewardsDay)) {\n                return _self.selectedValidators.currentList;\n            } else {\n                return _self.selectedValidators.previousList;\n            }\n        }\n    }\n\n    /**\n    * @dev Allows getting total allocated per application user.\n    * This function can be used to get total allocated, total allocated to an app and total allocated to a specific application user\n    * @param _self Data pointer to storage\n    * @param _wallet address of allocating wallet\n    * @param _applicationId address (optional pass 0x address) the application main address (used to setup the application)\n    * @param _userId bytes32 (optional pass empty) identification of the user\n    * @return uint256 Amount allocated\n    */\n    function getAllocated(\n        Data storage _self,\n        address _wallet,\n        address _applicationId,\n        bytes32 _userId\n    )\n        public\n        view\n        returns (uint256)\n    {\n        bytes32 appUserId = _getApplicationUserId(_applicationId, _userId);\n        uint256 sum = 0;\n        if (_applicationId != address(0) && _userId[0] != 0) {\n            sum = _self.allocationsMap[_wallet][appUserId].amount;\n        } else {\n            for (uint i = 0; i < _self.allocationsArr[_wallet].length; i++) {\n                if (_applicationId != address(0)) {\n                    if (_self.allocationsMap[_wallet][_self.allocationsArr[_wallet][i]].applicationUser.appId == _applicationId) {\n                        sum = sum.add(_self.allocationsMap[_wallet][_self.allocationsArr[_wallet][i]].amount);\n                    }\n                } else {\n                    sum = sum.add(_self.allocationsMap[_wallet][_self.allocationsArr[_wallet][i]].amount);\n                }\n            }\n        }\n        return sum;\n    }\n\n    /**\n    * @dev Allows a user to restake from unstaked state after restake cooldown\n    * @param _self Data pointer to storage\n    * @param _wallet address of allocating wallet\n    * @param _amount uint256 amount to unstake\n    */\n    function restake(\n        Data storage _self,\n        address _wallet,\n        uint256 _amount\n    )\n        public\n    {\n        require(\n            _self.stakingMap[_wallet].amountUnstaked > 0,\n            \"Cannot restake - nothing to restake\"\n        );\n        uint256 rewardsDay = _currentRewardsDay(_self);\n        require(\n            rewardsDay.sub(_self.stakingMap[_wallet].unstakeRewardsDay) > getParameterValue(_self,ParameterName.RestakeCooldownPeriodDays, rewardsDay),\n            \"Cannot restake - in cooldown\"\n        );\n        _self.stakingMap[_wallet].amountUnstaked = _self.stakingMap[_wallet].amountUnstaked.sub(_amount);\n    }\n\n    /**\n    * @dev Allows a user to unstake props.\n    * @param _self Data pointer to storage\n    * @param _wallet address of wallet\n    * @param _amount uint256 amount to unstake\n    * @param _applicationId address (optional pass 0x address) the application main address (used to setup the application)\n    * @param _userId bytes32 (optional pass empty) identification of the user\n    * @param _delegatee address of delegatee\n    * @param _rewardsDay uint256 the rewards day\n    */\n    function unstake(\n        Data storage _self,\n        address _wallet,\n        uint256 _amount,\n        address _applicationId,\n        bytes32 _userId,\n        address _delegatee,\n        uint256 _rewardsDay\n    )\n        public\n    {\n\n        //Data for withdraw\n        _self.stakingMap[_wallet].unstakeRewardsDay = _rewardsDay;\n        _self.stakingMap[_wallet].amountUnstaked = _self.stakingMap[_wallet].amountUnstaked.add(_amount);\n        if (_delegatee != address(0)) {\n            _removeFromAllocations(_self, _delegatee, _amount, _rewardsDay);\n        } else {\n            _allocateToAppUser(_self, _wallet, _amount, _applicationId, _userId, _rewardsDay, true);\n        }\n    }\n\n    /**\n    * @dev Allows a user to unstake props.\n    * @param _self Data pointer to storage\n    * @param _wallet address of wallet\n    * @param _rewardsDay uint256 the rewards day\n    */\n    function withdraw(\n        Data storage _self,\n        address _wallet,\n        uint256 _rewardsDay\n    )\n        public\n    {\n        require(\n            _self.stakingMap[_wallet].amountUnstaked > 0,\n            \"Nothing to withdraw\"\n        );\n        require(\n            _rewardsDay.sub(_self.stakingMap[_wallet].unstakeRewardsDay) > getParameterValue(_self, ParameterName.WithdrawCooldownPeriodDays, _rewardsDay),\n            \"Cooldown period is not over\"\n        );\n        _self.stakingMap[_wallet].amountUnstaked = 0;\n    }\n\n    /**\n    * @dev Public function to allocate unallocated voting power\n    * @param _self Data pointer to storage\n    * @param _wallet address of allocating wallet\n    * @param _amount uint256 amount to be allocated\n    * @param _applicationId address the application main address (used to setup the application)\n    * @param _userId bytes32 identification of the user\n    */\n    function allocateToAppUser(\n        Data storage _self,\n        address _wallet,\n        uint256 _amount,\n        address _applicationId,\n        bytes32 _userId\n    )\n        public\n    {\n        require(\n            _applicationId != address(0),\n            \"Must allocate to non 0x address\"\n        );\n        bytes32 zeroAppUserId = _getApplicationUserId(address(0), \"\");\n        require(\n            _self.allocationsMap[_wallet][zeroAppUserId].amount >= _amount,\n            \"Cannot allocate more than unallocated\"\n        );\n        uint256 rewardsDay = _currentRewardsDay(_self);\n        // decrease zero appUserId allocation\n        _allocateToAppUser(_self, _wallet, _amount, address(0), \"\", rewardsDay, true);\n        // allocate to specified application user\n        _allocateToAppUser(_self, _wallet, _amount, _applicationId, _userId, rewardsDay, false);\n    }\n\n    /**\n    * @dev Library stake call to be used by stake or settle\n    * @param _self Data pointer to storage\n    * @param _wallet address where to send the props to\n    * @param _amount uint256 amount to be staked\n    * @param _applicationId address (optional pass 0x address) the application main address (used to setup the application)\n    * @param _userId bytes32 (optional pass empty) identification of the user\n    * @param _rewardsDay uint256 amount to be staked\n    * @param _delegatee address delegatee\n    */\n    function stake(\n        Data storage _self,\n        address _wallet,\n        uint256 _amount,\n        address _applicationId,\n        bytes32 _userId,\n        uint256 _rewardsDay,\n        address _delegatee\n    )\n        public\n    {\n\n        _self.stakingMap[_wallet].stakeRewardsDay = _rewardsDay;\n        _self.stakingMap[_wallet].interestRate = getParameterValue(_self, ParameterName.StakingInterestRate, _rewardsDay);\n        // if no app user is given put in un-allocated pool\n        // if delegated assign to unallocated regardless of staked requested application user\n        if (_delegatee != address(0)) {\n            _allocateToAppUser(_self, _delegatee, _amount, address(0), \"\", _rewardsDay, false);\n        } else {\n            _allocateToAppUser(_self, _wallet, _amount, _applicationId, _userId, _rewardsDay, false);\n        }\n        // Older code below here for reference when we would automatically distribute it\n        /*\n        if (_applicationId == address(0)) {\n            _distributeAppUserAllocations(_to, amountToAllocate, rewardsDay, false);\n        } else {\n            _allocateToAppUser(_to, amountToAllocate, _applicationId, _userId, rewardsDay, false);\n        }\n        */\n    }\n\n\n    /**\n    * @dev Internal remove an allocation amount from unallocated and proportionally from all other allocations\n    * @param _self Data pointer to storage\n    * @param _wallet address of allocating wallet\n    * @param _amount uint256 amount to be allocated\n    * @param _rewardsDay uint256 the rewards day\n    */\n    function _removeFromAllocations(\n        Data storage _self,\n        address _wallet,\n        uint256 _amount,\n        uint256 _rewardsDay\n    )\n        internal\n    {\n        bytes32 zeroAppUserId = _getApplicationUserId(address(0), \"\");\n        // first try to remove all from unallocated pool\n        uint256 unallocatedAmount = _self.allocationsMap[_wallet][zeroAppUserId].amount;\n        if (unallocatedAmount >= _amount) {\n            _allocateToAppUser(_self, _wallet, _amount, address(0), \"\", _rewardsDay, true);\n        } else {\n            //take whatever is unallocated and the rest proportionally\n            if (unallocatedAmount > 0) {\n                _allocateToAppUser(_self, _wallet, unallocatedAmount, address(0), \"\", _rewardsDay, true);\n            }\n            if (_self.allocationsArr[_wallet].length > 0) {\n                _distributeAppUserAllocations(_self, _wallet, _amount.sub(unallocatedAmount), _self.allocationsMap[_wallet], _self.allocationsArr[_wallet], _rewardsDay, true);\n            }\n        }\n    }\n\n    /**\n    * @dev Internal allocate to user call\n    * @param _self Data pointer to storage\n    * @param _wallet address of allocating wallet\n    * @param _amount uint256 amount to be allocated\n    * @param _applicationId address the application main address (used to setup the application)\n    * @param _userId bytes32 identification of the user\n    * @param _rewardsDay uint256 the rewards day\n    * @param _subtract bool should the amount be subtracted\n    */\n    function _allocateToAppUser(\n        Data storage _self,\n        address _wallet,\n        uint256 _amount,\n        address _applicationId,\n        bytes32 _userId,\n        uint256 _rewardsDay,\n        bool _subtract\n    )\n        internal\n    {\n        bytes32 appUserId = _getApplicationUserId(_applicationId, _userId);\n        if (_subtract) {\n            require(\n                _self.allocationsMap[_wallet][appUserId].amount > _amount,\n                \"Cannot subtract not enough allocated\"\n            );\n        }\n\n        if (!_self.allocationsMap[_wallet][appUserId].isInitialized) {\n            _self.allocationsMap[_wallet][appUserId].isInitialized = true;\n            _self.allocationsArr[_wallet].push(appUserId);\n            _self.allocationsMap[_wallet][appUserId].arrIndex = _self.allocationsArr[_wallet].length - 1;\n            _self.allocationsMap[_wallet][appUserId].applicationUser = ApplicationUser(_applicationId, _userId);\n        }\n        if (!_subtract) {\n            _self.allocationsMap[_wallet][appUserId].amount = _self.allocationsMap[_wallet][appUserId].amount.add(_amount);\n            _self.allocationsSum[_wallet] = _self.allocationsSum[_wallet].add(_amount);\n        } else {\n            _self.allocationsMap[_wallet][appUserId].amount = _self.allocationsMap[_wallet][appUserId].amount.sub(_amount);\n            _self.allocationsSum[_wallet] = _self.allocationsSum[_wallet].sub(_amount);\n            if (_self.allocationsMap[_wallet][appUserId].amount == 0) { // if removed all allocation delete the entry and reorganize array\n                _deleteAllocation(_self, _wallet, appUserId);\n            }\n        }\n\n        emit AllocationChanged(\n            _wallet,\n            _rewardsDay,\n            _applicationId,\n            _userId,\n            _self.allocationsMap[_wallet][appUserId].amount,\n            _amount\n        );\n    }\n\n    /**\n    * @dev Internal delete allocation when no longer needed and reorganize array\n    * @param _self Data pointer to storage\n    * @param _wallet address wallet\n    * @param _appUserId bytes32 key generated from appId + userId\n    */\n    function _deleteAllocation(\n        Data storage _self,\n        address _wallet,\n        bytes32 _appUserId\n    )\n        internal\n    {\n        _self.allocationsMap[_wallet][_appUserId].isInitialized = false;\n        _self.allocationsMap[_wallet][_appUserId].amount = 0;\n        uint256 arrIndex = _self.allocationsMap[_wallet][_appUserId].arrIndex;\n        uint256 len = _self.allocationsArr[_wallet].length;\n        bool moveLastItemToNewPosition = arrIndex < (len - 1);\n        if (moveLastItemToNewPosition) {\n            _self.allocationsMap[_wallet][_self.allocationsArr[_wallet][len - 1]].arrIndex = arrIndex;\n            _self.allocationsArr[_wallet][arrIndex] = _self.allocationsArr[_wallet][len - 1];\n            _self.allocationsArr[_wallet].pop();\n        } else {\n            _self.allocationsArr[_wallet].pop();\n        }\n    }\n\n    /**\n    * @dev Internal redistribute allocations on amount change\n    * @param _self Data pointer to storage\n    * @param _wallet address of allocating wallet\n    * @param _amount uint256 amount to be allocated\n    * @param _allocations mapping(bytes32 => Allocation) wallets allocations mapping\n    * @param _allocationsArr bytes32[] wallet allocations array\n    * @param _rewardsDay uint256 the rewards day\n    * @param _subtract bool should the amount be subtracted\n    */\n\n    function _distributeAppUserAllocations(\n        Data storage _self,\n        address _wallet,\n        uint256 _amount,\n        mapping(bytes32 => Allocation) storage _allocations,\n        bytes32[] memory _allocationsArr,\n        uint256 _rewardsDay,\n        bool _subtract\n    )\n        internal\n    {\n        if (_allocationsArr.length == 1) { // one app - nothing to distribute just one application user will get it\n            _allocateToAppUser(\n                _self,\n                _wallet,\n                _amount,\n                _allocations[_allocationsArr[0]].applicationUser.appId,\n                _allocations[_allocationsArr[0]].applicationUser.userId,\n                _rewardsDay,\n                _subtract\n            );\n        } else {\n            uint256[MAX_APPLICATION_USER_PER_WALLET] memory ratios;\n\n            for (uint i = 0; i < _allocationsArr.length; i++) {\n                ratios[i] = _allocations[_allocationsArr[i]].amount.mul(_self.precisionMul).div(_self.allocationsSum[_wallet]);\n            }\n            uint256 tempSum = 0;\n            for (uint i = 0; i < _allocationsArr.length; i++) {\n                uint256 amountWithRatio;\n                if (i < (_allocationsArr.length-1)) {\n                    amountWithRatio = _amount.mul(ratios[i]).div(_self.precisionMul);\n                } else {\n                    amountWithRatio = tempSum.sub(_amount);\n                }\n                _allocateToAppUser(\n                    _self,\n                    _wallet,\n                    amountWithRatio,\n                    _allocations[_allocationsArr[i]].applicationUser.appId,\n                    _allocations[_allocationsArr[i]].applicationUser.userId,\n                    _rewardsDay,\n                    _subtract\n                );\n                tempSum = tempSum.add(amountWithRatio);\n            }\n        }\n    }\n\n    /**\n    * @dev Public function triggered by collectInterest function\n    * @param _self Data pointer to storage\n    * @param _wallet address of allocating wallet\n    * @param _amount uint256 principal\n    * @return uint256, uint256 The gained interest, rewardsday\n    */\n    function _collectInterest(\n        Data storage _self,\n        address _wallet,\n        uint256 _amount\n    )\n        public\n        returns(uint256, uint256)\n    {\n        uint256 rewardsDay = _currentRewardsDay(_self);\n        uint256 daysStaked = rewardsDay.sub(_self.stakingMap[_wallet].stakeRewardsDay);\n        uint256 interestGained = _calculateInterest(_amount,daysStaked,_self.stakingMap[_wallet].interestRate);\n        _self.stakingMap[_wallet].stakeRewardsDay = rewardsDay;\n        _self.stakingMap[_wallet].interestRate = getParameterValue(_self, ParameterName.StakingInterestRate, rewardsDay);\n        // _distributeAppUserAllocations(_wallet, interestGained, rewardsDay, false);\n        return (interestGained,rewardsDay);\n    }\n\n    /**\n    * @dev Internal stake call to be used by stake or settle using Daily Compound Interest = [Start Amount * (1 + (Interest Rate / 365)) ^ (n * 365)] – Start Amount\n    * @param _principal uint256 amount originally staked\n    * @param _days uint256 days for which to calculate interest\n    * @param _interestRate uint256 days for which to calculate interest\n    * @return uint256 The gained interest\n    */\n    function _calculateInterest(\n        uint256 _principal,\n        uint256 _days,\n        uint256 _interestRate\n    )\n        internal\n        pure\n        returns(uint256)\n    {\n        uint256 interestGained = _principal.mul(\n            (1 + _interestRate.div(1e16).div(365))**(_days*365)\n        ).sub(_principal);\n        return interestGained;\n    }\n\n    /**\n     * @dev Return a unique identified for application userId combination\n     * @param _applicationId address\n     * @param _userId bytes32\n     * @return bytes32 unique identifier\n     */\n    function _getApplicationUserId(\n        address _applicationId,\n        bytes32 _userId\n    )\n        internal\n        pure\n        returns (bytes32)\n    {\n        return keccak256(abi.encode(_applicationId, _userId));\n    }\n\n    /**\n    * @dev Get which entity list to use. If true use previous if false use current\n    * @param _rewardedEntitylist RewardedEntityList pointer to storage\n    * @param _rewardsDay uint256 the rewards day to determine which list to get\n    */\n    function _usePreviousSelectedRewardsEntityList(RewardedEntityList memory _rewardedEntitylist, uint256 _rewardsDay)\n        internal\n        pure\n        returns (bool)\n    {\n        if (_rewardsDay >= _rewardedEntitylist.rewardsDay) {\n            return false;\n        } else {\n            return true;\n        }\n    }\n\n    /**\n    * @dev Checks how many validators are needed for app rewards\n    * @param _self Data pointer to storage\n    * @param _rewardsDay uint256 the rewards day\n    * @param _currentTotalSupply uint256 current total supply\n    */\n    function _getMaxAppRewardsDailyAmount(\n        Data storage _self,\n        uint256 _rewardsDay,\n        uint256 _currentTotalSupply\n    )\n        public\n        view\n        returns (uint256)\n    {\n        return ((_self.maxTotalSupply.sub(_currentTotalSupply)).mul(\n        getParameterValue(_self, ParameterName.ApplicationRewardsPercent, _rewardsDay)).mul(\n        getParameterValue(_self, ParameterName.ApplicationRewardsMaxVariationPercent, _rewardsDay))).div(1e16);\n    }\n\n\n    /**\n    * @dev Checks how many validators are needed for app rewards\n    * @param _self Data pointer to storage\n    * @param _rewardsDay uint256 the rewards day\n    * @param _numOfValidators uint256 number of validators\n    */\n    function _getValidatorRewardsDailyAmountPerValidator(\n        Data storage _self,\n        uint256 _rewardsDay,\n        uint256 _numOfValidators\n    )\n        public\n        view\n        returns (uint256)\n    {\n        return (((_self.maxTotalSupply.sub(_self.dailyRewards.totalSupply)).mul(\n        getParameterValue(_self, ParameterName.ValidatorRewardsPercent, _rewardsDay))).div(1e8)).div(_numOfValidators);\n    }\n\n    /**\n    * @dev Checks if app daily rewards amount is valid\n    * @param _self Data pointer to storage\n    * @param _applications address[] array of application addresses getting the daily rewards\n    * @param _amounts uint256[] array of amounts each app should get\n    */\n    function _validateSubmittedData(\n        Data storage _self,\n        address[] memory _applications,\n        uint256[] memory _amounts\n    )\n        public\n        view\n        returns (uint256)\n    {\n        uint256 sum;\n        bool valid = true;\n        for (uint256 i = 0; i < _amounts.length; i++) {\n            sum = sum.add(_amounts[i]);\n            if (!_self.applications[_applications[i]].isInitializedState) valid = false;\n        }\n        require(\n                sum > 0 && valid,\n                \"Sum zero or none existing app submitted\"\n        );\n        return sum;\n    }\n\n    /**\n    * @dev Checks if submitted data matches rewards hash\n    * @param _rewardsDay uint256 the rewards day\n    * @param _rewardsHash bytes32 hash of the rewards data\n    * @param _applications address[] array of application addresses getting the daily rewards\n    * @param _amounts uint256[] array of amounts each app should get\n    */\n    function _rewardsHashIsValid(\n        Data storage _self,\n        uint256 _rewardsDay,\n        bytes32 _rewardsHash,\n        address[] memory _applications,\n        uint256[] memory _amounts\n    )\n        public\n        view\n        returns (bool)\n    {\n        bool nonActiveApplication = false;\n        if (!_usePreviousSelectedRewardsEntityList(_self.selectedApplications, _rewardsDay)) {\n            for (uint256 i = 0; i < _applications.length; i++) {\n                if (!_self.selectedApplications.current[_applications[i]]) {\n                    nonActiveApplication = true;\n                }\n            }\n        } else {\n            for (uint256 j = 0; j < _applications.length; j++) {\n                if (!_self.selectedApplications.previous[_applications[j]]) {\n                    nonActiveApplication = true;\n                }\n            }\n        }\n        return\n            _applications.length > 0 &&\n            _applications.length == _amounts.length &&\n            !nonActiveApplication &&\n            keccak256(abi.encodePacked(_rewardsDay, _applications.length, _amounts.length, _applications, _amounts)) == _rewardsHash;\n    }\n\n    /**\n    * @dev Checks how many validators are needed for app rewards\n    * @param _self Data pointer to storage\n    * @param _rewardsDay uint256 the rewards day\n    */\n    function _requiredValidatorsForValidatorsRewards(Data storage _self, uint256 _rewardsDay)\n        public\n        view\n        returns (uint256)\n    {\n        if (!_usePreviousSelectedRewardsEntityList(_self.selectedValidators, _rewardsDay)) {\n            return _self.selectedValidators.currentList.length;\n        } else {\n            return _self.selectedValidators.previousList.length;\n        }\n    }\n\n    /**\n    * @dev Checks how many validators are needed for app rewards\n    * @param _self Data pointer to storage\n    * @param _rewardsDay uint256 the rewards day\n    */\n    function _requiredValidatorsForAppRewards(Data storage _self, uint256 _rewardsDay)\n        public\n        view\n        returns (uint256)\n    {\n        if (!_usePreviousSelectedRewardsEntityList(_self.selectedValidators, _rewardsDay)) {\n            return ((_self.selectedValidators.currentList.length.mul(getParameterValue(_self, ParameterName.ValidatorMajorityPercent, _rewardsDay))).div(1e8)).add(1);\n        } else {\n            return ((_self.selectedValidators.previousList.length.mul(getParameterValue(_self, ParameterName.ValidatorMajorityPercent, _rewardsDay))).div(1e8)).add(1);\n        }\n    }\n\n    /**\n    * @dev Get rewards day from block.timestamp\n    * @param _self Data pointer to storage\n    */\n    function _currentRewardsDay(Data storage _self)\n        public\n        view\n        returns (uint256)\n    {\n        //the the start time - floor timestamp to previous midnight divided by seconds in a day will give the rewards day number\n       if (_self.minSecondsBetweenDays > 0) {\n            return (block.timestamp.sub(_self.rewardsStartTimestamp)).div(_self.minSecondsBetweenDays).add(1);\n        } else {\n            return 0;\n        }\n    }\n\n    /**\n    * @dev Update current daily applications list.\n    * If new, push.\n    * If same size, replace\n    * If different size, delete, and then push.\n    * @param _rewardedEntitylist RewardedEntityList pointer to storage\n    * @param _entities address[] array of entities\n    */\n    //_updateCurrentEntityList(_rewardedEntitylist, _entities,_rewardedEntityType),\n    function _updateCurrentEntityList(\n        RewardedEntityList storage _rewardedEntitylist,\n        address[] memory _entities\n    )\n        internal\n    {\n        bool emptyCurrentList = _rewardedEntitylist.currentList.length == 0;\n        if (!emptyCurrentList && _rewardedEntitylist.currentList.length != _entities.length) {\n            _deleteCurrentEntityList(_rewardedEntitylist);\n            emptyCurrentList = true;\n        }\n\n        for (uint256 i = 0; i < _entities.length; i++) {\n            if (emptyCurrentList) {\n                _rewardedEntitylist.currentList.push(_entities[i]);\n            } else {\n                _rewardedEntitylist.currentList[i] = _entities[i];\n            }\n            _rewardedEntitylist.current[_entities[i]] = true;\n        }\n    }\n\n    /**\n    * @dev Update previous daily list\n    * @param _rewardedEntitylist RewardedEntityList pointer to storage\n    */\n    function _updatePreviousEntityList(RewardedEntityList storage _rewardedEntitylist)\n        internal\n    {\n        bool emptyPreviousList = _rewardedEntitylist.previousList.length == 0;\n        if (\n            !emptyPreviousList &&\n            _rewardedEntitylist.previousList.length != _rewardedEntitylist.currentList.length\n        ) {\n            _deletePreviousEntityList(_rewardedEntitylist);\n            emptyPreviousList = true;\n        }\n        for (uint256 i = 0; i < _rewardedEntitylist.currentList.length; i++) {\n            if (emptyPreviousList) {\n                _rewardedEntitylist.previousList.push(_rewardedEntitylist.currentList[i]);\n            } else {\n                _rewardedEntitylist.previousList[i] = _rewardedEntitylist.currentList[i];\n            }\n            _rewardedEntitylist.previous[_rewardedEntitylist.currentList[i]] = true;\n        }\n    }\n\n    /**\n    * @dev Delete existing values from the current list\n    * @param _rewardedEntitylist RewardedEntityList pointer to storage\n    */\n    function _deleteCurrentEntityList(RewardedEntityList storage _rewardedEntitylist)\n        internal\n    {\n        for (uint256 i = 0; i < _rewardedEntitylist.currentList.length ; i++) {\n             delete _rewardedEntitylist.current[_rewardedEntitylist.currentList[i]];\n        }\n        delete  _rewardedEntitylist.currentList;\n    }\n\n    /**\n    * @dev Delete existing values from the previous applications list\n    * @param _rewardedEntitylist RewardedEntityList pointer to storage\n    */\n    function _deletePreviousEntityList(RewardedEntityList storage _rewardedEntitylist)\n        internal\n    {\n        for (uint256 i = 0; i < _rewardedEntitylist.previousList.length ; i++) {\n            delete _rewardedEntitylist.previous[_rewardedEntitylist.previousList[i]];\n        }\n        delete _rewardedEntitylist.previousList;\n    }\n\n    /**\n    * @dev Deletes rewards day submission data\n    * @param _self Data pointer to storage\n    * @param _rewardsHash bytes32 rewardsHash\n    */\n    function _resetDailyRewards(\n        Data storage _self,\n        bytes32 _rewardsHash\n    )\n        public\n    {\n         _self.lastValidatorsRewardsDay = _self.dailyRewards.lastApplicationsRewardsDay;\n        for (uint256 j = 0; j < _self.dailyRewards.submissions[_rewardsHash].validatorsList.length; j++) {\n            delete(\n                _self.dailyRewards.submissions[_rewardsHash].validators[_self.dailyRewards.submissions[_rewardsHash].validatorsList[j]]\n            );\n        }\n            delete _self.dailyRewards.submissions[_rewardsHash].validatorsList;\n            _self.dailyRewards.submissions[_rewardsHash].confirmations = 0;\n            _self.dailyRewards.submissions[_rewardsHash].finalizedStatus = 0;\n            _self.dailyRewards.submissions[_rewardsHash].isInitializedState = false;\n    }\n}",
  "sourcePath": "contracts/PropsRewardsLib.sol",
  "abi": [
    {
      "anonymous": false,
      "inputs": [
        {
          "indexed": true,
          "internalType": "address",
          "name": "wallet",
          "type": "address"
        },
        {
          "indexed": true,
          "internalType": "uint256",
          "name": "rewardsDay",
          "type": "uint256"
        },
        {
          "indexed": true,
          "internalType": "address",
          "name": "appId",
          "type": "address"
        },
        {
          "indexed": false,
          "internalType": "bytes32",
          "name": "userId",
          "type": "bytes32"
        },
        {
          "indexed": false,
          "internalType": "uint256",
          "name": "amount",
          "type": "uint256"
        },
        {
          "indexed": false,
          "internalType": "uint256",
          "name": "amountChanged",
          "type": "uint256"
        }
      ],
      "name": "AllocationChanged",
      "type": "event"
    },
    {
      "inputs": [],
      "name": "MAX_APPLICATION_USER_PER_WALLET",
      "outputs": [
        {
          "internalType": "uint8",
          "name": "",
          "type": "uint8"
        }
      ],
      "stateMutability": "view",
      "type": "function"
    }
  ],
  "bytecode": "0x615e3e62000027600b82828239805160001a60731461001a57fe5b30600052607381538281f3fe73000000000000000000000000000000000000000030146080604052600436106101b35760003560e01c80638993273511610103578063cc1b8c9c116100a1578063e2c593d31161007b578063e2c593d31461102a578063e3dbf5e3146110c3578063e8fc02ab14611119578063f42433351461115b576101b3565b8063cc1b8c9c14610e69578063d81b705014610f42578063dd2eab2914610f9b576101b3565b8063a4143f83116100dd578063a4143f8314610bfd578063c3ac1c7814610c49578063c8cd615f14610ca2578063cb27ba3e14610e24576101b3565b80638993273514610ab25780639c3dff4414610b4c578063a352a57d14610bb1576101b3565b80633f065dc9116101705780636145735f1161014a5780636145735f1461081457806363cad06a14610894578063689ac8721461096d5780638200935e14610a26576101b3565b80633f065dc9146105c257806346e3a2981461072c578063519e72ab146107be576101b3565b80630171db27146101b85780630deb640d1461021d5780630e295071146102d65780630f9887a01461036f57806311cb33da1461050457806314a68c3814610560575b600080fd5b8180156101c457600080fd5b5061021b600480360360608110156101db57600080fd5b8101908080359060200190929190803573ffffffffffffffffffffffffffffffffffffffff1690602001909291908035906020019092919050505061117f565b005b81801561022957600080fd5b506102d4600480360360e081101561024057600080fd5b8101908080359060200190929190803573ffffffffffffffffffffffffffffffffffffffff16906020019092919080359060200190929190803573ffffffffffffffffffffffffffffffffffffffff1690602001909291908035906020019092919080359060200190929190803573ffffffffffffffffffffffffffffffffffffffff16906020019092919050505061135e565b005b8180156102e257600080fd5b50610359600480360360808110156102f957600080fd5b810190808035906020019092919080359060200190929190803573ffffffffffffffffffffffffffffffffffffffff169060200190929190803573ffffffffffffffffffffffffffffffffffffffff16906020019092919050505061145f565b6040518082815260200191505060405180910390f35b81801561037b57600080fd5b506104ee600480360360c081101561039257600080fd5b81019080803590602001909291908035906020019092919080359060200190929190803590602001906401000000008111156103cd57600080fd5b8201836020820111156103df57600080fd5b8035906020019184602083028401116401000000008311171561040157600080fd5b919080806020026020016040519081016040528093929190818152602001838360200280828437600081840152601f19601f8201169050808301925050505050505091929192908035906020019064010000000081111561046157600080fd5b82018360208201111561047357600080fd5b8035906020019184602083028401116401000000008311171561049557600080fd5b919080806020026020016040519081016040528093929190818152602001838360200280828437600081840152601f19601f82011690508083019250505050505050919291929080359060200190929190505050611745565b6040518082815260200191505060405180910390f35b81801561051057600080fd5b5061055e6004803603608081101561052757600080fd5b8101908080359060200190929190803560ff1690602001909291908035906020019092919080359060200190929190505050611dfd565b005b6105ac6004803603608081101561057657600080fd5b81019080803590602001909291908035906020019092919080359060200190929190803515159060200190929190505050611fa0565b6040518082815260200191505060405180910390f35b610716600480360360608110156105d857600080fd5b8101908080359060200190929190803590602001906401000000008111156105ff57600080fd5b82018360208201111561061157600080fd5b8035906020019184602083028401116401000000008311171561063357600080fd5b919080806020026020016040519081016040528093929190818152602001838360200280828437600081840152601f19601f8201169050808301925050505050505091929192908035906020019064010000000081111561069357600080fd5b8201836020820111156106a557600080fd5b803590602001918460208302840111640100000000831117156106c757600080fd5b919080806020026020016040519081016040528093929190818152602001838360200280828437600081840152601f19601f820116905080830192505050505050509192919290505050612051565b6040518082815260200191505060405180910390f35b81801561073857600080fd5b506107bc600480360360a081101561074f57600080fd5b8101908080359060200190929190803560ff16906020019092919080359060200190929190803573ffffffffffffffffffffffffffffffffffffffff169060200190929190803573ffffffffffffffffffffffffffffffffffffffff16906020019092919050505061217b565b005b6107fe600480360360608110156107d457600080fd5b81019080803590602001909291908035906020019092919080359060200190929190505050612284565b6040518082815260200191505060405180910390f35b81801561082057600080fd5b506108776004803603606081101561083757600080fd5b8101908080359060200190929190803573ffffffffffffffffffffffffffffffffffffffff169060200190929190803590602001909291905050506122f2565b604051808381526020018281526020019250505060405180910390f35b8180156108a057600080fd5b5061096b600480360360608110156108b757600080fd5b810190808035906020019092919080359060200190929190803590602001906401000000008111156108e857600080fd5b8201836020820111156108fa57600080fd5b8035906020019184602083028401116401000000008311171561091c57600080fd5b919080806020026020016040519081016040528093929190818152602001838360200280828437600081840152601f19601f82011690508083019250505050505050919291929050505061245e565b005b81801561097957600080fd5b50610a24600480360360e081101561099057600080fd5b8101908080359060200190929190803573ffffffffffffffffffffffffffffffffffffffff16906020019092919080359060200190929190803573ffffffffffffffffffffffffffffffffffffffff16906020019092919080359060200190929190803573ffffffffffffffffffffffffffffffffffffffff16906020019092919080359060200190929190505050612628565b005b610a9c60048036036080811015610a3c57600080fd5b8101908080359060200190929190803573ffffffffffffffffffffffffffffffffffffffff169060200190929190803573ffffffffffffffffffffffffffffffffffffffff1690602001909291908035906020019092919050505061276f565b6040518082815260200191505060405180910390f35b610af560048036036060811015610ac857600080fd5b8101908080359060200190929190803560ff16906020019092919080359060200190929190505050612b83565b6040518080602001828103825283818151815260200191508051906020019060200280838360005b83811015610b38578082015181840152602081019050610b1d565b505050509050019250505060405180910390f35b818015610b5857600080fd5b50610baf60048036036060811015610b6f57600080fd5b8101908080359060200190929190803573ffffffffffffffffffffffffffffffffffffffff16906020019092919080359060200190929190505050613077565b005b610be760048036036040811015610bc757600080fd5b81019080803590602001909291908035906020019092919050505061329c565b6040518082815260200191505060405180910390f35b610c3360048036036040811015610c1357600080fd5b810190808035906020019092919080359060200190929190505050613406565b6040518082815260200191505060405180910390f35b818015610c5557600080fd5b50610ca060048036036080811015610c6c57600080fd5b81019080803590602001909291908035906020019092919080359060200190929190803590602001909291905050506135fc565b005b610e0a600480360360a0811015610cb857600080fd5b8101908080359060200190929190803590602001909291908035906020019092919080359060200190640100000000811115610cf357600080fd5b820183602082011115610d0557600080fd5b80359060200191846020830284011164010000000083111715610d2757600080fd5b919080806020026020016040519081016040528093929190818152602001838360200280828437600081840152601f19601f82011690508083019250505050505050919291929080359060200190640100000000811115610d8757600080fd5b820183602082011115610d9957600080fd5b80359060200191846020830284011164010000000083111715610dbb57600080fd5b919080806020026020016040519081016040528093929190818152602001838360200280828437600081840152601f19601f820116905080830192505050505050509192919290505050613647565b604051808215151515815260200191505060405180910390f35b818015610e3057600080fd5b50610e6760048036036040811015610e4757600080fd5b810190808035906020019092919080359060200190929190505050613981565b005b818015610e7557600080fd5b50610f4060048036036060811015610e8c57600080fd5b81019080803590602001909291908035906020019092919080359060200190640100000000811115610ebd57600080fd5b820183602082011115610ecf57600080fd5b80359060200191846020830284011164010000000083111715610ef157600080fd5b919080806020026020016040519081016040528093929190818152602001838360200280828437600081840152601f19601f820116905080830192505050505050509192919290505050613b24565b005b610f8560048036036060811015610f5857600080fd5b8101908080359060200190929190803560ff16906020019092919080359060200190929190505050613cee565b6040518082815260200191505060405180910390f35b818015610fa757600080fd5b50611028600480360360a0811015610fbe57600080fd5b8101908080359060200190929190803573ffffffffffffffffffffffffffffffffffffffff16906020019092919080359060200190929190803573ffffffffffffffffffffffffffffffffffffffff16906020019092919080359060200190929190505050613d73565b005b81801561103657600080fd5b506110ad6004803603608081101561104d57600080fd5b810190808035906020019092919080359060200190929190803573ffffffffffffffffffffffffffffffffffffffff169060200190929190803573ffffffffffffffffffffffffffffffffffffffff169060200190929190505050613f0a565b6040518082815260200191505060405180910390f35b611103600480360360608110156110d957600080fd5b810190808035906020019092919080359060200190929190803590602001909291905050506141f1565b6040518082815260200191505060405180910390f35b6111456004803603602081101561112f57600080fd5b8101908080359060200190929190505050614266565b6040518082815260200191505060405180910390f35b6111636142c5565b604051808260ff1660ff16815260200191505060405180910390f35b600083601b0160008473ffffffffffffffffffffffffffffffffffffffff1673ffffffffffffffffffffffffffffffffffffffff1681526020019081526020016000206002015411611239576040517f08c379a00000000000000000000000000000000000000000000000000000000081526004018080602001828103825260138152602001807f4e6f7468696e6720746f2077697468647261770000000000000000000000000081525060200191505060405180910390fd5b61124583600583613cee565b61129c84601b0160008573ffffffffffffffffffffffffffffffffffffffff1673ffffffffffffffffffffffffffffffffffffffff16815260200190815260200160002060010154836142ca90919063ffffffff16565b1161130f576040517f08c379a000000000000000000000000000000000000000000000000000000000815260040180806020018281038252601b8152602001807f436f6f6c646f776e20706572696f64206973206e6f74206f766572000000000081525060200191505060405180910390fd5b600083601b0160008473ffffffffffffffffffffffffffffffffffffffff1673ffffffffffffffffffffffffffffffffffffffff16815260200190815260200160002060020181905550505050565b8187601b0160008873ffffffffffffffffffffffffffffffffffffffff1673ffffffffffffffffffffffffffffffffffffffff168152602001908152602001600020600001819055506113b387600484613cee565b87601b0160008873ffffffffffffffffffffffffffffffffffffffff1673ffffffffffffffffffffffffffffffffffffffff16815260200190815260200160002060030181905550600073ffffffffffffffffffffffffffffffffffffffff168173ffffffffffffffffffffffffffffffffffffffff161461144557611440878287600080876000614314565b611456565b6114558787878787876000614314565b5b50505050505050565b6000838560020160003373ffffffffffffffffffffffffffffffffffffffff1673ffffffffffffffffffffffffffffffffffffffff16815260200190815260200160002060000181905550828560020160003373ffffffffffffffffffffffffffffffffffffffff1673ffffffffffffffffffffffffffffffffffffffff16815260200190815260200160002060010160006101000a81548173ffffffffffffffffffffffffffffffffffffffff021916908373ffffffffffffffffffffffffffffffffffffffff160217905550818560020160003373ffffffffffffffffffffffffffffffffffffffff1673ffffffffffffffffffffffffffffffffffffffff16815260200190815260200160002060020160006101000a81548173ffffffffffffffffffffffffffffffffffffffff021916908373ffffffffffffffffffffffffffffffffffffffff1602179055508460020160003373ffffffffffffffffffffffffffffffffffffffff1673ffffffffffffffffffffffffffffffffffffffff16815260200190815260200160002060020160149054906101000a900460ff1661172f5784600301339080600181540180825580915050600190039060005260206000200160009091909190916101000a81548173ffffffffffffffffffffffffffffffffffffffff021916908373ffffffffffffffffffffffffffffffffffffffff16021790555060018560020160003373ffffffffffffffffffffffffffffffffffffffff1673ffffffffffffffffffffffffffffffffffffffff16815260200190815260200160002060020160146101000a81548160ff02191690831515021790555060018560020160003373ffffffffffffffffffffffffffffffffffffffff1673ffffffffffffffffffffffffffffffffffffffff16815260200190815260200160002060020160156101000a81548160ff0219169083600181111561172957fe5b02179055505b60018081111561173b57fe5b9050949350505050565b600086868061175383614266565b1180156117635750816017015481115b6117b8576040517f08c379a0000000000000000000000000000000000000000000000000000000008152600401808060200182810382526039815260200180615cc36039913960400191505060405180910390fd5b888781600f01600001600082815260200190815260200160002060000160003373ffffffffffffffffffffffffffffffffffffffff1673ffffffffffffffffffffffffffffffffffffffff16815260200190815260200160002060009054906101000a900460ff1615611876576040517f08c379a0000000000000000000000000000000000000000000000000000000008152600401808060200182810382526024815260200180615d216024913960400191505060405180910390fd5b8a8a6119b6826005016040518060600160405290816002820180548060200260200160405190810160405280929190818152602001828054801561190f57602002820191906000526020600020905b8160009054906101000a900473ffffffffffffffffffffffffffffffffffffffff1673ffffffffffffffffffffffffffffffffffffffff16815260200190600101908083116118c5575b505050505081526020016003820180548060200260200160405190810160405280929190818152602001828054801561199d57602002820191906000526020600020905b8160009054906101000a900473ffffffffffffffffffffffffffffffffffffffff1673ffffffffffffffffffffffffffffffffffffffff1681526020019060010190808311611953575b5050505050815260200160048201548152505082614a87565b611a66578160050160000160003373ffffffffffffffffffffffffffffffffffffffff1673ffffffffffffffffffffffffffffffffffffffff16815260200190815260200160002060009054906101000a900460ff16611a61576040517f08c379a0000000000000000000000000000000000000000000000000000000008152600401808060200182810382526024815260200180615db56024913960400191505060405180910390fd5b611b0e565b8160050160010160003373ffffffffffffffffffffffffffffffffffffffff1673ffffffffffffffffffffffffffffffffffffffff16815260200190815260200160002060009054906101000a900460ff16611b0d576040517f08c379a0000000000000000000000000000000000000000000000000000000008152600401808060200182810382526025815260200180615d456025913960400191505060405180910390fd5b5b611b1b8d8d8d8d8d613647565b611b8d576040517f08c379a00000000000000000000000000000000000000000000000000000000081526004018080602001828103825260178152602001807f52657761726473204861736820697320696e76616c696400000000000000000081525060200191505060405180910390fd5b8c600f0160000160008c815260200190815260200160002060040160009054906101000a900460ff16611c1d5760018d600f0160000160008d815260200190815260200160002060040160006101000a81548160ff0219169083151502179055508c600f016001018b90806001815401808255809150506001900390600052602060002001600090919091909150555b60018d600f0160000160008d815260200190815260200160002060000160003373ffffffffffffffffffffffffffffffffffffffff1673ffffffffffffffffffffffffffffffffffffffff16815260200190815260200160002060006101000a81548160ff0219169083151502179055508c600f0160000160008c8152602001908152602001600020600101339080600181540180825580915050600190039060005260206000200160009091909190916101000a81548173ffffffffffffffffffffffffffffffffffffffff021916908373ffffffffffffffffffffffffffffffffffffffff1602179055508c600f0160000160008c815260200190815260200160002060020160008154809291906001019190505550611d3f8d8d613406565b8d600f0160000160008d8152602001908152602001600020600201541415611de8576000611d6e8e8c8c612051565b9050611d7b8e8e8b6141f1565b811115611dd3576040517f08c379a0000000000000000000000000000000000000000000000000000000008152600401808060200182810382526030815260200180615dd96030913960400191505060405180910390fd5b611ddf8e8e8e8c6135fc565b80975050611ded565b600096505b5050505050509695505050505050565b8381611e0882614266565b811015611e7d576040517f08c379a00000000000000000000000000000000000000000000000000000000081526004018080602001828103825260198152602001807f4d7573742062652066757475726520726577617264734461790000000000000081525060200191505060405180910390fd5b856004016000866006811115611e8f57fe5b8152602001908152602001600020600201548311611efc5783866004016000876006811115611eba57fe5b81526020019081526020016000206000018190555082866004016000876006811115611ee257fe5b815260200190815260200160002060020181905550611f98565b856004016000866006811115611f0e57fe5b815260200190815260200160002060000154866004016000876006811115611f3257fe5b81526020019081526020016000206001018190555083866004016000876006811115611f5a57fe5b81526020019081526020016000206000018190555082866004016000876006811115611f8257fe5b8152602001908152602001600020600201819055505b505050505050565b600080600186600f01600001600086815260200190815260200160002060030154141561204357821561200b57611fd7868661329c565b905085600f01600001600085815260200190815260200160002060020154811115612006576000915050612049565b61202a565b85600f0160000160008581526020019081526020016000206002015490505b6000612037878784612284565b90508092505050612049565b60009150505b949350505050565b60008060006001905060008090505b845181101561210c5761208f85828151811061207857fe5b602002602001015184614aa890919063ffffffff16565b92508660000160008783815181106120a357fe5b602002602001015173ffffffffffffffffffffffffffffffffffffffff1673ffffffffffffffffffffffffffffffffffffffff16815260200190815260200160002060020160149054906101000a900460ff166120ff57600091505b8080600101915050612060565b5060008211801561211a5750805b61216f576040517f08c379a0000000000000000000000000000000000000000000000000000000008152600401808060200182810382526027815260200180615d8e6027913960400191505060405180910390fd5b81925050509392505050565b8181600073ffffffffffffffffffffffffffffffffffffffff168273ffffffffffffffffffffffffffffffffffffffff16141580156121e75750600073ffffffffffffffffffffffffffffffffffffffff168173ffffffffffffffffffffffffffffffffffffffff1614155b61223c576040517f08c379a000000000000000000000000000000000000000000000000000000000815260040180806020018281038252602f815260200180615c50602f913960400191505060405180910390fd5b6000600181111561224957fe5b86600181111561225557fe5b141561226d5761226787868686613f0a565b5061227b565b6122798786868661145f565b505b50505050505050565b60006122e9826122db6305f5e1006122cd6122a18960038a613cee565b6122bf8a600f01600201548b601601546142ca90919063ffffffff16565b614b3090919063ffffffff16565b614bb690919063ffffffff16565b614bb690919063ffffffff16565b90509392505050565b600080600061230086614266565b9050600061235b87601b0160008873ffffffffffffffffffffffffffffffffffffffff1673ffffffffffffffffffffffffffffffffffffffff16815260200190815260200160002060000154836142ca90919063ffffffff16565b905060006123ae86838a601b0160008b73ffffffffffffffffffffffffffffffffffffffff1673ffffffffffffffffffffffffffffffffffffffff16815260200190815260200160002060030154614c00565b90508288601b0160008973ffffffffffffffffffffffffffffffffffffffff1673ffffffffffffffffffffffffffffffffffffffff1681526020019081526020016000206000018190555061240588600485613cee565b88601b0160008973ffffffffffffffffffffffffffffffffffffffff1673ffffffffffffffffffffffffffffffffffffffff16815260200190815260200160002060030181905550808394509450505050935093915050565b828261246982614266565b8110156124de576040517f08c379a00000000000000000000000000000000000000000000000000000000081526004018080602001828103825260198152602001807f4d7573742062652066757475726520726577617264734461790000000000000081525060200191505060405180910390fd5b848360008090505b81518110156125d35782600201600083838151811061250157fe5b602002602001015173ffffffffffffffffffffffffffffffffffffffff1673ffffffffffffffffffffffffffffffffffffffff16815260200190815260200160002060020160149054906101000a900460ff166125c6576040517f08c379a00000000000000000000000000000000000000000000000000000000081526004018080602001828103825260148152602001807f56616c696461746f72206d75737420657869737400000000000000000000000081525060200191505060405180910390fd5b80806001019150506124e6565b508660050160040154861180156125f4575060008760050160020180549050115b156126065761260587600501614c6b565b5b6126138760050186614e9d565b85876005016004018190555050505050505050565b8087601b0160008873ffffffffffffffffffffffffffffffffffffffff1673ffffffffffffffffffffffffffffffffffffffff168152602001908152602001600020600101819055506126c88588601b0160008973ffffffffffffffffffffffffffffffffffffffff1673ffffffffffffffffffffffffffffffffffffffff16815260200190815260200160002060020154614aa890919063ffffffff16565b87601b0160008873ffffffffffffffffffffffffffffffffffffffff1673ffffffffffffffffffffffffffffffffffffffff16815260200190815260200160002060020181905550600073ffffffffffffffffffffffffffffffffffffffff168273ffffffffffffffffffffffffffffffffffffffff16146127555761275087838784615052565b612766565b6127658787878787866001614314565b5b50505050505050565b60008061277c848461523b565b90506000809050600073ffffffffffffffffffffffffffffffffffffffff168573ffffffffffffffffffffffffffffffffffffffff16141580156127f65750600060f81b846000602081106127cd57fe5b1a60f81b7effffffffffffffffffffffffffffffffffffffffffffffffffffffffffffff191614155b156128585786601c0160008773ffffffffffffffffffffffffffffffffffffffff1673ffffffffffffffffffffffffffffffffffffffff1681526020019081526020016000206000838152602001908152602001600020600201549050612b76565b60008090505b87601d0160008873ffffffffffffffffffffffffffffffffffffffff1673ffffffffffffffffffffffffffffffffffffffff16815260200190815260200160002080549050811015612b7457600073ffffffffffffffffffffffffffffffffffffffff168673ffffffffffffffffffffffffffffffffffffffff1614612aa6578573ffffffffffffffffffffffffffffffffffffffff1688601c0160008973ffffffffffffffffffffffffffffffffffffffff1673ffffffffffffffffffffffffffffffffffffffff16815260200190815260200160002060008a601d0160008b73ffffffffffffffffffffffffffffffffffffffff1673ffffffffffffffffffffffffffffffffffffffff168152602001908152602001600020848154811061298457fe5b9060005260206000200154815260200190815260200160002060000160000160009054906101000a900473ffffffffffffffffffffffffffffffffffffffff1673ffffffffffffffffffffffffffffffffffffffff161415612aa157612a9e88601c0160008973ffffffffffffffffffffffffffffffffffffffff1673ffffffffffffffffffffffffffffffffffffffff16815260200190815260200160002060008a601d0160008b73ffffffffffffffffffffffffffffffffffffffff1673ffffffffffffffffffffffffffffffffffffffff1681526020019081526020016000208481548110612a7257fe5b906000526020600020015481526020019081526020016000206002015483614aa890919063ffffffff16565b91505b612b67565b612b6488601c0160008973ffffffffffffffffffffffffffffffffffffffff1673ffffffffffffffffffffffffffffffffffffffff16815260200190815260200160002060008a601d0160008b73ffffffffffffffffffffffffffffffffffffffff1673ffffffffffffffffffffffffffffffffffffffff1681526020019081526020016000208481548110612b3857fe5b906000526020600020015481526020019081526020016000206002015483614aa890919063ffffffff16565b91505b808060010191505061285e565b505b8092505050949350505050565b606060006001811115612b9257fe5b836001811115612b9e57fe5b1415612e0c57612ce284600a0160405180606001604052908160028201805480602002602001604051908101604052809291908181526020018280548015612c3b57602002820191906000526020600020905b8160009054906101000a900473ffffffffffffffffffffffffffffffffffffffff1673ffffffffffffffffffffffffffffffffffffffff1681526020019060010190808311612bf1575b5050505050815260200160038201805480602002602001604051908101604052809291908181526020018280548015612cc957602002820191906000526020600020905b8160009054906101000a900473ffffffffffffffffffffffffffffffffffffffff1673ffffffffffffffffffffffffffffffffffffffff1681526020019060010190808311612c7f575b5050505050815260200160048201548152505083614a87565b612d795783600a01600201805480602002602001604051908101604052809291908181526020018280548015612d6d57602002820191906000526020600020905b8160009054906101000a900473ffffffffffffffffffffffffffffffffffffffff1673ffffffffffffffffffffffffffffffffffffffff1681526020019060010190808311612d23575b50505050509050613070565b83600a01600301805480602002602001604051908101604052809291908181526020018280548015612e0057602002820191906000526020600020905b8160009054906101000a900473ffffffffffffffffffffffffffffffffffffffff1673ffffffffffffffffffffffffffffffffffffffff1681526020019060010190808311612db6575b50505050509050613070565b612f4a8460050160405180606001604052908160028201805480602002602001604051908101604052809291908181526020018280548015612ea357602002820191906000526020600020905b8160009054906101000a900473ffffffffffffffffffffffffffffffffffffffff1673ffffffffffffffffffffffffffffffffffffffff1681526020019060010190808311612e59575b5050505050815260200160038201805480602002602001604051908101604052809291908181526020018280548015612f3157602002820191906000526020600020905b8160009054906101000a900473ffffffffffffffffffffffffffffffffffffffff1673ffffffffffffffffffffffffffffffffffffffff1681526020019060010190808311612ee7575b5050505050815260200160048201548152505083614a87565b612fe15783600501600201805480602002602001604051908101604052809291908181526020018280548015612fd557602002820191906000526020600020905b8160009054906101000a900473ffffffffffffffffffffffffffffffffffffffff1673ffffffffffffffffffffffffffffffffffffffff1681526020019060010190808311612f8b575b50505050509050613070565b8360050160030180548060200260200160405190810160405280929190818152602001828054801561306857602002820191906000526020600020905b8160009054906101000a900473ffffffffffffffffffffffffffffffffffffffff1673ffffffffffffffffffffffffffffffffffffffff168152602001906001019080831161301e575b505050505090505b9392505050565b600083601b0160008473ffffffffffffffffffffffffffffffffffffffff1673ffffffffffffffffffffffffffffffffffffffff1681526020019081526020016000206002015411613114576040517f08c379a0000000000000000000000000000000000000000000000000000000008152600401808060200182810382526023815260200180615c7f6023913960400191505060405180910390fd5b600061311f84614266565b905061312d84600683613cee565b61318485601b0160008673ffffffffffffffffffffffffffffffffffffffff1673ffffffffffffffffffffffffffffffffffffffff16815260200190815260200160002060010154836142ca90919063ffffffff16565b116131f7576040517f08c379a000000000000000000000000000000000000000000000000000000000815260040180806020018281038252601c8152602001807f43616e6e6f742072657374616b65202d20696e20636f6f6c646f776e0000000081525060200191505060405180910390fd5b61324e8285601b0160008673ffffffffffffffffffffffffffffffffffffffff1673ffffffffffffffffffffffffffffffffffffffff168152602001908152602001600020600201546142ca90919063ffffffff16565b84601b0160008573ffffffffffffffffffffffffffffffffffffffff1673ffffffffffffffffffffffffffffffffffffffff1681526020019081526020016000206002018190555050505050565b60006133dc836005016040518060600160405290816002820180548060200260200160405190810160405280929190818152602001828054801561333557602002820191906000526020600020905b8160009054906101000a900473ffffffffffffffffffffffffffffffffffffffff1673ffffffffffffffffffffffffffffffffffffffff16815260200190600101908083116132eb575b50505050508152602001600382018054806020026020016040519081016040528092919081815260200182805480156133c357602002820191906000526020600020905b8160009054906101000a900473ffffffffffffffffffffffffffffffffffffffff1673ffffffffffffffffffffffffffffffffffffffff1681526020019060010190808311613379575b5050505050815260200160048201548152505083614a87565b6133f25782600501600201805490509050613400565b826005016003018054905090505b92915050565b6000613546836005016040518060600160405290816002820180548060200260200160405190810160405280929190818152602001828054801561349f57602002820191906000526020600020905b8160009054906101000a900473ffffffffffffffffffffffffffffffffffffffff1673ffffffffffffffffffffffffffffffffffffffff1681526020019060010190808311613455575b505050505081526020016003820180548060200260200160405190810160405280929190818152602001828054801561352d57602002820191906000526020600020905b8160009054906101000a900473ffffffffffffffffffffffffffffffffffffffff1673ffffffffffffffffffffffffffffffffffffffff16815260200190600101908083116134e3575b5050505050815260200160048201548152505083614a87565b6135a25761359b600161358d6305f5e10061357f61356688600289613cee565b8860050160020180549050614b3090919063ffffffff16565b614bb690919063ffffffff16565b614aa890919063ffffffff16565b90506135f6565b6135f360016135e56305f5e1006135d76135be88600289613cee565b8860050160030180549050614b3090919063ffffffff16565b614bb690919063ffffffff16565b614aa890919063ffffffff16565b90505b92915050565b8084600f01600201819055508184600f01600301819055508284600f0160040181905550600184600f0160000160008481526020019081526020016000206003018190555050505050565b6000806000905061378c87600a01604051806060016040529081600282018054806020026020016040519081016040528092919081815260200182805480156136e557602002820191906000526020600020905b8160009054906101000a900473ffffffffffffffffffffffffffffffffffffffff1673ffffffffffffffffffffffffffffffffffffffff168152602001906001019080831161369b575b505050505081526020016003820180548060200260200160405190810160405280929190818152602001828054801561377357602002820191906000526020600020905b8160009054906101000a900473ffffffffffffffffffffffffffffffffffffffff1673ffffffffffffffffffffffffffffffffffffffff1681526020019060010190808311613729575b5050505050815260200160048201548152505087614a87565b6138205760008090505b845181101561381a5787600a0160000160008683815181106137b457fe5b602002602001015173ffffffffffffffffffffffffffffffffffffffff1673ffffffffffffffffffffffffffffffffffffffff16815260200190815260200160002060009054906101000a900460ff1661380d57600191505b8080600101915050613796565b506138ac565b60008090505b84518110156138aa5787600a01600101600086838151811061384457fe5b602002602001015173ffffffffffffffffffffffffffffffffffffffff1673ffffffffffffffffffffffffffffffffffffffff16815260200190815260200160002060009054906101000a900460ff1661389d57600191505b8080600101915050613826565b505b600084511180156138be575082518451145b80156138c8575080155b80156139755750848685518551878760405160200180868152602001858152602001848152602001838051906020019060200280838360005b8381101561391c578082015181840152602081019050613901565b50505050905001828051906020019060200280838360005b8381101561394f578082015181840152602081019050613934565b505050509050019550505050505060405160208183030381529060405280519060200120145b91505095945050505050565b81600f0160040154826017018190555060008090505b82600f01600001600083815260200190815260200160002060010180549050811015613a825782600f016000016000838152602001908152602001600020600001600084600f0160000160008581526020019081526020016000206001018381548110613a0057fe5b9060005260206000200160009054906101000a900473ffffffffffffffffffffffffffffffffffffffff1673ffffffffffffffffffffffffffffffffffffffff1673ffffffffffffffffffffffffffffffffffffffff16815260200190815260200160002060006101000a81549060ff02191690558080600101915050613997565b5081600f0160000160008281526020019081526020016000206001016000613aaa9190615be6565b600082600f01600001600083815260200190815260200160002060020181905550600082600f01600001600083815260200190815260200160002060030181905550600082600f01600001600083815260200190815260200160002060040160006101000a81548160ff0219169083151502179055505050565b8282613b2f82614266565b811015613ba4576040517f08c379a00000000000000000000000000000000000000000000000000000000081526004018080602001828103825260198152602001807f4d7573742062652066757475726520726577617264734461790000000000000081525060200191505060405180910390fd5b848360008090505b8151811015613c9957826000016000838381518110613bc757fe5b602002602001015173ffffffffffffffffffffffffffffffffffffffff1673ffffffffffffffffffffffffffffffffffffffff16815260200190815260200160002060020160149054906101000a900460ff16613c8c576040517f08c379a00000000000000000000000000000000000000000000000000000000081526004018080602001828103825260168152602001807f4170706c69636174696f6e206d7573742065786973740000000000000000000081525060200191505060405180910390fd5b8080600101915050613bac565b5086600a016004015486118015613cba5750600087600a0160020180549050115b15613ccc57613ccb87600a01614c6b565b5b613cd987600a0186614e9d565b8587600a016004018190555050505050505050565b6000836004016000846006811115613d0257fe5b8152602001908152602001600020600201548210613d4557836004016000846006811115613d2c57fe5b8152602001908152602001600020600001549050613d6c565b836004016000846006811115613d5757fe5b81526020019081526020016000206001015490505b9392505050565b600073ffffffffffffffffffffffffffffffffffffffff168273ffffffffffffffffffffffffffffffffffffffff161415613e16576040517f08c379a000000000000000000000000000000000000000000000000000000000815260040180806020018281038252601f8152602001807f4d75737420616c6c6f6361746520746f206e6f6e20307820616464726573730081525060200191505060405180910390fd5b6000613e2360008061523b565b90508386601c0160008773ffffffffffffffffffffffffffffffffffffffff1673ffffffffffffffffffffffffffffffffffffffff1681526020019081526020016000206000838152602001908152602001600020600201541015613ed3576040517f08c379a0000000000000000000000000000000000000000000000000000000008152600401808060200182810382526025815260200180615cfc6025913960400191505060405180910390fd5b6000613ede87614266565b9050613ef1878787600080866001614314565b613f018787878787866000614314565b50505050505050565b6000838560000160003373ffffffffffffffffffffffffffffffffffffffff1673ffffffffffffffffffffffffffffffffffffffff16815260200190815260200160002060000181905550828560000160003373ffffffffffffffffffffffffffffffffffffffff1673ffffffffffffffffffffffffffffffffffffffff16815260200190815260200160002060010160006101000a81548173ffffffffffffffffffffffffffffffffffffffff021916908373ffffffffffffffffffffffffffffffffffffffff160217905550818560000160003373ffffffffffffffffffffffffffffffffffffffff1673ffffffffffffffffffffffffffffffffffffffff16815260200190815260200160002060020160006101000a81548173ffffffffffffffffffffffffffffffffffffffff021916908373ffffffffffffffffffffffffffffffffffffffff1602179055508460000160003373ffffffffffffffffffffffffffffffffffffffff1673ffffffffffffffffffffffffffffffffffffffff16815260200190815260200160002060020160149054906101000a900460ff166141da5784600101339080600181540180825580915050600190039060005260206000200160009091909190916101000a81548173ffffffffffffffffffffffffffffffffffffffff021916908373ffffffffffffffffffffffffffffffffffffffff16021790555060018560000160003373ffffffffffffffffffffffffffffffffffffffff1673ffffffffffffffffffffffffffffffffffffffff16815260200190815260200160002060020160146101000a81548160ff02191690831515021790555060008560000160003373ffffffffffffffffffffffffffffffffffffffff1673ffffffffffffffffffffffffffffffffffffffff16815260200190815260200160002060020160156101000a81548160ff021916908360018111156141d457fe5b02179055505b600060018111156141e757fe5b9050949350505050565b600061425d662386f26fc1000061424f61420d87600188613cee565b61424161421c8960008a613cee565b614233888b601601546142ca90919063ffffffff16565b614b3090919063ffffffff16565b614b3090919063ffffffff16565b614bb690919063ffffffff16565b90509392505050565b600080826014015411156142bb576142b460016142a684601401546142988660150154426142ca90919063ffffffff16565b614bb690919063ffffffff16565b614aa890919063ffffffff16565b90506142c0565b600090505b919050565b600a81565b600061430c83836040518060400160405280601e81526020017f536166654d6174683a207375627472616374696f6e206f766572666c6f7700008152506152a0565b905092915050565b6000614320858561523b565b905081156143d6578588601c0160008973ffffffffffffffffffffffffffffffffffffffff1673ffffffffffffffffffffffffffffffffffffffff168152602001908152602001600020600083815260200190815260200160002060020154116143d5576040517f08c379a0000000000000000000000000000000000000000000000000000000008152600401808060200182810382526024815260200180615d6a6024913960400191505060405180910390fd5b5b87601c0160008873ffffffffffffffffffffffffffffffffffffffff1673ffffffffffffffffffffffffffffffffffffffff168152602001908152602001600020600082815260200190815260200160002060030160009054906101000a900460ff1661468957600188601c0160008973ffffffffffffffffffffffffffffffffffffffff1673ffffffffffffffffffffffffffffffffffffffff168152602001908152602001600020600083815260200190815260200160002060030160006101000a81548160ff02191690831515021790555087601d0160008873ffffffffffffffffffffffffffffffffffffffff1673ffffffffffffffffffffffffffffffffffffffff168152602001908152602001600020819080600181540180825580915050600190039060005260206000200160009091909190915055600188601d0160008973ffffffffffffffffffffffffffffffffffffffff1673ffffffffffffffffffffffffffffffffffffffff168152602001908152602001600020805490500388601c0160008973ffffffffffffffffffffffffffffffffffffffff1673ffffffffffffffffffffffffffffffffffffffff16815260200190815260200160002060008381526020019081526020016000206004018190555060405180604001604052808673ffffffffffffffffffffffffffffffffffffffff1681526020018581525088601c0160008973ffffffffffffffffffffffffffffffffffffffff1673ffffffffffffffffffffffffffffffffffffffff168152602001908152602001600020600083815260200190815260200160002060000160008201518160000160006101000a81548173ffffffffffffffffffffffffffffffffffffffff021916908373ffffffffffffffffffffffffffffffffffffffff160217905550602082015181600101559050505b816147ed576146f68689601c0160008a73ffffffffffffffffffffffffffffffffffffffff1673ffffffffffffffffffffffffffffffffffffffff168152602001908152602001600020600084815260200190815260200160002060020154614aa890919063ffffffff16565b88601c0160008973ffffffffffffffffffffffffffffffffffffffff1673ffffffffffffffffffffffffffffffffffffffff1681526020019081526020016000206000838152602001908152602001600020600201819055506147a38689601e0160008a73ffffffffffffffffffffffffffffffffffffffff1673ffffffffffffffffffffffffffffffffffffffff16815260200190815260200160002054614aa890919063ffffffff16565b88601e0160008973ffffffffffffffffffffffffffffffffffffffff1673ffffffffffffffffffffffffffffffffffffffff168152602001908152602001600020819055506149b2565b6148558689601c0160008a73ffffffffffffffffffffffffffffffffffffffff1673ffffffffffffffffffffffffffffffffffffffff1681526020019081526020016000206000848152602001908152602001600020600201546142ca90919063ffffffff16565b88601c0160008973ffffffffffffffffffffffffffffffffffffffff1673ffffffffffffffffffffffffffffffffffffffff1681526020019081526020016000206000838152602001908152602001600020600201819055506149028689601e0160008a73ffffffffffffffffffffffffffffffffffffffff1673ffffffffffffffffffffffffffffffffffffffff168152602001908152602001600020546142ca90919063ffffffff16565b88601e0160008973ffffffffffffffffffffffffffffffffffffffff1673ffffffffffffffffffffffffffffffffffffffff16815260200190815260200160002081905550600088601c0160008973ffffffffffffffffffffffffffffffffffffffff1673ffffffffffffffffffffffffffffffffffffffff16815260200190815260200160002060008381526020019081526020016000206002015414156149b1576149b0888883615360565b5b5b8473ffffffffffffffffffffffffffffffffffffffff16838873ffffffffffffffffffffffffffffffffffffffff167f40f7b5ee3e8e2819a427b50f78f22069ed0b92def393afb80ae7cf8f1f25fb48878c601c0160008d73ffffffffffffffffffffffffffffffffffffffff1673ffffffffffffffffffffffffffffffffffffffff1681526020019081526020016000206000878152602001908152602001600020600201548b60405180848152602001838152602001828152602001935050505060405180910390a45050505050505050565b600082604001518210614a9d5760009050614aa2565b600190505b92915050565b600080828401905083811015614b26576040517f08c379a000000000000000000000000000000000000000000000000000000000815260040180806020018281038252601b8152602001807f536166654d6174683a206164646974696f6e206f766572666c6f77000000000081525060200191505060405180910390fd5b8091505092915050565b600080831415614b435760009050614bb0565b6000828402905082848281614b5457fe5b0414614bab576040517f08c379a0000000000000000000000000000000000000000000000000000000008152600401808060200182810382526021815260200180615ca26021913960400191505060405180910390fd5b809150505b92915050565b6000614bf883836040518060400160405280601a81526020017f536166654d6174683a206469766973696f6e206279207a65726f000000000000815250615711565b905092915050565b600080614c5e85614c5061016d8702614c3d61016d614c2f662386f26fc100008a614bb690919063ffffffff16565b614bb690919063ffffffff16565b6001010a88614b3090919063ffffffff16565b6142ca90919063ffffffff16565b9050809150509392505050565b600080826003018054905014905080158015614c9557508160020180549050826003018054905014155b15614ca857614ca3826157d7565b600190505b60008090505b8260020180549050811015614e98578115614d665782600301836002018281548110614cd657fe5b9060005260206000200160009054906101000a900473ffffffffffffffffffffffffffffffffffffffff169080600181540180825580915050600190039060005260206000200160009091909190916101000a81548173ffffffffffffffffffffffffffffffffffffffff021916908373ffffffffffffffffffffffffffffffffffffffff160217905550614df8565b826002018181548110614d7557fe5b9060005260206000200160009054906101000a900473ffffffffffffffffffffffffffffffffffffffff16836003018281548110614daf57fe5b9060005260206000200160006101000a81548173ffffffffffffffffffffffffffffffffffffffff021916908373ffffffffffffffffffffffffffffffffffffffff1602179055505b6001836001016000856002018481548110614e0f57fe5b9060005260206000200160009054906101000a900473ffffffffffffffffffffffffffffffffffffffff1673ffffffffffffffffffffffffffffffffffffffff1673ffffffffffffffffffffffffffffffffffffffff16815260200190815260200160002060006101000a81548160ff0219169083151502179055508080600101915050614cae565b505050565b600080836002018054905014905080158015614ec157508151836002018054905014155b15614ed457614ecf83615897565b600190505b60008090505b825181101561504c578115614f665783600201838281518110614ef957fe5b60200260200101519080600181540180825580915050600190039060005260206000200160009091909190916101000a81548173ffffffffffffffffffffffffffffffffffffffff021916908373ffffffffffffffffffffffffffffffffffffffff160217905550614fd2565b828181518110614f7257fe5b6020026020010151846002018281548110614f8957fe5b9060005260206000200160006101000a81548173ffffffffffffffffffffffffffffffffffffffff021916908373ffffffffffffffffffffffffffffffffffffffff1602179055505b6001846000016000858481518110614fe657fe5b602002602001015173ffffffffffffffffffffffffffffffffffffffff1673ffffffffffffffffffffffffffffffffffffffff16815260200190815260200160002060006101000a81548160ff0219169083151502179055508080600101915050614eda565b50505050565b600061505f60008061523b565b9050600085601c0160008673ffffffffffffffffffffffffffffffffffffffff1673ffffffffffffffffffffffffffffffffffffffff16815260200190815260200160002060008381526020019081526020016000206002015490508381106150d8576150d3868686600080886001614314565b615233565b60008111156150f3576150f2868683600080886001614314565b5b600086601d0160008773ffffffffffffffffffffffffffffffffffffffff1673ffffffffffffffffffffffffffffffffffffffff16815260200190815260200160002080549050111561523257615231868661515884886142ca90919063ffffffff16565b89601c0160008a73ffffffffffffffffffffffffffffffffffffffff1673ffffffffffffffffffffffffffffffffffffffff1681526020019081526020016000208a601d0160008b73ffffffffffffffffffffffffffffffffffffffff1673ffffffffffffffffffffffffffffffffffffffff16815260200190815260200160002080548060200260200160405190810160405280929190818152602001828054801561522457602002820191906000526020600020905b815481526020019060010190808311615210575b5050505050886001615957565b5b5b505050505050565b60008282604051602001808373ffffffffffffffffffffffffffffffffffffffff1673ffffffffffffffffffffffffffffffffffffffff1681526020018281526020019250505060405160208183030381529060405280519060200120905092915050565b600083831115829061534d576040517f08c379a00000000000000000000000000000000000000000000000000000000081526004018080602001828103825283818151815260200191508051906020019080838360005b838110156153125780820151818401526020810190506152f7565b50505050905090810190601f16801561533f5780820380516001836020036101000a031916815260200191505b509250505060405180910390fd5b5060008385039050809150509392505050565b600083601c0160008473ffffffffffffffffffffffffffffffffffffffff1673ffffffffffffffffffffffffffffffffffffffff168152602001908152602001600020600083815260200190815260200160002060030160006101000a81548160ff021916908315150217905550600083601c0160008473ffffffffffffffffffffffffffffffffffffffff1673ffffffffffffffffffffffffffffffffffffffff168152602001908152602001600020600083815260200190815260200160002060020181905550600083601c0160008473ffffffffffffffffffffffffffffffffffffffff1673ffffffffffffffffffffffffffffffffffffffff1681526020019081526020016000206000838152602001908152602001600020600401549050600084601d0160008573ffffffffffffffffffffffffffffffffffffffff1673ffffffffffffffffffffffffffffffffffffffff1681526020019081526020016000208054905090506000600182038310905080156156a8578286601c0160008773ffffffffffffffffffffffffffffffffffffffff1673ffffffffffffffffffffffffffffffffffffffff168152602001908152602001600020600088601d0160008973ffffffffffffffffffffffffffffffffffffffff1673ffffffffffffffffffffffffffffffffffffffff168152602001908152602001600020600186038154811061556f57fe5b906000526020600020015481526020019081526020016000206004018190555085601d0160008673ffffffffffffffffffffffffffffffffffffffff1673ffffffffffffffffffffffffffffffffffffffff16815260200190815260200160002060018303815481106155de57fe5b906000526020600020015486601d0160008773ffffffffffffffffffffffffffffffffffffffff1673ffffffffffffffffffffffffffffffffffffffff168152602001908152602001600020848154811061563557fe5b906000526020600020018190555085601d0160008673ffffffffffffffffffffffffffffffffffffffff1673ffffffffffffffffffffffffffffffffffffffff16815260200190815260200160002080548061568d57fe5b60019003818190600052602060002001600090559055615709565b85601d0160008673ffffffffffffffffffffffffffffffffffffffff1673ffffffffffffffffffffffffffffffffffffffff1681526020019081526020016000208054806156f257fe5b600190038181906000526020600020016000905590555b505050505050565b600080831182906157bd576040517f08c379a00000000000000000000000000000000000000000000000000000000081526004018080602001828103825283818151815260200191508051906020019080838360005b83811015615782578082015181840152602081019050615767565b50505050905090810190601f1680156157af5780820380516001836020036101000a031916815260200191505b509250505060405180910390fd5b5060008385816157c957fe5b049050809150509392505050565b60008090505b81600301805490508110156158835781600101600083600301838154811061580157fe5b9060005260206000200160009054906101000a900473ffffffffffffffffffffffffffffffffffffffff1673ffffffffffffffffffffffffffffffffffffffff1673ffffffffffffffffffffffffffffffffffffffff16815260200190815260200160002060006101000a81549060ff021916905580806001019150506157dd565b508060030160006158949190615be6565b50565b60008090505b8160020180549050811015615943578160000160008360020183815481106158c157fe5b9060005260206000200160009054906101000a900473ffffffffffffffffffffffffffffffffffffffff1673ffffffffffffffffffffffffffffffffffffffff1673ffffffffffffffffffffffffffffffffffffffff16815260200190815260200160002060006101000a81549060ff0219169055808060010191505061589d565b508060020160006159549190615be6565b50565b6001835114156159ed576159e88787878760008860008151811061597757fe5b6020026020010151815260200190815260200160002060000160000160009054906101000a900473ffffffffffffffffffffffffffffffffffffffff16886000896000815181106159c457fe5b60200260200101518152602001908152602001600020600001600101548787614314565b615bdd565b6159f5615c07565b60008090505b8451811015615ab857615a9689601e0160008a73ffffffffffffffffffffffffffffffffffffffff1673ffffffffffffffffffffffffffffffffffffffff16815260200190815260200160002054615a888b601801548960008a8781518110615a6057fe5b6020026020010151815260200190815260200160002060020154614b3090919063ffffffff16565b614bb690919063ffffffff16565b8282600a8110615aa257fe5b60200201818152505080806001019150506159fb565b50600080905060008090505b8551811015615bd95760006001875103821015615b1b57615b148b60180154615b068685600a8110615af257fe5b60200201518c614b3090919063ffffffff16565b614bb690919063ffffffff16565b9050615b31565b615b2e89846142ca90919063ffffffff16565b90505b615bb68b8b838b60008c8881518110615b4657fe5b6020026020010151815260200190815260200160002060000160000160009054906101000a900473ffffffffffffffffffffffffffffffffffffffff168c60008d8981518110615b9257fe5b60200260200101518152602001908152602001600020600001600101548b8b614314565b615bc98184614aa890919063ffffffff16565b9250508080600101915050615ac4565b5050505b50505050505050565b5080546000825590600052602060002090810190615c049190615c2a565b50565b604051806101400160405280600a90602082028036833780820191505090505090565b615c4c91905b80821115615c48576000816000905550600101615c30565b5090565b9056fe4d75737420686176652076616c6964207265776172647320616e642073696465636861696e2061646472657373657343616e6e6f742072657374616b65202d206e6f7468696e6720746f2072657374616b65536166654d6174683a206d756c7469706c69636174696f6e206f766572666c6f774d75737420626520666f7220612070726576696f7573206461792062757420616674657220746865206c61737420726577617264732064617943616e6e6f7420616c6c6f63617465206d6f7265207468616e20756e616c6c6f63617465644d757374206265206f6e65207375626d697373696f6e207065722076616c696461746f724d75737420626520612070726576696f75732073656c65637465642076616c696461746f7243616e6e6f74207375627472616374206e6f7420656e6f75676820616c6c6f636174656453756d207a65726f206f72206e6f6e65206578697374696e6720617070207375626d69747465644d75737420626520612063757272656e742073656c65637465642076616c696461746f7252657761726473206461746120697320696e76616c6964202d20657863656564206461696c7920766172696174696f6ea264697066735822122098332a0797b20ac661f234aa9dc38ba47e49ee8c20aa3b48ed233b297df1e36664736f6c63430006040033",
  "compiler": {
    "name": "solc",
    "version": "0.6.4+commit.1dca32f3.Emscripten.clang",
    "optimizer": {
      "enabled": false,
      "runs": 200
    },
    "evmVersion": "istanbul"
  }
}